:020000040800F2
:1000000000010020C1000008DD2D000829DA0008E9
:10001000292800082928000829280008292800087C
:10002000292800082928000829280008292800086C
:10003000292800082928000829280008292800085C
:100040002928000881430008B54300082928000832
:10005000292800083D42000879420008B5420008FE
:100060002928000835400008F13D0008653E0008D9
:10007000F15800082928000829280008A540000890
:100080000D470008292800082928000825470008EE
:1000900029280008292800082928000829280008FC
:1000A000292800082928000829280008B547000841
:1000B000292800082928000829280008854C00085C
:1000C00072B6224880F30988022080F31488BFF3B7
:1000D0006F8F02F089FB04F0ADFE1D481D491E4ADA
:1000E000914202DA08600431FAE71C49174A91424A
:1000F00002DA08600431FAE719491A4A1A4B9A429F
:1001000004DA0868106004310432F8E70020174967
:10011000174A914202DA08600431FAE702F06AFBFA
:1001200002F064FB134C144DAC4203DA216888479B
:100130000434F9E70DF0F2FA104C114DAC4203DA39
:10014000216888470434F9E70E4908472003002056
:1001500055555555000000200001002000010020E9
:10016000A0B9010820030020B0050020B005002040
:100170006C3B0020C0000008C0000008C000000860
:10018000C0000008F1270008F0B544464D46564629
:100190005F46F0B46B46CB60C3689D46F0BCA0469A
:1001A000A946B246BB46F0BD62B6281CA047002057
:1001B00002F0C4FD02F024FD014A024B1360FEE789
:1001C00004ED00E00000008002B4714649084900D7
:1001D000095C49008E4402BC7047C04603B47146B6
:1001E000490840004900095A49008E4403BC704741
:1001F000002243088B4274D303098B425FD3030A66
:100200008B4244D3030B8B4228D3030C8B420DD378
:10021000FF22090212BA030C8B4202D31212090206
:1002200065D0030B8B4219D300E0090AC30B8B4244
:1002300001D3CB03C01A5241830B8B4201D38B03F2
:10024000C01A5241430B8B4201D34B03C01A524197
:10025000030B8B4201D30B03C01A5241C30A8B42DA
:1002600001D3CB02C01A5241830A8B4201D38B02C5
:10027000C01A5241430A8B4201D34B02C01A524169
:10028000030A8B4201D30B02C01A5241CDD2C309DB
:100290008B4201D3CB01C01A524183098B4201D357
:1002A0008B01C01A524143098B4201D34B01C01A42
:1002B000524103098B4201D30B01C01A5241C308BA
:1002C0008B4201D3CB00C01A524183088B4201D329
:1002D0008B00C01A524143088B4201D34B00C01A15
:1002E0005241411A00D20146524110467047FFE781
:1002F00001B5002000F0F0F802BDC0460029F7D09B
:1003000076E7704703460B437FD4002243088B42B5
:1003100074D303098B425FD3030A8B4244D3030B8C
:100320008B4228D3030C8B420DD3FF22090212BA51
:10033000030C8B4202D31212090265D0030B8B42CD
:1003400019D300E0090AC30B8B4201D3CB03C01AB7
:100350005241830B8B4201D38B03C01A5241430B92
:100360008B4201D34B03C01A5241030B8B4201D382
:100370000B03C01A5241C30A8B4201D3CB02C01AED
:100380005241830A8B4201D38B02C01A5241430A65
:100390008B4201D34B02C01A5241030A8B4201D354
:1003A0000B02C01A5241CDD2C3098B4201D3CB01FB
:1003B000C01A524183098B4201D38B01C01A5241AA
:1003C00043098B4201D34B01C01A524103098B42AE
:1003D00001D30B01C01A5241C3088B4201D3CB0099
:1003E000C01A524183088B4201D38B00C01A52417C
:1003F00043088B4201D34B00C01A5241411A00D22C
:1004000001465241104670475DE0CA0F00D0494294
:10041000031000D34042534000229C4603098B4204
:100420002DD3030A8B4212D3FC22890112BA030A8C
:100430008B420CD3890192118B4208D3890192110E
:100440008B4204D389013AD0921100E08909C30993
:100450008B4201D3CB01C01A524183098B4201D395
:100460008B01C01A524143098B4201D34B01C01A80
:10047000524103098B4201D30B01C01A5241C308F8
:100480008B4201D3CB00C01A524183088B4201D367
:100490008B00C01A5241D9D243088B4201D34B0082
:1004A000C01A5241411A00D20146634652415B10C4
:1004B000104601D34042002B00D5494270476346A5
:1004C0005B1000D3404201B5002000F005F802BDEA
:1004D0000029F8D016E770477047C0468446081CCC
:1004E0006146FFE71FB500F06DFB002801D4002135
:1004F000C8421FBD10B500F0EFFA4042013010BDF8
:1005000010B500F05FFB002801DB002010BD0120CA
:1005100010BDC04610B500F055FB002801DD0020DD
:1005200010BD012010BDC04610B500F0FDFA002836
:1005300001DC002010BD012010BDC04610B500F048
:10054000F3FA002801DA002010BD012010BDC046DA
:100550009E2110B5C905041CFFF7F0FF002803D148
:10056000201C00F08BFE10BD9E21201CC90500F050
:10057000ABFC00F083FE80231B069C466044F2E740
:10058000F8B54746CE4643025B0A4400C20F9C467C
:100590004800DD004B02240E5B0A000E80B5984631
:1005A00026009146C90FDB00271A8A4229D0002F66
:1005B00015DD00284AD1002B00D095E0ED08FF2C76
:1005C00000D188E06B025B0AE6B25B02F605580ACE
:1005D0003043D20710430CBC90469946F8BD002F1B
:1005E00000D087E0601CC0B2012800DCB6E0EE1A43
:1005F000720100D5C5E0002E3DD100220026002367
:10060000E3E7002F00DC96E000285DD0FF2C60D0EF
:100610008022D20413431B2F00DDECE02022D21BEA
:1006200018009340F8405A1E93410343ED186B01A4
:100630007BD50134FF2C00D1B7E0012207262A40E8
:100640006B089A4D1D4015432E4029E0FF2CB5D074
:100650008022D20413431B2F00DDB2E02022D21BE4
:1006600019009340F9405A1E93410B43ED1A6B0158
:100670005BD5AD01AE09300002F090F80538864038
:10068000844265DC041B330020200134E340041B5A
:10069000A640751EAE41334307261D0000241E40B0
:1006A00001224B461A40002E04D00F232B40042B6E
:1006B00000D004356B0100D480E70134E6B2FF2C92
:1006C0002FD1FF26002380E7002B52D1FF2C00D032
:1006D00074E70A00ED08002DF3D08023DB032B43E1
:1006E0005B025B0AFF2670E7013F002FBED0FF2CA4
:1006F000B1D163E7002C47D0FF2869D08024E404FF
:100700007A4225431B2A00DDC5E02C002026D44078
:10071000B21A95406A1E954125435D1B0400894627
:10072000A5E7AB015B0A50E7002401224B461A40C3
:100730006B07BAD142E7002F3BD10134E0B2012868
:100740004ADDFF2CBDD00726ED186D082E40A7E727
:100750000723574D241A35401E40A1E7002C1BD11A
:10076000002D6ED1002B00D19AE00A001D003C0044
:1007700024E7013F002F00D158E7FF2C00D04AE7C3
:10078000A7E75E1B894676E7002D1CD10A00FF28EB
:100790001FD004001D0011E7002D5DD1002B17D1E3
:1007A00080230022DB03FF260FE70A00FF26002339
:1007B0000BE7002C21D1002D66D1FF28E9D11D00C7
:1007C00087E7012352E77A1CA7D0FA43FF2899D183
:1007D0000A001D00FF24F1E6002E21D1002D4FD08C
:1007E000002B4CD0ED186B019ED5314B07362E40B7
:1007F00001241D4054E7012318E7FF28DFD080249F
:10080000E4047F4225431B2F4DDC2026F61B2C00E1
:10081000B540FC406A1E95412543ED18040006E7EB
:10082000002DCCD0002B00D153E780216046C903B6
:10083000084203D04046084200D11D00012111406A
:1008400047E7002B00D1B9E6EA1A500125D5072663
:100850005D1B2E40894623E7FF24002B00D1ADE627
:1008600080226046D203104204D04046104201D19B
:100870001D00894601224B46FF241A409EE62B00AC
:10088000DD080A0000249DE67A1CC6D0FF43FF283D
:10089000B9D11D001DE701253FE7151E00D044E733
:1008A0000022002391E60125B7E7C046FFFFFF7D48
:1008B000FFFFFFFBF8B557464E464546DE4644026D
:1008C000E0B546008846640A360EC70F002E63D096
:1008D000FF2E24D08023E400DB041C430023994630
:1008E0009B467F3E434642465D02D20F5B006D0A47
:1008F0001B0E9046924665D0FF2B55D080220021DA
:10090000ED00D2047F3B1543F61A43464A467B402E
:100910000F2A00D98DE06D48920082589746002C2E
:1009200054D108239946063BFF269B46DAE700256B
:10093000534602291BD0032900D1BFE0012928D04A
:1009400030007F30002820DD6A0704D00F222A40C3
:10095000042A00D004352A0103D530005C4A8030D7
:100960001540FE2803DCAC01640AC2B201E0FF229C
:1009700000246402D205600ADB07104318433CBC24
:1009800090469946A246AB46F8BD0122101A1B2894
:100990007CDD00220024ECE7002C1DD104239946C5
:1009A000033B00269B469DE7FF3E002D20D1022100
:1009B00043464A467B400A430F2AD8D8454892000E
:1009C00082589746002D19D10121F1E70C23994651
:1009D000093BFF269B4685E7200001F0DFFE7626D7
:1009E000431F9C4000237642361A99469B4679E77E
:1009F0004A4603231A439146032186E7280001F063
:100A0000CDFE431F36189D40763600217DE78024B9
:100A10000023E403FF22ACE700258023DB031C4214
:100A200028D01D4226D12B435C02640A4346FF2294
:100A30009FE762016C01A24224D21B210025013EE6
:100A4000012710006D005200002801DB944201D8FC
:100A5000121B3D4301390029F3D11400621E944159
:100A600025436DE7BA46594625005346022900D072
:100A700061E77CE78023DB031C436402640A3B00DC
:100A8000FF2276E7121B1A210125D9E79E362A009C
:100A9000B5402C00C240651EAC411443620704D02F
:100AA0000F222240042A00D00434620103D4A4019E
:100AB000640A00225DE7012200245AE78024E4034F
:100AC0002C436402640AFF2253E7C0461C5B010802
:100AD000FFFFFFF75C5B010870B542004E024C005F
:100AE00045026D0A120EC30F760A240EC90FFF2AA3
:100AF0000FD0FF2C11D00120A24200D070BDB54212
:100B0000FCD18B420DD0002AF8D12800451EA84107
:100B1000F4E70120002DF1D1EBE70120002EEDD10B
:100B2000E9E70020EAE7C04670B54A004E024502F8
:100B300044006D0A240EC30F760A120EC90FFF2C53
:100B400015D0FF2A0ED0002C15D1002A01D1002E7D
:100B50001CD0002D14D08B4227D00220013B18401E
:100B6000013870BD002EEED002204042F9E7002D82
:100B7000FAD1FF2A0ED0002A0ED1002EEDD00BE0C4
:100B800001230139994308000130EAE70020002DD4
:100B9000E7D0E2E7002EE7D18B42DED1944205DDBB
:100BA0000221581E08400138DBE70024A24204DC81
:100BB000B542D2D80020B542D3D2581E0123984363
:100BC0000130CEE730B5420044024D02C30F480069
:100BD000640A120E6D0A000EC90FFF2A12D0FF28F8
:100BE0000CD0002A12D1002819D1002D17D1002CC9
:100BF0002BD00220013B1840013826E0002DF0D018
:100C0000022022E0002CFBD1FF281FD000281FD19A
:100C1000002D1DD10220013B1840013815E0002CA9
:100C20000ED08B42E5D10022904204DCAC42E0D8E9
:100C30000020AC4209D2581E01239843013004E041
:100C40000123013999430800013030BD002DD7D16F
:100C50008B42CED18242E7DD0221581E0840013886
:100C6000F3E7C046F0B54E4657464546DE46E0B58A
:100C700043025B0A450083B00F1C99462D0EC60F38
:100C8000002D57D0FF2D24D08020DB00C004184356
:100C9000002381469A469B467F3D7C027A00FB0FEB
:100CA000640A120E984623D0FF2A4BD0E30080241A
:100CB0000020E4047F3A1C43AD186B1C47460193A7
:100CC000534677403A000F2B48D87D499B00CB58BC
:100CD0009F46002B00D085E008339A46063B9B4692
:100CE0007C027A00FB0FFF25640A120E9846DBD1C6
:100CF000002C00D090E0524601231A439246012076
:100D0000DBE74C4658461700022824D0032800D1C0
:100D1000CFE00022002301284DD15802D205400A1D
:100D2000FF071043384303B03CBC90469946A246A7
:100D3000AB46F0BD002B5BD104239A46033B002554
:100D40009B46AAE7FF35002C60D1524602231A4386
:100D500092460220B1E7FF220023DEE74B461B0C40
:100D60009C464B462604360C180461463300220C80
:100D70006446000C43434E435043544380191A0CBD
:100D80001218964203D9802149028C4664441B0400
:100D90001B0C1004C01883015E1EB341800E184363
:100DA000130C1B199B0103431C00230179D501235C
:100DB00062081C401443019A7F32002A4DDD63070C
:100DC00004D00F232340042B00D00434230103D587
:100DD0003C4B019A1C408032FE2ABCDCA3015B0A1A
:100DE000D2B29AE70C239A46093BFF259B4654E76B
:100DF000180001F0D3FC4A46431F76259A40002391
:100E00006D4291462D1A9A469B4646E75246032369
:100E10001A439246032050E7200001F0BFFC431F15
:100E20002D1A9C40763D002047E780230027DB03F6
:100E3000FF2272E7424666E74C463200584662E7B8
:100E400080234A46DB031A4222D01C4220D123438E
:100E50005B025B0A4746FF225FE701239A1A1B2ABF
:100E600021DC23000199D3409E318C401A002300DD
:100E70005C1EA34113435A0704D00F221A40042AD0
:100E800000D004335A0111D49B015B0A002244E7CD
:100E900080234A46DB0313435B025B0A3700FF22D1
:100EA0003BE7019587E70022002336E70122002374
:100EB00033E78023DB0323435B025B0AFF222CE73B
:100EC0009C5B0108FFFFFFF7F8B54746CE4644009C
:100ED000C20F80B547024802400A84466646480071
:100EE0007F0A240EF60025009046FB00000EC90F75
:100EF000B146FF2800D185E001267140261A9142B3
:100F000057D0002E43DD002800D07FE0494600295D
:100F100000D1AAE0013E002E00D0F7E05B1A5A0192
:100F200000D48BE09B019C09200001F037FC0538C0
:100F30008440854200DDD3E0451B2300202001359D
:100F4000EB40451BAC40621E94412343072400251F
:100F50001C40012241460A40002C04D00F211940B8
:100F6000042900D00433590100D480E00135ECB2EB
:100F7000FF2D00D0A3E0FF2400235B02E405580A04
:100F8000D207204310430CBC90469946F8BD002E72
:100F900074D1601CC0B2012800DCA7E04A469C1A4C
:100FA000620100D5B6E0002CBED10022002400234F
:100FB000E3E7002E00DC85E0002846D0FF2C49D076
:100FC00080224846D2041043814601221B2E09DCB0
:100FD00020204C46801B84404A462000F240441E9C
:100FE000A04102439B185A0128D50135FF2D00D19D
:100FF000A8E00122072494491A405B080B401343E0
:101000001C40A6E7002E00D078E775E7FF2C54D0EF
:1010100080224946D2041143894601221B2E09DC55
:1010200020214846891B88404A460100F240481E5C
:1010300081410A439B1A5A0100D573E701224146B8
:101040000A40590700D089E711E04846002858D1E6
:10105000FF2C0CD1DB08002B00D18CE78020C003D3
:1010600003435B025B0AFF2487E7FF2C25D0DB08E4
:10107000FF2DF0D05B025B0AECB27EE7002C4DD076
:10108000FF2818D08024E404724223431B2A00DD89
:10109000C4E01C002025D440AA1A93405A1E934154
:1010A00023434A460500D31A884638E7721CF8D015
:1010B000F243FF28EAD10A004B46FF25D7E79B0100
:1010C0005B0A5AE7002E41D1651CE9B2012945DDD2
:1010D000FF2D00D14FE707244B445B081C4038E745
:1010E00007225A4B2D1A2340144032E7002C1DD101
:1010F000002B7AD14B46002B00D191E00A0000254D
:10110000B5E7013E002E19D14B446CE7FF2C84D18A
:10111000FF25ACE74A468846D41A05E7002BC5D11F
:101120000A00FF28C8D005004B46A0E7002B49D194
:101130004B46002B77D00A00FF2598E7FF2C00D004
:1011400043E787E70A00FF24002316E7002C15D1A8
:10115000002B57D1FF28E6D14B467BE7002C20D14E
:10116000002B57D04946002953D04B445A0168D52B
:101170000724364A1C4001251340EAE6FF28EBD03D
:101180008022D204764213431B2E53DC2025AD1B54
:101190001A00AB40F2405C1EA34113434B440500D0
:1011A00021E7002BD8D04946002900D152E7802101
:1011B000C9030F4200D14DE76046084200D049E71D
:1011C0004B4647E74846FF25002800D14FE78022DD
:1011D000D203174204D06046104201D14B468846E4
:1011E00001224146FF250A4041E7484600281FD01A
:1011F0001A1A500120D54A460724D31A1C408846A3
:101200000025A6E6741CC9D0F643FF28BCD14B4686
:1012100020E799464B460025DB082BE7012340E7F2
:1012200000220023A9E680230022DB03FF24A4E69A
:1012300000251CE70123B1E7002AF1D013000025A7
:10124000FCE60025FAE6C046FFFFFF7DFFFFFFFB3F
:1012500042024B0240004900520A5B0A090E000E8E
:10126000FF2806D00020FF2902D11800431E984114
:101270007047FE38002AFBD1F4E7C0464102420025
:10128000C30F490A120E00207E2A0DD99D2A0CD8C0
:10129000802000040143952A0ADC9620821AD1405E
:1012A0004842002B00D108007047034A9818FBE71A
:1012B000963A9140F4E7C046FFFFFF7F70B50028E3
:1012C0003DD0C317C5185D40C40F280001F066FA71
:1012D0009E22121A962A07DCD2B2082833DD08387B
:1012E00085406802400A23E0992A0BDD0523290086
:1012F0001B1AD94003001B339D402B005D1EAB41E0
:1013000019430D00052801DD431F9D402B000F49A7
:101310000B406E0709D00F263540042D05D004334D
:101320005D0102D59F220B40121A9B01580AD2B2CE
:101330004002D205400AE4071043204370BD002458
:1013400000220020F4E76802400AF1E7FFFFFFFBFC
:1013500070B5041E34D001F021FA9E22121A962A8A
:1013600007DCD2B208282EDD083884406002400A2B
:1013700021E0992A09DD030021001B3399404B1E0F
:10138000994105231B1ADC400C43052801DD431F4E
:101390009C4023000D490B40650709D00F252C40C8
:1013A000042C05D004335C0102D59F220B40121A95
:1013B0009B01580AD2B24002D205400A104370BDC8
:1013C00000220020F7E76002400AF4E7FFFFFFFB7E
:1013D000F0B54F464646D6460C000903C0B5490A4B
:1013E000470F5E0039431F03DB0F9C4665007B0AF5
:1013F000570F1F436D0DE40F760DA146C000B84690
:10140000D200AB1B64457BD0002B5FDD002E00D0EB
:10141000A4E03E00164300D112E15E1E002E00D073
:101420009EE1871A4346B84280410125C91A4042CD
:10143000091A0B0200D431E149024E0A002E00D1F4
:101440006EE1300001F0AAF90300083B1F2B00DD1C
:1014500061E120223900D21A9E40D1409F400E43C4
:101460009D4200DD51E15D1B6B1C1F2B00DD7CE10B
:101470002021C91A3D0030008F408840DD40791E90
:101480008F41310007222843D940002507433A40C5
:10149000002A09D00F233B40042B05D03B1DBB4243
:1014A000BF417F42C9191F000B0200D426E26A1C0B
:1014B000C64B55056D0D9A4200D106E1C44AFF089E
:1014C0000A40530752023B43120B8EE0002B00D020
:1014D000B8E06B1C5B055B0D012B00DC30E1871A6B
:1014E0004346B842B641CB1A76429E1B330200D522
:1014F0004CE13B003343A1D100220024002570E0E1
:10150000002B00DCE5E0002E00D183E0AF4EB542B9
:1015100060D0802636043743B846382B00DC3EE1E5
:10152000434613431F007A1E97413F18874280416C
:10153000404209180B0200D4B0E0A44B01359D4293
:1015400000D1C3E0A24A7B080A4001210F401F439B
:101550005108D30707221F433A4099E79B4EB542F3
:1015600038D0802636043743B846382B00DDDCE01F
:101570001F2B00DC30E11E004746203EF740BC46F2
:10158000202B04D04026F31A46469E4032431700D3
:1015900063467A1E97411F43CCE0002B00D104E242
:1015A0004346134300D159E14B07C0081843802339
:1015B000C9081B03194208D04546ED081D4204D155
:1015C0004346D008590708432900420FC9007F4D00
:1015D0001143C0004B07CA087C49C00803438D4231
:1015E00068D012036D05120B6D0D00211203180057
:1015F000130B0A0D12051A43764B2D0513402B438E
:101600005B00E4075B08234319001CBC9046994625
:10161000A246F0BD3E00164312D05E1E002E00D042
:1016200000E1871887428041414440420918012562
:101630000B0233D5022585E764463300414610008E
:101640001D00C7E7002D00D0DAE00C000443F3D002
:101650005C1C00D19FE15D4CA64200D12FE1DB4331
:10166000382B00DD66E11F2B00DD83E1202405001F
:10167000E41A0F00DD40D940A0404346A7405B1A62
:10168000441EA04198462F433843171ABA4292414C
:1016900043465242991A64463500CAE607223A4048
:1016A000002A00D0F6E64B07CA084849FF083B432A
:1016B0008D4296D11900114300D19EE1802109038A
:1016C0000A431203120B414D8FE71500002200233D
:1016D0008BE7002B00D0C7E06B1C5F057F0D012F4F
:1016E00000DCF1E0394DAB4200D1B9E085180A00C9
:1016F000854289414244494251180722CF076D086B
:101700002F4349083A401D00C2E607223049ED1A2E
:1017100031403A40BCE63E002838864000279FE62C
:10172000380001F03BF820308EE6434613431F009B
:101730007A1E9741C71BB84280414042091A78E699
:101740000E003B0006431343002D61D1002E00D054
:10175000F4E0002B00D11BE164463900100039E7AA
:101760001A4FBB427AD03300FFE630001F3DE840FD
:10177000202B03D04021CB1A9E4037437B1E9F4134
:10178000072207433A400021002589E7171A4346FC
:10179000BA42B641591A76428E1B64464EE61F2B5A
:1017A00000DDADE020264746F61AB740B9461700DF
:1017B000B246DF404E463E4337005646B240561EC4
:1017C000B24117434246DA408918AEE6FF070000EF
:1017D000FFFF7FFFFFFF0F8020264746F61AB74026
:1017E000B9461700B246DF404E463E4337005646E4
:1017F000B240561EB24117434246DA40891A99E771
:101800007F4CA6425BD0802424045B42214327E71F
:10181000002E0CD1002B00D1CBE064463900100023
:10182000774DD7E6764FBB4218D0330075E6002BD4
:1018300014D04B07C00818438023C9081B03194262
:1018400007D0FC081C4204D17907D0080843E146C0
:1018500021004C46420FC9001143C000684DB9E653
:101860001D0000220023C0E6002D5BD10D000543C2
:1018700000D1E2E65D1C00D1B0E0614DAE421FD068
:10188000DB43382B71DC1F2B00DD96E020250F0099
:10189000ED1AAF40B9460700AA46DF404D463D432A
:1018A0002F005546A840D940451EA841884407430B
:1018B000BF18974292415142414435003AE664468E
:1018C00035004146100085E60B000343002D00D093
:1018D00063E6002BF5D04346134300D17AE6871820
:1018E0008742804107224144404209183A400B0296
:1018F00000D4D5E6434B01351940C9E5380069E607
:101900001E004746203EF740BC46202B04D0402610
:10191000F31A46469E403243170063467A1E9741AB
:101920001F4302E6364DAE42CAD080252D045B42ED
:101930002943A6E70843411E8841A6E6002B00D1B3
:1019400048E6871A4346B842B641CB1A76429E1BF8
:1019500033024BD5171A4346BA429241591A5242A2
:10196000891A072264463A4092E501430F00791E26
:101970008F419DE71C000F00203CE740202B03D047
:101980004024E31A99400843411E884138437CE6CD
:101990000022002425E6171A4346BA429241591AFA
:1019A0005242891A6446350043E541461000144D01
:1019B00010E680220024120380E61D000F00203D67
:1019C000EF40BC46202B03D04025EB1A994008433A
:1019D00007006346781E87411F4369E787189742CF
:1019E0009B4141445B42C9183500A3E53B003343AA
:1019F000CED0072231003A4052E600231A00F4E527
:101A0000FF070000FFFF7FFFF0B55746DE464E465A
:101A10004546E0B5834606000F03480087B092466E
:101A20001D003F0B400DCC0F002800D16FE0DE4BB6
:101A3000984238D08023FF001B041F43730F3B43A1
:101A40000193DA4B0027994600239B46F600814418
:101A50002B0369001B0B52469846490DED0F0029D8
:101A600000D185E0D04B994200D173E04346DA00C3
:101A700080231B0413435246CC48520F8446134321
:101A8000524600206144D2008944210069400091FF
:101A90008C46012149448A460F2F00D990E0C44961
:101AA000BF00CF59BF465B463B43019300D06AE17C
:101AB00002230827002681469B46C9E73200584684
:101AC000019B61460091022800D175E0032800D1F6
:101AD000FEE1012800D02CE100230027002600258C
:101AE0003F032A0D3F0BB34812053A4302401B0542
:101AF0001343009A5B00D1075B080B4330001900C9
:101B000007B03CBC90469946A246AB46F0BD5B464A
:101B10003B43019300D12FE1002F00D1A5E1380014
:101B200000F03CFE03000B3B1C2B00DD96E11D2268
:101B3000D31A5A460100DA405E4608398F40130036
:101B40008E403B4301939C4B00271B1A9946002370
:101B50009B467DE7414653460B4393498C46E144FF
:101B6000002B00D01AE102220220174300228CE74A
:101B7000134300D10DE14346002B00D181E14046E3
:101B800000F00CFE02000B3A1C2A00DD72E101009D
:101B9000434608398B4098461D239A1A5346D34032
:101BA0001A004346134352468A404946081A82495E
:101BB00089468144002068E77B4B002700268EE79A
:101BC000140C1204120C1100370C3604350C794336
:101BD00028008C462E006043604483465643210013
:101BE000300C80465846794340440291844506D9DA
:101BF0008846802149028C46E044414602913604E1
:101C0000010C360C00048B4681191E0C1B041B0CA6
:101C10000391190079438C46280075436544A84612
:101C20005843050C45447743A94203D98021490212
:101C30008C466744290C8C4639000004000C2D04A6
:101C40002D186144AB4405915946049101990F0444
:101C50003F0C080C390051434243904602008C4629
:101C6000090C8B4662437C4344445C44A04503D941
:101C70008021490288464244210C88466146090475
:101C8000090C8C4639005943434370437E430F0C83
:101C9000F6182404BE19644442448C46B34203D966
:101CA00080235B0298464044029B61469846049B11
:101CB000370443449B46AB45AD416B420D04059947
:101CC0002D0C8C467F196744FD18A8465D462D19DA
:101CD000A542A44193466442A446C344DC448F42D7
:101CE000BF4198459B4193459241A445A4415B4225
:101CF0007F421F43360C52426442BF192243BF1831
:101D0000624638184302D20D039913436A020A430C
:101D1000501E82416146ED0D2A434E023243D901E5
:101D200000D4B3E00126500832400243DE073243BC
:101D30005B08224C5444002C62DD510709D00F206F
:101D40001040042805D0101D9042924152429B1829
:101D50000200D90104D580241948E400034054440A
:101D60001848844200DD27E75E075B02D2081F0B9C
:101D7000630516435B0DB2E6002399460133042741
:101D800000269B4664E60323019781460C279B4669
:101D90005EE6012201201743002276E6032303209A
:101DA0001F43434671E6C046FF07000001FCFFFFEA
:101DB000DC5B0108FFFF0F800DFCFFFFFF0300004D
:101DC000FFFFFFFEFE0700000023802700933F0374
:101DD0000026434B83E6019B3200A446584670E63A
:101DE000AC466EE6802701993F0339422DD03B4235
:101DF0002BD11F433F033F0B00951600384B6EE677
:101E000001252D1B382D00DD66E61F2D40DC3548F1
:101E10001C005044160082408440EE40501E824117
:101E200034431443EB40620709D00F222240042AB6
:101E300005D02200141D9442804140421B181A0212
:101E40003ED501230027002649E68027019B3F035A
:101E50001F433F033F0B0094214B40E603005A46CB
:101E6000283B9A40002601926DE6584600F096FC09
:101E7000203057E603005246283B9A4013000022C8
:101E800093E6504600F08AFC20307BE6CA4650E7D5
:101E90001F201E004042041BE640202D03D0124CA0
:101EA0005444A3401A43501E824132430726002760
:101EB000164009D00F200023104014000428B9D187
:101EC00022005E075B021F0BD2081643002306E6C2
:101ED00080273F031F433F033F0B1600004BFEE5E7
:101EE000FF0700001E0400003E040000F8B557463E
:101EF0004E464546DE460C000903E0B5490A460F4A
:101F00005F0031431E03DB0F760A9B46530F3343BA
:101F1000C84E6500C000E40FD2006D0DA246814698
:101F20007F0D9C469046B74200D1B9E05B46012642
:101F300073409B46EE1BA34500D183E0002E63DD7A
:101F4000002F00D0B1E06346134300D123E1731E9C
:101F5000002B00D0BAE1861A6346B04280410125C9
:101F6000C91A4042091A0B0200D447E149024B0A40
:101F700098464346002B00D189E1404600F00EFC14
:101F80000300083B1F2B00DD7CE120223000D21A29
:101F90004146D040994002009E400A439D4200DDE8
:101FA0006AE15D1B6B1C1F2B00DD94E120211000FA
:101FB0003500C91A8E40DA408840DD40711E8E41DE
:101FC000110007222843002506433240002A09D089
:101FD0000F233340042B05D0331DB342B641764264
:101FE00089191E000B0200D43DE26A1C914B550575
:101FF0006D0D9A4200D119E18F4AF6080A40570741
:1020000052023743120B9BE0002E00D0C5E06E1C3D
:102010007605760D012E00DC48E16746861ACB1B5B
:10202000B042BF417F42B8461F004346FF1A3B0003
:10203000B8461B0200D55FE137439AD10022002445
:10204000002579E0002E00DCFAE0002F00D18DE0C1
:10205000784B9D4267D0802367461B041F43BC46D4
:10206000382E00DC52E1634613435A1E93411E187A
:1020700086428041404209180B0200D4BEE06D4BFD
:1020800001359D4200D1D2E06B4A73080A4001211C
:102090000E401E435108D30707221E43324095E7E6
:1020A0001E00164300D045E740E7624B9D423AD000
:1020B000802367461B041F43BC46382E00DDEBE03F
:1020C0001F2E00DC3AE133006746203BDF403B0037
:1020D000202E05D04027BF1B6646BE4032439046A7
:1020E0004646721E96413343DAE0002B00D114E2DB
:1020F0006346134300D168E180234E07C008C90836
:102100001B030643194208D06046C008184204D198
:1021100063460100D2085E071643F3009946C900E2
:10212000720F444D11434B46DE08424B4F07374375
:10213000CA089D4200D16EE012036D05120B6D0DB1
:1021400000211203130B0A0D12051A433B4B2D05F8
:1021500013402B435B00E4075B082343380019005E
:102160003CBC90469946A246AB46F8BD6346134335
:1021700011D0731E002B00D007E1861886428041E3
:1021800061444042091801250B0237D502257BE73F
:102190003E00614691463500C5E75C46002D00D003
:1021A000E1E00B000343F3D0731C00D1ACE1214B01
:1021B0009F4200D13AE1F343382B00DD6FE11F2B42
:1021C00000DD8CE120250E00ED1AAE40B046060081
:1021D000AA46DE40454635432E005546D940A84024
:1021E0006346451EA8415B1A9C463043161AB2420C
:1021F000924163465242991A3D00B4E607223240AA
:10220000002A00D0E4E60B4BF6084F073743CA0814
:102210009D4200D090E73B00134300D1A6E180230C
:102220001B031A431203120B024D89E7150000220B
:10223000002785E7FF070000FFFF7FFFFFFF0F80FC
:10224000002E00D0C7E06B1C5E05760D012E00DC71
:10225000F0E0C84DAB4200D1B9E085180A008542D4
:1022600089416244494251180722CE076D082E4326
:10227000490832401D00A9E6BF49ED1A1140072266
:102280003240A3E6320028388240002686E630003D
:1022900000F084FA203073E6634613435A1E9341DC
:1022A000C61AB04280414042091A5CE60E006746F9
:1022B00006431743002D5ED1002E00D0F3E0002F1F
:1022C00000D11EE15C46614691462CE7A94FBE4213
:1022D0007BD01E00F1E610001F3DE840202B03D00C
:1022E0004021CB1A9A401643731E9E410722064393
:1022F00032400021002583E7161A6346B24280412E
:10230000591A40420B1A98465C4632E61F2E00DDF1
:10231000ABE02027BB1B9A4663465746BB40994615
:1023200013004F46F3401F433B005746BA40571E29
:10233000BA4113436246F240891898E62027BB1B36
:102340009A4663465746BB40994613004F46F340B2
:102350001F433B005746BA40571EBA4113436246DB
:10236000F240891A9CE7834B9F425FD080252D0461
:102370007342294320E7002E0CD1002F00D1D0E07A
:102380005C46614691467B4DCDE67A4FBE421CD0FD
:102390001E0065E6002F18D0C0084E0706438020B7
:1023A000C9080003014208D06346DC08044204D196
:1023B0002100DA46D2085E071643F300994601244D
:1023C0005346C900720F11431C406A4DABE61D0015
:1023D00000220027B4E6002D59D10B00034300D1A1
:1023E000D6E6731C00D1B2E0624B9F421ED0F3438D
:1023F000382B6FDC1F2B00DD97E020250E00ED1A37
:10240000AE40B0460600AA46DE40454635432E00A3
:102410005546A840D940451EA8418C440643B618ED
:1024200096429241514261443D0025E63D0061469D
:10243000914678E60B000343002D00D055E6002BB3
:10244000F5D06346134300D16DE68618864280417D
:1024500061444042091800220B0200D4D0E6464BEA
:1024600001351940B2E5B1465DE633006746203BD1
:10247000DF403B00202E05D04027BF1B6646BE40F4
:10248000324390464646721E96413343EFE5394B40
:102490009F42CBD080252D0473422943A8E70843EF
:1024A000411E8841A2E6002F00D13CE66346861A11
:1024B000CF1AB0429B415B42FB1A98461B024ED595
:1024C000161A6346B2429241591A5242891A5C4620
:1024D00000227BE501430E00711E8E419FE71D0027
:1024E0000E00203DEE40B046202B04D04025EB1AD4
:1024F00099400843814648464346411E8841184357
:1025000074E60022002417E6161A6346B24292418E
:10251000591A5242891A3D0025E561469146154DEA
:1025200001E680220024120379E61D000E00203D02
:10253000EE40B046202B04D04025EB1A99400843CA
:1025400081464E464346711E8E411E4367E78618FC
:1025500096429B4161445B42C9183D008CE5474669
:102560003743CED007224146324049E600273A00A1
:10257000E6E5C046FF070000FFFF7FFF70B50028BB
:102580002DD0C317C5185D40C40F280000F006F910
:10259000154B1B1A5B055B0D0A2815DD0B388540B2
:1025A00000222D032D0B002110002D030A0D2D0BF1
:1025B00012052A430D4D1B052A4013435B00E40717
:1025C0005B082343190070BD0200290015329140B9
:1025D0000A000B21081AC5402D032D0BE3E7002448
:1025E000002300250022DEE71E040000FFFF0F800D
:1025F0004100090E4B1C70B5DBB24602750AC40FD0
:10260000012B14DDE0239B006D07360BCB18002156
:102610000A0D280012051C4D32435B052A405B0859
:1026200013435B00E4075B082343190070BD0029D6
:1026300014D1002D1ED0280000F0B0F80A281CDCB0
:102640000B232A001B1ADA40030015339D400F4B61
:1026500012031B1A5B05160B5B0DD8E7002D06D085
:10266000320B802636036D071643094BCFE7084B24
:102670000026CCE700230026C9E703002A000B3B15
:102680009A400025E3E7C046FFFF0F808903000062
:10269000FF070000F0B54C00640D0B03621C5B0AE1
:1026A000460F5205C90F1E43C500520D012A29DDF0
:1026B000374BE718FE2F1CDC002F3BDD8001431E4B
:1026C00098410722F3006D0F03432B431A40002A61
:1026D00004D00F221A40042A00D004338022D204EE
:1026E0001A4024D00137FAB2FF2F02D09B01580ABA
:1026F00001E0FF2200204002D205400AC907104332
:102700000843F0BD3543002C04D1002D0AD100222E
:102710000020F0E7002DECD08020C0033043FF22E2
:10272000E9E7002400235B02580AE2B2E3E7DB0892
:102730003C00F8E73B001733F3DB80231B043343F3
:102740001E26F61B1F2E14DD02225242D71B1A0032
:10275000FA401700202E04D00E4A94466444A34049
:102760001D432B005D1EAB4107223B431A4000274F
:10277000ADE7094A2800A218954093406C1EA54178
:10278000F04007222B4303431A4000279FE7C0462F
:1027900080FCFFFFA2FCFFFF82FCFFFF1C21012346
:1027A0001B04984201D3000C10391B0A984201D334
:1027B000000A08391B09984201D30009043902A212
:1027C000105C40187047C046040302020101010179
:1027D00000000000000000000023C25C0133002A5A
:1027E000FBD1581E704700007047C0467047C04676
:1027F000FEE7C0460A4A0EE001C901C3906898424C
:10280000FAD801E0002102C3D1689942FAD8103207
:10281000044B9A4202D211685368EFE77047C046F2
:102820001C5C01089C5C0108FEE7C046FEE7C04650
:1028300010B500F0F5F800F063F80B4C80220B495E
:10284000200000F0FFF9303CA061094BC361202358
:102850000122C254074A136A07490B40136262B649
:10286000064800F01FFA10BDA0060020D45C010845
:102870000001002000ED00E0FFFF00FF9C5C01086C
:1028800072B6014BD862FEE77006002070B51B4B94
:10289000DC698023DB055A6A08E062B62069A84734
:1028A00072B6164BDC698023DB055A6AA3681349AC
:1028B000886A111A8B4211D8104A1B18936221683A
:1028C00013001C334B602168D161E5680021E16091
:1028D000D2699A42E1D100F0D1FADEE70749CC692A
:1028E0001C318C4206D01818801A012803D9101800
:1028F00000F0CAFA70BD0220F9E7C0467006002059
:10290000054B1A001C32DA611A62012252425A62E5
:1029100000229A627047C0467006002070B505001C
:102920000361C2608023DB05586A01290ED91A4B66
:10293000DA691C339A420BD00818174B9C6A041BA7
:102940009368A34212D8144BDB6914E00221EEE72E
:10295000114B9862DD611D621A001C322A606A60A8
:10296000A960986A401800F081FA14E000F08CFA2F
:10297000E9E7A41A1B689A68A242FAD32B605A6846
:102980006A6015605D60AC609A68141B9C60024BC5
:10299000012252425A6270BD7006002010B51E4BD3
:1029A000DB69834211D0436802681A600368426899
:1029B0005A600023C3600368184A934204D08268B7
:1029C00099688C4662449A6010BD0168124BD961C7
:1029D0001A001C324A600021C160DB69934215D0A5
:1029E000826899688C4662449A608023DB055C6A41
:1029F00009498B6AE01ACB699B688342E4D9181AAB
:102A0000012806D9001900F03FFADDE700F036FA98
:102A1000DAE70220F6E7C046700600208C060020A8
:102A2000034B1B605B6000229A601B615B61704717
:102A30007006002020230022C254064B1B689A68AF
:102A400081688A42FAD203605A6842601060586016
:102A50007047C0467006002010B572B62023C35CD4
:102A6000032B0CD0042B0ED0002B06D001235B428D
:102A70004362FFF7DFFF62B610BD62B6FCE7436A50
:102A800000221A60F2E7436802681A60036842682D
:102A90005A60EBE720230022C254064B1B689A6859
:102AA00081688A42FAD803605A68426010605860B0
:102AB0007047C0467006002010B50D4B9C69202160
:102AC00060541A681068186043609A610123535477
:102AD000EFF30983243BE269934205D3044B9869E1
:102AE0002100FDF751FB10BD0248FFF7C9FEF5E7D5
:102AF00070060020BC5C010810B586B004004B1CB9
:102B000013D00B4B9B690B4A01A8FFF707FF20006E
:102B1000FFF7D2FF049B002B02D001A8FFF73EFF76
:102B2000034B9B69586A06B010BDFFF7C5FFF7E776
:102B300070060020592A000870B50400104B9869EF
:102B40006162A3688268934212D9FFF773FF0500A0
:102B50000B4B9C6120230122E254EFF30983243BB9
:102B6000C269934208D329002000FDF70DFB70BD18
:102B70002000FFF75FFFFAE70248FFF781FEF2E768
:102B800070060020BC5C0108044B1A6892689B69BF
:102B900098689042804140427047C04670060020CD
:102BA00010B50E4B98691A68116819604B609A61EC
:102BB00020230121D154FFF76DFF0400EFF30983B7
:102BC000243BC269934205D3044B98692100FDF769
:102BD000DBFA10BD0248FFF753FEF5E77006002050
:102BE000BC5C010810B5054B1A6892689B699B682C
:102BF0009A4200D810BDFFF7D3FFFBE77006002014
:102C000010B50E4B98691A68116819604B609A618B
:102C100020230121D154FFF73DFF0400EFF3098386
:102C2000243BC269934205D3044B98692100FDF708
:102C3000ABFA10BD0248FFF723FEF5E7700600204F
:102C4000BC5C0108826020230222C25401330022AE
:102C5000C25401330132C2548161034B03615A698A
:102C600042611061586170477006002001E00270F7
:102C700001308842FBD3704710B50100836818000B
:102C800028384A68C2614C3BC3600A691A614A69C4
:102C90005A61034A1A62CA680968FFF7D3FF10BD78
:102CA000A901000810B50400552281684068FFF7AB
:102CB000DDFF72B62000FFF7DFFF04000021FFF701
:102CC0003BFF62B6200010BDF8B506000C001500F1
:102CD0001F0041185522FFF7C9FF72B6200028389F
:102CE0003018C6610300243BC3601F61069A5A6115
:102CF000064A1A622A000649FFF7A4FF04000021D1
:102D0000FFF71AFF62B62000F8BDC046A90100080F
:102D1000CC5C010810B5084B9B69586222229A5C72
:102D2000002A05D15A69196911611A695B695361F1
:102D30000F20FFF7C1FE10BD7006002010B572B65F
:102D4000FFF7E8FF10BDC04610B5010072B60820BD
:102D5000FFF7D2FE62B610BD10B500290AD0074BAE
:102D60009B69186042685A60136043600420FFF753
:102D7000C3FE10BD01204042FBE7C04670060020A4
:102D800010B50368984206D01A6802605060596214
:102D90001800FFF74FFE10BD70B504000D0005E0F0
:102DA000036823605C604562FFF744FE206884424C
:102DB000F6D170BD72B6024B186962B67047C04654
:102DC0007006002072B60069034B984201D062B6CB
:102DD00070470020FBE7C0467006002080B500AFBA
:102DE000EFF30983203383F3098862B6BD4680BDC3
:102DF000B0B500AF0F3010D072B6EFF309842300E6
:102E0000203B83F3098880225204DA61FFF7BCFE7D
:102E1000002804D1203C044BA361BD46B0BD203C3A
:102E2000024BA361F9E7C046B8010008B5010008EC
:102E300010B501F081F80A4801F012FB00F0E6FA43
:102E400000F0F8FA00F040FB00F020FE00F000FC7B
:102E500000F082FF02F00AF800F004F810BDC0464E
:102E6000505E010810B501F031F910BD8023DB057B
:102E7000586300221A610232DA6070478023DB0552
:102E80000022DA607047C0468023DB055863704734
:102E90008368013B836003698269944663440361EC
:102EA0004269934201D3036A03617047C3681960A2
:102EB000836801338360C368826994466344C36056
:102EC0004269934201D3036AC360704710B58368B7
:102ED000002B01D0002010BDFFF73EFFFBE7C046EE
:102EE00010B5C3680269934204D00023002B06D1B9
:102EF000002010BD8368002BF8D00123F6E7FFF710
:102F00002BFFF6E730B5006040600024846001616B
:102F1000C16004321D0055434D1945618261C36192
:102F2000016244628462039BC362049B036330BDFD
:102F300010B500238360026A0261C260436283624B
:102F400002214942FFF728FF10BDC04610B504001A
:102F5000FFF7ACFF00212000FFF712FF10BDC046B5
:102F600010B50400FFF7B2FF002805D12269131D38
:102F7000636212689B18A36210BDC04610B50400BE
:102F8000FFF786FF00236362E36A002B01D0200075
:102F9000984710BD70B5040072B6436A002B09D083
:102FA000636A1D7801336362A26A934208D262B6F3
:102FB000280070BDFFF7D4FF051EF1D062B6F7E719
:102FC0002000FFF7DBFFF2E7C3680269934204D0F9
:102FD0000022002A06D1181D70478268002AF8D006
:102FE0000122F6E70020F7E78368002B05D003698C
:102FF0001B680B600069043070470020FCE7C04686
:1030000010B50400FFF744FF00212000FFF7B8FED1
:1030100010BDC04610B50400FFF762FF002806D1BE
:10302000E3681A1D6262A26994466344A36210BDFC
:1030300010B50400FFF73AFF00236362E36A002B38
:1030400001D02000984710BDF8B5CE46474680B560
:103050000400884691461F0072B600261EE04346D3
:10306000002B0BD008992000FFF7D4FF002818D0C0
:1030700062B630000CBC90469946F8BD0899200015
:10308000FFF76EFFF2E72A000100484612F014FD38
:1030900016E02000FFF772FFB742E9D9636A002B00
:1030A000DDD0606AA36A1B1ABD1B9D4200D31D00C0
:1030B0004346002BE7D04B4699192A0012F0FCFC3E
:1030C000636A5B1963627619A26A9342E4D343464A
:1030D000002BDED0A369191F2000FFF7A9FFDBE753
:1030E00000B583B0009313000A000021FFF7ACFF86
:1030F00003B000BD70B504000D0072B6436A002B2A
:103100000AD0636A1D70636A01336362A26A9342E4
:1031100009D262B6002070BD1100FFF77BFF0028C6
:10312000EFD062B6F7E7A369191F2000FFF780FF11
:10313000EFE7C04600B583B0009313000A000121F9
:10314000FFF782FF03B000BD10B504008368002BB9
:103150000FD1416A00290ED0C368C91A0439002969
:1031600001D1002006E0FFF7A1FE002363620120E9
:1031700000E0002010BD0020FCE7C046030002690B
:10318000013A0261C1694A1CC261C068405C596968
:103190008A4201D30022DA617047C04603690133D5
:1031A000036183695A1C8261C268D1548369426990
:1031B000934201D3002383617047C04610B5036971
:1031C000002B01D0002010BDFFF7C6FDFBE7C04675
:1031D00010B503694269934201D2002010BDFFF788
:1031E000BBFDFBE7F8B505000F000469944200D36E
:1031F0001400002C13D0012C13D0E9696B695E1AFE
:10320000B44213D2EB689C4661442200380012F0AD
:1032100053FCEB691B19EB612B691B1B2B61200015
:10322000F8BD2800FFF7AAFF3870F8E7EB689C4666
:1032300061443200380012F03FFCB819A21BE96863
:1032400012F03AFC7642EE61E3E7C046F8B50500BD
:103250000E0047690369FC1A944200D31400002C45
:1032600012D0012C12D0A8693F1ABC4213D2EB68CD
:103270009C4660442200310012F01EFCAB691B1911
:10328000AB612B691B192B612000F8BD3178280038
:10329000FFF784FFF8E7EB689C4660443A00310092
:1032A00012F00AFCF119E21BE86812F005FC7F42FB
:1032B000AF61E3E710B50060406000240461C160C5
:1032C000C46184614261836010BDC04610B50023B3
:1032D000C3618361036102214942FFF75DFD10BDB7
:1032E00010B5040003694269934207D2FFF756FF05
:1032F00000212000FFF744FD002010BD01204042C6
:10330000FBE7C04670B5050072B6FFF757FF041E15
:1033100002D062B6200070BD2800FFF72FFF040026
:10332000AB68002BF5D028009847F2E7F0B5CE4601
:1033300000B582B005000E001700019372B600249C
:1033400001992800FFF73AFF00280DD131193A1BE7
:103350002800FFF747FF8146AB68002B01D028000B
:1033600098474C44A742EBD862B6200002B004BC98
:103370009146F0BD70B504000E0072B61100FFF763
:1033800027FF051E02D062B6280070BD3100200064
:10339000FFF704FFA368002BF5D020009847F2E761
:1033A00070B504000369002B08D0FFF7E7FE0500A5
:1033B00000212000FFF7E4FC280070BD01256D42CC
:1033C000FAE7C046F0B5CE4600B582B005000E0063
:1033D0001700019372B6002401992800FFF7F8FE48
:1033E00000280DD131193A1B2800FFF72FFF814625
:1033F000AB68002B01D0280098474C44A742EBD87B
:1034000062B6200002B004BC9146F0BD10B500F0D9
:1034100081FE10BD01230370002343607047C04646
:1034200010B5040072B6416000F0ECFE0223237078
:1034300062B610BD10B501F0BFF810BD01230370D6
:10344000002343607047C04610B5040072B6416067
:1034500001F0C6F80223237062B610BD10B5032335
:10346000037001F00DF910BD10B572B6FFF7F6FF4D
:1034700062B610BD10B504000423037001F024F9F6
:103480000223237010BDC04610B501210830494207
:10349000FFF738FF10BDC04610B501222830524258
:1034A000FFF768FF10BDC04610B5012308305B422E
:1034B000FFF73CFF10BDC04610B5012328305B422A
:1034C000FFF780FF10BDC04610B501F07FF910BDB9
:1034D00070B504000B001500094A02600122027158
:1034E0000830210048310F32FFF7E4FE2000283079
:1034F000210058312B001022FFF7DCFE70BDC046C2
:10350000EC5C010810B5040072B601F09BF90223CF
:10351000237162B610BDC04610B5040072B601F04A
:10352000ADF90123237120002830FFF7CFFE2000E2
:103530000830FFF7CBFEFFF755FB62B610BDC04663
:1035400010B582B0046B9023DB00E3581A68117841
:10355000042901D002B010BD21790229FAD11289C3
:10356000197901238B401342F4D120003C3001A98A
:10357000FFF73AFD021EEDD09023DB00E3581979E6
:103580001868019B00F0E4FAE4E7C04610B50400B7
:103590009023DB00C3581A681178042901D0012058
:1035A00010BD0179022901D00120F9E7528959792A
:1035B00001238B40134201D00120F1E70830FFF7CF
:1035C00003FD021E0AD09023DB00E05880234179DE
:1035D00000685B0000F0A8FA0020E1E70120DFE7C7
:1035E00010B5006BFFF7D2FF10BDC04610B501212A
:1035F00008304942FFF7CEFC10BDC04610B59023FD
:10360000DB00C3581B681B78042B05D101223C301A
:103610005242FFF76FFD10BD02204042FBE7C0465B
:1036200010B5012308305B42FFF75AFD10BDC046BC
:1036300010B59023DB00C3581B681B78042B01D006
:10364000002010BD033B3C305B42FFF773FDF8E701
:103650007047C04630B583B004000F4B03600123B0
:10366000037108302100703180256D0001940B4BEF
:10367000009302232A00FFF745FC20003C309E23E4
:103680009B00E1180194064B009302232A00FFF7E8
:1036900039FC03B030BDC0460C5D0108E1350008BF
:1036A000413500080A6872B60B7909339B00D318BC
:1036B00058604B7911339B0098508B79002B03D0C5
:1036C00009339B00D31858609023DB00C1500223BC
:1036D000037162B67047C04610B504000830FFF7AA
:1036E00027FC20003C30FFF723FC10BD10B5040080
:1036F0000830FFF71DFC20003C30FFF719FC2000CC
:10370000FFF744FF10BDC0467423C25C143B134056
:10371000202B01D0002070475533C35C212B05D0EE
:10372000222B0FD0202B07D00020F4E7084B836614
:103730000723C3660120EEE7054B83660723C366B4
:103740000120E8E700238366C3660120E3E7C04663
:103750002003002030B583B004009023DB00C35861
:103760001A681178042901D003B030BD017902290B
:10377000FAD11289197901238B401342F4D1050043
:103780003C352800FFF7E0FC0028EDD001A9280017
:10379000FFF72AFC02009023DB00E3581979186830
:1037A000019B00F0D5F9DFE770B582B005000E008F
:1037B0000B0009339B00C3185C68002C16D072B64E
:1037C0008B1C9B00C3185B685B691B68002B0FD1C7
:1037D00020003C3001A9FFF707FC00280DD0019B19
:1037E00002003100280000F0B3F962B602B070BDEB
:1037F00020003C30FFF704FCEAE7B31C9B00EB1809
:103800005B685A6912681B8A9A42EED10023002233
:103810003100280000F09CF9E7E7C04610B51131EF
:1038200089000C58002C11D072B69023DB00E358AD
:103830001A685B7902339B00D3185B689B695968EF
:10384000002904D12000FFF7A1FE62B610BD2000C0
:103850000830FFF77BFBF5E77047C04670B5040002
:10386000092956D88B002D4AD3589F4603007C3334
:1038700083660223C366012070BD7623C35A012BE1
:1038800001D00020F8E77C22835A02208343A35210
:10389000032904D00023A366E3660120ECE702229B
:1038A00013437C22A352F5E700238366C3661C4BB7
:1038B00003670120E0E743685D687623C25A110A76
:1038C000D2B20233C35AA847002824D04368A36663
:1038D0000368E3660120CFE703007F33836601239B
:1038E000C3660120C8E77623C35C7F228354002B84
:1038F0000DD00423237063681B68002B02D00221C3
:10390000200098470023A366E3660120B4E7032361
:10391000F0E70020B0E70020AEE7C0462C5D0108CC
:1039200065390008002905D1034B83660223C3666D
:10393000012070470020FCE7945D010810B50400E9
:10394000002101F0F1F90021200001F0DBF96368AA
:103950001B68002B02D00521200098476423062213
:10396000E25410BD10B504007623C25A0833C25485
:1039700001F014F863681B68002B02D001212000BD
:1039800098470323237010BD10B504007823C05A54
:10399000693B034080220240012928D0002909D038
:1039A000032924D00C2946D1264BA3660223E366C3
:1039B000012010BD002A09D0D9B2200001F080F802
:1039C000012808D002280CD00020F2E7D9B220004C
:1039D00001F062F8F4E71C4BA3660223E3660120C2
:1039E000E7E71A4BA3660223E3660120E1E77620AE
:1039F000205A002821D1002B21D001290AD0002AE9
:103A000014D0D9B2200001F08FF90023A366E36639
:103A10000120CEE7002A04D0D9B2200001F0B0F98D
:103A2000F3E7D9B2200001F091F9EEE7D9B2200016
:103A300001F068F9E9E70020BBE70020B9E70020C2
:103A4000B7E7C046945D0108905D01088C5D0108F0
:103A500010B57423C25C143B134214D11533C15CFE
:103A6000563B1340012B08D0002B03D0022B07D06C
:103A7000002009E0FFF7F2FE06E0FFF753FF03E046
:103A8000FFF782FF00E0002010BDC04610B500F037
:103A900059FF10BD012303700023436000220AE098
:103AA00013000A339B00C31800215960130012331E
:103AB0009B0019500132062AF2D900230381438169
:103AC0007047C04610B5040072B64160002205E0A0
:103AD000931C9B00E318002159600132072AF7D993
:103AE000200000F037FF0223237062B610BDC046ED
:103AF00070B504000D0016008B1C9B00C3185A60A3
:103B00005069002803D00C22002111F0DFFFB069BA
:103B1000002803D00C22002111F0D8FF290020003A
:103B200000F046FF70BDC04670B501248C40A4B2C1
:103B300045892C4344818C1CA40004196468A46941
:103B4000A26023600023636000F0E2FF70BDC04606
:103B500070B501248C40A4B205892C4304818C1CCF
:103B6000A400041964686469A26023600023636090
:103B700000F0E0FF70BDC04610B5040002230370E2
:103B800000237C228352002102328154013281546D
:103B900003814381002205E0931C9B00E318002170
:103BA00059600132072AF7D964230022E254200029
:103BB00000F050FF63681B68002B02D0002120003A
:103BC000984710BD10B50523037043681B68002B90
:103BD00001D00321984710BD10B50423037043683A
:103BE0001B68002B01D00421984710BD70B504005C
:103BF00000256423C5540200743200F071FF25676C
:103C000063689B68002B03D020009847002804D1EC
:103C10002000FFF71DFF002817D07A23E35AE26E39
:103C20009A4200D9E36672B67423E356002B10DB88
:103C3000E36E002B23D0A26E00212000FFF774FF5B
:103C400064230422E25462B670BD2000FFF776FEC2
:103C5000FAE7E36E002B08D0A26E00212000FFF7E8
:103C600077FF64230122E254EDE7002300220021C4
:103C70002000FFF759FF64230322E254E3E7002307
:103C8000002200212000FFF763FF64230522E25495
:103C9000D9E7C04610B504006423C35C062B19D8CD
:103CA0009B00184AD3589F46C06E7A23E35A984225
:103CB00005D2E368198AFCF721FB00290BD072B604
:103CC0000023002200212000FFF72EFF62B66423AC
:103CD0000322E25410BD72B6002300222000FFF739
:103CE00037FF62B664230222E254F3E7036F002B2E
:103CF00000D0984764230022E254EBE7FFF71EFE52
:103D0000E8E7C046545D010810B504006423C35CB5
:103D1000062B0DD89B000F4AD3589F4672B600233E
:103D200000220021FFF714FF62B664230522E2544B
:103D300010BDC3689B695B68002BF9D1036F002B32
:103D400000D0984764230022E254F1E7FFF7F6FD24
:103D5000EEE7C046705D010810B501F029F810BD0E
:103D600070B583080C4DC0339B005C5903220240A0
:103D7000D200FF269640B443890191402143595116
:103D80001F2202404009012393400200603292004A
:103D900053518000435170BD00E100E0124A1168A8
:103DA00080235B000B431360104B1B6AC022920000
:103DB0001340013AFF3A934205D00C4B8022520245
:103DC0001A6200221A62094B1B6A1B040AD4074BB1
:103DD000196A802292000A431A62196A802212022A
:103DE0000A431A627047C04600700040001002404B
:103DF00070B57446194B25229E5C5A6911682420BF
:103E0000185CC1400F2529400CD00B008340536043
:103E1000F200134BD558002D04D01300104AD318CC
:103E20005868A8470D4B39229E5C9A6A1168382061
:103E3000185CC1400F2529400CD00B008340536013
:103E4000F200074BD558002D04D01300044AD318B4
:103E50005868A8472000FEF7CBFF70BD985D0108A9
:103E6000C806002070B57446314B4D229E5CDA6B5B
:103E700011684C20185CC1400F2529400CD00B0064
:103E800083405360F2002B4BD558002D04D0130013
:103E9000284AD3185868A847254B61229E5C1A6DA2
:103EA00011686020185CC1400F2529400CD00B0020
:103EB00083405360F2001F4BD558002D04D01300EF
:103EC0001C4AD3185868A847194B75229E5C5A6E35
:103ED00011687420185CC1400F2529400CD00B00DC
:103EE00083405360F200134BD558002D04D01300CB
:103EF000104AD3185868A8470D4B89229E5C9A6FC8
:103F000011688820185CC1400F2529400CD00B0097
:103F100083405360F200074BD558002D04D01300A6
:103F2000044AD3185868A8472000FEF761FF70BD07
:103F3000985D0108C806002010B50C4B9A6A012153
:103F40004942996200229A62186919611A61D86817
:103F500007490143D960DA60D969802252050A43D2
:103F6000DA61FFF71BFF00F07DF810BD0010024082
:103F7000FFFFBFFF2D4A136801210B4313602B4B3A
:103F80001B689B07FBD5294B5A6803218A435A605B
:103F90005A685A60254B5B680C221A42FAD1234BAF
:103FA0001968ED320A401A6000225A605A6B0121EA
:103FB0000A435A631D4B5B6B9B07FBD51B4A516B36
:103FC00080235B020B435363184B5B6B9B03FBD556
:103FD000164A536A01210B435362144B5B6A9B07D9
:103FE000FBD5124BE522D2045A600022DA6210326D
:103FF0001A631968802252040A431A600B4B1B682B
:104000009B01FBD50A4B11221A60084A5368022112
:104010000B435360054B5A680C231340082BF9D10E
:10402000024A936901210B439361704700100240DB
:104030000020024010B57446084B1B680F21194040
:1040400008D0064B5960064B1B68002B02D0044A6F
:10405000506898472000FEF7CBFE10BD00000240DC
:10406000C80600200B4B00221A6000230BE09A00C8
:10407000D2189100084A5218516800220A60D800EC
:10408000064942500133062BF1DD054B0122524215
:104090005A60704700070020985D0108C80600209C
:1040A0000000024010B574468023DB051B699B07A6
:1040B00003D42000FEF79CFE10BD8023DB05002208
:1040C0001A6172B6FEF7E2FB62B6F2E710B50E496E
:1040D000CB6901221343CB610C498B6813438B607E
:1040E0008023DB050A49996201214942D9620021F6
:1040F00099615963D96059605A611A6002310F2081
:10410000FFF72EFE10BDC0460010024000580140CF
:10411000BF12000010B50248FFF77CF910BDC04681
:1041200004070020F0B583B01F220A40012393400A
:104130000F2915D88A08019203250D40AD000F24E0
:104140002600AE40CF004268BF583F093C40AC401B
:104150001E4F019A02329200D559B5432C43D451D7
:104160001B4A13421ED1CA0044681259D2071BD5FC
:10417000184CA2681A43A260CA00446812599207F8
:1041800017D5144CE2681A43E2604268C90051181E
:104190004A68002A12D00F4A116819431160516809
:1041A0009943516003B0F0BD0A4CA2689A43A260E3
:1041B000E2E7084CE2689A43E260E6E7054A5168A4
:1041C00019435160116899431160EBE70000014009
:1041D0000000847F000401401F23194001228A400F
:1041E000074B1868D1430840186058680840586069
:1041F000986808409860D8680140D9605A61704753
:104200000004014070B505000378012B01D00024A3
:1042100007E000F0FBF8FAE721002800FFF7DCFFD9
:1042200001341F2C09D8E3006A689B585B07F3D55B
:1042300021002800FFF776FFF2E770BD70B57546E4
:104240000B4A5469032323405361E30704D509480B
:1042500043685B6800219847A30704D50548436875
:10426000DB68012198472800FEF7C2FD70BDC046FB
:10427000000401400407002070B575460B4A5469DC
:104280000C2323405361630704D5094843685B69E5
:1042900002219847230704D505484368DB690321B9
:1042A00098472800FEF7A4FD70BDC04600040140F9
:1042B0000407002070B575462E4A54692E4B2340E2
:1042C0005361E30604D52D4843685B6A042198478F
:1042D000A30604D529484368DB6A0521984763068D
:1042E00004D5264843685B6B06219847230604D50E
:1042F00022484368DB6B07219847E30504D51F4834
:1043000043685B6C08219847A30504D51B484368A4
:10431000DB6C09219847630504D5184843685B6D39
:104320000A219847230504D514484368DB6D0B2107
:104330009847E30404D5114843685B6E0C21984705
:10434000A30404D50D484368DB6E0D219847630430
:1043500004D50A4843685B6F0E219847230404D5AF
:1043600006484368DB6F0F2198472800FEF740FDA1
:1043700070BDC04600040140F0FF000004070020AB
:1043800010B57446094A50691368802149020B40F0
:10439000034053610B4205D0054884234268D3583B
:1043A000102198472000FEF723FD10BD00040140B6
:1043B0000407002070B57546124B5A691C68D0215D
:1043C00049030C4014405C61A30305D50E488C23BF
:1043D0004268D35811219847230305D50A489C23E6
:1043E0004268D3581321984780235B031C4205D0B1
:1043F0000548A4234268D358142198472800FEF7A3
:10440000F7FC70BD000401400407002010B5032133
:104410000520FFF7A5FC03210620FFF7A1FC0321DF
:104420000720FFF79DFC03210120FFF799FC0321E2
:104430000C20FFF795FC03210220FFF791FC10BD33
:104440004B6843608B688360CB68C3600B694361D2
:104450004B6903628B6943620B6803607047C04617
:1044600010B50400124A5169FC23DB030B4353616E
:1044700090202100C005FFF7E3FF21001C310D480B
:10448000FFF7DEFF210038310B48FFF7D9FF21008D
:1044900054310A48FFF7D4FF210070310848FFF774
:1044A000CFFF21008C310748FFF7CAFF10BDC0467F
:1044B000001002400004004800080048000C0048BA
:1044C0000010004800140048F0B5DE4657464E463E
:1044D0004546E0B583B01300032637001740920825
:1044E00001241440A446DA08324001925C092640B7
:1044F000DB090F241C40A146002416E0072C46D8F7
:10450000056A5246954342461543056205682B40AD
:104510003B430360490848D063465B009C46019BCF
:104520009B000193B600BF000134CB07F2D50725ED
:104530002540AD004B46AB4098460123A3409B4627
:1045400063009A460323524693400F22AA409246A4
:1045500045685A4695436246154345608568DB4386
:104560001D40019A15438560C5681D403543C560EF
:10457000022FC3D005682B403B430360072C0DD8A6
:10458000036A52469343424613430362C2E7456AB5
:1045900052469543424615434562B7E7436A524641
:1045A0009343424613434362B4E703B03CBC904696
:1045B0009946A246AB46F0BD10B50548054BC36011
:1045C000FEF73CFF0448054BC360FEF737FF10BD04
:1045D0001C070020000400400C07002000200040C1
:1045E00010B504000378012B19D063681968A0681E
:1045F000FBF7FEFD80B2013880B2E2680023136051
:104600006168E26889685160E2689062E2681361FB
:104610006368DB68E268FF218B43D36010BD144BF5
:10462000984214D0134B9C42DFD1134BD96980229E
:1046300052001143D96119690A431A6100221A61B3
:1046400002211320FFF78CFB0C4BA360CDE70A4B34
:10465000D96902200143D9611A6902431A61002213
:104660001A6102210E30FFF77BFB044BA360D9E7F0
:104670001C0700200C07002000100240006CDC0228
:10468000C3680139D962C36801225A61C268002334
:104690005362C268136143685B68002B04D0C26830
:1046A000D36801210B43D360C36805221A607047A9
:1046B000C26800231360C2681361C268D368FF2117
:1046C0008B43D3607047C046C3680139D962C36861
:1046D00001225A61C3680C321A60C3681A69D20792
:1046E000FBD500221A61704710B50400C368002290
:1046F0001A610378042B04D063685B682000984734
:1047000010BD023B0370FFF7D3FFF5E710B5744609
:104710000348FFF7E9FF2000FEF76AFB10BDC04623
:104720001C07002010B574460348FFF7DDFF20008A
:10473000FEF75EFB10BDC0460C070020002303609F
:10474000436083607047C046024A136880210B4370
:104750001360704700380140F8B50600846E276882
:10476000E569256272B606E030000830A18CC9B256
:10477000FEF7B6FDE569AB06F6D43B060DD47B0625
:1047800004D56B0602D540239F43276062B6F8BD6F
:1047900080233A009A432260F1E72B06EFD53000E0
:1047A0002830FEF7FDFD0028F2DB80B22085E569A8
:1047B000F3E7C04610B574460348FFF7CDFF20006D
:1047C000FEF716FB10BDC0462C07002010B5074CA5
:1047D000074A00212000FEF77BFE064BA366064B2E
:1047E000E36603211B20FFF7BBFA10BD2C07002056
:1047F0004947000800380140006CDC0270B5846E47
:1048000023680125AB432360C06EFBF7F1FCE06039
:1048100023682B43236070BD10B5846E40238A68E3
:10482000134363600123CA681343A3602E23FF333D
:104830004A68134323600968FFF7E0FF01235B42E6
:10484000236210BD10B5002905D00379012B04D0D7
:10485000FFF7E2FF10BD0649F7E7064B9842F7D194
:10486000054A94698023DB0123439361F0E7C04646
:10487000245E01082C0700200010024010B504003F
:104880000379022B00D010BD806EFFF757FF044B59
:104890009C42F8D1034A936903490B409361F2E7C4
:1048A0002C07002000100240FFBFFFFF80234022A2
:1048B000C250704710B58022835801310124A143B2
:1048C000C9188150180010BD70B50E4B1B6DC0008B
:1048D00018180D4B9C46604485886544C688B6B25E
:1048E000B005800D002303E05A00AC5A8C5201330E
:1048F00042089A42F8D8F20702D55B00EA5CCA5433
:1049000070BDC046005C00400060004030B50B4BFD
:104910001B6DC00018180A4B9C466044058865440E
:1049200093B24380002003E04300CC5AEC520130A4
:10493000531C5B088342F7D830BDC046005C004082
:104940000060004010B50248FFF7A4F810BDC04653
:104950009C07002070B504000378012B00D070BDC7
:104960000B4B984203D02000FFF706F9F7E7094AFE
:10497000D16980231B040B43D361074D01232B64B2
:1049800003211F20FFF7ECF900232B64EBE7C0465F
:104990009C07002000100240005C00407E23C25CA7
:1049A000FE3B1343DBB2014AD3647047005C004016
:1049B000F0B583B001900C008B1C9B0084466344CF
:1049C0005F6803233A6813403AD0022B04D9032BC3
:1049D00036D1C026F60000E000261C4B1D6DE3001A
:1049E000ED181B4B9C4665447B69002B09D00023C6
:1049F0006B80398A0198FFF75DFF80B22880202301
:104A00001E43BB69002B13D07B8A3E2B1BD9013B75
:104A10005B11202213439BB29B029BB2EB80798AED
:104A20000198FFF747FF80B2A88080239B011E43B7
:104A3000064BA200D158D1502643D65003B0F0BD4A
:104A40008026B600C9E701335B08E5E7005C00405B
:104A50000060004010B504000D4B00221A655A6436
:104A60008032DA644368DB68002B0DD09E2212028C
:104A7000074B1A642000FFF719FF064BE360002183
:104A80002000FFF795FF10BD9C221202F0E7C04600
:104A9000005C0040345E01088900084BCB58C022FE
:104AA0009201134005D080225201934203D002208C
:104AB00000E0002070470120FCE7C046005C004099
:104AC0008900064BCA583023134003D0102B03D063
:104AD000022000E0002070470120FCE7005C00405D
:104AE00010B5094B1B6DC9005918084B9C46614411
:104AF0008C886444002303E05900605A505201330B
:104B0000032BF9D910BDC046005C00400060004096
:104B1000054889000A58054B1A40C0239B015A409A
:104B2000034B13430B507047005C00408FB7FFFFEF
:104B30008080000070B50C008B1C9B00C018426880
:104B4000556969682B685B1A168A9E4215D2AB6854
:104B50009C46614432002000FFF7D8FE6B689C46FB
:104B600066446E600649A4006358064A134030222A
:104B70005340054A1343635070BD1E00E7E7C0462B
:104B8000005C0040BF87FFFF80800000F0B583B06D
:104B900005000F240C40A200364BD258A31C9B00EA
:104BA000C3185E68CB0622D43249A0004358324A6B
:104BB0001A4080231B021343435073695A681B68D1
:104BC0009A420FD30122A2402B8993432B81A31C2D
:104BD0009B00EB185B689B68002B1AD0E1B22800A1
:104BE000984716E0E1B22800FFF7A4FF11E0214941
:104BF000A0004358204F3B4080273B4343501305C0
:104C000009D5A31C9B00EB185B685B68E1B2280028
:104C1000984703B0F0BDB769E0B20190BB687A680D
:104C2000944663441900FFF74FFE7B68C3187B600E
:104C30003A68934202D2738A83420FD90122A2407A
:104C40006B8993436B810234A4002C196368DB6881
:104C5000002BDED0019928009847DAE70549A40027
:104C60006258064B1A40C0239B015A40044B134321
:104C70006350CEE7005C00400F07FFFF8FB7FFFFD8
:104C80008080000070B575461C4B5C6CE2435A6432
:104C9000630511D4230513D4E30403D5174B9B6C90
:104CA0001B0416D5A30523D5154B5B68DB68002BC9
:104CB0001ED0134898471BE01148FEF75DFFE9E757
:104CC0000E4A136C08210B4313640D48FEF77AFF5C
:104CD000E2E70A4A136C08218B4313640848FEF785
:104CE0007BFFDFE721000648FFF750FF034B5C6CBA
:104CF0002304F7D42800FEF77BF870BD005C004069
:104D00009C070020054889000A58054B1A4080235B
:104D10005B015A40034B13430B507047005C00404B
:104D20008FB7FFFF80800000054889000B58054AB7
:104D3000134010225340044A13430B507047C0469F
:104D4000005C0040BF87FFFF808000008A00094BA5
:104D5000D358C0229201134093420AD005488900DB
:104D60000A58054B1A4080239B015A40034B1343BA
:104D70000B507047005C00408FB7FFFF8080000041
:104D80008A00084BD25830231340302B09D00548F5
:104D900089000B58044A134020225340034A13430E
:104DA0000B507047005C0040BF87FFFF8080000011
:104DB000024B01221A70024A9A6070472C080020A8
:104DC00000300040144B1A68144B9A421FD0144A0A
:104DD0005169FC23DB030B4353619023DB05002265
:104DE0005A60104999601049D960104959611A6296
:104DF0001132FF325A620E4A1A601B695B0708D5EE
:104E00009023DB051B695B07FAD401207047012062
:104E1000FCE70020FAE7C046F03F0020EFBEADDE21
:104E200000100240000CFFFFA80401A8FFF90000D9
:104E300003F32A6880B500AFFFF7C4FF00280AD04B
:104E400062B6074B00221A60064B83F30888064BB4
:104E50001B689847FEE7FFF78DF8BD4680BDC0464A
:104E6000F03F00205022002004C8FF1F7047C046BA
:104E7000F0B5C64600B582B00700009101921E0051
:104E80000B2398468044444604E030210FE0009B09
:104E9000002B15D001990098FBF730FACDB201999B
:104EA0000098FBF7A5F90090092DEED93721013CB8
:104EB0004D192570002EEAD0013E002EEAD1E6E71A
:104EC00043461B1B781C22783A70013B07000134D3
:104ED000002BF7D102B004BC9046F0BDF0B5DE4621
:104EE00057464E464546E0B585B005000E00029295
:104EF0009A46002B14D1042201231A4390465346AC
:104F00000F2B01D90F239A460F239C46AC446346CE
:104F10000193674692235B00994600239B4605E078
:104F20000222E9E71F004B465B0899460A21300040
:104F3000FBF7E4F9CCB20A213000FBF759F906007F
:104F40007B1E30341C70002809D04A46D207E9D5B0
:104F5000023F20233B701F3B9C46E344E3E7254A86
:104F60005946575C0397019AD21A029900291AD020
:104F70008A4218D90A0016E04046C00706D5012328
:104F800041469943884623002E2111E04046800780
:104F900003D55978013A02330AE0230008E0013AC8
:104FA000002A11D025005C1C19782029E4D02300A8
:104FB0006C1C29704646F607F1D45646013E504611
:104FC000002801D0B246EAE72E2900D0250043464A
:104FD0005B0705D5039B202B02D020232B700135C6
:104FE000681C2F7005B03CBC90469946A246AB4663
:104FF000F0BDC046CC5F0108F0B583B001900E1C37
:105000001400092A00D90924A300194A9F58301C0A
:10501000FBF79EFA0500FCF79BF9011C301CFBF71F
:1050200053FF061C3800FCF793F9311CFBF71AFEFE
:10503000FC218905FBF7A4FAFBF78AFA06008742F0
:1050400001D8C61B013500230A2229000198FFF769
:105050000FFF002C01D103B0F0BD451C2E230370BF
:1050600023000A2231002800FFF702FFF3E7C046C1
:10507000E05F0108F8B506000C1C17003249201C3F
:10508000FBF752FA002830D1FE218905201CFBF7DE
:1050900037FA002845D1002513E02B49201CFBF7E7
:1050A00009FC041C01352B78002B05D02649201C57
:1050B000FBF73AFA0028F0D1013D2D78002D00D001
:1050C000013F201CFBF744FA63282ED9023F002F32
:1050D0002FDB3A00211C3000FFF78EFF002F2BD171
:1050E000002D01D005700130F8BD184D0135DAE70B
:1050F0001549201CFBF7B6FD041C01352B78002B4D
:1051000006D0FE218905201CFBF7FAF90028EFD113
:105110000F49201CFBF708FA002804D0013D2D7828
:10512000CCE70C4DEAE70025C8E70928CFD9013FB5
:10513000CDE70027CDE70138431E1B78302BFAD08E
:105140002E2BCDD10138CBE700007A44CC5F01088B
:105150006F12833A08600108F8B5CE46474680B51D
:1051600080460C1C16000021201CFBF7C3F9002808
:1051700001D100250BE04346581C302342461370F2
:1051800055E02F49201CFBF76DFD041C013D2C4907
:10519000201CFBF7B5F90028F3D105E02849201CB5
:1051A000FBF788FB041C01352549201CFBF7BCF9E3
:1051B0000028F3D1201CFCF761F83030434618700A
:1051C0001F49201CFBF74EFD011C43469F1C2E234C
:1051D00042465370002E13D1062611E00E1C081C07
:1051E000FCF74CF80A21FBF773F97B1C9946303128
:1051F00039701349301CFBF735FD011C26004F4662
:10520000741E002EEAD165233B70002D13DBBC1CFD
:105210002B237B700A212800FBF774F830302070B4
:105220000A212800FBF754F9A01C303161700CBC36
:1052300090469946F8BDBC1C383B7B706D42E9E74F
:10524000000020410389012B06D943685A1C4260A3
:1052500019700389013B038100207047F0B5DE46D9
:1052600057464E464546E0B58DB080460C00039249
:1052700000272023029306E043461B689B684046B4
:10528000984701372C00651C2178002900D1C1E125
:105290002529F1D1002602E02B3B1E4301352B7856
:1052A0002D2BF9D02B2B08D0302B09D0202B0AD056
:1052B000622B0AD11E331E43F0E7273B1E43EDE766
:1052C000203B1E43EAE71E43E8E7002301930BE07F
:1052D000039B1A1D03921B78019A9500944665441E
:1052E0006A00D318019325006C1C2B789B46303B39
:1052F000DBB2092BF0D95B462A2BE9D02E2B12D03A
:1053000040231E4300239A465B466C2B26D04C2B31
:1053100024D05B46443BDAB2342A00D931E1930011
:10532000C04AD3589F4600239A4606E05246920050
:105330005244500082469A440C00611C23789B46DC
:10534000303BDBB2092BF1D95B462A2B04D1039BFE
:105350001A1D03921B78E9E70C00D5E72378002B90
:10536000D7D001349B46D4E71022F2E010239E43AD
:10537000039B1A1D03921B78002B00D10BE105AA99
:10538000137091460D2302AA944663449B46EDE0B8
:10539000102331009943039B1A1D03921B68994601
:1053A000002B0FD0730610D4CB465B461B78002B26
:1053B00000D1F4E05346013B9A4609D401239C46B0
:1053C000E344F2E7984B9946ECE7984B9A46EBE7B3
:1053D0000E00CBE0039B1A1D03921B680B930B9BE3
:1053E000002B09DB73071CD505AB2B221A700D208F
:1053F00002AB9C4660440BE008231E4305AB2D2204
:105400001A700B9B5B420B930D2002AB9C466044D1
:105410000B9900230A22FFF72BFD834605AB994623
:10542000A4E0B30607D505AB20221A700D2002AB0D
:105430009C466044ECE705A8EAE7039B1A1D03922B
:105440001B680B93730601D50F239A460B9953469D
:10545000019A05A8FFF742FD834605AB994685E012
:10546000330615D5039B1A1D03921B680B930B98EB
:105470000021FBF745F8002817D1730734D505AB99
:105480002B221A700D2302AA9446634499461CE00D
:10549000039B0733072293431A00083203921868CC
:1054A0005968FDF7F7F80B90E1E708231E4305ABB9
:1054B0002D221A700B9B80221206944663440B9394
:1054C0000D2302AA9446634499460B985849FBF76A
:1054D0002BF8002816D001234B449B4619234A463B
:1054E000137005AB994641E0B30608D505AB202201
:1054F0001A700D2302AA944663449946E5E705AB6A
:105500009946E2E75B46462B0CD0652B13D00B99EE
:10551000730619D452464846FFF76EFD834605AB25
:10552000994623E00B9952464846FFF7A3FD834670
:1055300005AB99461AE00B9952464846FFF70CFE18
:10554000834605AB994611E00922E4E7082200E012
:105550000A22039B191D03911B680B930B990023CF
:1055600005A8FFF785FC834605AB99465B464A468E
:105570009B1A019AD51A14D4F30625D53023029329
:1055800010E005AB5A461A7099460D2302AA9446BC
:1055900063449B46EAE705AB99469B46E6E70E0067
:1055A000E4E70025B30727D42C23334217D0F306B2
:1055B00015D543461B689B684A46561C11784046E1
:1055C00098470137B1460AE020230293EAE74346B1
:1055D0001B689B680299404698470137013D002DA2
:1055E000F5D109E043461B689B684A46561C117872
:1055F000404698470137B146CB45F3D807E04346CC
:105600001B689B680299404698470137013D002D71
:10561000F5D138E638000DB03CBC90469946A2461C
:10562000AB46F0BDF85E0108D85F0108FF7F0000BF
:10563000FFFF7F7F024B0360426001817047C046DD
:10564000146001080CB410B584B00C1E12DD020009
:105650006846FFF7EFFF07AA039206996846FFF72F
:10566000FDFD0300019A00211170601E984202DBCB
:10567000180000E0002004B010BC08BC02B01847BD
:1056800002290DD0032905D0012901D0002000E016
:1056900005487047032A05D8D20004488018F8E767
:1056A0000348F6E70020F4E7C06001081061010834
:1056B0007460010810B572B60248FEF74BF862B686
:1056C00010BDC0463808002010B50400022902D0E1
:1056D00003290FD010BD72B6094A0121FEF708FA5E
:1056E000084A02212000FEF703FA0748FDF7FEFFF3
:1056F00062B6EFE772B60448FDF7EEFF62B6E9E77F
:105700002460010840600108380800201C4A9169A3
:1057100080239B000B4393611A4B00225A601A4965
:105720000A609B68DB0705D5164A916803235B4234
:105730000B439360134B9B68DB07FBD4114BDA6878
:1057400001218A43DA609968802212060A439A602E
:105750000C4B9B68002BFBDB0A4B1B68DB0704D55B
:10576000084A136801210B431360064A936801211C
:105770000B439360034B1B68DB07FBD57047C046A8
:105780000010024000240140082701400A4B1A681B
:105790001A6000225A601A6207215961DA60986221
:1057A0009A6803390A439A60034B9B685B07FBD4F2
:1057B000014B186C80B2704700240140084B1A68F6
:1057C0001A6080225A60FA21C904196200215961C5
:1057D0009A62044ADA609A6804310A439A60704710
:1057E00000240140C0048000084B9B68DB070CD5F7
:1057F000064B9B685B0708D5044A936810210B434E
:105800009360024B9B68DB06FBD470470024014089
:10581000F8B58023DB055A6A264B1B68D31A264944
:105820008B4236D9234B1A60244B9B685B070AD402
:105830000027234A1168A0235B040B431360002454
:10584000002600250FE0FFF7CFFF0127F1E78020BA
:105850008002FFF79BFF2D188020C002FFF796FF04
:1058600036180134A4B20F2CF1D936092D09144A87
:10587000136814490B401360002F15D11248704370
:10588000000B124B1E8870432900FAF7B1FC104B35
:1058900018800F4B00229B5E632B08DD0D495622BA
:1058A000885AC01800B2F8BDFFF788FFE6E701206C
:1058B0004042F8E7280300204FC3000000240140C5
:1058C00008270140FFFFBFFEC8190000BAF7FF1FFD
:1058D000E00C00202C03002010B5044A136813606C
:1058E0001B0600D410BD0EF08FFCFBE70024014026
:1058F00010B57446FFF7F0FF2000FDF779FA10BDF0
:105900008023DB05586A7047006040607047C046DE
:105910000121024A13788B4313707047D40400208E
:10592000002330B504000A787C2A00D100222578B3
:10593000954204D1002A0CD001340131F3E70A78F2
:10594000002A04D001317C2AF9D10133EAE701238E
:105950005B42180030BD000030B5037800212D2BCC
:1059600001D10130013103780A252B3B5A425341C2
:10597000C31800201A7801331400303C092C07D9D1
:105980004D2A0FD06B2A06D0472A07D1064B04E0D8
:1059900068430019EEE7FA239B005843002900D022
:1059A000404230BD014BF8E700CA9A3B40420F002D
:1059B0007047000070470000086810B5FFF7CCFF83
:1059C0000122034B2E331870024B1A7010BDC046D3
:1059D000481D0020B00400207047000010B5086882
:1059E000FFF7BAFF10BD000010B50868FFF7B4FF5D
:1059F00010BD000010B5094C0522230030331A7089
:105A00000868FFF7A9FF86239B009C460822644490
:105A1000034B2060C01760601A7010BD481D002045
:105A2000D4040020B523064A5B00D35C01205B0749
:105A300005D4044B1878043843425841C0B270472B
:105A40002C0300209C070020034AD16980239B057A
:105A50000B43D3617047C0460010024010B5FDF7FC
:105A600073F910BD70B5FFF753FF6420FDF76CF9B3
:105A700010236425044C23702378002B00D170BDC3
:105A80002800FDF761F9F7E7D404002010B5FFF70F
:105A90003FFF0BF0CBFA10BD70B50D0002280AD104
:105AA0000868FFF759FF04006868FFF755FF01B267
:105AB00020B20AF00FFF0222024B1A700EF0A4FB74
:105AC00070BDC046561C0020F7B5A027A0260024B4
:105AD0000A4D7F00F600210002233A0000200095C5
