:020000040800F2
:1000000000010020A101000851090008AD610008AD
:100010005109000851090008510900085109000858
:100020005109000851090008510900085909000840
:100030005109000851090008510900085109000838
:100040005109000851090008510900085109000828
:10005000510900085109000851090008B59100082C
:10006000CD910008E59100085109000851090008E8
:100070005109000851090008A18B00085109000826
:10008000510900085109000889AF0008510900080A
:1000900051090008510900085109000851090008D8
:1000A00051090008510900085109000851090008C8
:1000B000511D0008510900085109000851090008A4
:1000C00051090008510900085109000851090008A8
:1000D00051090008ED1D00085109000851090008E8
:1000E0005109000851090008510900085109000888
:1000F0005109000851090008510900085109000878
:100100005109000851090008510900085109000867
:100110005109000851090008510900085109000857
:100120005109000851090008510900085109000847
:100130005109000851090008510900085109000837
:100140005109000851090008510900085109000827
:100150005109000851090008510900085109000817
:10016000510900085109000851090008851E0008BE
:1001700051090008510900085109000851090008F7
:1001800051090008510900085109000851090008E7
:1001900051090008510900085109000851090008D7
:1001A00072B6344880F3098840F20000CCF20000B7
:1001B0004EF63471CEF200010860BFF34F8FBFF3EB
:1001C0006F8F40F20000C0F2F0004EF68851CEF280
:1001D00000010860BFF34F8FBFF36F8F4FF0000037
:1001E000E1EE100A4EF63C71CEF2000108600620E6
:1001F00080F31488BFF36F8F01F024FB02F0B8F98D
:100200004FF055301C491D4A91423CBF41F8040B48
:10021000FAE71B49174A91423CBF41F8040BFAE741
:100220001849194A194B9A423EBF51F8040B42F83B
:10023000040BF8E700201649164A91423CBF41F8EA
:10024000040BFAE701F004FB01F0FEFA124C134D27
:10025000AC4203DA54F8041B8847F9E706F04EFE77
:100260000F4C104DAC4203DA54F8041B8847F9E7F1
:1002700001F0ECBA00030020000000200001002083
:1002800000010020F859010800030020A403002009
:10029000A8030020B4990020A0010008A0010008D4
:1002A000A0010008A00100082DE9F04F2DED108AF3
:1002B000C1F80CD0C3689D46BDEC108ABDE8F08F34
:1002C000002383F311882846A047002001F06EFB2D
:1002D00001F042FB00DFFEE781F0004102E000BFD9
:1002E00083F0004330B54FEA41044FEA430594EAF6
:1002F000050F08BF90EA020F1FBF54EA000C55EA31
:10030000020C7FEA645C7FEA655C00F0E2804FEA01
:100310005454D4EB5555B8BF6D420CDD2C4480EAE3
:10032000020281EA030382EA000083EA010180EA13
:10033000020281EA0303362D88BF30BD11F0004F61
:100340004FEA01314FF4801C4CEA113102D0404297
:1003500061EB410113F0004F4FEA03334CEA1333D2
:1003600002D0524263EB430394EA050F00F0A780EA
:10037000A4F10104D5F1200E0DDB02FA0EFC22FAE5
:1003800005F2801841F1000103FA0EF2801843FAD9
:1003900005F359410EE0A5F120050EF1200E012ACA
:1003A00003FA0EFC28BF4CF0020C43FA05F3C01808
:1003B00051EBE37101F0004507D54FF0000EDCF181
:1003C000000C7EEB00006EEB0101B1F5801F1BD32A
:1003D000B1F5001F0CD349085FEA30004FEA3C0C2E
:1003E00004F101044FEA445212F5800F80F09A8024
:1003F000BCF1004F08BF5FEA500C50F1000041EB28
:10040000045141EA050130BD5FEA4C0C404141EB2B
:100410000101013C28BFB1F5801FE9D291F0000F26
:1004200004BF01460020B1FA81F308BF2033A3F1D5
:100430000B03B3F120020CDA0C3208DD02F1140CCC
:10044000C2F10C0201FA0CF021FA02F10CE002F107
:100450001402D8BFC2F1200C01FA02F120FA0CFC00
:10046000DCBF41EA0C019040E41AA2BF01EB045149
:10047000294330BD6FEA04041F3C1CDA0C340EDC47
:1004800004F11404C4F1200220FA04F001FA02F38A
:1004900040EA030021FA04F345EA030130BDC4F148
:1004A0000C04C4F1200220FA02F001FA04F340EA3D
:1004B0000300294630BD21FA04F0294630BD94F0EE
:1004C000000F83F4801306BF81F480110134013DD5
:1004D0004EE77FEA645C18BF7FEA655C29D094EA46
:1004E000050F08BF90EA020F05D054EA000C04BFC4
:1004F0001946104630BD91EA030F1EBF00210020AF
:1005000030BD5FEA545C05D14000494128BF41F04D
:10051000004130BD14F580043CBF01F5801130BDB1
:1005200001F0004545F0FE4141F470014FF000003C
:1005300030BD7FEA645C1ABF194610467FEA655CED
:100540001CBF0B46024650EA013406BF52EA03358F
:1005500091EA030F41F4002130BD00BF90F0000F7D
:1005600004BF0021704730B54FF4806404F13204B9
:100570004FF000054FF0000150E700BF90F0000F72
:1005800004BF0021704730B54FF4806404F1320499
:1005900010F0004548BF40424FF000013EE700BF69
:1005A00042004FEAE2014FEA31014FEA02701FBFF9
:1005B00012F07F4393F07F4F81F06051704732F02B
:1005C0007F4208BF704793F07F4F04BF41F4002182
:1005D000704730B54FF4607401F0004521F00041E0
:1005E0001CE700BF50EA010208BF704730B54FF06A
:1005F00000050AE050EA010208BF704730B511F06B
:10060000004502D5404261EB41014FF4806404F1A2
:1006100032045FEA915C3FF4D8AE4FF003025FEA28
:10062000DC0C18BF03325FEADC0C18BF033202EBAC
:10063000DC02C2F1200300FA03FC20FA02F001FA06
:1006400003FE40EA0E0021FA02F11444BDE600BFA9
:100650004FEA4102B2F1E04324BFB3F5001CDCF1E4
:10066000FE5C0DD901F0004C4FEAC0024CEA50701C
:10067000B2F1004F40EB830008BF20F0010070474B
:1006800011F0804F21D113F13872BCBF01F000404E
:10069000704741F480114FEA5252C2F11802C2F180
:1006A000200C10FA0CF320FA02F018BF40F0010001
:1006B0004FEAC1234FEAD32303FA0CFC40EA0C00B3
:1006C00023FA02F34FEA4303CCE77FEA625307D1F0
:1006D00050EA01331EBF4FF0FE4040F44000704727
:1006E00001F0004040F0FE4040F40000704700BFC1
:1006F00080F0004002E000BF81F0004142001FBFD7
:100700005FEA410392EA030F7FEA226C7FEA236CDF
:100710006AD04FEA1262D2EB1363C1BFD2184140D4
:1007200048404140B8BF5B42192B88BF704710F06A
:10073000004F40F4000020F07F4018BF404211F00D
:10074000004F41F4000121F07F4118BF494292EA75
:10075000030F3FD0A2F1010241FA03FC10EB0C00A1
:10076000C3F1200301FA03F100F0004302D549422E
:1007700060EB4000B0F5000F13D3B0F1807F06D3DB
:1007800040084FEA310102F10102FE2A51D2B1F1D3
:10079000004F40EBC25008BF20F0010040EA0300C8
:1007A0007047490040EB0000013A28BFB0F5000F48
:1007B000EDD2B0FA80FCACF1080CB2EB0C0200FAFE
:1007C0000CF0AABF00EBC25052421843BCBFD0404D
:1007D0001843704792F0000F81F4000106BF80F4C7
:1007E00000000132013BB5E74FEA41037FEA226C8A
:1007F00018BF7FEA236C21D092EA030F04D092F055
:10080000000F08BF0846704790EA010F1CBF002088
:10081000704712F07F4F04D1400028BF40F00040E5
:10082000704712F100723CBF00F50000704700F005
:10083000004343F0FE4040F4000070477FEA22622C
:1008400016BF08467FEA23630146420206BF5FEAFD
:10085000412390EA010F40F4800070474FF00003FD
:1008600004E000BF10F0004348BF40425FEA000CC4
:1008700008BF704743F0964301464FF000001CE06C
:1008800050EA010208BF70474FF000030AE000BFC2
:1008900050EA010208BF704711F0004302D5404200
:1008A00061EB41015FEA010C02BF84460146002072
:1008B00043F0B64308BFA3F18053A3F50003BCFA8D
:1008C0008CF2083AA3EBC25310DB01FA02FC63443A
:1008D00000FA02FCC2F12002BCF1004F20FA02F241
:1008E00043EB020008BF20F00100704702F1200234
:1008F00001FA02FCC2F1200250EA4C0021FA02F295
:1009000043EB020008BF20EADC70704753B94AB9D4
:10091000002908BF00281CBF4FF0FF314FF0FF3007
:1009200000F00CB8ADF1080C6DE904CE10F064F8DD
:10093000DDF804E0DDE9022304B07047704700BF32
:10094000034613F8012B002AFBD1181A013870470F
:10095000FEE700BFFEE700BF80B4094A536B23F0F7
:10096000010300AF5363EFF30983683383F309880E
:10097000002383F31188BD465DF8047B704700BFF8
:1009800000EF00E0C36810B44469196081698268AF
:100990000B44A342C36002F1010228BF036A5DF861
:1009A000044B826028BFC360704700BFD0E90431A8
:1009B00010B48469826823448B42036124BF036AB4
:1009C0000361013AC36A82600022426213B15DF89A
:1009D000044B18475DF8044B704700BF034610B442
:1009E0001969C069DC68013919615969421CDA6109
:1009F0008A4228BF0022205CDA615DF8044B704710
:100A00000369826901330361531C8361C36899548C
:100A1000D0E90523934228BF00238361704700BFBC
:100A200090F8743003F06003202B01D00020704751
:100A300090F87530212B07D81F2BF7D9054A0723CB
:100A4000C0E91A2301207047222BEFD10023C0E90F
:100A50001A33F7E778030020704700BF0F4A136886
:100A600023F4F04323F0400348F2800183F01003A5
:100A70000B4310B51360136823F4904323F0700305
:100A800083F480530B43416813600B6804460BB139
:100A900005219847062384F8643010BD005C0040AF
:100AA00090F87630074A80F87E3043F0800310B526
:100AB000D36443681B6804460BB1012198470323A4
:100AC000237010BD005C0040024A136843F08003AD
:100AD000136070470038014000EB810070B4C368B8
:100AE0001C4A5D69126D1B8AD5E90046A41B9C4215
:100AF00002F1804228BF1C4602F5C04202EB011001
:100B000004F1010C5FEA5C0CAB68026844600DD034
:100B100002F1005202F540523344520003EB4C0CF8
:100B200033F8020B42F8040B6345F9D1094A344407
:100B30006C6052F8213023F4F04323F0400383F03B
:100B4000300343F4004343F0800370BC42F821308B
:100B5000704700BF005C004070B500EB810506895E
:100B6000ED684FF0010E6D690EFA01FE4EEA060EB9
:100B7000A0F808E0AA600022C5E90032BDE8704094
:100B8000FFF7AABF036BD3F83C2110680178042952
:100B900002D11979022900D070471179B0F808C044
:100BA00001228A4012EA0C0FF6D15A6C002AF3D0C7
:100BB000DA6C52F8043BFFF7CFBF00BF90F8643007
:100BC00010B50446062B12D8DFE803F012121216F5
:100BD00004121200202383F3118800231A461946B9
:100BE000FFF7BAFF81F31188052384F8643010BD44
:100BF000BDE81040FFF732BFC3689B695B68002BFC
:100C0000F5D1036F03B19847002384F8643010BD19
:100C100070B500F10B06B646B1FBF2F402FB141CF2
:100C2000BCF10A0F34BF3025372555FA8CFC0EF87D
:100C300001CD0D4621460BB1013BEDD1954201D3CB
:100C40000023E9E7431EA6EB0E011EF8012B03F873
:100C5000012F7645F9D1084470BD00BF092970B550
:100C6000FCEEC07A0E461B4BA8BF0926B8EE677A89
:100C700053F8263030EE470A07EE103AF8EE476A8E
:100C8000B6EE007AA0EE267A0D46BCEEC77A17EED5
:100C9000104AA34205D8E41A17EE903A013307EE42
:100CA000903A17EE901A00230A22FFF7B1FF7DB1A8
:100CB000094A928A12F4807F0CBF2E222C2200F85F
:100CC000012B334621460A22BDE87040FFF7A0BF42
:100CD00070BD00BF443B0108040300200389012BC1
:100CE00006D943685A1C426019700389013B03818D
:100CF0000020704710B50346024413F8010B11F8A9
:100D0000014B9342A0EB040001D00028F5D010BDA8
:100D100010B5427804460132002052010346022BEE
:100D200007D0C10341EA5001E05C10FA81F188B2BA
:100D300000E0032301339A42F1D810BD03685A1C26
:100D400002601878A0F16103192B01D82038704790
:100D50007F2803D9024B034413F8800C704700BF6F
:100D60008C3A0108F0B585B00546019114461E463F
:100D7000E3B23BB101A8FFF7E1FF08B900203DE075
:100D8000013CF5E72B78002B34D1002C32D0012028
:100D900034E02A2B0FD003A8FFF7D0FF074602A8A4
:100DA000FFF7CCFF874201461DD1002FEFD00398FB
:100DB00003783F2BEDD1002EE0D0002210F8013B4C
:100DC0003F2B03780CBF013242F480723F2BF5D0E9
:100DD0002A2BF3D0029F0390731E3946FFF7C2FF00
:100DE0000028D4D1397801A8FFF7A8FF002CC5D07E
:100DF0000029C3D0019B03950293D8E705B0F0BD4D
:100E0000274B284A30B5B0F5805F38BF134684B20F
:100E100004330DE08C4210D333F8022C5FFA82FCCD
:100E20000CEB010E70454FEA122207DB043372B15E
:100E300033F8041C1D460029ECD130BD082AFCD82B
:100E4000DFE802F02A24201C1814100C080005EB1F
:100E50004C03DDE7A4F5E354A0B230BDA4F150008B
:100E600080B230BD04F1080080B230BDA4F11A0098
:100E700080B230BDA4F1300080B230BDA4F12000BA
:100E800080B230BDA4F1100080B230BD631A03F00F
:100E90000103E31A98B230BD401A33F8100030BD98
:100EA000D0380108DC36010802290BD0032904D010
:100EB0000129204818BF00207047032A04D007D911
:100EC000002070471C4870471C4B9B8A5B0503D46D
:100ED0001B4800EBC20070471A4AD2F8B407D2F898
:100EE000AC37D2F8B01710B5174C03440B4320466B
:100EF00004F1180E03F01F02092A8CBF4FF0370CC3
:100F00004FF0300C624420F8022F5B09864543EA1B
:100F1000C1634FEA5111EDD10C4840F21A321A2345
:100F2000A0F8E02FC0F8D83FC0F8DC4F00F6D8702A
:100F300010BD00BFB4360108AC3601080403002020
:100F4000BC36010800F0FF1F0C7600202C66002044
:100F50002DE9F041202282F31188194CD4F83C216C
:100F600015682978042902D12179022904D00023A7
:100F700083F31188BDE8F08117792B890122BA40EB
:100F80001A42F4D1D4F84480B8F1000FEFD1236EA7
:100F9000002BECD0A26C043B991AE8D004F13C0081
:100FA000FFF7F0FC626CC4F8608012B1E26C52F89A
:100FB000046B334639462846FFF7CEFDD7E700BF1E
:100FC000EC64002030EE010AF0EE007AA0EEA70AF1
:100FD000F5EE007A20EE270A704700BF60EE817AB6
:100FE000F0EE406A67EE807AB0EEE70A10EE103A53
:100FF00013F0FF4F23F000410FD1C9B3DFED227A88
:101000002248234A60EE277A17EE903A23F00041F7
:10101000A0FB010102EB510205E01C481D4AA0FBA8
:10102000010102EB510203F00043134307EE903A33
:1010300027EEA77AB0EE006A27EE277AF0EE405A44
:10104000B0EE475AA0EE065AE7EE065A85EE257A2C
:1010500067EE277A27EEA77A27EE277AF0EE475A2F
:10106000E0EE065AA7EE060A85EE807A27EE270AFA
:1010700070EE810A70EEA60AF5EEC00AF1EE10FAE3
:1010800048BFB1EE400A70470000804BABAAAAAA45
:10109000F2195126F219512A094BF0EE406AF7EE87
:1010A000007A30EE270A03F12C02F0EE667AB3ECF8
:1010B000017A67EEA67A9342A7EE270AF7D1704726
:1010C000E0310108AAB101390B1A02FB03F300FB5E
:1010D00003F303FB02F207EE902A01FB01F1B8EEE5
:1010E000670A07EE901AF8EE677A80EE270AFFF794
:1010F000D3BFB7EE000A7047054B1B6810B41C68DD
:1011000024680A460146184623465DF8044B1847F2
:10111000280C002010B42D4C638B002B4CD004EB1A
:10112000C30C224604F65851F7EE002A04F5CF53BB
:1011300012E0F0EE466AF0EE645AE7EE056AE7EE7A
:10114000855A08329445C3ED006AC3ED015A01F196
:10115000080103F108032FD092ED343A93ED007AA1
:10116000D1ED016AD2ED353AD1ED005AD3ED017AD5
:1011700073EE474A37EE437A33EEE76A35EEA24A1A
:1011800077EEE37A32EEE55A67EE265A012826EE2C
:10119000C66A64EEA64AE7EE845A67EE043A67EE42
:1011A000A66AC6D0B0F1FF3F12BF73EEE66A76EED4
:1011B000E36AF1EE655AC4E7A38C23F0040343F01D
:1011C0004003A3845DF8044B704700BF482500200E
:1011D00010B5027803462D2A04BF013301211A7885
:1011E00018BF00212B2A08BF013300200A2413F85E
:1011F000012B303A092A02D804FB0020F7E701B19D
:10120000404210BD70B5044600200B46651E1A789A
:1012100015F8016F7C2A08BF00229642194603F197
:10122000010301D14EB1F2E711F8013B1BB17C2B58
:10123000FAD10130E9E74FF0FF3070BD0D4B19696D
:101240001A6810B40875106818604FF0010C4360FC
:101250001A6182F814C0EFF309800C696438844283
:1012600004D85DF8044B1046FFF71EB872B6024A68
:101270005A62FEE7387800205C0D010870B54B1CFF
:1012800086B040D03C4C2369049325463B4B0393E6
:1012900055F8143F02294FF0804E38BF0221AB426F
:1012A0008446DEF8240051D0226A08449968821AE4
:1012B0008A422FD304D91B68521A99689142FAD3F3
:1012C000596801916E4600930E605E6002929968C3
:1012D000891A99604FF0FF33E3616046FFF7AEFF74
:1012E000039B63B16269009BB24216D0019AAB4284
:1012F00013605A6003D09A6802990A449A6023697D
:10130000986906B070BD1C4CFFF798FF2369986977
:1013100006B070BDCEF83400D2E70022AB42636164
:101320005D60039223D09A6802994FF080400A448E
:101330009A60416A236ACD1AAA42E0D95B1A134423
:10134000022B2CBFC91802314163D8E72062002369
:1013500008446E46CDE90055C4E905660291CEF811
:101360003400CEF810300223CEF80C30B5E74FF041
:101370008043DA60C3E700BF38780020C518000852
:101380002DE9F047D0F83C311B681B78042B04D0C2
:101390004FF0000A5046BDE8F08705460F46164656
:1013A00000F13C08202383F311884FF0000AD14656
:1013B0001EE06C6EA6EB0A03241A9C4228BF1C4652
:1013C000224607EB0A010FF097FCD5E918322344B7
:1013D000934240462B66A24408D3696D0439FFF757
:1013E000D1FAAB6EC5F8609003B19847564508D95D
:1013F000286E0028DDD140460DF0D2FF08B9286ED6
:10140000D7E7002383F311885046BDE8F08700BF7B
:10141000F8B5D0F83C311B681B78042B28D1044662
:101420000D4600F13C07202383F31188066EB6B108
:101430003570D4E9183201339342236603D2002079
:1014400080F31188F8BD616D38460439FFF79AFAC8
:10145000A36E00222266002BF1D09847EFE73846B2
:101460000DF09EFF08B9266EE2E786F31188F8BDFD
:101470006FF00100F8BD00BF006B0FF095BA00BF20
:1014800000EB81032DE9F0419C6AC4B105460E468C
:10149000202383F3118800EB8103D3F80C80D8F864
:1014A00014301F68BFB9636C5BB1E26C314652F80F
:1014B000043B2846FFF750FB002383F31188BDE867
:1014C000F081B8F810209742F6D11A4631462846E6
:1014D000FFF742FBF0E7636C626D013B6364E36C12
:1014E0001344226DE364934224BFE36DE36404F18B
:1014F0003C000DF06DFFD6E7113110B550F82140DA
:1015000094B1202383F31188D4F83C2113685279D5
:1015100003EB8203DB689B69596831B920460FF001
:1015200043FA002383F3118810BD04F10800FFF78C
:1015300029FA0DF04DFFF1E738B50D4614460DF0D0
:101540000DFEFF2806D9012C09D9030A2B706870FB
:10155000022407E028B12CB12870012402E0002405
:1015600000E00446204638BD38B5C378CBB100F161
:101570003C05826B04460123407829460BF0B2FB00
:1015800088B9A16BA36A226AE070CB1A934208D291
:10159000A378022B05D10A446078012329460BF079
:1015A000A1FB002000E0012038BD0000094A08B579
:1015B000138B03F00101814200D108BD23F0010328
:1015C00003430A20138309F02FFE034B00221A77EE
:1015D00008BD00BF4825002004030020012800D0DA
:1015E000704708B50B460D491868FFF70BFE58B158
:1015F000012804D10A4A137823F040031370BDE890
:101600000840C62009F010BE054A137843F0400395
:101610001370BDE80840C62009F006BE182C01086A
:101620000003002010B52DED028B82B00446694600
:1016300001A8D4ED008A94ED018A0DF08FFBDDED59
:10164000017ADDED006A28EE677A67EEA87AA6EEE9
:10165000A87AE6EE887A84ED007AC4ED017A02B0C9
:10166000BDEC028B10BD00BF2DE9F04F2DED028BBC
:10167000594C061EB4F8228083B015467BDAD4F8A4
:101680000CA08A450F4675D2206908F1FF388842C0
:101690001FFA88F840F28480A0EB0A09A1EB0A0047
:1016A0004A460023A0FB0801FFF730F90646A6FBD7
:1016B00009CBC0174FEA58011CEB010109FB00BB25
:1016C0004BF1000B42460023019108465946FFF7B3
:1016D0001DF90199034619EB01004BF100019946F0
:1016E00042460023FFF712F90AEB090B5F458244DB
:1016F000A0EB09003FD0002854D0A7EB0B0307EE66
:10170000900A07EE103AF8EE677AB8EE477A87EE5D
:10171000278A584609F04AFC8146504609F046FCA3
:10172000484542D1731C2A1D04EBC60604EBC303D3
:101730002C35D6ED347A93ED347A37EE677A11464C
:10174000E7EE087A083242ED037AD6ED357A93ED6A
:10175000357A37EE677A9542E7EE087A06F68846DC
:1017600003F68843C1ED007AE3D103B0BDEC028BF0
:10177000BDE8F08F00262B1D04EBC6042C35D4F8F1
:10178000D02043F8042CD4F8D42043F8082B9D42F1
:1017900004F68844F3D103B0BDEC028BBDE8F08FB2
:1017A0004646E8E79FED0D8AB3E7384609F0FEFBB1
:1017B000484508D0B045DEDDF7EE007AB31C38EEC0
:1017C000678A0136AFE7002ED5DDF7EE007A3346A3
:1017D00038EE278A013EA6E74825002000000000D9
:1017E0000DF048BA022800D0704738B508680C469A
:1017F000FFF7EEFC05466068FFF7EAFC29B202B28B
:10180000BDE8384001200AF077B800BF022838B59B
:1018100008D04FF0FF32154629460220BDE8384077
:101820000AF06AB808680C46FFF7D2FC05B2606897
:10183000FFF7CEFC294602B2BDE8384002200AF08C
:101840005BB800BF704700BF704700BFFEE700BF36
:1018500070B5134D05F1800455E90301884255F830
:10186000102C0DD2043A034652F8046F43F8046B6F
:101870008B42F9D34B1E1B1A23F003030433184485
:1018800055F8042C824207D9013A121A22F00302B9
:10189000043200210FF028FA1035A542DCD170BDCA
:1018A000883B010800228168054B02751B689A6815
:1018B0008A42FBD25A68C0E9003210605860704713
:1018C0003878002008B5202383F31188037D032B8B
:1018D00010D0042B09D02BB14FF0FF338361FFF7F9
:1018E000E1FF002383F3118808BDD0E900321360C3
:1018F0005A60F1E7836900221A60EDE738B50446C3
:10190000006800238442C4E9063323610AD06FF0E3
:101910000105036823605C608561FFF7C3FF2068F1
:101920008442F6D138BD00BF38B504460068226A4B
:1019300000238442C4E90322C4E90933A3600AD026
:101940006FF00105036823605C608561FFF7AAFF03
:1019500020688442F6D138BD30B4124D2868296918
:1019600003682B6001225D60027500220A758C6895
:101970009A682861A24203D91B689A68A242FBD8E0
:101980005A68C1E9003211605960EFF309830A69AE
:10199000643B9A4202D830BCFEF786BC72B6024B5A
:1019A0006B62FEE7387800205C0D010803462022B8
:1019B00082F31188024A12690F209361FFF73EBC3F
:1019C0003878002008B50146202383F311880820C9
:1019D000FFF754FC002383F3118808BD69B1084A5E
:1019E00010B4126944680346C2E90034042022603E
:1019F0005DF8044B5A60FFF741BC4FF0FF30704771
:101A0000387800202DE9F04F83B0044601938846D2
:101A10001746202383F311884FF0000A10E02A466E
:101A200018460FF069F9E6692E442369E6615B1BED
:101A30002361AA44A3680BB120469847574529D98A
:101A4000236903B3A7EB0A059D4228BF1D46002D5D
:101A5000F0D0012D08EB0A0323D0E669D4F814B0C6
:101A6000E168ABEB06094D453144D8D34A461846E8
:101A70000FF042F9A6EB0B062E44E16848443246CB
:101A80000FF03AF9D1E701992046FFF7A7FF08B90F
:101A90002369D7E7002383F31188504603B0BDE8DC
:101AA000F08F2046FEF79AFF08F80A000AF1010AB3
:101AB000C0E700BF4FF0FF330830FFF7A3BF00BF00
:101AC0002DE9F04F83B0054601938846202383F328
:101AD0001188002691460FE022460FF00DF9AF69FC
:101AE00027442B69AF6123442B612644AB680BB1BB
:101AF00028469847B1452ED9D5E90437BB4222D2B2
:101B0000A9EB0604FB1A9C4228BF1C46002CEDD012
:101B1000012C08EB060125D0D5F818B0E868A7EB32
:101B20000B0A54455844D7D352460091ABEB070BF0
:101B30000FF0E2F80099E8680BEB04073A465144CD
:101B40000FF0DAF8CDE701992846FFF747FF10B903
:101B5000D5E90437D4E7002383F31188304603B076
:101B6000BDE8F08F18F806102846FEF749FF013649
:101B7000BCE700BF4FF0FF332830FFF7A1BF00BF25
:101B800070B5202304460D4600F1280683F3118822
:101B9000D0E90E239A420BD229463046FEF730FF99
:101BA000236B03B198470020002383F3118870BD95
:101BB0004FF0FF313046FFF711FF0028ECD0002333
:101BC00083F3118870BD00BF70B52023044600F177
:101BD000080683F31188836963B13046FEF7FEFE81
:101BE000236905460BB130469847002383F31188DB
:101BF000284670BD4FF0FF313046FFF7EFFE054637
:101C00000028EAD0002383F31188284670BD00BF66
:101C1000F8B5044600F10806202383F31188C36A4F
:101C200073B1026B13F8015BE362934204D20023A9
:101C300083F311882846F8BD3046FEF7B7FEF6E775
:101C4000076937B1A3691A6804331A44C4E90B322F
:101C5000E8E74FF0FF313046FFF7C0FE05460028A9
:101C6000F0D087F31188E5E72DE9F84305460F46E4
:101C7000164600F10808202383F311884FF000096D
:101C800016E02C6B641AA6EB09039C4228BF1C4685
:101C9000224638460FF030F8D5E90B322344934200
:101CA000EB62A144404601D3FEF780FE4E4512D9B7
:101CB000E96A0029E5D12B6933B1A9690C680431BF
:101CC0000C44C5E90B14DDE74FF0FF314046FFF748
:101CD00085FE0028F1D0002383F311884846BDE833
:101CE000F88300BF202383F31188144B5B6813F43F
:101CF000006302D183F31188704780B400AFF1EE26
:101D0000103AEFF309830E4A4FF08071D26B43F81B
:101D1000082C43F84C1CA3F1680282F30988094A95
:101D2000116812698968926891428CBF064A074A15
:101D300043F8502CBD465DF8047B704700ED00E091
:101D400000EF00E038780020D1020008D40200083B
:101D50002DE9F8434FF08049D9F810309B0703D4A0
:101D6000BDE8F843FFF7BEBF0025C9F81050202694
:101D700086F311881C4CD9F824106369206A9A688C
:101D80000F1ABA4204F1140898BF2F461AD81968DE
:101D9000024441452262DA68C1F804806161DD6075
:101DA00008BFC9F80C5087F311881869904786F36B
:101DB00011886369D9F82410206A9A68A1EB000C95
:101DC0006245E4D9434508D00244521A4FF080439B
:101DD000022A2CBF891802315963002383F311882A
:101DE000BDE8F843FFF77EBF387800202DE9F843BF
:101DF000DFF88880D8F8C8402768E5692562202385
:101E000083F31188AA060FD508F10806D8E906233E
:101E1000A18C9A423046C9B203D2FEF7F1FD0DF013
:101E2000D7FAE569AB06F1D43E0614D5280612D5DB
:101E3000DFF84C90D8F838304846D3B1FEF7CEFDE5
:101E4000064648460DF0C4FA002EB3B211DB2385D6
:101E5000E5692906EED47A0604D56B0644BF27F05F
:101E600040072760002383F31188BDE8F843FFF79C
:101E700039BF27F080032360EDE700BF68770020BB
:101E8000907700202DE9F04F7B4B5C6CE2436105BD
:101E900087B05A6400F1C480220500F1C680E304D3
:101EA00004D5754B9A6C170440F1D380A60507D56D
:101EB000DFF8C8A1DAF80430DB680BB15046984768
:101EC000250440D5DFF8B4A1DFF8B4B1DFF8A8915C
:101ED0001BE070691968D0E9000401EA0B0141F4C4
:101EE00000418442196033D3BAF80830B468012144
:101EF000914023EA0103AAF8083014B15F48114663
:101F0000A047D9F8444023041DD504F00F029300E4
:101F100003F18043971C03F5B8430AEB8701E406FD
:101F20001D684E68D5D5186800EA0B0040F08000A7
:101F300018602805D1B210D5736850489847D9F871
:101F400044402304E1D407B0BDE8F04FFFF7CABE18
:101F50004A481146FEF7C0FDD3E7D9F85000D6F83D
:101F600018C000F1804000F5C04000EB021084680A
:101F7000D0F80CE004F1005000F540504400DCF8CB
:101F8000040001900546DCF80800059428440290FE
:101F9000CEF34805CEF3090003905DB10298049595
:101FA000023800EB450854F8045B20F8025F404516
:101FB000F9D1049D1EF0010F08D00598029C50F83D
:101FC000250004F81500DCF8040001900198039D39
:101FD000DCF800402844A042CCF8040002D2708A09
:101FE000A84210D90AEB870701207B68DC68BAF8A1
:101FF0000A30904023EA0003AAF80A30002C80D06F
:102000001E48A0477DE71A6822F4904222F0700231
:1020100082F4405242F4004242F080021A6070E7BB
:102020000DF08AF922057FF53AAF134ADFF84CA08C
:10203000136CDAF8041043F00803052013648AF8DF
:1020400000000B68002B3FF42AAF0321504698474D
:1020500025E71A6CDFF824A022F008021A64042194
:10206000DAF804308AF800101B68002B3FF41EAF2A
:10207000504698471AE700BF005C0040E476002015
:102080000F07FFFF10B500EB8104B0F80AE0E46829
:102090004FF0010CA4690CFA01FC4CEA0E0CA0F8FC
:1020A0000AC0236009480023636050F82130A26011
:1020B00023F4904323F0700383F4405343F400432C
:1020C00043F0800340F8213010BD00BF005C0040A9
:1020D000F8B50022B14B80F864201B6D456803F110
:1020E000804303F5C04303EB011311469B68AD68C1
:1020F00003F1005303F540535B0004461E6866F38A
:102100000F01D3E90176DB68026766F30F0267F31C
:102110001F4163F31F4241678267E5B1A847D0B111
:10212000E26EB4F87A30934238BFE366202383F33B
:10213000118894F97430002BE36E23DB7BB3A26E1D
:1021400000212046FFF79EFF042384F8643000231B
:1021500083F31188F8BD94F8743013F0600F2BD11D
:1021600003F01F03012B94F8752024D0022B34D0E8
:1021700013BB092A20D8DFE802F096781F781FC227
:10218000B01FAA99EBB1A26E00212046FEF7E4FC35
:10219000012384F86430002383F31188F8BD1A46C4
:1021A00019462046FEF7D8FC052384F86430002346
:1021B00083F31188F8BDAAB32046BDE8F840FEF7C6
:1021C0004DBC1A4619462046FFF75CFF032384F8EE
:1021D0006430002383F31188F8BDB4F8783003F03D
:1021E0000F0103F080030C2AE6D801A050F822F07A
:1021F0008B2200082F220008B92100082F22000896
:10220000B9210008B9210008B9210008B921000846
:10221000B9210008B9210008B9210008B921000836
:10222000252200085E4B0222C4E91A3279E7B4F88D
:1022300076000028C0D10029BED0012A00F082809B
:10224000564A002B6FD052F8213023F4F04323F08C
:10225000400383F0100343F4004343F0800342F84B
:1022600021300023C4E91A3360E7B4F87630012B3B
:10227000A2D1B4F87C3023F002039BB2032A08BF3A
:1022800043F00203A4F87C30EBE7002B3DD0434B36
:1022900053F8212012F030028ED0424B4249102ACE
:1022A00008BF0B46BFE704F17C03BCE794F8763027
:1022B000626884F87F30002B0CBF03210421217059
:1022C0001368002BCDD0022120469847C9E7012290
:1022D00004F17F03C4E91A3223E7B4F87610626888
:1022E000B4F8783055682046CAB2090AA8470028D1
:1022F0003FF462AFD0E90023C4E91A3211E72B4A58
:1023000022670023C4E91A3310E7244B53F8212035
:1023100012F440523FF450AF224B2349B2F5805F94
:1023200008BF0B467FE752F8213023F4904323F097
:10233000700383F4805343F4004343F0800342F876
:1023400021308EE78A0002F1804202F5B8428BB15B
:10235000136803F03003302B83D0136823F4F04369
:1023600023F0400383F0200343F4004343F0800351
:10237000136076E7136803F44053B3F5405F3FF40E
:1023800070AF136823F4904323F0700383F4005379
:1023900043F4004343F08003136062E7005C0040B5
:1023A000743B01086C3B0108703B0108A10A00085E
:1023B00010B590F864300446062B18D8DFE803F017
:1023C00018040918181C1800C36EB0F87A2093423C
:1023D00019D3202383F3118800231A461946204677
:1023E000FFF750FE82F31188032384F8643010BD98
:1023F000BDE81040FEF732BB036F03B198470023DE
:1024000084F8643010BDC268128AB3FBF2F102FB9B
:1024100011310029DDD1202383F311880B460A46B0
:10242000FEF79AFB81F31188022384F8643010BD13
:1024300000EB810370B4274ADC68126D236802F157
:10244000804203F00303032B02F5C04218BFB3FA26
:1024500083F302EB011C62691ABF5B095B024FF454
:10246000C0637AB1228AD0F88050013222F0010292
:102470002A440026CCF8046043F02003C0F88020F2
:10248000CCF80050A26992B1628A3E2A1AD8013271
:102490005408A402CCF80C40D0F8804022F001028D
:1024A0002244C0F8802043F40053CCF808408A004E
:1024B00002F1804202F5B8420B431168116070BC12
:1024C00013607047541EC4F34F1444F020040132CB
:1024D000DFE700BF005C0040536900EB810CCCF8E3
:1024E0000C203BB14FF0000CC3F800C0C3F804C08F
:1024F000C3F808C093691BB100221A605A609A6041
:10250000FFF796BF10B520230C4683F311880229EC
:102510000FD0032903D0002383F3118810BD0F4887
:10252000FFF702FA0E48FFF7FFF9002383F3118843
:1025300010BD0C4A0121FFF7CFFF0B4A2146FFF7E0
:10254000CBFF0648FFF7F0F90548FFF7EDF907481C
:102550000EF02AFA002383F3118810BDF4640020E2
:10256000286500209036010874360108EC640020CC
:102570001F4A136843F00103136013689807FCD5E2
:1025800053681B4923F003035360536853604B683F
:1025900013F00C03FBD10868154A00F0F90008603D
:1025A0004B600B6843F480330B6013689903FCD5D0
:1025B00042F2101130230F485060D1621363136848
:1025C0000B4943F0807313600B689B01FCD50A4BE9
:1025D00012221A604B68064A43F002034B605368AC
:1025E00003F00C03082BFAD1136B1363704700BF81
:1025F0000010024000041D07002002402DE9F04FAA
:102600002DED028B0C468BB014F8011B002900F055
:102610009D802023064691464FF000089B460AE025
:10262000336830469B68984708F1010814F8011B8D
:10263000002900F08C802529F2D123464FF0000AB2
:102640001A78302A1C4603F101036CD81F2A0DD9D1
:10265000203A102A0AD8DFE802F0730909090909AB
:10266000090909090970096D09095E00002505E0DD
:1026700051F8042BD2B2894602EB400514F8013B15
:10268000A3F13002D2B2092A494605EB8500F3D9FD
:102690002A2BEDD02E2B00F073814AF0400A002740
:1026A000A3F14402342A58D8DFE812F0930057000F
:1026B000A2005700570093005700570057005700DB
:1026C00057008E0157005700570057005700C200AF
:1026D000570057008C01570057005700570057000C
:1026E00057005700570057005700D8009300570075
:1026F000A20057005700930057005700570057009B
:1027000057008E01570003015700E3005700C20035
:10271000570057008C011A78302A1C464AF0100ADC
:1027200003F1010392D9622A0DD06A2A9ED14AF0A0
:10273000800A85E74AF0020A82E74AF0040A7FE746
:102740004AF0200A7CE74AF4807A79E788464046D6
:102750000BB0BDEC028BBDE8F08F8DF81030013D61
:1027600004A90DF11107002D70DB1AF0100F0CBF3A
:102770004FF0200B4FF0300B1AF0020F00F0E18009
:102780008F4219D900948A4634462E460D46226857
:102790001AF8011B9268204690475745F7D82946FA
:1027A0007B1E5B1A0131354608F1010826468F422F
:1027B00038BF0023009C9844002D3FF437AF2F46CC
:1027C000336859469B6830469847013FF8D1A84482
:1027D0002CE759F8041B0029C0F22A811AF0040FD3
:1027E00040F0C3811AF0200F00F02D822023BDE1BC
:1027F0001AF4807F40F0EA8009F1070929F00709FF
:10280000F9E802010093FDF723FF08EE100AB5EE88
:10281000C08AF1EE10FA009B00F1E0801AF0040F7C
:1028200040F09B811AF0200F00F00A82202295E1EF
:102830000A2204A859F8041B00900023FEF7E8F9C7
:10284000074600997B1AED1A002D8EDA1AF0020263
:1028500078D08F4288BF002594D8E7E659F8043B2A
:102860008DF810302AF0100A013D04A90DF111076E
:1028700079E759F8041B2AF010000AF040030029F8
:1028800000F0E9800A78002B00F06481002A00F053
:10289000E98047F6FE7201320A440F4601E0974292
:1028A00003D017F8013F002BF9D17B1A8246ED1AAD
:1028B00059E7494651F8042B002F00F0B5800E2F40
:1028C000A8BF0E27BE460120AF4BA3FB0237FF086F
:1028D00007EB8703A2EB43033033DBB2092A0193F2
:1028E0008DF81D3040F2B5810023CDF808A044F6E4
:1028F00024190DF11D020DF11E0C00949A461BE0E7
:102900004FF020030CF8023C0AF1010AACF1020C72
:102910009D4BA3FB0734E40804EB8403A7EB4303BC
:102920003033DBB2092F0CF8013C4FEA59090CF1A6
:10293000FF3240F29A80274619F0010FE0D1944609
:10294000E6E72A461AF02C0F02D01AF0100F2CD10D
:10295000002A00F012810094154634468A46164635
:1029600022685946926820469047013DF8D1324688
:10297000574526465146009C90443FF603AF55E626
:10298000002705E051F8042BD2B2894602EB40073C
:1029900014F8013BA3F13002D2B2092A494607EBF1
:1029A0008700F3D92A2BEDD07AE60D46336815F867
:1029B000011B9B6800923046984708F10108009A75
:1029C0002946C5E7102234E7082232E7B9EC018A2C
:1029D000B5EEC08AF1EE10FA7FF520AF2D228DF80A
:1029E000102004AA4AF0080AB1EE488A0DF111003D
:1029F00000921AF0800F1CBF6A2200F8012BCDE96B
:102A000001030DF0F3FFB4EE480AF1EE10FADDE930
:102A1000010375D1074642F2190327F8023B009BD8
:102A20001946FB1AED1A9EE603204FF00E0E4BE7F7
:102A30002D238DF8103004AB4AF0080A49420DF1FD
:102A4000110000931AF0800F1CBF6A2300F8013BAD
:102A50000A220023F2E64D49002B7FF41AAF7A1EBA
:102A60007FF519AF82460F467DE60DF11E070193F3
:102A7000A7EB020C5346464F009CDDF808A017F860
:102A80000390019B04AFCDE9024A0097BC448A46FB
:102A900006E079B107F8013B674515D02378224657
:102AA000202B02F1010400F00101F2D101B300F08A
:102AB000FE002E23BEF1000F0EF1FF3245DB07F8BA
:102AC000013B67459646E9D15146029CDDF80CA0D2
:102AD00000F0020028B1B9F1200F1CBF202307F835
:102AE000013B07F8019B894600997B1AED1A3AE6EB
:102AF00010F0020002D15378941CDBE70220D9E7E2
:102B00001AF0400F4CD0462B00F0A0800927394620
:102B1000B0EE480AFEF7A2F807461AF0100F3FF48D
:102B200090AE17F8012C302A8AF0100A05D17B1ECE
:102B30001F4613F8012D302AFAD02E2A7FF481AED9
:102B40000099013F7B1AED1A0DE65146029CDDF813
:102B50000CA0BFE7002A82D184E72B228DF8102039
:102B600004AA0DF11100009243E72B238DF81030D9
:102B700004AB0DF11100009364E78F4288BF154646
:102B80003FF600AE52E500BFCDCCCCCC6C0D0108B9
:102B9000383B010800007A446F12833AFF237449DE
:102BA000462BB4D13BB21FED057AB4EEC78AF1EEE5
:102BB00010FA5BDB5FED086A1FED087A3D4A12F8F8
:102BC000011FF0EE487A28EE268A21B1F4EEC77A8A
:102BD000F1EE10FAF3DA12F8012C0AB1013F3BB220
:102BE000FCEEC87A17EE901A632939D9023B1BB262
:102BF00023EAE371B0EE480A02920193FEF72EF841
:102C0000019B029A002B074614DD10F8011C3029A5
:102C100005D1431E1F4613F8011D3029FAD0264B5B
:102C20009B8A13F4807F0CBF2E232C23994208BF6C
:102C300007F1FF37002A3FF470AF07F8012B6CE76C
:102C400004A80090D5E604A80090FBE603273B46C5
:102C5000A9E74FF0010C4FF020090DF11D0210E71C
:102C6000092984BF03F1FF331BB2C1E7F7EE007AF5
:102C7000B4EEE78AF1EE10FA01D40022B0E7DFEDFE
:102C80000F6A0F4911F8012FF0EE487A28EE078AF3
:102C90003AB1F4EEE67AF1EE10FAF3D411F8012C21
:102CA0009BE79FED087AF4EEC77AF1EE10FA97DD14
:102CB000F4E700BF393B0108040300206F12833A98
:102CC0002C3B0108BD3786350FB400B5064B18689C
:102CD00083B020B105AA04990192FFF78FFC03B0DD
:102CE0005DF804EB04B07047280C0020012803D0E5
:102CF0000B490C48FFF7E8BF08B50B4608491868B0
:102D0000FEF780FA002805DABDE8084004490548C6
:102D1000FFF7DABFBDE80840C0B208F08DBA00BFC7
:102D200070310108740D0108012808B507D0074B60
:102D300007499A680748BDE80840FFF7C5BF08681B
:102D4000FEF746FABDE808400CF09CB804030020EA
:102D50008C0D0108AC0D010808B50CF069FEBDE84A
:102D600008400148FFF7B0BFC80D0108012802D094
:102D70000A48FFF7A9BF08B50B4609491868FEF7CE
:102D800041FA30B90AF080F8BDE808400548FFF77D
:102D90009BBFBDE808400448FFF796BFD80D010867
:102DA000000E01081C0E0108080E01082DE9F04371
:102DB000012883B021D0204CDFF88480B8F81A3085
:102DC000C3B1DFF8809000252068FDF7E9FB0646D7
:102DD00060680F46FDF7E4FB3B46CDE90001324653
:102DE0004846FFF771FFB8F81A300135AB4204F1DD
:102DF0000804E9DC03B0BDE8F0830868FEF7E8F9F1
:102E000006280BD801280FDD841E40F68843DFF822
:102E1000308003FB04F4D0344444CFE7074803B0C8
:102E2000BDE8F043FFF750BF034CDFF8148040F6D5
:102E3000884202FB0044C1E72C0C0020800E0108F0
:102E400048250020980E01082DE9F041254CC023AB
:102E500023802688244BE0B0012836B2C3F800D086
:102E600037D00522214918200CF092FB4FF0804307
:102E70001F4A5B6AC83313601E4B1F4A5B8B0233C9
:102E80009BB2138023881BB2002B04DD30BF238844
:102E90001BB2002BFADC002E18DD6C46174FDFF852
:102EA000648004EB4606002501E0B4420ED034F9FC
:102EB000021B38460135FFF707FF0C2DF5D14046C0
:102EC000FFF702FFB4424FF00005F0D160B0BDE85B
:102ED000F0810868FEF77CF9094B013818BF012022
:102EE0001880BEE70A0C00200C0C00203C310108C1
:102EF000180C002004030020140C0020A00E010870
:102F0000080C0020A010010810B50D4882B0FFF792
:102F1000DBFE0BF0C3FD0B490B48B1F91240B1F9D0
:102F20001030B1F90E20B1F90C100094FFF7CCFE6F
:102F30004FF4E37002B0BDE8104008F075B900BF6F
:102F4000A80E010804030020D40E0108F8B5061EDF
:102F500010D01FDD264F0C1F002554F8040F3946F2
:102F6000FEF750F9072805D8DFE800F03D39312990
:102F7000231B150ABDE8F8401D491E48FFF7A4BEF3
:102F80001D4A138B23F0180343F0100313830135FC
:102F9000AE42E2D1F8BD184A138B23F01803138315
:102FA000F5E7154A138B23F0180343F00803138346
:102FB000EDE7114A138B23F006031383E7E70E4A6C
:102FC000138B23F0060343F004031383DFE70A4A5D
:102FD000138B23F0060343F002031383D7E700208B
:102FE000FEF7E4FAD3E70120FEF7E0FACFE700BFEF
:102FF0004C2C0108FC0E010848250020014902481C
:10300000FFF762BE442C01081C0F010808B509F047
:1030100061FFBDE8084001460148FFF755BE00BF0B
:10302000240F0108012808B506D0064B0648198B65
:10303000BDE80840FFF748BE0868FEF7C9F8014B35
:10304000188308BD040300205410010838B5054951
:10305000054C064D2846FFF737FE54F8041F00299B
:10306000F8D138BD2C0F0108202C01081C0F0108D5
:1030700010B50CF04BF8044608B9204610BD0248C4
:10308000FFF722FE204610BD400F010838B5094861
:10309000094C0A4DFFF718FE09492846FFF714FEB0
:1030A00054F80A1F0029F8D1BDE838400548FFF759
:1030B0000BBE00BF580F0108382A0108640F010831
:1030C000500F0108A01001080CB410B584B006AA76
:1030D0000C4B0C46CDE9013052F8041B009201A8BC
:1030E000ADF80C40FFF78AFA029B84424FF00002D1
:1030F000D8BF04F1FF301A7004B0BDE8104002B030
:10310000704700BF1C3B010801380A4411F8013B1D
:1031100000F8013F9142F9D17047000038B5836B48
:103120008B4212D005460C46FEF71EFA70B92246B5
:103130006878012305F13C0109F092FD00281CBFCD
:103140004FF0FF340120AC6300E0002038BD0000E8
:1031500038B50023C3704FF0FF3383630446FFF795
:10316000DDFF002848D1B4F83A524AF655239D4273
:1031700007D124490B2204F13C00FDF7BBFD0028D8
:103180003CD094F83C30EB2B03D01833DBB2012B4E
:103190002BD84AF655239D4206D11B49082204F13B
:1031A0008E00FDF7A7FD60B3B4F84730B3F5007F9C
:1031B0001BD194F84930C3B15A1E1A4215D1B4F844
:1031C0004A3093B194F84C30013B012B0DD8B4F840
:1031D0004D3053B1B4F84F307F2B03D8E36DB3F5C6
:1031E000803F02D3B4F8523053B94AF65520854295
:1031F00014BF0320022004E0042002E0012000E0CC
:10320000002038BD0422010810220108F8B5044648
:10321000FEF7AAF90646002842D12378032B27D1CE
:103220002779012F24D104F13C06014605464FF4CD
:10323000007230460DF058FD4AF65523A4F83A3294
:10324000184BE36303F1FF5303F50053626A6078A0
:103250002033C4F82032A369C4F8243201326369F0
:10326000C4F82832A2633B46314609F03BFD257184
:1032700066780EB1012613E00B4B93F90030002B5A
:10328000F8DA304609F0D4FB44F6206009F0FCFB84
:10329000FF2802D109F0E4FB02E009F0E1FBE9E7D5
:1032A0003046F8BD52526141E0760020C3690239D0
:1032B000023B8B4283BF4389006B01FB030000206C
:1032C00070470000012940F28780F8B50668F3696D
:1032D0008B420C4640F282803378013B032B7DD831
:1032E000DFE803F00229374701EB5105B16A3046A8
:1032F00001EB5521FFF712FF10B14FF0FF3071E0E5
:103300006F1CB16AC5F30805354401EB57213046FF
:1033100095F83C50FFF702FF0028EED1C7F30807ED
:10332000374497F83C3045EA0320E3074CBF0009D7
:10333000C0F30B0056E0B16A304601EB1421FFF7F1
:10334000EDFE0028D9D1640004F4FF743444A08F4A
:1033500048E0B16A304601EBD411FFF7DFFE0028E8
:10336000CBD1A40004F4FE743444E06B20F0704030
:1033700038E0D0E9043153EA0102C57901D082680E
:1033800002B95DBB82687789022DA4EB02020CD1E1
:10339000013B41F1FF315B0A43EAC153B3FBF7F351
:1033A0009A421BD81CD0601C1CE0032D02D18369FB
:1033B0009342F8D8C3699BB9B16A304601EBD41186
:1033C000FFF7ACFE002898D1A40004F4FE74264454
:1033D000F06B20F0004005E001207047012001E083
:1033E0006FF00040F8BD000001296DD92DE9F843C8
:1033F000C3698B4205460C4668D90378022B1646F2
:103400003CD002D8012B04D060E0033B012B43D910
:103410005CE001EB5107816A01EB5721FFF77EFE6B
:10342000002854D114F0010407F1010905F13C080A
:10343000C7F30807F3B206D018F8072002F00F020E
:1034400042EA0313DBB208F80730A96A0123EB70E4
:1034500001EB59212846FFF761FEC0BBC9F30809FB
:1034600014B1C6F3071606E018F80930C6F30326B0
:1034700023F00F031E4308F8096021E0816A01EB85
:103480001421FFF74BFE10BB640004F4FF742C44BE
:103490000123A687EB701AE0816A01EBD411FFF7D4
:1034A0003DFEA0B92B78A40004F4FE74042B2C4438
:1034B00005D0E36B26F0704603F070431E43E663CD
:1034C0000123EB70002002E0022070470220BDE8DB
:1034D000F883000002392DE9F047466B01F007043C
:1034E0004FF0010A0AFA04F405461746984606EB1F
:1034F0001136C1F3C809E4B2314628460136FFF758
:103500000DFEF8B905EB090292F83C30234214BFD6
:1035100001210021414517D06340013F82F83C3032
:1035200085F803A011D0640014F0FF04EAD109F17A
:103530000103B3F5007F4FF001044FF00009DBD227
:103540009946DFE7012000E00220BDE8F087000097
:10355000C379032B12D18168836970B50446CD18F5
:10356000A94207D04E1C20683246FFF73DFF20B924
:103570003146F5E70023E371002070BD002070475D
:10358000F8B504460F461646E36973B1012BA7EB65
:10359000030514BFAA1C32462068691CFFF724FFEC
:1035A00020B9E369013BE361EEE71846F8BD00008E
:1035B0002DE9F84F05680646884631B96F69A7B10D
:1035C000EB69BB4298BF012710E0FFF77BFE0128A3
:1035D000044601D80124DDE0421C00F0BD80EB6907
:1035E000834200F2D780474600E00127AB690BB960
:1035F0000024CFE02A78EB69042A5BD1A7F1020905
:10360000023B994528BF4FF00009CA464FF0010B15
:10361000696B284601EB1A31FFF780FD30BBEA6980
:103620000AF007030BFA03F3CAF3C801DBB2023A4C
:103630006818544690F83C000AF1010A924500EAE5
:10364000030002D25B00DBB203E000239A464FF492
:10365000007108B902340DE0D1450AD0002BE7D142
:103660000131B1F5007FD3D20123E1E74FF0FF3400
:1036700000E00024631E033300F28C8001231A460D
:1036800021462846FFF726FF0228A3D0012863D051
:10369000B8F1000F02D10223F37168E0F379022B35
:1036A0005DD17B1CA34262D0B368FB1AB3610323D4
:1036B000F37154E0474516D17C1CA34298BF022405
:1036C00021463046FFF7FEFD012883D0431C43D03E
:1036D00040B1D5F81490B9F1010F04D9EB699945BF
:1036E00002D300E0BCB9B9464C46EB690134A342B1
:1036F00004D8B9F1010F3FF47BAF022421463046D4
:10370000FFF7E0FD38B101283FF464AF013023D06A
:103710004C45EAD16CE74FF0FF3221462846FFF7CF
:1037200063FEB0B9B8F1000F05D0224641462846E5
:10373000FFF75AFE68B9D5E90632023A93429CBFB8
:1037400003F1FF33AB612B796C6143F001032B7103
:1037500020E001287FF43EAF4FF0FF341AE008F17B
:103760000102A242F36908D12BB10133F3610028B1
:103770007FF430AFDFE70223F8E70BB90123F361F1
:10378000224641463046FFF7FBFE0028E1D10123E7
:10379000F361D0E72046BDE8F88F0000F8B5056872
:1037A0002B78042B14BF4FF400124FF080528A4242
:1037B00001D8022037E0CA060C46FAD182680163BC
:1037C000064662B9022B05D82B89B3EB541FF0D9FA
:1037D000E86A19E0EB6AC271002BF5D01A466F89CE
:1037E0007F02BC4211460CD33046FFF76BFD431CF1
:1037F000024617D00128DCD9EB698342D9D9E41BF2
:10380000EFE72846FFF752FDC6E90D200028D0D08B
:1038100000EB54203C35C4F308042544B063F56341
:10382000002000E00120F8BD2DE9F74F036B05688B
:1038300003F120082B78042B14BF4FF400134FF032
:10384000805343459CBF00238363836B04468946B2
:1038500073B1C8F3080ABAF1000F5DD1416B0133AF
:10386000836339B92B89B3EB581F55D80023A36361
:10387000042059E06F89013F17EA58274CD1FFF720
:1038800021FD0128064601D802204DE0421C01D14D
:10389000012049E0EB69834238D8B9F1000FE5D047
:1038A000616B2046FFF784FE064600283BD00128C6
:1038B000EAD0431CECD02846FDF756FE01900028C4
:1038C000E6D131462846FFF7F1FC019BA86305F1DC
:1038D0003C0B81464FF40072194658460DF004FA2D
:1038E0006B899F4207D36B899F42D1D1E37943F023
:1038F0000403E3710AE06878012309EB07025946E3
:1039000009F0F0F90028EED10137E9E766633146A6
:103910002846FFF7CBFCA0633C355544C4F8308003
:10392000E563002000E0072003B0BDE8F08F000051
:10393000F8B50E46002107680446FFF72FFFD8B9F7
:103940000546A16B3846FFF7E9FBA8B93A78E36B67
:10395000042A1B7802D11B0603D506E0E52B00D014
:103960001BB90135B54201D109E0054601212046C8
:10397000FFF75AFF0028E4D0042808BF0720F8BD4D
:10398000034600F10B010020C20142EA500213F885
:10399000010B50FA82F28B42D0B2F5D17047000091
:1039A00038B50546002435F8020B88B1FDF728FA32
:1039B000E30343EA5403C2B212FA83F3C3F34E049F
:1039C00044EAC334C0F3072010FA84F4A4B2EAE74F
:1039D000204638BD2DE9F04105460068A96B06690F
:1039E000FFF79CFB044600285DD1E96B0B78852B23
:1039F00001D0022457E020223046FFF785FB77787C
:103A000001377F01A7F16003B3F5007FF1D82146AC
:103A10002846FFF709FF04280446EAD0002842D1CF
:103A2000A96B2868FFF77AFB044600283BD1E96BB5
:103A30000B78C02BDDD12022B018FFF765FB96F87C
:103A400023300F222C33B3FBF2F3B7EB431FD0D359
:103A50004FF0400800212846FFF7E6FE0428044600
:103A6000C7D000BBA96B2868FFF758FB0446D0B944
:103A7000E96B0B78C12BBCD1B8F17F0F04D82022A1
:103A800006EB0800FFF740FB08F120084745E1D8A6
:103A9000B8F1800F07D83046FDF73AF97488241A38
:103AA00018BF012464002046BDE8F08103682DE9B9
:103AB000F0411E6905463046FDF72AF9E96C708031
:103AC00028467778FFF76AFE4FF001080446B4B93C
:103AD000A96B2868FFF722FB044680B9E86B202217
:103AE0003146FFF711FB2B6883F803803FB1214675
:103AF0002846FFF799FE20360446013FE7E7022CEF
:103B000028BF0224E0B2BDE8F08100002DE9F04FAB
:103B1000002187B0D0F800800446FFF73FFE07463B
:103B2000002840F0DA8098F80030042B3BD1D8F818
:103B30000C00FFF735FF814620460BF027FB0546BA
:103B400078BBD8F810B09BF82360162EF4D8BBF8D9
:103B500024304B45F0D14FF0400AB54216D01AF050
:103B60001F0F08BF0AF1020A3BF80A00FDF748F9E7
:103B7000D8F80C20009032F81500FDF741F9009BB1
:103B8000834203D10AF1020A0135E6E7761BF6B259
:103B9000002ED1D1D8F80C3033F81530002BCBD112
:103BA0009BE0074699E04FF0FF33E36404F14003E4
:103BB000CDE903034FF0FF0A5646A16B4046FFF7DD
:103BC000ADFA002840F08480E56B2978002900F0E8
:103BD0008180EA7AE52902F03F03A37169D01707D3
:103BE00002D50F2B65D101E00F2B52D194F84B3049
:103BF000580666D44A0606D5236B95F80DA0E364F3
:103C000001F0BF0101E08E425AD16B7B534557D181
:103C10006B8B002B54D195F800C0DFF8CC90D8F80E
:103C20000C7005910CF03F06CDE900A80D23013E74
:103C30005E4309EB0302E3460123029419F8010BEA
:103C400035F800808BB1162E37D84046FDF7D8F8EE
:103C5000824637F81600FDF7D3F8824506F10104D5
:103C60002BD1204A4346264603E04FF6FF71884594
:103C700023D19145E2D11BF0400FDDE900A8059961
:103C8000029C03D013B137F81630CBB90139CEB24C
:103C900017E026B92846FFF773FE50451CD094F86C
:103CA0004B30DB0705D404990B222846FDF722F898
:103CB00090B14FF0FF33E36402E0DDE900A8029C1D
:103CC000FF2600212046FFF7AFFD00283FF475AF27
:103CD000074602E0042700E0039F384607B0BDE82E
:103CE000F08F00BF193B01080C3B01082DE9F04F94
:103CF000D0F8009085B005468B4611F8013B2F2B7C
:103D0000FAD05C2BF8D00021A960E9619BF8003063
:103D10001F2B00F2C8808023284685F84B3005B061
:103D2000BDE8F04FFFF73ABD5C2B1AD07F2B05D8CA
:103D3000B44A12F8010B002840F0C380162E00F0A0
:103D4000548121F8163001361BF8013B002B00F09E
:103D5000BC807F2B00F2AB801F2B40F2B6802F2B54
:103D6000E2D15B461C782F2C9B4603F10103F9D06E
:103D70005C2CF7D01F2C8CBF00240124A40001EB85
:103D800046033EB133F8022D202A00F0A0802E2AEF
:103D900000F09D80002321F8163001EB4602002E32
:103DA00000F0238131F81370202F184603F101032E
:103DB000F8D0002840F08D802E2F00F08A80134626
:103DC00033F8022D2E2A01D0013EF9D14FF02032D6
:103DD0004FF00008C5E910224B46C5F847204FF0C8
:103DE000080A5A464746B146AB46461C31F8100011
:103DF000002800F0DD80202872D02E286DD0D0451C
:103E000073D3BAF10B0F73D144F003045D469946A6
:103E10009346E4B24FF00B0A95F84030E52B04BF0F
:103E2000052385F84030BAF1080F04BFBF00FFB288
:103E300007F00C030C2B00F0BF8007F00303032BEB
:103E400000F0BA80A00709D447F3000303F0100381
:103E50002343DCB2790748BF44F0080485F84B409F
:103E60002846FFF753FE95F84B30002840F0A88015
:103E70005A0700F1CF80AB79DB0640F1B88099F8A2
:103E80000010042940F0A380AB682B622B69EA790B
:103E9000D9F8100023F0FF0313436B62EB6CAB62A5
:103EA00029460BF09DFE2B680026D9684CE703F1EC
:103EB0000043554A803B32F81330002B00F09580C8
:103EC0004AE798427FF435AF8FE0042457E7013E7C
:103ED00057E744F00304E4B271E74E4500F08980EF
:103EE00044F00304E4B230467FE74E450ED183E050
:103EF0004E4503D044F00304E4B259D8BF00FFB2EA
:103F00004E464FF00B0A4FF00808ECE77F2828D9FF
:103F1000CDE9021201930BF021F944F0020510F0F3
:103F2000800FDDE90131039AEDB204D0374C00F087
:103F30007F00205C13E0FF2811D90AF1FF3CE04527
:103F400004D344F00304E4B2D046CCE70BEB0804FE
:103F50004FEA102C84F840C008F1010820E048B175
:103F600000E025462A4C14F801CBBCF1000F06D026
:103F70008445F8D145F00305EDB25F2010E0A0F1D3
:103F80004104A4B2192C02D847F0020708E0A0F1BE
:103F90006104A4B2192C03D8203847F0010780B27D
:103FA0000BEB080408F1010884F840002C469AE75E
:103FB0005D46994693462FE744F00204E4B241E798
:103FC000042827D113F0040F08BF052022E02A6B34
:103FD00009F13C03C2F30802134403295A8B04BFBE
:103FE0009B8A42EA0342AA605DE7062012E00520B0
:103FF00010E0D045BFF405AFBAF10B0F7FF47EAFF0
:1040000002E700BF192201088C3901088C3A010827
:104010002222010805B0BDE8F08F00BF03687BB124
:104020001A4612F8011B1F2908D93A29F9D1197823
:10403000302905D102339A4202D102600020704734
:104040004FF0FF3070470000F0B5002385B00B60E3
:104050000D461646FFF7E2FF0028C0F210818C4B98
:1040600053F82040002C00F00C812C60237833B1F1
:10407000637823B9874B1B78002B40F0FE80002328
:10408000C0B22370607008F06BFDC50700F1FB80C3
:10409000012E02D9410700F1F88000212046FFF7E8
:1040A00057F802281BD1D4F802320093D4F8123208
:1040B0000193D4F822320293D4F8323203936E463D
:1040C000002556F8041B29B12046FFF741F80128C6
:1040D00001D80AE003200135042DF2D159E104286A
:1040E00029D0012801D90D2057E10128A16B24D145
:1040F00004F146020B2312F8015F002DF3D10133C6
:10410000402BF8D1D2E004F13C0635446D69012D15
:10411000E9D9E369AB42E6D96189236BAA1E02FBA8
:1041200001336363A16A204601EBD511FEF7F6FF68
:10413000002800F01F8101202FE1B4F84730B3F5CB
:10414000007FD0D1B4F8526006B9266E94F84C7056
:1041500026627B1E012BA770C5D894F84950658153
:10416000002DC0D06B1E2B42BDD1B4F84DC0A4F8B9
:1041700008C01CF00F0FB6D1B4F84F3003B9E36D8F
:10418000B4F84A20002AAED0774302EB1C10384422
:104190008342A8D31B1AAB42B3FBF5FEA3D33E4B1D
:1041A0009E45A0D84FF6F5739E4506D840F6F575A6
:1041B000AE458CBF0225012500E003250EF1020368
:1041C0000A440844032DE3616162A262206307D1BF
:1041D000B4F866205CEA020285D1A76E9B000EE06F
:1041E000BCF1000F3FF47FAF022D17444FEA4302AA
:1041F0001BBFD21803F00103134603EB520303F273
:10420000FF13B6EB532FE762FFF46DAF4FF0FF33B0
:10421000C4E90533032D4FF08003237122D1B4F894
:104220006C30012B1ED101312046FEF777FFC8B953
:10423000B4F83A2220714AF655239A4212D1E26B21
:10424000164B9A420ED103F1FF53D4F8202203F506
:10425000005320339A4205D1D4F82432A361D4F814
:10426000283263610E4A2570138801339BB2138094
:10427000E3800C4BE3600C4B236100208DE00B20AE
:104280008BE00C2089E0032087E00A2085E000BF56
:10429000DC760020E0760020F5FFFF0F52526141EE
:1042A000DA760020AC7600202C760020B4F8A4301A
:1042B000B3F5807F7FF417AF94F8A830092B7FF413
:1042C00012AFD4E921064FF0FF33081846F100067B
:1042D000834275EB0603FFF406AFD4F890302362F7
:1042E00094F8AA30A370012B7FF4FDAE94F8A920B6
:1042F00093409AB26281002A3FF4F5AED4F898C098
:10430000274A94453FF6EFAE0CF10202E261D4F881
:104310009420D4F88C7061629BB20A440CFB03F3C6
:104320009B18226345EB050298420F4476EB02028C
:10433000A762FFF4D8AED4F89C30E3622E467DB974
:104340006389B3427FF6CFAEE16A2046FEF7AEFF47
:1043500081192046FEF7E2FE00287FF4ECAE01361C
:10436000631993F83C30812B3FF4CDAE2035C5F373
:104370000805E4E705F07F0356F823305A1C04D003
:104380000135AB423FF4CEAEADE6C4E905330425BA
:1043900068E704287FF4A7AECDE605B0F0BD00BF06
:1043A000FDFFFF7F024688B1036893B110B51C780A
:1043B0008CB18088DA8890420DD1587858B9094A72
:1043C0001278002A04BF0920002306E009201346C2
:1043D00005E0092003E0092000230B6010BD0B60FD
:1043E000704700BFE07600202DE9F04F9A4687B075
:1043F00000238846CAF8003005A904461646FFF790
:10440000D1FF0746002840F0BE8094F83170002F9D
:1044100040F0B98094F8303013F0010500F0B2801C
:10442000D4E90432D4E90E105B1A62EB0002B34205
:1044300072F1000238BF1E4604F15003CDE9003589
:104440000297002E00F09C80D4E90E30C3F30802DE
:10445000002A76D1DDF81490B9F80A20590A013AF9
:1044600041EAC05112EA010718D1034301D1A06803
:1044700003E0216C2046FEF725FF012805D84FF008
:10448000020984F831904F467DE0431C05D1019D1F
:10449000012384F831302F4675E02064216C4846B2
:1044A000FEF704FF0028EAD0B6F5007F07EB000B0B
:1044B00025D3B9F80A1007EB562088424FEA562553
:1044C00088BFCD1B99F801002B465A46414608F09B
:1044D000C7FB0028DBD194F93020002A0CDA606C8D
:1044E000A0EB0B00A84207D24FF4007204F1500178
:1044F00008EB4020FEF708FE4FEA45292FE0626CEA
:104500005A451CD094F9303099F80100002B04F181
:1045100050010CDA0123039108F0E4FB0028B6D126
:1045200094F83030039903F07F0384F8303099F821
:10453000010001235A4608F093FB0028A7D1C4F8D4
:1045400044B0A16B009BC1F30801C1F50079B145EE
:1045500028BFB1464A4619444046FEF7D5FDDAF871
:1045600000304B44CAF80030D4E90E3213EB090393
:1045700042F10002C4E90E32A6EB0906C84460E726
:10458000029F00E00727384607B0BDE8F08F000023
:10459000012802D01A48FEF797BB30B583B00D68EA
:1045A0000446FEF765FD08B103B030BD284621463C
:1045B0000BF032FC0546E0B9124C0421D4F8843BE0
:1045C00001930DEB0100FCF797FD009504E00099C5
:1045D000204651B1FCF790FD0B486B464FF400723A
:1045E0002146FFF701FF0028F1D00AF025FF03B0B4
:1045F00030BD064803B0BDE83040FEF765BB00BFE4
:10460000680F01082C660020A0710020840F0108AB
:104610002DE9F04F9A4685B000238946CAF800304C
:1046200003A904461646FFF7BDFE0546002840F0E4
:10463000D48094F83150002D40F0CF8094F8303081
:104640009A0740F1C980DDF80CB09BF80020042ADD
:1046500003D0A26BF24228BFD64304F15003CDE948
:104660000053DEB1D4E90E31C3F30802002A40F052
:104670008680BBF80A805A0A08F1FF3842EAC15224
:1046800018EA020820D10B4302D1A16871B900E0F9
:10469000216C2046FEF78CFF014638B994F8303083
:1046A000009D43F0400384F8303096E0012901D1A9
:1046B000022502E04B1C03D1012584F831508CE027
:1046C000A368216403B9A16094F93030002B0FDA9C
:1046D000626C9BF80100012304F1500108F002FB19
:1046E0000028E9D194F8303003F07F0384F83030AB
:1046F000216C5846FEF7DAFD0028D9D0B6F5007FC8
:1047000008EB000526D3BBF80A309BF8010008EB44
:10471000562199424FEA562788BFA3EB08073B462C
:104720002A46494608F0DEFA0028C5D1616C491BCB
:10473000B9420DD24FF4007209EB412104F150004F
:10474000FEF7E2FC94F8303003F07F0384F8303059
:104750007F0228E0616CA942D4E90E730ED0D4E93F
:10476000040187428B4109D29BF8010001232A46AC
:1047700004F1500108F074FA00289DD16564A06B23
:10478000019BC0F30800C0F50077B74228BF374649
:1047900018443A464946FEF7B7FC94F8303063F0C7
:1047A0007F0384F83030DAF800303B44CAF8003038
:1047B000D4E90E23F61BB944BF18D4E9041243F11F
:1047C0000003B94272EB03003CBF39461A46C4E904
:1047D0000E73C4E9041244E70725284605B0BDE876
:1047E000F08F00002DE9F7430C4601A90646FFF7BC
:1047F000D9FD002840F0DE8030460AF0C7FC10F0FA
:10480000FB0540F0D780D6F80080A576B36B002B6F
:1048100000F0C98098F80030042B47D12B462F4672
:104820004FF04009D8F8102092F823108D4221D281
:10483000B9F17F0F20D819F01F0F08BF09F1020945
:10484000013532F8090009F102092BB900F52052AF
:1048500092B2B2F5006F0BD307F11A01C7F1200233
:10486000214440EA0340FCF767FE28B107440020DA
:104870000346D7E703B917B93F23A3760127274497
:104880000023BB766373D8F810301A7902F0370131
:104890002173D20658BFD3E90E019A89628144BFC1
:1048A00000200021C4E90001DB897BE0F36C0133C7
:1048B00025D0A9462F46D8F80C30585BB8B1B9F1CD
:1048C000000F05D100F520539BB2B3F5006F0BD359
:1048D00007F11A01C7F12002214440EA0940FCF720
:1048E0002BFE28B10744002002358146E3E7384615
:1048F000B9F1000F18BF0020204400238376F16B2C
:1049000000234D1E18462E2715F8012F202A00F1EE
:10491000010010D0052A08BFE522092806D10B2B7B
:1049200004D804EB030C01338CF80D7004EB030C7A
:1049300001338CF80D200B28E6D1E21800205073CB
:10494000A27E22BB1BB104F10C0308200BE03F2325
:10495000A376012315E02E2A13460ED0413A192AD8
:1049600006D96B732B465A785D1C002AF3D106E0FA
:104970000A7B1042F5D02033F3E71020F1E71B1B30
:104980000C3B234400229A760B7B03B96373CB7AEA
:1049900003F03F032373CB69236000236360CB8A5A
:1049A00063810B8B238100213046FEF73DFF0428F5
:1049B00008BF002003B0BDE8F0830000F8B506464C
:1049C0000D4601F11A0729463046FFF70BFF044652
:1049D00048B9AB7E3BB102460423306D3946FCF743
:1049E000C1F90028EFD02046F8BD000030B5A7B0CF
:1049F00004460D46FEF73CFBD0B9DCB1012C1BD1BF
:104A00002B68249310A80BF0F9F888B90D4C09E035
:104A10009DF81A300DF11A0120464BB1DDE9002353
:104A2000FEF752F9694610A8FFF7C8FF0028EFD03B
:104A300027B030BD044BE4E7044827B0BDE8304060
:104A4000FEF742B9B40F0108940F0108980F01084E
:104A50002DE9F041BCB00222019003A901A8FFF7A3
:104A6000F3FA002875D1039C0199269426A8FFF734
:104A70003DF900286DD19DF9E330002B5CDB9DF8FA
:104A80009E70F90701D5072063E026780494042E70
:104A900005D1206904A90BF0A3F8069D06E0359B1B
:104AA000032E5D8B04BF9B8A45EA0345FA0605D4B5
:104AB0003999269E329F4B1C1ED019E0042E10946B
:104AC000129507D1DDE90823CDE914239DF81730AD
:104AD0008DF84730002110A8FEF760FE002838D17D
:104AE00010A80AF053FB0028CDD0042831D1DFE70D
:104AF00026A8FEF753FE60BB4FF0010812E03378A2
:104B0000359A042B0ABF1378E52303F07F03137053
:104B1000329B86F803809F4210D9002126A8FEF719
:104B200083FE28B934993046FEF7F8FA0028E6D01B
:104B3000042808BF02200CE006200AE01DB9204628
:104B4000FEF764FB05E0294604A80AF0A7FB00284D
:104B5000F5D03CB0BDE8F081012802D00C48FEF74A
:104B6000B3B810B50C46FEF783FA00B110BD246847
:104B70002046FFF76DFF074A074B0146002908BF93
:104B80001A4606482146BDE81040FEF79DB800BF12
:104B9000C40F0108C00F0108BC0F0108E40F010891
:104BA000BFF34F8F0549064BCA6802F4E062134316
:104BB000CB60BFF34F8F00BFFDE700BF00ED00E00B
:104BC0000400FA05012808B50CD10B4608491868FD
:104BD000FCF718FB30B90748FEF776F8BDE8084047
:104BE00007F01ABA0448FEF76FF8FFF7D9FF00BFC5
:104BF000F40F0108F80F010818100108024A137891
:104C000023F001031370704700030020FFF7F6BF85
:104C100010B50446042006F007FB0C4B042CDA7F89
:104C200028BFFF24A24204D0094ADC771378DB07AF
:104C300000D510BD074B1B78A342FAD0064B214686
:104C40001868BDE810400AF0C7BD00BF4825002025
:104C500000030020240C0020200C0020012808B5AF
:104C600006D0074B0748D97FBDE80840FEF72CB8AF
:104C70000868FCF7ADFABDE80840C0B2FFF7C8BF4E
:104C8000482500202C10010809490A4A0A4B0988C6
:104C90001B68126810B4094C246802FB00324B08F0
:104CA00004FB00335DF8044BB3FBF1F39818704735
:104CB000FC0B0020040C0020000C0020F80B00204E
:104CC0002DE9F04FA44DA54C6A8B23882DED028B66
:104CD000934299B086468A4603D230B9208000209C
:104CE00008E0002323800028F9D0BAF1000F00F07B
:104CF00014822088D5ED2A7A9FED997ADFF8808298
:104D000067EE877A40F2FD4CFDEEE77A43F6E91351
:104D100017EE906AC6F3CF170CFB07FC03EBAC331E
:104D200007FB03F39B136FF4C271A3F59B330B4492
:104D300007FB03F3DB1206F17E56A3F27223334422
:104D40008849894E08EE103A4FF00057B8F84030C5
:104D5000B76182420B8042D90AF04003DFF824B2E7
:104D600004930AF003074FF00009C826CDF804E0C9
:104D7000002F41D126889BF800300BB1019BFBB975
:104D8000B8F81A206B8B262A12D9C6EBC6065A1E13
:104D900006EB861696FBF2F6A6EB0902002A07DD63
:104DA00009F114000123002106F0E2FF6B8BB146EC
:104DB0002088013080B2984220804FF00006D7D37F
:104DC000B9F1000F09D06749B8F822300B804A4684
:104DD00001230021142006F0CBFF6A8B2088624B50
:104DE000101AB0FA80F04FF400514009996119B0DF
:104DF000BDEC028BBDE8F08FFFF746FFE97F029024
:104E00000AF0EAFC049B0090002B5CD123880393FA
:104E10001AF0010305935DD11AF0020FAAD0534B8B
:104E200006930AF02002524B07920522514908933B
:104E300018200AF0ADFB4FF08042009B526A3244CA
:104E40001A44069B1A60B8F81A20089B023292B2E4
:104E50001A800AF02102202A01D156E130BF1A88B7
:104E600092B2002AFAD10CA802F02CFE079B002B6C
:104E700040F006811AF0080F40F0F6801AF0100F8B
:104E8000268840F0DA80B6F5C87F3FF674AF059B00
:104E9000DDED0C7A9DED0D7A002B00F0E280364AB4
:104EA0000A980B9902EBC60318605960F30013448B
:104EB00003F68C4383ED007A06F2911302EBC303F1
:104EC000C3ED007A57E74FF0FF3303931AF0010365
:104ED0000593A1D02949052218200AF059FB4FF06B
:104EE0008043009A5B6A2149069133441344B8F821
:104EF0001A200B6002321E4B92B21A800AF0200276
:104F000007921AF0200200923ED11A8892B2002A2B
:104F100000F0098130BF1A8892B2002AFAD10AA89B
:104F20000993089002F0CEFD009ADDE90803002AFB
:104F30003CD11AF0040F6ED11AF0020F7AD12688F4
:104F4000B6F5C87F3FF617AF0B4A0A9B02EBC602C5
:104F500013600B9B53600EE7482500201C0C0020BB
:104F60002D15AA49100C002000080048180C00203C
:104F7000140C0020443101082C0C00203C310108A5
:104F800004030020120C00200EAADDE90210089391
:104F9000FCF76AFB089B1A8892B2002ABAD10AA8C9
:104FA0000893009002F08EFD0098089BDDED0B6ADF
:104FB000DDED0F7A9DED0A6A9DED0E7A9DED115A99
:104FC00076EEE76ADDED107A36EE476A66EEA75AAE
:104FD0009DED127AE6EE055A1AF0040FA6EE277A36
:104FE000DDED137AA6EEC57A77EEA57A26EEA75AFE
:104FF00067EEA75A67EEC67AE7EE075AA6EE075A9B
:10500000E6EE877AC5EE256A87EEA57ACDED0A6AC7
:105010008DED0B7A90D0DDED027A95ED270A0093A5
:10502000F8EE677A27EE800AFCF7FCFA1AF0020F16
:10503000009B84D028220092F7E6DDED0C7A9DEDEE
:105040000D7A68EE277A28EE077AB6F5C87FCDED9F
:105050000C7A8DED0D7A3FF68EAE059B002B7FF41A
:105060001EAF354AF30022E7DDED027AB8EE670A9B
:10507000D5ED287A0CA820EE270AFCF7D3FAFDE636
:105080009DED0C7ADDED166ADDED0D7A9DED156A6C
:10509000DDED145AAB8C37EE667ADDED176A77EEEC
:1050A000E67A67EE066A27EE257AE7EEA56A5B05E3
:1050B00067EE867ACDED0D6A37EE675A8DED0C5AA4
:1050C0007FF5D8AE9DED114A9DED0B6ADDED103AEE
:1050D000DDED0A4AF7EE005AE4EE065A26EE236AA0
:1050E00077EEC77AB0EE467AE3EEE45AA4EE247A7D
:1050F00026EEA56A66EE876AA7EE276AE5EE256AC0
:105100008DED0D6ACDED0C6AB4E60398029900931B
:105110000EAAFCF7A9FA009BA1E6504619B0BDEC17
:10512000028BBDE8F08F0AA80893009002F0CAFC39
:105130000098089BFDE600BF2C0C00202DE980485C
:10514000B34B9B8A190689B000F1958209F0D4FB14
:10515000C72006F069F807F007FF9FEDAE8ADFED84
:10516000AE8ADFF8EC92AD4CAD4AAE4992F82130F0
:1051700003EB430311F82350938CDA054CBF45F041
:10518000230545F003059B05A54BD3ED277AA44BDA
:10519000F5EE407AD3ED287AA14B48BF45F04005A3
:1051A000F1EE10FAF5EE407AD3ED2A7A9E4B18BF55
:1051B00045F00405F1EE10FA18BF45F00805F5EECC
:1051C000407A18BFADB21B78F1EE10FA1CBF45F063
:1051D0001005ADB213F0030733D130BF934B1B68FA
:1051E00083B10026924B93491888904B01381B6875
:1051F00098478E4B90481E600AF0EAF88B4B1B686C
:10520000002BEFD1884A1378164663F07F031370A2
:1052100009F074FD337803F07F0333705FB1874B7F
:105220001B78002B40F0D6807D4B1A8BD70713D408
:10523000012005F0F9FF402005F0F6FF07F094FE8D
:1052400092E729460120FFF73BFD774A137823F0C8
:10525000020307461370C1E702F006036FF0140162
:10526000194105936E4BC9075B8B019340F1AE81E9
:10527000002312F01801019F0393069300F0B08100
:1052800010290CBF0D260026019B02F01E0242EAE7
:1052900043126B4B198892B2914221D01A80059B20
:1052A000042B00F09F81019B9FED5A6A63B1069A1F
:1052B000104603EB020832463946FBF703FF013084
:1052C000804536EE006AF6D1059B022B08BF36EE0C
:1052D000066AB7EE007AC7EE067A5A4BC3ED007A3B
:1052E000594B0295019A1D46029BD10013F001080B
:1052F00009EBC202049107920CD1029BC3F34F0346
:105300000293524B05F68845AB4291D0029B13F0B5
:105310000108F2D0019B43B34A4BDFF834B193ED5F
:10532000006A049B069805EB030AA94632463946F3
:10533000FBF7C8FED9ED006A99ED017A60EE067AB6
:1053400009F1080966EEA76A67EE277ACA45CBED30
:10535000006ACBED017A00F101000BF1080BE5D1F9
:10536000019BB3F5007F80F28181079B019A83ED59
:10537000008A0132B2F5007F83ED018A03F1080350
:10538000F5D1039B002B40F038813148002200F119
:10539000040A8146844692FAA2FE91B24FEADE5395
:1053A000B1EBDE5F09EBC30380F099805AF8041C6F
:1053B000D3F800E04AF804EC1960DCF80410D3F8E4
:1053C00004E0CCF804E00CF1080C01320AF1080A00
:1053D0005960E0E70E4B1F4A9B8ADFF86CA0CDF8BE
:1053E000049013F0020F1C4B0CBF904698462E46BB
:1053F0002F46A9464546F80730D4144B0AF6884A8A
:105400005345C7F34F07F6D14D46DDF804900BE73F
:105410000403002000000000000000447032010876
:10542000482500201032010800030020E864002015
:10543000E4640020D4640020C8640020C464002018
:10544000402500203C2500202C0C00203C2500207D
:105450002C660020DD0F0008C50F00088A4B197864
:105460000123013903FA01F6002EC6DD4FF00008D2
:1054700002974746D046854B98ED009A5B8BD8ED56
:10548000019A022B25D9C3464FF0010AB0EE490A12
:105490009BED029A9BED041AF0EE490AB0EE69AA60
:1054A000DBED039AA847F0EE407A9BED051ADBEDA1
:1054B000030ACBED027AB0EE4A0AA847734B8BED94
:1054C000030A5B8B0AF1010A013B9A450BF1080BB9
:1054D000DCDB0137BE42CED1029FC2468DE70132EE
:1054E000B2F5007F0CF1080C0AF1080A7FF453AF03
:1054F00009214FF4807C4FF0000AB0EE486A002387
:1055000001E09BED006AA3F180020AEB080E802BFC
:1055100004EB82021FFA8EFE88BFD2ED006A09EB0F
:10552000CE0E09EBCA02DEED014AD2ED007A9EED05
:10553000005AC3F1800BE4EE867A98BF04EB8B0B24
:10554000634494BFDBED006AF1EE666AE5EE667ACD
:105550009BB20AF1010A26EEA47ACEED007AD2EDD2
:10556000007AD2ED015AE4EEC67AFF2B1FFA8AFACE
:10557000A5EE067A04EB830BE5EE267A35EEC76AD4
:10558000C2ED007A8EED016AD2ED017A77EE877A6C
:10559000C2ED017AB5D9C2441FFA8AFABAF5007F82
:1055A000ABD34FEA480801394FEA5C0C1FFA88F880
:1055B000A1D1039B002B39D1059B042B44D0344946
:1055C00040F6884228460BF097FB96E65F0006936C
:1055D00012F018014FF00103BFB203937FF450AEF5
:1055E000062651E606FB06F300EE103ABAEECF0AA5
:1055F000FBF752FD20EE286A6BE6019B012B7FF73B
:10560000C4AE234B0499A3F10802501803F6F872B4
:1056100099681160D3ED037A0833F1EE677A83421B
:10562000C2ED017AA2F10802F2D1AEE6019B002B95
:10563000C5D0049A164B024483ED018A0833934285
:10564000FAD1059B042BBAD1019B012BB7DD114B7D
:10565000049AD9ED007A134490ED027A083077EE7F
:10566000877A9842C0ED007AF6D1A8E7039B002B19
:105670003FF48BAEC5E706F05FF9074A01213620FB
:1056800006F09AF962E500BFC464002048250020B6
:105690002C660020246600200E32010870B5084DEB
:1056A0006B8B63B1074E0024A0B2FFF7EDFA014601
:1056B0003046FDF709FB6B8B0134A342F4DC70BD6F
:1056C00048250020C00D0108421C1BD0F8B50E4E25
:1056D000738B8B420D4614D904460B348FB206EB04
:1056E000C4063846FFF7D0FA73887060AB4208D022
:1056F000184605F073FC77800820BDE8F84005F0F7
:1057000093BDF8BD704700BF482500202DE9F0414A
:105710000446C0B9434D444E03E0082C05F108058A
:105720000FD095F858300134002BF6D0EB6DB5F85A
:105730005A2021463046FDF7C7FA082C05F1080526
:10574000EFD1BDE8F0810D46882005F06DFD2E6893
:1057500036493046FBF756FD00281CDB314AB0FACB
:1057600080F301284FEA53134FF0FF3018BF002099
:10577000507782F8583082F8603082F8683082F8CA
:10578000703082F8783082F8803082F8883082F881
:105790009030BDE8F0813046FBF71AFD471E072F19
:1057A00006462AD8012C2ED06C6820492046FBF7EB
:1057B00029FDD8B101280BD11A4B93F91D200A36C7
:1057C0000021BA4203F83610BBD1FF225A77B8E75E
:1057D000144D0A360123204605F83630FBF7F8FC55
:1057E00001463846FFF770FF6F77AAE70D4B0A3680
:1057F000012203F836205F77A3E7BDE8F0410B49AB
:105800000B48FDF761BA074D00F10A0805EBC80225
:105810000146536804485288FDF756FA05F83840A7
:105820006F778EE7482500205C100108802C010866
:105830006810010807289DBF024B03EBC003D86D19
:1058400000207047482500202DE9F047DFF8088246
:105850006F4BB8F81A906F486F49D8E9017A09F18F
:10586000FF39AAEB070607EE906A07EE109A2DEDB6
:10587000028B1F60694B1FFA89F2F8EE677AB8EE67
:10588000C77A1A80B6FBF2F3036002FB136387EE5C
:10589000278A0B604546002409E0B5F85A102046D7
:1058A0000134FFF711FF082C05F1080515D0EB6D49
:1058B000002BF2D09F4249460DD2DA1B07EE902A08
:1058C000F8EE677A9A4567EE887AE8D9FDEEE77ACE
:1058D00017EE901AE3E70021E1E7B6F57A7F2ED3C1
:1058E0004F4B9E4276D84F4B9E4200F28A804E4BE1
:1058F0009E4200F289804D4BDFF860C106221946B6
:10590000ACFB0303DB08013A03EB83004FEA4304DB
:105910003ED0B6FBF0F5032D5FD8B6FBF4F00328BC
:1059200065D8B6FBF3F00328E9D9414AA2FB01127E
:105930009209C2EBC20202EB8212194630E0002348
:105940001A463C490B803C4BB8F81A101A80D8F81C
:105950000C20B8F8243097420ED043F4007340F284
:105960008720A8F8243005F05FFCBDEC028B334B98
:1059700000221A80BDE8F087D8F810209245ECD1BB
:10598000B8F822208A42E8D123F400739BB2E6E7FC
:105990002B4AA2FB01325209C2EBC20202EB821275
:1059A0002748B7FBF1F301FB1373A0FB0313A0FB24
:1059B00006101F495B09C3EBC303A1FB061603EBEB
:1059C00083134009B609B3FBF0F3B2FBF6F21BB246
:1059D00012B2B6E71B4A1C49E2E7194AA2FB0032A1
:1059E0005209C2EBC20202EB82120146D8E7144A06
:1059F000A2FB04325209C2EBC20202EB8212214620
:105A0000CEE7124A1249CBE7124A0849C8E700BF5D
:105A1000000C0020040C0020F80B0020FC0B0020E0
:105A2000FF933577FF07AF2FFF83D71700E1F50509
:105A3000D34D6210F40B0020F20B00201C0C002050
:105A40001F85EB51C0BE99870065CD1D807F3D3617
:105A500000C2EB0BC0BF1E1B48250020CDCCCCCC18
:105A600008B5FFF7F1FE034A137843F00103137002
:105A700008BD00BF0003002010B507F0EBF9044695
:105A8000FFF7E2FE034B93F8210005F0D5FB20461B
:105A900010BD00BF482500201528074B38BF152032
:105AA00040F2911188425A8B28BF0846824202D0A8
:105AB0005883FFF7C9BE704748250020032830B43B
:105AC0001DD8B1F5167F38BF4FF41671414B99427E
:105AD00028BF194606280FD8DFE800F004754A678A
