:100000000C9441070C940D230C94E6220C94690780
:100010000C9469070C9469070C9469070C943423B9
:100020000C9469070C9469070C9469070C94690790
:100030000C9469070C9469070C9469070C94690780
:100040000C949C220C9469070C946A220C94442210
:100050000C9469070C9469070C9469070C94690760
:100060000C94AD230C946907DB40A4A62EAF2000AE
:10007000A1C8D300408DAED580A80000600000006C
:100080000000000000000000000000E00000000090
:1000900000000000000000000001E000000000007F
:1000A000000000000000000001F00000000000005F
:1000B0000000000000000003F0000000000000004D
:1000C00000000000000007F0000000000000000039
:1000D000000000000007F800000000000000000021
:1000E000000000000FF800000003C0007E000001C7
:1000F000E0007F0FF800000003C000FE000001E0F8
:1001000000FFEFF800000003C000FE000001E00067
:10011000FFFFF800000003C000F00000000F007FA8
:10012000FE7FC0000003C000F00000000F003FFE93
:100130007FF83FF1FBCFFCFEF3BC3DEFE01FFE7FFD
:10014000FF7FFBFFDFFEFEFFBC3DEFE01FC6FFFFB2
:100150007FFBFFDFFEFEFFBC3DEFE00FE3C7FE7855
:100160007BC3DE1EF0FFBC3DEF0007FF87FC787B02
:10017000C3DE1EF0F83C3DEF0001FFFFF0007BC343
:10018000C01EF0F03C3DEF0001F37FE03FFBC3CF2A
:10019000FEF0F03C3DEF0003E33F807FFBC3DFFE5A
:1001A000F0F03C3DEF0007E73C00787BC3DE1EF03B
:1001B000F03C3DEF0007FFBE00787BC3DE1EF0F091
:1001C0003C3DEF0007FFFE00787BC3DE1EF0F03CF5
:1001D0003DEF000FFFFE007FFBFFDFFEF0F03FFD75
:1001E000EFE00FFFFF007FFBFFDFFEF0F03FFDEFD2
:1001F000E00FF9FF003E79F9CF9EF0F01F3DE7E0F8
:100200001FF1FF0000000000000000000000001FC0
:1002100080FF007FFFFFFFFFFFFFFFFFFFE01C00ED
:100220007F007FFFFFFFFEB46D888D18E000001F88
:10023000007FFFFFFFFE95AD7DB577E000000F006A
:100240007FFFFFFFFEA5AD9D8D19E0000006007F3A
:10025000FFFFFFFEB5ADEDB57EE000000000000140
:10026000800000000000000000000380000000008B
:10027000000000000007C0000000000000000000B7
:1002800007C00000000000000000000FC0000000D8
:100290000000000000001FE000000000000000005F
:1002A000001FE00000000000000000003FE0000030
:1002B000000000000000003FF0000000000000000F
:1002C00000007FF0000000000000001FF87FF00039
:1002D0000000000000003FFE7FF000000000000072
:1002E000003FFF7FF0000000000000001FFFFBE068
:1002F000000000000000000FFFF9FFC00000000038
:1003000000000FFFF9FFF800000000000007FFF1F8
:10031000FFFF00000000000003FC73FFFF800000EF
:1003200000000001FE3FFFFF80000000000000FF12
:100330001E0FFF000000000000007FFE1FFC0000F9
:1003400000000000003FFFFFF80000000000000078
:100350000FDFFFE0000000000000001F19FFC000D9
:100360000000000000003F3CFF0000000000000013
:10037000007E7CF800000000000000007FFE7C0092
:1003800000000000000000FFFFFC00000000000073
:100390000000FFFFFE0000000000000000FFFFFE65
:1003A0000000000000000001FFEFFE000000000060
:1003B000000001FFCFFE0000000000000003FF0767
:1003C000FE0000000000000003FC07FE000000002B
:1003D00000000003F003FE000000000000000180A8
:1003E00000FE000000000000000000007E00000091
:1003F000000000000000003E0000000000000000BF
:1004000000000C000000000000078000FC0000035A
:10041000C0000000078001FC000003C000000007CE
:100420008001FC000003C0000000078001E0000024
:10043000001E000000078001E00000001E007FE3B6
:10044000F79FF9FDE7787BDFC0FFF7FFBFFDFDFFFA
:10045000787BDFC0FFF7FFBFFDFDFF787BDFC0F0DB
:10046000F787BC3DE1FF787BDE00F0F787BC3DE11C
:10047000F0787BDE0000F787803DE1E0787BDE00EE
:100480007FF7879FFDE1E0787BDE00FFF787BFFD08
:10049000E1E0787BDE00F0F787BC3DE1E0787BDED1
:1004A00000F0F787BC3DE1E0787BDE00F0F787BC29
:1004B0003DE1E0787BDE00FFF7FFBFFDE1E07FFB81
:1004C000DFC0FFF7FFBFFDE1E07FFBDFC07CF3F3A0
:1004D0009F3DE1E03E7BCFC0000000000000000037
:1004E000000000FFFFFFFFFFFFFFFFFFFFC0FFFF58
:1004F000FFFFFD68DB111A31C0FFFFFFFFFD2B5A24
:10050000FB6AEFC0FFFFFFFFFD4B5B3B1A33C0FFF1
:10051000FFFFFFFD6B5BDB6AFDC0322E36005665C8
:10052000723A0042793A43535157445920200033DC
:100530002E352D32382E354D487A20353057204D06
:100540004158004D6963726F5041353000200030D2
:1005500000555549443A200056667764436F7272DD
:10056000206572722C205573657220446566617532
:100570006C740056726576436F7272206572722CCD
:1005800020557365722044656661756C7400415234
:100590004546206572722C2055736572204465664D
:1005A00061756C7400322E360056657273696F6E19
:1005B0003A00323032322D3230323320436F70798C
:1005C00072696768742040637371776479004D695C
:1005D00063726F5041353000535441525442414E82
:1005E0004400000103070F1F3F7F0080C0E0F0F8C8
:1005F000FCFE00000000003E5B4F5B3E3E6B4F6B1D
:100600003E1C3E7C3E1C183C7E3C181C577D571CF3
:100610001C5E7F5E1C00183C1800FFE7C3E7FF006C
:1006200018241800FFE7DBE7FF30483A060E2629BA
:10063000792926407F050507407F05253F5A3CE77D
:100640003C5A7F3E1C1C08081C1C3E7F14227F2243
:10065000145F5F005F5F06097F017F006689956A0E
:10066000606060606094A2FFA29408047E04081099
:10067000207E201008082A1C08081C2A08081E10C2
:100680001010100C1E0C1E0C30383E3830060E3E7A
:100690000E06000000000000005F000000070007D9
:1006A00000147F147F14242A7F2A12231308646203
:1006B00036495620500008070300001C2241000064
:1006C00041221C002A1C7F1C2A08083E08080080C2
:1006D000703000080808080800006060002010085A
:1006E00004023E5149453E00427F4000724949495B
:1006F000462141494D331814127F1027454545398D
:100700003C4A494931412111090736494949364690
:100710004949291E00001400000040340000000870
:100720001422411414141414004122140802015913
:1007300009063E415D594E7C1211127C7F494949A0
:10074000363E414141227F4141413E7F4949494135
:100750007F090909013E414151737F0808087F0064
:10076000417F41002040413F017F081422417F40EA
:100770004040407F021C027F7F0408107F3E4141C1
:10078000413E7F090909063E4151215E7F09192931
:1007900046264949493203017F01033F4040403F1B
:1007A0001F2040201F3F4038403F6314081463035C
:1007B000047804036159494D43007F4141410204DB
:1007C000081020004141417F0402010204404040E2
:1007D0004040000307080020545478407F284444D8
:1007E000383844444428384444287F3854545418F2
:1007F00000087E090218A4A49C787F0804047800ED
:10080000447D40002040403D007F102844000041CE
:100810007F40007C047804787C08040478384444E1
:100820004438FC1824241818242418FC7C080404D8
:1008300008485454542404043F44243C4040207C41
:100840001C2040201C3C4030403C44281028444C94
:100850009090907C4464544C440008364100000061
:10086000770000004136080002010204023C262302
:10087000263C1EA1A161123A4040207A38545455BA
:100880005921555579412254547842215554784084
:1008900020545579400C1E5272123955555559390C
:1008A0005454545939555454580000457C41000261
:1008B000457D420001457C407D1211127DF02825C6
:1008C00028F07C545545002054547C547C0A097F00
:1008D0004932494949323A4444443A324A48483014
:1008E0003A4141217A3A42402078009DA0A07D3DC6
:1008F0004242423D3D4040403D3C24FF2424487E4E
:100900004943662B2FFC2F2BFF0929F620C0887E38
:10091000090320545479410000447D413048484A3D
:1009200032384040227A007A0A0A727D0D19317DF0
:100930002629292F28262929292630484D402038C4
:100940000808080808080808382F10C8ACBA2F1083
:100950002834FA00007B000008142A142222142AEA
:1009600014085500550055AA55AA55AAFF55FF551C
:10097000FF000000FF00101010FF00141414FF000F
:100980001010FF00FF1010F010F0141414FC0014ED
:1009900014F700FF0000FF00FF1414F404FC14140B
:1009A00017101F10101F101F1414141F0010101008
:1009B000F0000000001F101010101F10101010F099
:1009C00010000000FF101010101010101010FF1079
:1009D000000000FF140000FF00FF00001F101700C0
:1009E00000FC04F414141710171414F404F4000099
:1009F000FF00F714141414141414F700F71414144B
:100A0000171410101F101F141414F4141010F010E9
:100A1000F000001F101F0000001F14000000FC1455
:100A20000000F010F01010FF10FF141414FF141049
:100A300010101F00000000F010FFFFFFFFFFF0F09C
:100A4000F0F0F0FFFFFF0000000000FFFF0F0F0FAE
:100A50000F0F3844443844FC4A4A4A347E020206A6
:100A600006027E027E0263554941633844443C04D9
:100A7000407E201E2006027E020299A5E7A5991C51
:100A80002A492A1C4C7201724C304A4D4D30304874
:100A9000784830BC625A463D3E494949007E0101D2
:100AA000017E2A2A2A2A2A44445F444440514A4467
:100AB0004040444A51400000FF0103E080FF000035
:100AC00008086B6B083612362436060F090F06002D
:100AD0000018180000001010003040FF0101001F36
:100AE00001011E00191D1712003C3C3C3C00000097
:100AF000000000000000240027002A000000000081
:100B0000250028002B00000000090003020000045B
:100B10000508000000000000000000000000203A6E
:100B200020532020202020202C53617665732064E0
:100B300061746100203A204E202E2E2E2E202C7320
:100B400065742073657269616C206E756D62657283
:100B50002C4578616D706C653A204E20313233340B
:100B60002D323334352D333435362D343536370088
:100B7000203A2049202E2E2E2E202C7365742049D9
:100B80006E74617265662C342C4578616D706C658D
:100B90003A204120343936312072657072657365B0
:100BA0006E747320617265663D342E3936310048AB
:100BB000656C7020666F72204D6963726F205041C2
:100BC00035303A002D2D002D2D002D2D0054656D52
:100BD000702D2D5077722D2D5377722D2D44696510
:100BE0000000534E3A0056667764436F72723A00C3
:100BF00056667764436F7272206572720056726532
:100C000076436F72723A0056726576436F72722045
:100C100065727200496E74617265663A00415245B0
:100C2000462065727200476574454550524F4D3AF3
:100C30000000000056667764436F72723A00567285
:100C40006576436F72723A00636C65617245455018
:100C5000524F4D2100496E74617265663A007361AE
:100C6000766564206461746120746F20454550523C
:100C70004F4D002D2D2D2D002020005357523A00AE
:100C80002020005057523A005600202000560055B0
:100C90003A00202000543A00366D0031306D0031AA
:100CA000326D0031356D0031376D0032306D0033FB
:100CB000306D0034306D0038306D003136306D00ED
:100CC000424B494E004D487A20004652513A00416D
:100CD00055544F00582D47550049434F4D00425938
:100CE00050004F4646005458004E4C004E4C204D8C
:100CF0006F64653A4F4E0057696C6C2062652067DF
:100D00006F696E6720696E746F20756E6C696D69AE
:100D1000746564206D6F6465207768696368207707
:100D2000696C6C20766F69642074686520776172E5
:100D300072616E7479212043616E63656C20626517
:100D4000666F72652074686520636F756E74646F7A
:100D5000776E20656E64732E0065006F0031376D0D
:100D600020262031356D20535752204D6574657211
:100D70003A4F4E0031376D20262031356D205357C4
:100D800052204D657465723A4F4646004D65746554
:100D9000723A502E48004D657465723A522E5400D6
:100DA00042616E643A58494547550042616E643A63
:100DB00049434F4D0042616E643A366D0042616EA8
:100DC000643A31306D0042616E643A31326D0042F6
:100DD000616E643A31356D0042616E643A31376D4F
:100DE0000042616E643A32306D0042616E643A33A3
:100DF000306D0042616E643A34306D0042616E6461
:100E00003A38306D0042616E643A3136306D0050D0
:100E1000413A4F4E0050413A4F464600506C656192
:100E2000736520636F6E7461637420746865206DF0
:100E300065726368616E74002000300049443A00B6
:100E40002200FF21000000000023002600290004EA
:100E50000404040404040402020202020203030361
:100E60000303030202030102040810204080010270
:100E70000408102001020408102040804000F224E1
:100E8000FB3911241FBECFEFD8E0DEBFCDBF11E08C
:100E9000A0E0B1E0EAEFFCE702C005900D92A837B0
:100EA000B107D9F723E0A8E7B1E001C01D92A93F3F
:100EB000B207E1F717E0C0E4D7E004C02197FE01D4
:100EC0000E94393DCF33D107C9F70E94BE260C944A
:100ED000703E0C9400000895DC01ED91FC910190AE
:100EE000F081E02D0994EF92FF920F931F93CF931F
:100EF000DF938C017B01D0E0C0E0F701EC0FFD1F18
:100F00006491662361F0D801ED91FC910190F0812C
:100F1000E02DC8010995892B11F02196EECFCE0165
:100F2000DF91CF911F910F91FF90EF900895AF92B5
:100F3000BF92CF92DF92EF92FF920F931F93CF93C6
:100F4000DF936C017B018B01040F151FEB015E0128
:100F5000AE18BF08C017D10759F06991D601ED91BD
:100F6000FC910190F081E02DC6010995892B79F75C
:100F7000C501DF91CF911F910F91FF90EF90DF900E
:100F8000CF90BF90AF900895FC01538D448D252FD5
:100F900030E0842F90E0821B930B541710F0CF9613
:100FA000089501970895FC01918D828D981761F045
:100FB000A28DAE0FBF2FB11D5D968C91928D9F5F5C
:100FC0009F73928F90E008958FEF9FEF0895FC013B
:100FD000918D828D981731F0828DE80FF11D858DEE
:100FE00090E008958FEF9FEF0895FC01918D228D81
:100FF000892F90E0805C9F4F821B91098F73992706
:10100000089581EA92E00E94F50721E0892B09F416
:1010100020E0822F089580E090E0892B29F00E9443
:10102000010881110C9400000895FC01A48DA80F03
:10103000B92FB11DA35ABF4F2C91848D90E001961A
:101040008F739927848FA689B7892C93A089B1893A
:101050008C91837080648C93938D848D981306C0DB
:101060000288F389E02D80818F7D80830895EF923F
:10107000FF920F931F93CF93DF93EC0181E0888F52
:101080009B8D8C8D98131AC0E889F989808185FF22
:1010900015C09FB7F894EE89FF896083E889F989C4
:1010A00080818370806480839FBF81E090E0DF91C6
:1010B000CF911F910F91FF90EF900895F62E0B8D19
:1010C00010E00F5F1F4F0F731127E02E8C8D8E11D4
:1010D0000CC00FB607FCFACFE889F989808185FF3B
:1010E000F5CFCE010E941508F1CFEB8DEC0FFD2F4F
:1010F000F11DE35AFF4FF0829FB7F8940B8FEA89F6
:10110000FB8980818062CFCFCF93DF93EC01888D04
:101110008823B9F0AA89BB89E889F9898C9185FD72
:1011200003C0808186FD0DC00FB607FCF7CF8C9100
:1011300085FFF2CF808185FFEDCFCE010E9415089B
:10114000E9CFDF91CF910895843081F028F4823087
:10115000E9F08330F9F00895883071F0893091F02A
:101160008530B9F4809180008F7D03C0809180002C
:101170008F778093800008958091B0008F7780935F
:10118000B00008958091B0008F7DF9CF84B58F773E
:1011900084BD089584B58F7DFBCFCF93DF93282F37
:1011A00030E0F901EA5FF44F8491F901EA59F14F17
:1011B000D491F901E15BF14FC491CC23A1F08111ED
:1011C0000E94A408EC2FF0E0EE0FFF1FEB5BF14F45
:1011D000A591B491EC91ED2381E090E009F480E0D9
:1011E000DF91CF91089580E090E0FACF1F93CF93E5
:1011F000DF93282F30E0F901EA5FF44F8491F90181
:10120000EA59F14FD491F901E15BF14FC491CC233C
:10121000A9F0162F81110E94A408EC2FF0E0EE0F28
:10122000FF1FE450F54FA591B4918FB7F894EC915E
:10123000111108C0D095DE23DC938FBFDF91CF91D1
:101240001F910895DE2BF8CFCF93DF9390E0FC0140
:10125000EA59F14F2491815B914FFC0184918823DD
:10126000C9F090E0880F991FFC01EE50F54FA59151
:10127000B491FC01E450F54FC591D49161110DC0BA
:101280009FB7F8948C91209582238C938881282392
:1012900028839FBFDF91CF910895623051F49FB7AB
:1012A000F8943C91822F809583238C93E8812E2B98
:1012B000EFCF8FB7F894EC912E2B2C938FBFEACF02
:1012C0002091040190E4299F900111248E50822BDB
:1012D00080937C0080917A00806480937A00809172
:1012E0007A0086FDFCCF8091780090917900089576
:1012F000880F991F880F991F05970197F1F7089597
:10130000CF92DF92EF92FF920F931F93CF93DF93D1
:1013100088E0E82EF12C00E0DD24D3941091E7035F
:10132000C091E803D091E903F8948981812B8983E6
:101330008A81C12EC0948C218A8383E090E00E9430
:10134000780989818C2189838AE090E00E9478095C
:1013500088811823789485E390E00E947809111120
:101360000D29DD0C81E0E81AF108C1F6802FDF912C
:10137000CF911F910F91FF90EF90DF90CF90089544
:10138000CF92DF92EF92FF920F931F93CF93DF9351
:10139000C82ED62E88E0E82EF12C01E01091E7034C
:1013A000C091E803D091E903912F90958C2D802373
:1013B000B1F1F8948A8189238A838981812B898379
:1013C0008AE090E00E9478098A81182B1A83789429
:1013D00087E390E00E947809000F81E0E81AF108A5
:1013E000E9F6D11013C0F894E091E803F091E90315
:1013F00091818091E703809598239183E091E803A0
:10140000F091E9039281892382837894DF91CF91CF
:101410001F910F91FF90EF90DF90CF900895F89477
:101420008A8189238A838981812B898381E490E061
:101430000E9478098A81182B1A83789485E090E0BD
:10144000C9CFFF920F931F93CF93DF931091E703C0
:10145000C091E803D091E903F8948981012F0095A8
:101460008023898378948DE7F82EFA94FF2061F128
:1014700082E090E00E94780988818123B1F3F8949A
:101480008A8180238A838981812B8983789480EE65
:1014900091E00E947809F89489818023898386E409
:1014A00090E00E94780988811823C1E009F0C0E02B
:1014B00078948AE991E00E9478098C2FDF91CF918E
:1014C0001F910F91FF900895C0E0F7CF3FB7F894B8
:1014D0008091220290912302A0912402B0912502D2
:1014E00026B5A89B05C02F3F19F00196A11DB11D7F
:1014F0003FBFBA2FA92F982F8827BC01CD01620FBB
:10150000711D811D911D42E0660F771F881F991F75
:101510004A95D1F708958F929F92AF92BF92CF9242
:10152000DF92EF92FF924B015C010E94660A6B0111
:101530007C010E94660A6C197D098E099F09683E2C
:10154000734081059105A8F321E0821A9108A10852
:10155000B10888EEC80E83E0D81EE11CF11C81148E
:101560009104A104B10429F7FF90EF90DF90CF9090
:10157000BF90AF909F908F9008952FB7F89460918F
:101580001E0270911F0280912002909121022FBFB4
:1015900008958F929F92AF92BF92CF92DF92EF9277
:1015A000FF920F931F93809147039091480397FDFB
:1015B0009DC00E94CD087C010E94BD0A60937F03FC
:1015C0007093800380938103909382032091790329
:1015D00030917A03E216F30609F048C000917B03CC
:1015E00010917C0320917D0330917E034B015C01BF
:1015F000801A910AA20AB30A0091490310914A0382
:1016000030E020E080169106A206B30620F0F092AA
:101610007803E09277034091770350917803E0914B
:101620004F03F091500300918303109184032091A4
:101630008503309186036B017C01C01AD10AE20A4E
:10164000F30A20917503309176032230310509F4B5
:1016500081C0CCF421153105A1F12130310509F407
:1016600050C0109276031092750340C060937B03C4
:1016700070937C0380937D0390937E03F0927A03B2
:10168000E0927903C8CF2630310509F4D2C0273063
:10169000310509F4F1C02330310519F7E417F507D6
:1016A00009F064C021E030E03093760320937503A5
:1016B00060938303709384038093850390938603E0
:1016C00015C0E417F50791F421E030E0309376037C
:1016D0002093750360938303709384038093850341
:1016E0009093860310928803109287031F910F91A5
:1016F000FF90EF90DF90CF90BF90AF909F908F9032
:10170000089522E030E0E417F50771F680914D036B
:1017100090914E03B0E0A0E08C159D05AE05BF058D
:1017200028F7E0916303F0916403309709F009957D
:10173000E0916503F0916603309729F0809167038B
:1017400090916803099586E090E0909376038093EA
:101750007503CCCF80918703909188030196909375
:1017600088038093870383E090E0EFCF8091870325
:101770009091880340914B0350914C0370E060E0DE
:10178000C416D506E606F70640F420918903309189
:101790008A032817390709F0A9CF8130910511F57F
:1017A000E0915103F0915203309709F00995E091CF
:1017B0005303F09154038091550390915603309751
:1017C00021F51092760310927503109288031092FF
:1017D0008703109283031092840310928503109262
:1017E000860384CF029799F4E0915703F091580350
:1017F000309709F00995E0915903F0915A038091CF
:101800005B0390915C033097E1F20995DACFE091A8
:101810005D03F0915E03309709F00995E0915F0355
:10182000F0916003309769F28091610390916203B7
:10183000ECCF27E030E0E417F50709F035CFE09171
:101840006F03F0917003309709F00995E0917103EF
:10185000F0917203309709F449CF8091730390910E
:1018600074031F910F91FF90EF90DF90CF90BF9086
:10187000AF909F908F900994E0916903F0916A0373
:10188000309709F00995E0916B03F0916C0380911A
:101890006D0390916E03309709F0B7CF92CF089502
:1018A00085ED8093BC008091BC0084FDFCCF10923C
:1018B0000B0208952091E501260F3327331F2132B3
:1018C0003105ECF420910B02FC0190E080E0243023
:1018D00069F082E00895A091E5012191AC014D539A
:1018E0005E4FA40FB52FB11D2C930196861798F368
:1018F0008091E501680F6093E50180E0089581E043
:10190000089508950895E091C2018091C101E817FA
:1019100030F4F0E0EF55FE4F808190E008958FEFB6
:101920009FEF08959091C2018091C1012FEF3FEF89
:10193000981748F4E92FF0E0EF55FE4F208130E092
:101940009F5F9093C201C90108958091C101909158
:10195000C201891B990B0895CF92DF92EF92FF92FB
:101960000F931F93CF93DF937C01CB018A012091CA
:10197000A002222389F0EB016B01C40ED51ECC1509
:10198000DD0569F06991D701ED91FC910190F0813D
:10199000E02DC7010995F3CF642F0E945A0CC801AE
:1019A000DF91CF911F910F91FF90EF90DF90CF903B
:1019B0000895CF93DF931F92CDB7DEB7698320914F
:1019C000A0022223F9F020919D02203258F021E05C
:1019D00030E0FC013383228390E080E00F90DF91C0
:1019E000CF91089580919E02E82FF0E0EF57FE4FCF
:1019F000998190838F5F80939E0280939D0281E006
:101A000090E0ECCF61E0CE0101960E945A0CF7CF36
:101A100090919D0281E0913208F043C080910B02C9
:101A20008111FCCF80919F0222E020930B0221E0E4
:101A300020930D022FEF20930A0221E831E030932A
:101A40000F0220930E021092110290931002109236
:101A5000120290911202880F892B809312028091BA
:101A60000C02813029F510920C02809112028093B1
:101A7000BB008091BC0083FDF8CF85EC8093BC0057
:101A800080910B028230E1F380910A028F3F91F046
:101A900080910A02803281F080910A02803371F0D5
:101AA00084E010929E0210929D021092A00208956E
:101AB00085EEE4CF80E0F5CF82E0F3CF83E0F1CF95
:101AC0000895FC016370668B84819581268137813E
:101AD000613039F0633029F091878087338722871E
:101AE0000895318720879387828708952F923F92A8
:101AF0004F925F926F927F928F929F92AF92BF921E
:101B0000CF92DF92EF92FF920F931F93CF93DF93C9
:101B1000CDB7DEB76A970FB6F894DEBF0FBECDBF64
:101B20009A8F898F7A8369834A01D22E18870F830F
:101B30003701BC2CDC0159962D913C915A97211507
:101B4000310509F015C118968D919C911997681768
:101B500079070CF0D7C11A968D919C9148175907B7
:101B60000CF0D0C14C2C512CB6E0CB9E600D711DF9
:101B700011247C876B87161617060CF0C3C1EA2D5B
:101B8000F0E0FA87E98793E0EE0FFF1F9A95E1F7FF
:101B9000F88BEF87CF01840F951F181619060CF0EC
:101BA000B1C1A98DBA8D58968C91811104C0BFEA3C
:101BB000BD1508F4D394A98DBA8DED91FC911197C0
:101BC0000284F385E02DCD010995B5E0DB9EC001CF
:101BD0001124E981FA81FC83EB83312C212C9C01B7
:101BE0002E503A4F388F2F8B4A2D50E05E8B4D8B05
:101BF000EF89F88DE20DF31D44919E828D82D12CE8
:101C0000C12C69817A81620D731D7A8B698B842F57
:101C100090E09C8B8B8BE98DFA8DA081B18140FF88
:101C200082C0F1E0BF126FC0AF126DC01C96ED9183
:101C3000FC912F813885A4014C0D5D1D69897A893D
:101C4000898D9A8D0995EB89FC89F595E7954E2F3D
:101C50005FEFC51AD50A6D817E818D899E89680FD7
:101C6000791F7E836D8398E0C916D10481F6AFEFAA
:101C70002A1A3A0AEB81FC81E40DF51DFC83EB8303
:101C8000F5E02F16310409F0B3CF2F8138852615E2
:101C90003705B9F0A98DBA8DED91FC91B1E0BB1279
:101CA00057C0AB1255C069817A816B5F7F4F008846
:101CB000F189E02D830128E030E0A401898D9A8D1F
:101CC0000995A98DBA8DED91FC9111970688F78938
:101CD000E02DCD016A960FB6F894DEBF0FBECDBFE2
:101CE000DF91CF911F910F91FF90EF90DF90CF90F8
:101CF000BF90AF909F908F907F906F905F904F902C
:101D00003F902F9009941E96ED91FC91EF80F884FE
:101D100009851A8592014D815E816B817C81898D57
:101D20009A8D099590CF2F8138852615370509F4AE
:101D30008ACF31E0B31207C0A31205C01C96ED9103
:101D4000FC91930178CF1E96ED91FC917301E0CF49
:101D50006B857C85641975090684F785E02D730110
:101D60000F8518899201A401898D9A8D0995A9CFB3
:101D7000F90134969491329745915491D91AB7E06C
:101D8000DB9E400D511D1124F901259134913C8BAE
:101D90002B8BFA0125903490FA013296749031968B
:101DA0003491398B329664903196449041E04C15D1
:101DB00018F04A1508F07FC0662D062C000C770B32
:101DC0007C836B83842D042C000C990B9E838D8364
:101DD000A98DBA8DED91FC9111970284F385E02DC8
:101DE000CD010995512CD12CC12CEA2DF0E0FA87B8
:101DF000E9872B2D30E03C872B87A401440D511D32
:101E000047FC5A95588F4F8B69817A81660D711DF9
:101E100067FC7A957E876D877989C71608F051CF60
:101E20002C2D30E04D815E81420F531FA985BA856C
:101E30004A9FC0014B9F900D5A9F900D1124FC01A9
:101E4000E80DF91DF88BEF87852D612C4F89588D92
:101E5000420F531F5E8B4D8B671408F050C0442413
:101E60004394480E877041F4C1010196EB89FC89C7
:101E7000E20DF31DD4901C01D7FE19C0A98DBA8DB7
:101E8000ED91FC91662D70E0B1E0BB1219C0AB1270
:101E900017C02D853E85620F731F0484F585E02DE4
:101EA0002F8138854D895E89898D9A8D0995DD0C44
:101EB0006394842DD1CF1E821D821C821B8288CF09
:101EC0004B815C81640F751FAB85BC856A9FC00127
:101ED0006B9F900D7A9F900D112469817A81680F14
:101EE000791F0684F785E02DEF80F88409851A852F
:101EF0009D014F855889898D9A8D0995D8CF570CAA
:101F0000C3948ACF6A960FB6F894DEBF0FBECDBFDA
:101F1000DF91CF911F910F91FF90EF90DF90CF90C5
:101F2000BF90AF909F908F907F906F905F904F90F9
:101F30003F902F9008958F929F92AF92CF92EF9201
:101F4000FF920F931F93CF93DF93EC01262F898D80
:101F50009A8D009709F051C06A30D1F41D861C8615
:101F60008D8948E0849F900111248E859F85820F82
:101F7000931F9F878E8781E090E0DF91CF911F9123
:101F80000F91FF90EF90CF90AF909F908F9008951A
:101F90006D3089F3CC88AD888F898823C1F08C851A
:101FA0009D8536E0C39E800D911D1124488559857D
:101FB0004817590764F44E855F851D861C8638E0F6
:101FC000A39EC0011124840F951F9F878E87EA88E6
:101FD000FB88088919894E855F856C857D85CE01D2
:101FE0000E94760D2C898C859D8546E0249F800D6E
:101FF000911D11249D878C87BECF6A3069F41D86A0
:102000001C86FC013896E4912D898E859F85E29F80
:10201000800D911D1124ADCF6D3009F4ACCFFC01C2
:1020200034963491631708F4A6CF3296E491E617FC
:1020300008F4A1CFFC01329685909490462F431B63
:10204000342F47E0349F800C911C1124F401329608
:1020500034913196E4913323A9F1EE2399F1CC88A0
:10206000F4013596E491AD884F89442301F10E2E99
:10207000000CFF0BE30FF11DCE9EA001CF9E500D73
:1020800011246C857D85460F571F688579856417F7
:1020900075076CF44E855F851D861C86FC0138969D
:1020A000E491AE9E400D511D11245F874E87EA8852
:1020B000FB88088919894E855F856C857D85CE01F1
:1020C0000E94760DF4013496E4912C898C859D85CF
:1020D000E29F800D911D11248DCF6F927F928F9280
:1020E0009F92AF92BF92CF92DF92EF92FF920F93A7
:1020F0001F93CF93DF93EC016B015A013901480123
:10210000E881F9810284F385E02D0995E881F98160
:102110000288F389E02D87019301A501B601CE0164
:102120000995A501480D591D41505109E881F981D2
:102130000288F389E02D9301B601CE010995E8816B
:10214000F9810088F189E02D9401A501B601CE0145
:102150000995C60CD71CB60161507109E881F98157
:102160000088F189E02D9401A501CE010995E8814F
:10217000F9810688F789E02DCE01DF91CF911F917B
:102180000F91FF90EF90DF90CF90BF90AF909F9016
:102190008F907F906F9009946F927F928F929F9211
:1021A000AF92BF92CF92DF92EF92FF920F931F9365
:1021B000CF93DF935C01EB016A014901380187018C
:1021C000DC01ED91FC916217730719F56416750631
:1021D0002CF0962D872D3A01C92ED82E960126195E
:1021E00037092F5F3F4F048CF58DE02DA301BE0111
:1021F000C5010995DF91CF911F910F91FF90EF904D
:10220000DF90CF90BF90AF909F908F907F906F9016
:1022100008954615570591F42617370724F0892DA0
:102220004B01C22FD82F9E01281939092F5F3F4F2C
:10223000068CF78DE02DA601B401DACF0284F38578
:10224000E02D0995D501ED91FC910488F589E02DEB
:1022500083019401A601BE01C5010995D501ED9147
:10226000FC910688F789E02DC501DF91CF911F9180
:102270000F91FF90EF90DF90CF90BF90AF909F9025
:102280008F907F906F900994EF92FF920F931F931E
:10229000DC011A960D911C911B9718962D913C917B
:1022A0001997ED91FC9100A0F1A1E02D7B0150E088
:1022B00040E070E060E009951F910F91FF90EF9072
:1022C00008954F925F926F927F928F929F92AF92FA
:1022D000BF92CF92DF92EF92FF920F931F93CF9313
:1022E000DF936C012B015A0139014801DC01ED91AA
:1022F000FC910284F385E02D0995E201640C751CC4
:10230000D601ED91FC91C615D7055CF40088F189E2
:10231000E02D87019401A501BE01C6010995219612
:10232000EFCF0688F789E02DC601DF91CF911F918D
:102330000F91FF90EF90DF90CF90BF90AF909F9064
:102340008F907F906F905F904F9009948F929F92A3
:10235000AF92BF92CF92DF92EF92FF920F931F93B3
:10236000CF93DF93EC015B014A016901E881F981B8
:102370000284F385E02D099595012C0D3D1D21501A
:102380003109E881F9810488F589E02D780184011B
:10239000A401B501CE010995E881F9810688F78984
:1023A000E02DCE01DF91CF911F910F91FF90EF9023
:1023B000DF90CF90BF90AF909F908F9009948F92B5
:1023C0009F92AF92BF92CF92DF92EF92FF920F93C4
:1023D0001F93CF93DF93EC015B014A016901780100
:1023E000E881F9810284F385E02D0995C80CD91C98
:1023F000860101501109E881F9810488F589E02DF1
:102400009501A401B501CE010995E881F9810688FD
:10241000F789E02DCE01DF91CF911F910F91FF90B1
:10242000EF90DF90CF90BF90AF909F908F900994E6
:10243000EF92FF920F931F93DC01ED91FC9100A0AE
:10244000F1A1E02D09951F910F91FF90EF90089554
:102450000F931F93DC01ED91FC91068CF78DE02D1D
:1024600009951F910F9108950F931F93DC01ED9132
:10247000FC91048CF58DE02D09951F910F91089525
:10248000DC01ED91FC910084F185E02D09943F92EF
:102490004F925F926F927F928F929F92AF92BF9274
:1024A000CF92DF92EF92FF920F931F93CF93DF9320
:1024B0005C017B014A016901390187E0680E711CEA
:1024C00093E0759467949A95E1F72B01400E511EA5
:1024D00010E000E0312CD0E0C0E0CE0187709927F9
:1024E000330C892B59F4FE0183E0F595E7958A9525
:1024F000E1F7E00FF11FE80DF91D349037FE0AC037
:1025000021E030E0A701B5016C0F7D1F87EA93E061
:102510000E9440122196CC16DD06F9F68FEFE81ADC
:10252000F80A060D171DE414F504A9F6DF91CF9102
:102530001F910F91FF90EF90DF90CF90BF90AF90E1
:102540009F908F907F906F905F904F903F900895F5
:102550002F923F924F925F926F927F928F929F92B3
:10256000AF92BF92CF92DF92EF92FF920F931F93A1
:10257000CF93DF9300D000D000D0CDB7DEB73C01C1
:102580006A013E832D83FC82EB825801A41AB50AAE
:10259000B7FE03C0B194A194B1088D809E80861AC5
:1025A000970A97FE03C09194819491088A149B0422
:1025B0005CF0902F812F0D811E819D838E839C2D39
:1025C0008D2D6B01692F782F0C151D055CF09D81F9
:1025D0008E817E836D83692F782F902F812F8601C6
:1025E000C92ED82E1601201A310A2B012D813E81C9
:1025F000421A530A57FE03C0519441945108710185
:1026000037FE03C03FEFE31AF30AF594E7948D8198
:102610009E81861797075CF5A1E0B0E0BA83A98395
:10262000C016D1064CF1D301ED91FC910484F585DF
:10263000E02D2B813C81A8016D817E818A149B0451
:102640001CF04D815E81B801C3010995E418F508BD
:10265000F7FE0AC02D813E8189819A81280F391F9A
:102660003E832D83E20CF31C0F5F1F4FD9CF2FEF5A
:102670003FEF3A832983D4CF26960FB6F894DEBF76
:102680000FBECDBFDF91CF911F910F91FF90EF90C3
:10269000DF90CF90BF90AF909F908F907F906F9082
:1026A0005F904F903F902F900895EF92FF920F937D
:1026B0001F93CF93DF93EC01EC80FD806E157F05B7
:1026C0000CF070C057FF04C0240F351F50E040E0ED
:1026D0008E819F81FA01E20FF31F8E179F071CF472
:1026E0009C01241B350B121613060CF05BC0922FB5
:1026F000842F8695869586958E9DD0018F9DB00DF1
:1027000011246A0F7B1FAF8DB8A1A60FB71F4770AA
:1027100049F188E0841B482F682F70E0FB01E651E7
:10272000FA4FE491281708F063C0621B71092FEF7C
:1027300030E002C0359527956A95E2F7E223013033
:10274000110539F0B0F10230110561F58C91E827DF
:1027500002C08C91E82BEC93941720F12C813D81E1
:10276000A20FB31FE92FE41BE83078F00230110507
:1027700021F58E2F9C9190959C932C813D81A20FE9
:10278000B31F88508830B0F7E770EE2359F0F0E0BF
:10279000EE51FA4FE49101301105F9F010F10230D9
:1027A000110519F1DF91CF911F910F91FF90EF90DB
:1027B0000895E0958C91E823CECF81E001151105B5
:1027C00009F480E081959E2F8C932C813D81A20F8E
:1027D000B31F98509830C0F7D7CF8C91E82BEC936B
:1027E000E1CFE0958C91E823FACF8C91E827F7CFE1
:1027F0000130110509F4ADCFE0F20230110509F402
:10280000A5CFAE0DBF1DAECF0F931F93CF93DF9318
:1028100077FF04C0260F371F70E060E0DC011496DC
:10282000CD91DC91FB01E20FF31FCE17DF071CF403
:102830009E01261B370B121613064CF5FA0157FDA5
:102840003796A3E0F595E795AA95E1F7EC9FD001BF
:10285000ED9FB00DFC9FB00D11246A0F7B1FDC01B2
:102860005F96ED91FC91E60FF71F4770552781E0C9
:1028700090E001C0880F4A95EAF7482F0130110512
:1028800059F0A8F02E0F3F1F02301105E1F0DF9143
:10289000CF911F910F9108952E0F3F1FE217F3075D
:1028A000B1F38191DF011197842B8C93F7CF809541
:1028B0002E0F3F1FE217F30751F39191DF0111979C
:1028C00098239C93F7CFE217F30709F38191DF0177
:1028D000119784278C93F7CF0F931F93FA01DC0194
:1028E00056964C9156974230E9F04330A1F1413071
:1028F00061F514964D915C91DA01AE1BBF0BFD01A1
:10290000E21BF30B77FD0BC0DC0116964D915C9139
:102910006417750724F4AB01BF010E9404141F91D2
:102920000F91089514964D915C91DA01A61BB70B97
:10293000BD0161507109DC0116964D915C91DA017F
:10294000AE1BBF0BFD01E21BF30B77FDE8CFAF0120
:102950000E945513E4CF16964D915C91DA01A61BA7
:10296000B70BBD0161507109CDCF0F931F93FA01D1
:10297000DC0156964C9156974230A9F0433091F1C4
:10298000413019F514964D915C91DA01AE1BBF0BE5
:10299000FD013197F7FD04C0AB01BF010E94551343
:1029A0001F910F91089516964D915C91DA01AE1B1F
:1029B000BF0BFD013197DC0114964D915C91DA015A
:1029C000A61BB70BBD01621B730BF7FDE9CFDC0142
:1029D00016964D915C91E417F50714F7AF010E942C
:1029E0000414DECF16964D915C91DA01A61BB70B4D
:1029F000BD01621B730BCECFFC0177FD64C08085E7
:102A00009185681779070CF05EC057FD5CC0828520
:102A10009385481759070CF056C086898230B1F06B
:102A2000833029F1813041F484819581841B950B99
:102A3000AB01BC01615071092130310509F108F485
:102A400043C02230310509F463C008958481958123
:102A5000DC01A61BB70BBD0161507109868197810E
:102A6000DC01A41BB50BAD0141505109E5CF8681B6
:102A70009781861B970BBA01AC0141505109DCCFFD
:102A8000CA0157FD0796A3E095958795AA95E1F7AA
:102A9000A481B5818A9F90018B9F300D9A9F300D44
:102AA0001124620F731F078CF0A1E02DE60FF71FB2
:102AB0004770552721E030E001C0220F4A95EAF720
:102AC0008081822B80830895CA0157FD079633E0E9
:102AD000959587953A95E1F7A481B5818A9F9001F4
:102AE0008B9F300D9A9F300D1124620F731F078C3E
:102AF000F0A1E02DE60FF71F4770552781E090E029
:102B000001C0880F4A95EAF7809590818923DACF32
:102B1000CA0157FD079623E0959587952A95E1F719
:102B2000A481B5818A9F90018B9F300D9A9F300DB3
:102B30001124620F731F078CF0A1E02DE60FF71F21
:102B40004770552721E030E001C0220F4A95EAF78F
:102B500080818227B7CF08958EBD00000DB407FE97
:102B6000FDCF8EB50895EF92FF920F931F93CF93F1
:102B7000DF937C01C62F8091C4039091C503009719
:102B800009F459C02091C80331E03093A00220938A
:102B90009F0210929E0210929D02DC01ED91FC9129
:102BA0000190F081E02D60E009958701EE24E39427
:102BB000F12CD1E0C1508091C4039091C503CF3F67
:102BC00091F1B0E2EB16F104D8F00E94080D80916B
:102BD000C4039091C5032091C803D093A002209311
:102BE0009F0210929E0210929D02DC01ED91FC91D9
:102BF0000190F081E02D60E00995EE24E394F12C42
:102C00008091C4039091C503F8016491DC01ED91BA
:102C1000FC910190F081E02D0995BFEFEB1AFB0AC2
:102C20000F5F1F4FC7CFDF91CF911F910F91FF9083
:102C3000EF900C94080DE091D403F091D5039081AE
:102C40008091DA038095892380838701C15008F43D
:102C500038C0F80184912091C2033091C303232B23
:102C600029F00E94AC150F5F1F4FF0CF28E030E035
:102C700040E8E091D003F091D1039091D803582F10
:102C80005423D9F05081952B9083E091D203F09199
:102C9000D30390815091D903952B9083E091D20377
:102CA000F091D30350819091D9039095952390830F
:102CB000469521503109E9F6D6CF5081909595235C
:102CC000E3CFDF91CF911F910F91FF90EF90089587
:102CD0001F93CF93DF93EC018D8D9E8D009721F193
:102CE000162F29A131E03093A00220939F02109269
:102CF0009E0210929D02DC01ED91FC910190F08109
:102D0000E02D60E009958D8D9E8DDC01ED91FC91AB
:102D10000190F081E02D612F09958D8D9E8DDF91C1
:102D2000CF911F910C94080DADA5BEA59C918BA9C8
:102D3000809589238C938B8D9C8D892B31F0862FE8
:102D4000DF91CF911F910C94AC1528E030E080E822
:102D5000A9A5BAA599A9462F4823C1F04C91942B57
:102D60009C93ABA5BCA59C914AA9942B9C93ABA525
:102D7000BCA54C919AA9909594239C93869521503B
:102D8000310931F7DF91CF911F9108954C919095C2
:102D90009423E6CF8CBD9DBD0895DF92EF92FF9204
:102DA0000F931F93CF93DF938091C4039091C5033A
:102DB000892B09F498C02091DC033091DD03409108
:102DC000DE035091DF0360E074E284EF90E00E9444
:102DD000443B205131094109510956954795379592
:102DE00027952093B80065E080E49EE00E94B3152B
:102DF0006091AB03615087EA93E00E9468162091CE
:102E0000AD033091AE03C901079697FD079633E0F5
:102E1000959587953A95E1F72091AB033091AC03F6
:102E2000829F8001839F100D929F100D1124C091ED
:102E3000C603D091C7038091C4039091C5030C0FC2
:102E40001D1F009709F48FC02091C80331E0309313
:102E5000A00220939F0210929E0210929D02DC011C
:102E6000ED91FC910190F081E02D60E40995EE2454
:102E7000E394F12CDD24D3948091C4039091C50395
:102E80000C171D0709F446C0B0E2EB16F104D8F0A8
:102E90000E94080D8091C4039091C5032091C8033E
:102EA000D092A00220939F0210929E0210929D0247
:102EB000DC01ED91FC910190F081E02D60E4099539
:102EC000EE24E394F12C8091C4039091C5036991A1
:102ED000DC01ED91FC910190F081E02D0995BFEFAF
:102EE000EB1AFB0AC9CF8091C2039091C303892BCF
:102EF00031F08091E5039091E6030E94CA16E091BB
:102F0000D603F091D70390818091DB0380958923CC
:102F1000808369CF0E94080D8091C4039091C503FE
:102F2000892B09F461C02091E0033091E1034091C5
:102F3000E2035091E30360E074E284EF90E00E94CA
:102F4000443B205131094109510956954795379520
:102F500027952093B800DF91CF911F910F91FF909B
:102F6000EF90DF900895E091D403F091D503808134
:102F70009091DA03892B80830C171D0769F28991E0
:102F80002091C2033091C303232B19F00E94AC158A
:102F9000F3CF28E030E040E8E091D003F091D10396
:102FA0009091D803582F5423D9F05081952B9083BA
:102FB000E091D203F091D30390815091D903952BE6
:102FC0009083E091D203F091D30350819091D90383
:102FD000909595239083469521503109E9F6CCCF01
:102FE000508190959523E3CFE091D603F091D703DC
:102FF00080819091DB03892B8083ADCF1F93CF938A
:10300000DF93EC01162F8D8D9E8D892BB1F12DA9AB
:103010003EA94FA958AD60E074E284EF90E00E94B1
:10302000443B20513109410951095695479537953F
:1030300027952093B80066EA111167EACE010E9435
:1030400068168D8D9E8D892B41F129AD3AAD4BAD22
:103050005CAD60E074E284EF90E00E94443B20515C
:103060003109410951095695479537952795209380
:10307000B800DF91CF911F9108958B8D9C8D892B86
:1030800021F08EAD9FAD0E94CA16EFA5F8A99081E0
:103090008CA9809589238083CECFEFA5F8A9808164
:1030A0009CA9892B8083E5CF089590E080E0089566
:1030B000CF9382E00E94CD08892B89F580919C02F4
:1030C00081112DC080916E02811129C080916B0207
:1030D000811125C080916C02811121C080917F02F5
:1030E00081111DC080916A02811119C080919602E0
:1030F000811115C061E084E00E94F60881E08093B0
:10310000520280938902109290020E94BD0A60933D
:103110008C0270938D0280938E0290938F0282E0D6
:103120000E94CD080197D9F4C1E0C09388021092A3
:1031300052020E94BD0A60938402709385028093BC
:103140008602909387028091800181110AC060E01D
:1031500084E00E94F6081092890210929002CF91AA
:103160000895C09390020E94BD0A60938C027093F0
:103170008D0280938E0290938F02F1CF0C94C90A36
:1031800010926A0210926B02089581E080939B0274
:10319000089580918703909188038330910541F4CD
:1031A00080918902811135C081E080939A0208954F
:1031B0008530910541F48091890281112AC081E016
:1031C0008093990208958630910541F48091890297
:1031D00081111FC081E08093980208958730910586
:1031E00041F480918902811114C081E0809397029B
:1031F0000895089771F48091890281110AC0809125
:103200009202811104C081E080939202089510928D
:10321000920208952091AD033091AE03C901079643
:1032200097FD079623E0959587952A95E1F72091DC
:10323000AB033091AC03829FA001839F500D929FFE
:10324000500D112470E060E08091C6039091C70397
:103250000C94693E0E94643EFB0101900020E9F756
:103260003197AF01461B570BDC01ED91FC910280B9
:10327000F381E02D0994CF93DF93BC0181EA92E0C2
:103280000E947307EC0169E671E081EA92E00E9416
:103290002C198C0F9D1FDF91CF910895CF9388ED4E
:1032A00095E00E943B19C0918902C13051F460E061
:1032B00084E00E94F60862E370E080E090E00E9403
:1032C0008B0AE0919502E150EA3008F03EC0F0E050
:1032D000E459F64E0C94393D76199119B419BE197A
:1032E000BE19BE19CC19DE19DE19E01961E08DE0B6
:1032F0000E94F60861E089E00E94F60860E088E03C
:103300000E94F60860E087E00E94F60860E086E030
:103310000E94F6081092890281E080937F02CF918B
:10332000089561E08DE00E94F60861E089E00E9466
:10333000F60860E088E00E94F60860E087E00E94FE
:10334000F60860E086E00E94F60810927F02C13025
:1033500031F762E370E080E090E00E948B0A61E068
:1033600084E0CF910C94F60861E08DE00E94F608AD
:1033700060E089E00E94F60861E0DCCF61E08DE06A
:103380000E94F60860E089E00E94F60860E088E0AC
:103390000E94F60861E0D2CF61E08DE00E94F6085D
:1033A00060E089E00E94F60860E088E00E94F6088C
:1033B00060E087E00E94F60861E0C4CF60E0EDCFF6
:1033C00060E08DE00E94F60860E089E00E94F60867
:1033D00060E088E00E94F60860E087E00E94F6085E
:1033E00061E095CF8F929F92AF92BF92EF92FF9242
:1033F0000F931F93CF93DF93CDB7DEB7A1970FB68F
:10340000F894DEBF0FBECDBF7C01FA01CB0119A23B
:10341000223008F42AE08E010F5D1F4F822E912C7E
:10342000B12CA12CBF01A50194010E94443BF901DC
:10343000CA016A300CF5605DD8016E938D01232BB3
:10344000242B252B79F790E080E0109721F0BD0127
:10345000C7010E942C19A1960FB6F894DEBF0FBECB
:10346000CDBFDF91CF911F910F91FF90EF90BF9053
:10347000AF909F908F900895695CDECFCF92DF92DE
:10348000EF92FF920F931F93CF93DF936B01770F10
:10349000EE08FF08F7FE1BC0EC016DE20E946C070E
:1034A0008C0144275527BA014C195D096E097F0923
:1034B0002AE0CE010E94F219800F911FDF91CF9177
:1034C0001F910F91FF90EF90DF90CF9008952AE029
:1034D000B701A601DF91CF911F910F91FF90EF905F
:1034E000DF90CF900C94F2192F923F924F925F92FF
:1034F0006F927F928F929F92AF92BF92CF92DF9204
:10350000EF92FF921F93CF93DF93EC016A017B014F
:10351000722EAB019601CB01B6010E94043D6CE610
:1035200071E0811126C046015701E894B7F82FEFEA
:103530003FEF4FE75FE7C501B4010E94043D8111F1
:103540000CC02FEF3FEF4FE75FE7C501B4010E94CA
:103550000A3A60E771E0181664F02FEF3FEF4FE78B
:103560005FE4C701B6010E94953C1816B4F464E705
:1035700071E0CE01DF91CF911F91FF90EF90DF902E
:10358000CF90BF90AF909F908F907F906F905F9003
:103590004F903F902F900C942C192FEF3FEF4FE757
:1035A0005FECC701B6010E940A3A87FDE0CF20E038
:1035B00030E0A901C701B6010E940A3A312C212C42
:1035C00087FF09C06DE2CE010E946C071C01F7FA6B
:1035D000F094F7F8F09410E060E070E080E09FE392
:1035E000711641F020E030E040E251E40E94ED3BF2
:1035F0001F5FF6CFA70196010E94813B2B013C0182
:103600000E94663C4B015C012AE0BC01A401CE0192
:103610000E94F2197C01E20CF31C1123C1F1C501D7
:10362000B4010E940F3A9B01AC01C301B2010E9498
:10363000803B4B015C016EE2CE010E946C07E80EFC
:10364000F91E115020F120E030E040E251E4C501C4
:10365000B4010E94703A2B013C010E94663C4B0170
:10366000B12CA12C2AE0B501A401CE010E94F219CF
:10367000E80EF91EC501B4010E940F3A9B01AC018E
:10368000C301B2010E94803B4B015C01DACFC7014C
:10369000DF91CF911F91FF90EF90DF90CF90BF907F
:1036A000AF909F908F907F906F905F904F903F90E2
:1036B0002F900895242FAB01BC0187EA93E00C946E
:1036C000741A1F93CF93DF93EC01162F0E942E3BA9
:1036D000181739F0612FCE01DF91CF911F910C9413
:1036E000363BDF91CF911F9108950C942E3BCF93E1
:1036F0008CE090E00E94751BC82F8BE090E00E9448
:10370000751B982F8C2FB0E0A0E0813727E192073E
:1037100020F088E893E1A0E0B0E080933902909334
:103720003A02A0933B02B0933C0280E190E00E94F9
:10373000751BC82F8FE090E00E94751B982F8C2F6F
:10374000B0E0A0E08093330290933402A09335025E
:10375000B093360282E190E00E94751BC82F81E190
:1037600090E00E94751B982F8C2FB0E0A0E0809312
:103770002F0290933002A0933102B0933202CF9186
:103780000895809180018F3038F58F5F809380019C
:103790006091800185E090E00E94611B85E090E0EF
:1037A0000E94751B80938001803120F5E82FF0E0A6
:1037B000E452F44E0C94393DEF1BF41BFB1BFE1B33
:1037C000011C041C071C0A1C0D1C101C131C161CBD
:1037D000191C1C1C1F1C221C10928001D9CF109296
:1037E0008B0210928A02089584E690E090938B02F7
:1037F00080938A02089586E990E0F8CF88EC90E003
:10380000F5CF8AEF90E0F2CF8CE291E0EFCF8EE53A
:1038100091E0ECCF80E991E0E9CF84EF91E0E6CF51
:1038200088E592E0E3CF8CEB92E0E0CF80E293E09A
:10383000DDCF84E893E0DACF88EE93E0D7CF80ED58
:1038400097E0D4CF88EB9BE0D1CFEF92FF920F931C
:103850001F93CF93DF93CDB7DEB728970FB6F894B9
:10386000DEBF0FBECDBF10921A0210921902109245
:103870001C0210921B02109213021092140210925A
:1038800015021092160210925F02809180008091C2
:103890008100109281001092800010928500109299
:1038A000840081E086BB10926F008091B00080910F
:1038B000B1001092B10082E08093B0009CE7909339
:1038C000B30095E090937E0187BB1092B20021E097
:1038D00030E030931802209317029FB7F89483BD0D
:1038E00020917E012093B100809370008BE0815085
:1038F000F1F787E0809381009FBF61E084E00E9440
:10390000240960E084E00E94F60862E083E00E94FF
:10391000240960E082E00E94240960E085E00E94C2
:10392000240961E08AE00E94240961E089E00E94A4
:10393000240961E088E00E94240961E087E00E9498
:10394000240961E086E00E94240961E08CE00E9485
:10395000240961E08DE00E94240960E08AE00E9471
:10396000F60860E08CE00E94F60890E080E00E949B
:10397000751B182F80939402682F70E090E080E010
:103980000E940F3A9B01AC010E94043D811103C0CB
:1039900011501A3058F069E090E080E00E94611BFD
:1039A00090E080E00E94751B8093940285E090E097
:1039B0000E94751B182F80938001682F70E090E0A3
:1039C00080E00E940F3A9B01AC010E94043D8111EE
:1039D00002C0103158F060E085E090E00E94611B69
:1039E00085E090E00E94751B80938001E09180014A
:1039F000E031C8F4F0E0E150F34E0C94393D0F1D76
:103A0000721F791F7C1F7F1F821F851F881F8B1FBE
:103A10008E1F911F941F971F9A1F9D1FA01F10920A
:103A20008B0210928A0289E390E00E94751B182F86
:103A300080931201682F70E090E080E00E940F3ABE
:103A40009B01AC010E94043D811103C01150133051
:103A500058F061E089E390E00E94611B89E390E007
:103A60000E94751B809312018AE390E00E94751BEF
:103A7000182F80939302682F70E090E080E00E94FE
:103A80000F3A9B01AC010E94043D811102C012302B
:103A900058F060E08AE390E00E94611B8AE390E0C6
:103AA0000E94751B80939302E091B102F091B202E3
:103AB00082E08083E091AD02F091AE021082E0914D
:103AC000AF02F091B00280E180831092B902E091E0
:103AD000B502F091B60286E08083E091B302F091E6
:103AE000B402808188698083E091B302F091B402CE
:103AF00080818F7D80838EEC95E00E943B1982EB64
:103B000095E00E943B1969EA75E081EA92E00E9423
:103B1000730785EA95E00E943B1988E598E1909348
:103B2000010180930001809169008C7F8160809306
:103B30006900E89A8EEB98E190930301809302016B
:103B400080916900837F846080936900E99A80ECAA
:103B500098E1909352038093510381EC9BE1909301
:103B60005803809357033091890320918A0389EC8D
:103B700098E190935E0380935D03832F922F8436A8
:103B8000910514F484E690E090938A03809389036E
:103B900088EE93E090934E0380934D0385EC98E17B
:103BA000909364038093630385E090E090934A03CD
:103BB000809349030E94771B8091390290913A02C9
:103BC000A0913B02B0913C02815D9740A109B109EF
:103BD00087389341A105B10580F088E893E1A0E022
:103BE000B0E08093390290933A02A0933B02B093E5
:103BF0003C028EE895E00E943B198091330290913F
:103C00003402A0913502B0913602895C9109A10974
:103C1000B1098F3B9241A105B10580F088EE93E098
:103C2000A0E0B0E08093330290933402A093350279
:103C3000B093360283E795E00E943B1980912F02F2
:103C400090913002A0913102B0913202895C9109C9
:103C5000A109B1098F3B9241A105B10580F088EE21
:103C600093E0A0E0B0E080932F0290933002A09305
:103C70003102B093320288E595E00E943B196091D1
:103C8000390270913A0280913B0290913C020E946D
:103C90000F3A20E030E04AE754E40E94ED3B6093A5
:103CA0000D0170930E0180930F01909310016091AC
:103CB00033027091340280913502909136020E9455
:103CC0000F3A20E030E04AE754E40E94ED3B609375
:103CD000090170930A0180930B0190930C0160918C
:103CE0002F027091300280913102909132020E9435
:103CF0000F3A20E030E04AE754E40E94ED3B609345
:103D0000050170930601809307019093080181E0FB
:103D10008093040180913F0390914103890F99277B
:103D2000991F880F991F8D53984F9A83898380918B
:103D3000400390914203890F9927991F8F519C4FFF
:103D4000880F991F9C838B83809143039091450337
:103D5000890F9927991F43E0880F991F4A95E1F72A
:103D60008452984F9E838D83209144038091460313
:103D7000280F3327331F46E0429FC001439F900D19
:103D800011248252984F98878F8381E590E00E949A
:103D9000751B182F80E590E00E94751B982F812FCE
:103DA000909328028093270283E590E00E94751B80
:103DB000182F82E590E00E94751B982F812F909319
:103DC0002A028093290285E590E00E94751B182F36
:103DD00084E590E00E94751B982F812F90932C0210
:103DE00080932B0287E590E00E94751B182F86E5D3
:103DF00090E00E94751B982F812F90932E02809344
:103E00002D0280919C02E7E2F2E0DE0111962FE2A2
:103E100032E0619171914D915D916417750709F0E0
:103E200081E02E173F07A9F780939C02813089F526
:103E300061E575E081EA92E00E9473070EE313E00A
:103E400087E4E82E83E0F82EF80181918F0180311C
:103E500030F46FE475E081EA92E00E947307F801A4
:103E60003197408150E070E060E020E181EA92E02B
:103E70000E94F2196DE475E081EA92E00E947307F6
:103E8000E016F10609F769E671E081EA92E00E9426
:103E90002C198091C6039091C703892B09F453C054
:103EA0000E940A192091AD033091AE038091AB03BB
:103EB0009091AC03213231050CF0D3C0B9016052AE
:103EC000710977FF02C06F5F7F4F759567958357C4
:103ED000910997FD019600E210E023E730E04AE700
:103EE00050E0D2C084E690E090938B0280938A02E7
:103EF0009ACD86E990E0F8CF88EC90E0F5CF8AEF94
:103F000090E0F2CF8CE291E0EFCF8EE591E0ECCF44
:103F100080E991E0E9CF84EF91E0E6CF88E592E097
:103F2000E3CF8CEB92E0E0CF80E293E0DDCF84E85A
:103F300093E0DACF88EE93E0D7CF80ED97E0D4CF4F
:103F400088EB9BE0D1CF2091AD033091AE03C90146
:103F5000079697FD0796B3E095958795BA95E1F793
:103F60002091AB033091AC03AC01429FC001439F51
:103F7000900D529F900D11240E943F3D9093C703D6
:103F80008093C603892B09F08BCF0E940A1981E028
:103F900090E09093BA038093B9039093B803809311
:103FA000B70382E08093BB038093BC038AE090E078
:103FB0009093B4038093B30384E090E09093B603AE
:103FC0008093B50363E475E087EA93E00E9473078A
:103FD00081E08093BB038093BC0387E090E09093E3
:103FE000B4038093B3038CE190E09093B603809385
:103FF000B5036FE275E087EA93E00E94730789E0FA
:1040000090E09093B4038093B3038CE290E090939C
:10401000B6038093B50363E275E087EA93E00E94FC
:1040200073076EE175E087EA93E00E9473076AE127
:1040300075E087EA93E00E9473070E94CD1668EB53
:104040007BE080E090E028960FB6F894DEBF0FBECC
:10405000CDBFDF91CF911F910F91FF90EF900C9406
:104060008B0AB9016054710977FF02C06F5F7F4FFF
:10407000759567958255910997FD019600E410E0CA
:1040800022E530E04AE552E0959587950E94471277
:1040900082E08093C9038091C4039091C503892B6A
:1040A00009F4FCC08CE38093C8031092C201109203
:1040B000C10110929E0210929D0210920B0281E0AB
:1040C00080930D0210920C0261E082E10E94F608DA
:1040D00061E083E10E94F6088091B9008E7F8093B1
:1040E000B9008091B9008D7F8093B90088E48093F6
:1040F000B80085E48093BC0081E89CE09093E401E3
:104100008093E30182E89CE09093E8018093E701CB
:104110008091CF0387FD1EC061E00E94240961E009
:104120008091CF030E94F60861E070E080E090E0AB
:104130000E948B0A60E08091CF030E94F6086AE03B
:1041400070E080E090E00E948B0A61E08091CF03F4
:104150000E94F6088091C4039091C503892B09F44D
:104160005CC12091DC033091DD034091DE0350916E
:10417000DF0360E074E284EF90E00E94443B205152
:10418000310941095109569547953795279520934F
:10419000B80064E086E790E00E94B3156091AD033B
:1041A000615087EA93E00E94681664E082E790E03D
:1041B0000E94B3158091C90360E1813009F064E188
:1041C00087EA93E00E94681664E08EE690E00E9421
:1041D000B3158FE88093E4038091AB039091AC0317
:1041E0008038910509F032C18091AD039091AE0302
:1041F0008034910509F03AC18091C903813009F0FA
:1042000023C18FE98093E40312E16AED87EA93E02A
:104210000E946816612F87EA93E00E94681661E8A1
:1042200087EA93E00E9468166091E40387EA93E0CE
:104230000E94681669ED87EA93E00E9468168091F3
:10424000C90362E2813009F061EF87EA93E00E94DE
:10425000681666E088E690E00E94B3158091C4037A
:104260009091C503892B09F405C12091E003309199
:10427000E1034091E2035091E30360E074E284EFD4
:1042800090E00E94443B2051310941095109569563
:104290004795379527952093B80077CE61E08091B8
:1042A000CD030E94240961E08091CE030E9424097D
:1042B0008091CD03082E000C990BFC01E15BF14FBE
:1042C000E491F0E0EE0FFF1FE450F54F259134919B
:1042D0003093D5032093D403FC01EA59F14FE491C4
:1042E000E093DA038091CE03082E000C990BFC01B9
:1042F000E15BF14FE491F0E0EE0FFF1FE450F54F6A
:10430000A591B491B093D703A093D603FC01EA59C9
:10431000F14FE491E093DB038C91E82BEC938091D7
:10432000C2039091C303892B09F434C01FB7F894DA
:1043300080917F01811127C0E9E5FEE08491E0E7EB
:10434000FEE09491E82FF0E0EE0FFF1FEE50F54FE6
:10435000A591B491EC91E92321F461E08AE00E94F7
:10436000F60861E08AE00E9424098CB580618CBD6A
:104370008CB580648CBD61E08DE00E94240961E011
:104380008BE00E94240980917F018F5F80937F01E1
:104390001FBFBECE61E08091CB030E94240961E083
:1043A0008091CC030E9424098091CB03082E000C3D
:1043B000990BFC01E15BF14FE491F0E0EE0FFF1F80
:1043C000E450F54F259134913093D1032093D003DD
:1043D000FC01EA59F14FE491E093D8038091CC03BA
:1043E000082E000C990BFC01E15BF14FE491F0E029
:1043F000EE0FFF1FE450F54FA591B491B093D30396
:10440000A093D203FC01EA59F14FE491E093D90360
:104410008C91E095E823EC937BCE8091C203909140
:10442000C303892B31F08091E5039091E6030E944C
:10443000CA16E091D603F091D70390818091DB03F7
:10444000809589238083A5CE8FECDCCE80369105C4
:1044500069F48091AD039091AE03409739F4809157
:10446000C903813029F480E18093E40312E0CDCECA
:104470008FEAFACFE091D603F091D7038081909133
:10448000DB03892B808381CD1F920F920FB60F9291
:1044900011242F933F934F935F936F937F938F9349
:1044A0009F93AF93BF93EF93FF9381EA92E00E94B3
:1044B0001508FF91EF91BF91AF919F918F917F91DF
:1044C0006F915F914F913F912F910F900FBE0F9081
:1044D0001F9018951F920F920FB60F9211242F93D1
:1044E0008F939F93EF93FF93E091B102F091B2020B
:1044F0008081E091B702F091B80282FD1BC09081EB
:104500008091BA028F5F8F732091BB02821741F0B6
:10451000E091BA02F0E0EF55FD4F958F8093BA021B
:10452000FF91EF919F918F912F910F900FBE0F9060
:104530001F9018958081F4CF1F920F920FB60F92A3
:1045400011242F933F938F939F93AF93BF938091A9
:104550001E0290911F02A0912002B0912102309181
:104560001D0223E0230F2D3768F126E8230F029662
:10457000A11DB11D20931D0280931E0290931F0266
:10458000A0932002B09321028091220290912302F5
:10459000A0912402B09125020196A11DB11D809326
:1045A000220290932302A0932402B0932502BF918C
:1045B000AF919F918F913F912F910F900FBE0F90D0
:1045C0001F9018950196A11DB11DD4CF1F920F9277
:1045D0000FB60F9211242F933F934F935F936F93D6
:1045E0007F938F939F93AF93BF93EF93FF93E0914C
:1045F0000201F09103010995FF91EF91BF91AF91F5
:104600009F918F917F916F915F914F913F912F91EA
:104610000F900FBE0F901F9018951F920F920FB61C
:104620000F9211242F933F934F935F936F937F9338
:104630008F939F93AF93BF93EF93FF93E09100010C
:10464000F09101010995FF91EF91BF91AF919F9179
:104650008F917F916F915F914F913F912F910F902B
:104660000FBE0F901F9018951F920F920FB60F92CA
:1046700011240F931F932F933F934F935F936F9347
:104680007F938F939F93AF93BF932091840030913A
:104690008500B09B0BC081E086BB80911B0290918E
:1046A0001C02019690931C0280931B0280911902B8
:1046B00090911A02019640911702509118028417A6
:1046C000950708F445C010921A02109219028091C1
:1046D0001B0290911C02B0E0A0E0DC019927882722
:1046E000820F931FA11DB11D40911302509114021E
:1046F00060911502709116028C019D01041B150B2F
:10470000260B370BB901A801409360025093610258
:104710006093620270936302809313029093140279
:10472000A0931502B093160281E080935F02BF91BF
:10473000AF919F918F917F916F915F914F913F9139
:104740002F911F910F910F900FBE0F901F901895F2
:1047500090931A0280931902EACF1F920F920FB61C
:104760000F9211242F933F934F935F936F937F93F7
:104770008F939F93AF93BF93EF93FF938091B90073
:10478000887F803609F44AC0F0F5883209F4A7C062
:1047900018F5803109F49BC0B8F4882309F405C1E9
:1047A000883009F494C0FF91EF91BF91AF919F9130
:1047B0008F917F916F915F914F913F912F910F90CA
:1047C0000FBE0F901F901895883109F488C0803271
:1047D00051F780930A0214C0803409F4A5C040F454
:1047E0008033B9F38833F9F680930A0285ECBCC0B4
:1047F000803509F489C0883509F49EC0883499F65B
:104800000E94500CD0CF883909F494C038F588370D
:1048100029F050F4883611F0803729F683E0809330
:104820000B021092090257C0883809F483C08039FE
:1048300019F0803809F0B7CF80910902803208F072
:1048400079C0E091090281E08E0F80930902809186
:10485000BB00F0E0E751FE4F80833DC0803B39F064
:10486000E0F4803A09F485C0883A09F09CCF84E0EE
:1048700080930B021092E6011092E501E091E301B2
:10488000F091E40109958091E50181110FC081E06B
:104890008093E5011092C30109C0803C09F4A6CFC2
:1048A000883C09F4A3CF883B09F07DCFE091E60175
:1048B00081E08E0F8093E601F0E0ED53FE4F8081A2
:1048C0008093BB009091E6018091E50131C0809119
:1048D00012028093BB0085EC8093BC0064CF909162
:1048E0001102809110029817B8F580910E029091F4
:1048F0000F02E091110221E02E0F20931102E80F28
:10490000F92FF11D8081E5CF20910E0230910F0229
:10491000E091110281E08E0F809311028091BB0023
:10492000E20FF32FF11D808390911102809110020C
:10493000981788F285E8D0CF20910E0230910F02AF
:10494000E091110281E08E0F809311028091BB00F3
:10495000E20FF32FF11D808380910D02811150CF62
:1049600081E080930C0284EA8093BC0010920B02D9
:104970001ACF85EC8093BC0010920B028091090243
:10498000803230F4E0910902F0E0E751FE4F1082EE
:104990006091090270E0E091E701F091E80189EE91
:1049A00091E0099510920902FECE10920A0228CFDA
:1049B000682F81EA92E00C943708CF93DF93AB0124
:1049C000BC0123E081EA92E00E94741AEC0169E6DE
:1049D00071E081EA92E00E942C198C0F9D1FDF91FB
:1049E000CF9108951092A4021092A30288EE93E052
:1049F000A0E0B0E08093A5029093A602A093A70246
:104A0000B093A8022DE131E03093A2022093A102DD
:104A100025EC30E03093AE022093AD0224EC30E080
:104A20003093B0022093AF0220EC30E03093B2021A
:104A30002093B10221EC30E03093B4022093B30212
:104A400022EC30E03093B6022093B50226EC30E041
:104A50003093B8022093B7021092BA021092BB02B0
:104A60001092BC021092BD0210929E0310929D0300
:104A700080939F039093A003A093A103B093A203FC
:104A80008FE291E090939C0380939B03AEE3B3E0AD
:104A900090E080E021E2E1E0F0E08630910510F462
:104AA000F0E0E0E0AC01425F5F4FE40FF51F2093C0
:104AB0005700E491ED9301968930910561F760E02C
:104AC0008BE00E942409E1E7FEE0E491E093E70334
:104AD000EAE5FEE0E491F0E0EE0FFF1FEB5BF14F43
:104AE000859194919093E9038093E8031092F203E7
:104AF0001092F4031092F3031092F1031092F0035A
:104B00001092EF031092EE031092ED031092EC035B
:104B10001092EB031092EA031092AA031092A903D9
:104B200020E830E03093AC032093AB0380E490E0C6
:104B30009093AE038093AD033093B0032093AF0303
:104B40009093B2038093B1031092BD031092B4030B
:104B50001092B3031092B6031092B50381E08093D4
:104B6000BC038093BB032FEF3FEF3093BA03209336
:104B7000B9033093B8032093B7038093BE03109218
:104B8000BF031092C1031092C00381E491E090939F
:104B9000A8038093A7031092C3031092C2038BE96A
:104BA00093E09093C5038093C4031092C7031092BF
:104BB000C6038FEF8093CB038093CC038093CD0308
:104BC0008093CE038093CF0380E89AE1A6E0B0E023
:104BD0008093DC039093DD03A093DE03B093DF03A7
:104BE00080EA96E8A1E0B0E08093E0039093E103CF
:104BF000A093E203B093E30380E58093E503109272
:104C0000E60386E696E6A6E2BFE3809393039093DD
:104C10009403A0939503B093960310929703109278
:104C200098031092990310929A0380E090E0A0E01C
:104C3000BFE380938B0390938C03A0938D03B09379
:104C40008E0310928F031092900310929103109292
:104C5000920382E390E090934A038093490380E9B2
:104C600091E090934C0380934B0380E293E0909308
:104C70004E0380934D031092500310924F031092F5
:104C80005203109251031092540310925303109246
:104C90005603109255031092580310925703109226
:104CA0005A031092590310925C0310925B03109206
:104CB0005E0310925D031092600310925F031092E6
:104CC00062031092610310926403109263031092C6
:104CD00066031092650310926803109267031092A6
:104CE0006A031092690310926C0310926B03109286
:104CF0006E0310926D031092700310926F03109266
:104D00007203109271031092740310927303109245
:104D100076031092750330937803209377033093D2
:104D20007A032093790310927B0310927C031092F4
:104D30007D0310927E0310927F03109280031092E5
:104D400081031092820310928303109284031092C5
:104D5000850310928603109288031092870381E0E6
:104D600090E090938A038093890383E090E090938E
:104D700048038093470362E00C942409CF93DF93A8
:104D800000D000D000D0CDB7DEB7789484B5836072
:104D900084BD85B5836085BD80916E008160809300
:104DA0006E0082E080938100809181008160809319
:104DB0008100809180008160809380008091B100AB
:104DC00084608093B1008091B00081608093B000D6
:104DD00087E880937A001092C1000E94251C84E02D
:104DE000282E312C0E94C90A81EA92E00E94F50720
:104DF000892B09F480C081EA92E00E94D3078C01DC
:104E00008F7D8335910509F0D5C06091390270918D
:104E10003A0280913B0290913C02672F782F892FB4
:104E200099278BE090E00E94611B609139028CE031
:104E300090E00E94611B6091330270913402809176
:104E4000350290913602672F782F892F99278FE0AE
:104E500090E00E94611B6091330280E190E00E942B
:104E6000611B60912F02709130028091310290910C
:104E70003202672F782F892F992781E190E00E94D5
:104E8000611B60912F0282E190E00E94611B6091A2
:104E9000280280E590E00E94611B6091270281E575
:104EA00090E00E94611B60912A0282E590E00E94DE
:104EB000611B6091290283E590E00E94611B609173
:104EC0002C0284E590E00E94611B60912B0285E535
:104ED00090E00E94611B60912E0286E590E00E94A6
:104EE000611B60912D0287E590E00E94611B8EE5B9
:104EF0009CE00E943B190E940A1980919C0281301B
:104F000009F07CC38093BB038093BC031092B4036D
:104F10001092B303E2E0F0E0F093B603E093B50340
:104F20006CE37EE087EA93E00E9473070EE313E0F0
:104F3000E7E4EE2EE3E0FE2ED8018D918D01803165
:104F400030F46AE37EE087EA93E00E947307F80199
:104F50003197408150E070E060E020E187EA93E023
:104F60000E94F21968E37EE087EA93E00E947307EB
:104F7000E016F10609F71092B4031092B3038EE124
:104F800090E09093B6038093B5036CE17EE087EAEE
:104F900093E00E9473070E94CD1680E090E0892B79
:104FA00009F420CF0E940108882309F418CF0E9439
:104FB000000015CF8834910599F48FEA9BE00E9498
:104FC0003B1980E79BE00E943B1984E39BE00E9431
:104FD0003B198EE19BE00E943B198DE19BE089CF5C
:104FE00089349105A9F465E57CE081EA92E00E94AC
:104FF000730721E030E030933E0220933D0210928F
:10500000390210923A0210923B0210923C0273CF86
:105010008334910559F488E090E090933E028093A8
:105020003D02109238021092370265CF20913D0266
:1050300030913E022830310509F057C0C801C097B1
:105040000A9798F480913702909138022AE0289FBD
:10505000B001299F700D1124600F711F60537109F9
:10506000709338026093370246CF0A30110521F061
:105070000D30110509F03FCF10923E0210923D0213
:105080008091370290913802843C944009F033CFEC
:1050900088E49CE00E943B1960E08EE190E00E9471
:1050A000611B60E08FE190E00E94611B60E082E2A2
:1050B00090E00E94611B60E083E290E00E94611B2F
:1050C00060E086E290E00E94611B60E087E290E091
:1050D0000E94611B60E08DE290E00E94611B60E035
:1050E0008EE290E00E94611B06CF82359105A9F403
:1050F0006EE37CE081EA92E00E947307E2E0F0E078
:10510000F0933E02E0933D0210923302109234027B
:105110001092350210923602EECE86349105A9F433
:1051200064E37CE081EA92E00E94730723E030E0D0
:1051300030933E0220933D0210922F0210923002D3
:105140001092310210923202D6CE21303105C1F5D3
:10515000C801C0970A9720F5C8010E94D824209161
:10516000390230913A0240913B0250913C02AAE050
:10517000B0E00E94663B6053710981099109012EDC
:10518000000C220B330B060F171F281F391F00932B
:10519000390210933A0220933B0230933C02ABCE8B
:1051A0000A30110521F00D30110509F0A4CE83E37A
:1051B0009CE00E943B1910923E0210923D029BCE51
:1051C0002230310591F5C801C0970A9720F5C80132
:1051D0000E94D8242091330230913402409135024C
:1051E00050913602AAE0B0E00E94663B605371091C
:1051F00081099109012E000C220B330B060F171F9A
:10520000281F391F00933302109334022093350274
:105210003093360270CE0A30110521F00D301105A1
:1052200009F069CE82E39CE0C4CF2330310591F5CB
:10523000C801C0970A9720F5C8010E94D824209180
:105240002F02309130024091310250913202AAE097
:10525000B0E00E94663B6053710981099109012EFB
:10526000000C220B330B060F171F281F391F00934A
:105270002F021093300220933102309332023BCE42
:105280000A30110521F00D30110509F034CE81E30B
:105290009CE08FCF8734910509F0FAC086E29CE04C
:1052A0000E943B190E94771B8091390290913A022B
:1052B000A0913B02B0913C02815D9740A109B109E8
:1052C00087389341A105B10580F088E893E1A0E01B
:1052D000B0E08093390290933A02A0933B02B093DE
:1052E0003C028DE19CE00E943B1964E17CE081EA94
:1052F00092E00E9473076091390270913A028091A6
:105300003B0290913C020E940F3A20E030E04AE7D5
:1053100054E40E94ED3B0E94DD2480913302909181
:105320003402A0913502B0913602895C9109A1093D
:10533000B1098F3B9241A105B10580F088EE93E061
:10534000A0E0B0E08093330290933402A093350242
:10535000B093360287E09CE00E943B196DEF7BE042
:1053600081EA92E00E9473076091330270913402E7
:1053700080913502909136020E940F3A20E030E091
:105380004AE754E40E94ED3B0E94DD2480912F0205
:1053900090913002A0913102B0913202895C910962
:1053A000A109B1098F3B9241A105B10580F088EEBA
:1053B00093E0A0E0B0E080932F0290933002A0939E
:1053C0003102B093320280EF9BE00E943B1966EEFF
:1053D0007BE081EA92E00E94730760912F02709156
:1053E000300280913102909132020E940F3A20E007
:1053F00030E04AE754E40E94ED3B0E94DD246091D6
:10540000390270913A0280913B0290913C020E94D5
:105410000F3A20E030E04AE754E40E94ED3B60930D
:105420000D0170930E0180930F0190931001609114
:1054300033027091340280913502909136020E94BD
:105440000F3A20E030E04AE754E40E94ED3B6093DD
:10545000090170930A0180930B0190930C016091F4
:105460002F027091300280913102909132020E949D
:105470000F3A20E030E04AE754E40E94ED3B6093AD
:10548000050170930601809307019093080133CDC5
:105490008035910509F059C08DEC9BE00E943B19C5
:1054A0008FE190E00E94751B182F8EE190E00E9422
:1054B000751B782F612F81EA92E00E943E1A6AECF8
:1054C0007BE081EA92E00E94730783E290E00E9411
:1054D000751B182F82E290E00E94751B782F612FB8
:1054E00081EA92E00E943E1A67EC7BE081EA92E05A
:1054F0000E94730787E290E00E94751B182F86E2D6
:1055000090E00E94751B782F612F81EA92E00E9443
:105510003E1A64EC7BE081EA92E00E9473078EE21F
:1055200090E00E94751B182F8DE290E00E94751B81
:10553000782F612F81EA92E00E943E1A69E671E0BD
:1055400081EA92E00E942C19D6CC8E349105E9F4C0
:1055500062EE7BE081EA92E00E947307A5E0B0E092
:10556000B0933E02A0933D021092280210922702AF
:1055700010922A021092290210922C0210922B02F1
:1055800010922E0210922D02B6CC2530310509F072
:10559000B2CCC801C0970A9718F00D32110501F579
:1055A000C8010E94D824E09126020D32110521F491
:1055B000EF5FE09326029FCCF0E0EE0FFF1FE95D66
:1055C000FD4F808191812AE0289FB001299F700DB5
:1055D0001124600F711F60537109718360838BCC3C
:1055E0000A30110521F00D30110509F084CC81EE4F
:1055F0009BE00E943B1910922602DDCD10919B0288
:10560000111111C080919A0281110DC080919902EF
:10561000811109C080919802811105C08091970283
:10562000882309F41CC10E940A19112321F1109248
:105630009B0260E08AE00E94F60880919602811148
:1056400049C081E08093960282E08093BB038093FF
:10565000BC038CE190E09093B4038093B30386E1A4
:1056600090E09093B6038093B50365E17EE087EA0E
:1056700093E00E94730780919A02882309F463C023
:1056800010929A029091950281E0890F813019F071
:10569000843009F037C09E5F90939502E0919502A7
:1056A000E093940282E08093BB038093BC03E150BB
:1056B000EA3008F040C0F0E0E05AF44D0C94393D77
:1056C000892BA42CB32CC22CD12CE02CEF2CFE2C3B
:1056D0000D2D1C2D813079F61092960282E0809378
:1056E000BB038093BC0382E290E09093B403809369
:1056F000B30386E190E09093B6038093B5036FE027
:105700007EE0B5CF8A3018F480939502C7CF82E04F
:10571000FBCF8BE090E09093B4038093B30386E1DA
:1057200090E09093B6038093B50365E07EE087EA4E
:1057300093E00E9473076091950290E080E00E94E0
:10574000611B0E944E1980919902882359F1109291
:10575000990280911201813009F07DC182E080932D
:10576000120162E089E390E00E94611B82E0809375
:10577000BB038093BC0380911201813009F073C197
:1057800089E090E09093B4038093B30386E190E0C6
:105790009093B6038093B5036BEA7DE087EA93E0CC
:1057A0000E94730780919802882349F11092980211
:1057B00080919302811164C181E08093930261E042
:1057C0008AE390E00E94611B82E08093BB03809398
:1057D000BC038091930281115AC189E090E09093BB
:1057E000B4038093B30386E190E09093B603809373
:1057F000B50366E97DE087EA93E00E947307809134
:1058000097028823F1F01092970282E08093BB0305
:105810008093BC0380911101882309F447C1109241
:1058200011013092B4032092B30328E030E03093AA
:10583000B6032093B50364E77DE087EA93E00E9416
:10584000730760E08AE00E94F6080E94CD1668EEB9
:1058500073E080E090E00E948B0A0E940A19809118
:1058600095028650823008F58091960281111DC004
:1058700081E08093BB038093BC038AE590E0909322
:10588000B4038093B30387E290E09093B6038093D0
:10589000B503809111016BE57DE0882311F069E586
:1058A0007DE087EA93E00E9473078091920288234B
:1058B00009F45BC180919102811157C10AE010E0A7
:1058C000F12CE12CDD24D39480919202882309F4F9
:1058D000FDC0101611060CF0F9C00E94C90A0E9402
:1058E0000A19D092BB03D092BC031092B403109259
:1058F000B303A2E0B0E0B093B603A093B50367EFA3
:105900007CE087EA93E00E947307E2E7F0E0F0931F
:10591000B403E093B30329E330E03093B60320935C
:10592000B503B80187EA93E00E943E1A0E94CD16A3
:105930003FEFE31AF30A84E1E816F1042CF2015078
:105940001109F12CE12CC0CF81E190E09093B403D8
:105950008093B30386E190E09093B6038093B50300
:105960006CEF7DE0E4CE81E190E09093B40380930E
:10597000B30386E190E09093B6038093B50363EFA1
:105980007DE0D5CE81E190E09093B4038093B303A2
:1059900086E190E09093B6038093B5036AEE7DE0D4
:1059A000C6CE81E190E09093B4038093B30386E187
:1059B00090E09093B6038093B50361EE7DE0B7CE9F
:1059C00081E190E09093B4038093B30386E190E08B
:1059D0009093B6038093B50368ED7DE0A8CE81E196
:1059E00090E09093B4038093B30386E190E09093AA
:1059F000B6038093B5036FEC7DE099CE81E190E032
:105A00009093B4038093B30386E190E09093B60340
:105A10008093B50366EC7DE08ACE81E190E09093BF
:105A2000B4038093B30386E190E09093B603809330
:105A3000B5036DEB7DE07BCEE4E1F0E0F093B403E1
:105A4000E093B30386E190E09093B6038093B503AF
:105A500065EB7DE06CCE823009F088CE81E08093EA
:105A6000120161E07FCE3092B4032092B30386E14D
:105A700090E09093B6038093B50360EA7DE08ECE0C
:105A8000813009F0A1CE1092930260E099CE89E0B6
:105A900090E09093B4038093B30386E190E09093F9
:105AA000B6038093B5036CE87DE0A5CE81E08093DA
:105AB00011013092B4032092B30388E090E09093F8
:105AC000B6038093B5036DE57DE0B7CE012B09F0F9
:105AD0000BC30E940A1982E08093BB038093BC032E
