:100000000C9408070C9433230C940C230C943007A5
:100010000C9430070C9430070C9430070C945A233E
:100020000C9430070C9430070C9430070C94300774
:100030000C9430070C9430070C9430070C94300764
:100040000C94C2220C9430070C9490220C946A22D7
:100050000C9430070C9430070C9430070C94300744
:100060000C94D3230C943007DB40A4A62EAF2000C1
:10007000A1C8D300408DAED580A80000600000006C
:100080000000000000000000000000E00000000090
:1000900000000000000000000001E000000000007F
:1000A000000000000000000001F00000000000005F
:1000B0000000000000000003F0000000000000004D
:1000C00000000000000007F0000000000000000039
:1000D000000000000007F800000000000000000021
:1000E000000000000FF800000003C0007E000001C7
:1000F000E0007F0FF800000003C000FE000001E0F8
:1001000000FFEFF800000003C000FE000001E00067
:10011000FFFFF800000003C000F00000000F007FA8
:10012000FE7FC0000003C000F00000000F003FFE93
:100130007FF83FF1FBCFFCFEF3BC3DEFE01FFE7FFD
:10014000FF7FFBFFDFFEFEFFBC3DEFE01FC6FFFFB2
:100150007FFBFFDFFEFEFFBC3DEFE00FE3C7FE7855
:100160007BC3DE1EF0FFBC3DEF0007FF87FC787B02
:10017000C3DE1EF0F83C3DEF0001FFFFF0007BC343
:10018000C01EF0F03C3DEF0001F37FE03FFBC3CF2A
:10019000FEF0F03C3DEF0003E33F807FFBC3DFFE5A
:1001A000F0F03C3DEF0007E73C00787BC3DE1EF03B
:1001B000F03C3DEF0007FFBE00787BC3DE1EF0F091
:1001C0003C3DEF0007FFFE00787BC3DE1EF0F03CF5
:1001D0003DEF000FFFFE007FFBFFDFFEF0F03FFD75
:1001E000EFE00FFFFF007FFBFFDFFEF0F03FFDEFD2
:1001F000E00FF9FF003E79F9CF9EF0F01F3DE7E0F8
:100200001FF1FF0000000000000000000000001FC0
:1002100080FF007FFFFFFFFFFFFFFFFFFFE01C00ED
:100220007F007FFFFFFFFEB46D888D18E000001F88
:10023000007FFFFFFFFE95AD7DB577E000000F006A
:100240007FFFFFFFFEA5AD9D8D19E0000006007F3A
:10025000FFFFFFFEB5ADEDB57EE000000000000140
:10026000800000000000000000000380000000008B
:10027000000000000007C0000000000000000000B7
:1002800007C00000000000000000000FC0000000D8
:100290000000000000001FE000000000000000005F
:1002A000001FE00000000000000000003FE0000030
:1002B000000000000000003FF0000000000000000F
:1002C00000007FF0000000000000001FF87FF00039
:1002D0000000000000003FFE7FF000000000000072
:1002E000003FFF7FF0000000000000001FFFFBE068
:1002F000000000000000000FFFF9FFC00000000038
:1003000000000FFFF9FFF800000000000007FFF1F8
:10031000FFFF00000000000003FC73FFFF800000EF
:1003200000000001FE3FFFFF80000000000000FF12
:100330001E0FFF000000000000007FFE1FFC0000F9
:1003400000000000003FFFFFF80000000000000078
:100350000FDFFFE0000000000000001F19FFC000D9
:100360000000000000003F3CFF0000000000000013
:10037000007E7CF800000000000000007FFE7C0092
:1003800000000000000000FFFFFC00000000000073
:100390000000FFFFFE0000000000000000FFFFFE65
:1003A0000000000000000001FFEFFE000000000060
:1003B000000001FFCFFE0000000000000003FF0767
:1003C000FE0000000000000003FC07FE000000002B
:1003D00000000003F003FE000000000000000180A8
:1003E00000FE000000000000000000007E00000091
:1003F000000000000000003E0000000000000000BF
:1004000000000C000000000000078000FC0000035A
:10041000C0000000078001FC000003C000000007CE
:100420008001FC000003C0000000078001E0000024
:10043000001E000000078001E00000001E007FE3B6
:10044000F79FF9FDE7787BDFC0FFF7FFBFFDFDFFFA
:10045000787BDFC0FFF7FFBFFDFDFF787BDFC0F0DB
:10046000F787BC3DE1FF787BDE00F0F787BC3DE11C
:10047000F0787BDE0000F787803DE1E0787BDE00EE
:100480007FF7879FFDE1E0787BDE00FFF787BFFD08
:10049000E1E0787BDE00F0F787BC3DE1E0787BDED1
:1004A00000F0F787BC3DE1E0787BDE00F0F787BC29
:1004B0003DE1E0787BDE00FFF7FFBFFDE1E07FFB81
:1004C000DFC0FFF7FFBFFDE1E07FFBDFC07CF3F3A0
:1004D0009F3DE1E03E7BCFC0000000000000000037
:1004E000000000FFFFFFFFFFFFFFFFFFFFC0FFFF58
:1004F000FFFFFD68DB111A31C0FFFFFFFFFD2B5A24
:10050000FB6AEFC0FFFFFFFFFD4B5B3B1A33C0FFF1
:10051000FFFFFFFD6B5BDB6AFDC0322E382E36001D
:100520005665723A0042793A435351574459200074
:10053000332E352D32382E354D487A203530572020
:100540004D4158004D6963726F5041353000322E75
:10055000382E360056657273696F6E3A003230324B
:10056000322D3230323320436F707972696768748C
:100570002040637371776479004D6963726F5041F5
:1005800035300020003000555549443A2000566669
:100590007764436F727220657272210056726576BD
:1005A000436F727220657272210041524546206588
:1005B00072722100000103070F1F3F7F0080C0E01F
:1005C000F0F8FCFE00000000003E5B4F5B3E3E6B1F
:1005D0004F6B3E1C3E7C3E1C183C7E3C181C577DDD
:1005E000571C1C5E7F5E1C00183C1800FFE7C3E729
:1005F000FF0018241800FFE7DBE7FF30483A060E3B
:100600002629792926407F050507407F05253F5A81
:100610003CE73C5A7F3E1C1C08081C1C3E7F1422F1
:100620007F22145F5F005F5F06097F017F0066899C
:10063000956A606060606094A2FFA29408047E04E2
:100640000810207E201008082A1C08081C2A080808
:100650001E101010100C1E0C1E0C30383E383006C8
:100660000E3E0E06000000000000005F00000007C4
:10067000000700147F147F14242A7F2A12231308F2
:10068000646236495620500008070300001C2241CE
:10069000000041221C002A1C7F1C2A08083E080872
:1006A0000080703000080808080800006060002022
:1006B000100804023E5149453E00427F4000724905
:1006C0004949462141494D331814127F10274545A9
:1006D00045393C4A494931412111090736494949BF
:1006E00036464949291E000014000000403400002D
:1006F0000008142241141414141400412214080296
:10070000015909063E415D594E7C1211127C7F4908
:100710004949363E414141227F4141413E7F49495D
:1007200049417F090909013E414151737F08080889
:100730007F00417F41002040413F017F081422415A
:100740007F404040407F021C027F7F0408107F3EB4
:100750004141413E7F090909063E4151215E7F0921
:10076000192946264949493203017F01033F404088
:10077000403F1F2040201F3F4038403F6314081473
:100780006303047804036159494D43007F414141AB
:100790000204081020004141417F0402010204408C
:1007A00040404040000307080020545478407F2810
:1007B0004444383844444428384444287F38545406
:1007C000541800087E090218A4A49C787F08040429
:1007D0007800447D40002040403D007F10284400C8
:1007E00000417F40007C047804787C080404783859
:1007F00044444438FC1824241818242418FC7C0889
:10080000040408485454542404043F44243C404005
:10081000207C1C2040201C3C4030403C44281028B8
:10082000444C9090907C4464544C44000836410001
:100830000000770000004136080002010204023C7B
:100840002623263C1EA1A161123A4040207A38544A
:1008500054555921555579412254547842215554C3
:10086000784020545579400C1E5272123955555516
:1008700059395454545939555454580000457C4101
:100880000002457D420001457C407D1211127DF041
:10089000282528F07C545545002054547C547C0A6B
:1008A000097F4932494949323A4444443A324A4834
:1008B00048303A4141217A3A42402078009DA0A038
:1008C0007D3D4242423D3D4040403D3C24FF24248A
:1008D000487E4943662B2FFC2F2BFF0929F620C0A9
:1008E000887E090320545479410000447D413048FA
:1008F000484A32384040227A007A0A0A727D0D193D
:10090000317D2629292F28262929292630484D409E
:1009100020380808080808080808382F10C8ACBA9A
:100920002F102834FA00007B000008142A14222219
:10093000142A14085500550055AA55AA55AAFF5562
:10094000FF55FF000000FF00101010FF00141414EA
:10095000FF001010FF00FF1010F010F0141414FC32
:10096000001414F700FF0000FF00FF1414F404FC4F
:10097000141417101F10101F101F1414141F001030
:100980001010F0000000001F101010101F101010A9
:1009900010F010000000FF101010101010101010B8
:1009A000FF10000000FF140000FF00FF00001F10F8
:1009B000170000FC04F414141710171414F404F4B2
:1009C0000000FF00F714141414141414F700F714A3
:1009D0001414171410101F101F141414F4141010F2
:1009E000F010F000001F101F0000001F1400000096
:1009F000FC140000F010F01010FF10FF141414FF8E
:100A0000141010101F00000000F010FFFFFFFFFF88
:100A1000F0F0F0F0F0FFFFFF0000000000FFFF0F1C
:100A20000F0F0F0F3844443844FC4A4A4A347E02C0
:100A3000020606027E027E02635549416338444441
:100A40003C04407E201E2006027E020299A5E7A5F6
:100A5000991C2A492A1C4C7201724C304A4D4D3067
:100A60003048784830BC625A463D3E494949007E8C
:100A70000101017E2A2A2A2A2A44445F4444405123
:100A80004A444040444A51400000FF0103E080FFD7
:100A9000000008086B6B083612362436060F090F63
:100AA00006000018180000001010003040FF01017F
:100AB000001F01011E00191D1712003C3C3C3C00A8
:100AC0000000000000000000240027002A000000B1
:100AD0000000250028002B00000000090003020090
:100AE00000040508000000000000000000000000F5
:100AF000203A205320202C53617665732064617462
:100B00006100203A204E202E2E202C736574207315
:100B1000657269616C206E756D6265722C457861D5
:100B20006D706C653A204E20313233342D323334BF
:100B3000352D333435362D3435363700203A2049BB
:100B4000202E2E202C73657420496E7461726566A8
:100B50002C342C4578616D706C653A204120343915
:100B6000363120697320617265663D342E39363125
:100B70000048656C7020666F72204D6963726F204B
:100B8000504135303A002D002D002D0054656D7018
:100B90002D5077722D5377722D4469650000534EA6
:100BA0003A0056667764436F72723A005672657601
:100BB000436F72723A00496E74617265663A00471B
:100BC0006574454550524F4D3A0000000056667717
:100BD00064436F72723A0056726576436F72723A6E
:100BE00000436C656172454550524F4D00496E742B
:100BF000617265663A00736176656420746F2045A2
:100C00004550524F4D002D2D2D2D002020005357C3
:100C1000523A002020005057523A0056002020003F
:100C20005600553A00202000543A00366D0031300D
:100C30006D0031326D0031356D0031376D0032306D
:100C40006D0033306D0034306D0038306D0031365A
:100C5000306D00424B494E004D487A2000465251BB
:100C60003A004155544F00582D47550049434F4DC8
:100C700000425950004F46460054580041004E0073
:100C80001035F2F235104E4C204D6F64653A4F4EE0
:100C90000057696C6C20626520676F696E67206918
:100CA0006E746F20756E6C696D69746564206D6F0C
:100CB00064652077686963682077696C6C20766F5B
:100CC0006964207468652077617272616E7479213D
:100CD000200065006F0031376D2F31356D202020E9
:100CE000205357523A4F4E0031376D2F31356D201A
:100CF0002020205357523A4F46460033302F31358B
:100D00006D3A20202020436C6F730033302F313533
:100D10006D3A202020204F50454E004D657465727D
:100D20003A502E48004D657465723A522E54004276
:100D3000616E643A58494547550042616E643A49CC
:100D4000434F4D0042616E643A366D0042616E64FD
:100D50003A31306D0042616E643A31326D00426169
:100D60006E643A31356D0042616E643A31376D0020
:100D700042616E643A32306D0042616E643A3330E3
:100D80006D0042616E643A34306D0042616E643AC7
:100D900038306D0042616E643A3136306D0050413A
:100DA0003A4F4E0050413A4F464600506C656173D1
:100DB0006520636F6E7461637420746865206D656F
:100DC000726368616E74002000300049443A00226A
:100DD00000FF210000000000230026002900040479
:100DE00004040404040402020202020203030303D3
:100DF00003030202030102040810204080010204E0
:100E00000810200102040810204080401825263ACE
:100E100011241FBECFEFD8E0DEBFCDBF11E0A0E0B0
:100E2000B1E0E0E5FDE702C005900D92AA37B107F9
:100E3000D9F724E0AAE7B1E001C01D92A130B207C2
:100E4000E1F717E0C7E0D7E004C02197FE010E9458
:100E5000643DC630D107C9F70E94E4260C949B3E3E
:100E60000C9400000895DC01ED91FC910190F0815B
:100E7000E02D0994EF92FF920F931F93CF93DF938E
:100E80008C017B01D0E0C0E0F701EC0FFD1F649105
:100E9000662361F0D801ED91FC910190F081E02D85
:100EA000C8010995892B11F02196EECFCE01DF9173
:100EB000CF911F910F91FF90EF900895AF92BF9245
:100EC000CF92DF92EF92FF920F931F93CF93DF9316
:100ED0006C017B018B01040F151FEB015E01AE1845
:100EE000BF08C017D10759F06991D601ED91FC9167
:100EF0000190F081E02DC6010995892B79F7C50194
:100F0000DF91CF911F910F91FF90EF90DF90CF90E5
:100F1000BF90AF900895FC01538D448D252F30E094
:100F2000842F90E0821B930B541710F0CF960895F6
:100F300001970895FC01918D828D981761F0A28D23
:100F4000AE0FBF2FB11D5D968C91928D9F5F9F73E9
:100F5000928F90E008958FEF9FEF0895FC01918D9F
:100F6000828D981731F0828DE80FF11D858D90E00C
:100F700008958FEF9FEF0895FC01918D228D892FA9
:100F800090E0805C9F4F821B91098F739927089591
:100F900089EA92E00E94BC0721E0892B09F420E055
:100FA000822F089580E090E0892B29F00E94C807E5
:100FB00081110C9400000895FC01A48DA80FB92F95
:100FC000B11DA35ABF4F2C91848D90E001968F7371
:100FD0009927848FA689B7892C93A089B1898C9190
:100FE000837080648C93938D848D981306C00288DF
:100FF000F389E02D80818F7D80830895EF92FF92A9
:101000000F931F93CF93DF93EC0181E0888F9B8D2B
:101010008C8D98131AC0E889F989808185FF15C0E5
:101020009FB7F894EE89FF896083E889F989808108
:101030008370806480839FBF81E090E0DF91CF91D7
:101040001F910F91FF90EF900895F62E0B8D10E0F9
:101050000F5F1F4F0F731127E02E8C8D8E110CC068
:101060000FB607FCFACFE889F989808185FFF5CFB3
:10107000CE010E94DC07F1CFEB8DEC0FFD2FF11DAF
:10108000E35AFF4FF0829FB7F8940B8FEA89FB89F0
:1010900080818062CFCFCF93DF93EC01888D88234E
:1010A000B9F0AA89BB89E889F9898C9185FD03C0CB
:1010B000808186FD0DC00FB607FCF7CF8C9185FFB0
:1010C000F2CF808185FFEDCFCE010E94DC07E9CF12
:1010D000DF91CF910895843081F028F48230E9F0D7
:1010E0008330F9F00895883071F0893091F08530BF
:1010F000B9F4809180008F7D03C0809180008F774C
:101100008093800008958091B0008F778093B00025
:1011100008958091B0008F7DF9CF84B58F7784BD1D
:10112000089584B58F7DFBCFCF93DF93282F30E0D8
:10113000F901E852F54F8491F901EB50F24FD49147
:10114000F901E252F24FC491CC23A1F081110E9427
:101150006B08EC2FF0E0EE0FFF1FEC52F24FA59161
:10116000B491EC91ED2381E090E009F480E0DF910F
:10117000CF91089580E090E0FACF1F93CF93DF9353
:10118000282F30E0F901E852F54F8491F901EB5036
:10119000F24FD491F901E252F24FC491CC23A9F05D
:1011A000162F81110E946B08EC2FF0E0EE0FFF1F4D
:1011B000E253F54FA591B4918FB7F894EC911111CA
:1011C00008C0D095DE23DC938FBFDF91CF911F91B4
:1011D0000895DE2BF8CFCF93DF9390E0FC01EB5026
:1011E000F24F24918252924FFC0184918823C9F0DE
:1011F00090E0880F991FFC01EC53F54FA591B49135
:10120000FC01E253F54FC591D49161110DC09FB718
:10121000F8948C91209582238C93888128232883AD
:101220009FBFDF91CF910895623051F49FB7F8943A
:101230003C91822F809583238C93E8812E2BEFCFD6
:101240008FB7F894EC912E2B2C938FBFEACF20917F
:10125000040190E4299F900111248E50822B8093E9
:101260007C0080917A00806480937A0080917A007B
:1012700086FDFCCF80917800909179000895880FC9
:10128000991F880F991F05970197F1F70895CF923D
:10129000DF92EF92FF920F931F93CF93DF9388E03B
:1012A000E82EF12C00E0DD24D3941091EF03C091DF
:1012B000F003D091F103F8948981812B89838A818D
:1012C000C12EC0948C218A8383E090E00E943F0964
:1012D00089818C2189838AE090E00E943F0988817E
:1012E0001823789485E390E00E943F0911110D299D
:1012F000DD0C81E0E81AF108C1F6802FDF91CF9173
:101300001F910F91FF90EF90DF90CF900895CF92B3
:10131000DF92EF92FF920F931F93CF93DF93C82E2C
:10132000D62E88E0E82EF12C01E01091EF03C09159
:10133000F003D091F103912F90958C2D8023B1F182
:10134000F8948A8189238A838981812B89838AE021
:1013500090E00E943F098A81182B1A83789487E3D2
:1013600090E00E943F09000F81E0E81AF108E9F6D9
:10137000D11013C0F894E091F003F091F103918142
:101380008091EF03809598239183E091F003F09191
:10139000F1039281892382837894DF91CF911F9109
:1013A0000F91FF90EF90DF90CF900895F8948A818D
:1013B00089238A838981812B898381E490E00E943B
:1013C0003F098A81182B1A83789485E090E0C9CF71
:1013D000FF920F931F93CF93DF931091EF03C09170
:1013E000F003D091F103F8948981012F00958023B7
:1013F000898378948DE7F82EFA94FF2061F182E0DA
:1014000090E00E943F0988818123B1F3F8948A819A
:1014100080238A838981812B8983789480EE91E06F
:101420000E943F09F89489818023898386E490E0B3
:101430000E943F0988811823C1E009F0C0E0789438
:101440008AE991E00E943F098C2FDF91CF911F9193
:101450000F91FF900895C0E0F7CF3FB7F8948091C7
:10146000240290912502A0912602B091270226B570
:10147000A89B05C02F3F19F00196A11DB11D3FBFCC
:10148000BA2FA92F982F8827BC01CD01620F711D9B
:10149000811D911D42E0660F771F881F991F4A9595
:1014A000D1F708958F929F92AF92BF92CF92DF9221
:1014B000EF92FF924B015C010E942D0A6B017C01AF
:1014C0000E942D0A6C197D098E099F09683E7340A0
:1014D00081059105A8F321E0821A9108A108B108BD
:1014E00088EEC80E83E0D81EE11CF11C8114910423
:1014F000A104B10429F7FF90EF90DF90CF90BF9047
:10150000AF909F908F9008952FB7F894609120022C
:101510007091210280912202909123022FBF0895A1
:101520008F929F92AF92BF92CF92DF92EF92FF92F3
:101530000F931F9380914F039091500397FD9DC08F
:101540000E9494087C010E94840A60938703709330
:1015500088038093890390938A03209181033091BB
:101560008203E216F30609F048C00091830310914C
:10157000840320918503309186034B015C01801A1E
:10158000910AA20AB30A009151031091520330E06C
:1015900020E080169106A206B30620F0F0928003A8
:1015A000E0927F0340917F0350918003E0915703C5
:1015B000F091580300918B0310918C0320918D03BF
:1015C00030918E036B017C01C01AD10AE20AF30A42
:1015D00020917D0330917E032230310509F481C0D2
:1015E000CCF421153105A1F12130310509F450C0A9
:1015F00010927E0310927D0340C06093830370932A
:1016000084038093850390938603F0928203E09293
:101610008103C8CF2630310509F4D2C02730310507
:1016200009F4F1C02330310519F7E417F50709F083
:1016300064C021E030E030937E0320937D0360930B
:101640008B0370938C0380938D0390938E0315C04E
:10165000E417F50791F421E030E030937E03209306
:101660007D0360938B0370938C0380938D03909321
:101670008E031092900310928F031F910F91FF9091
:10168000EF90DF90CF90BF90AF909F908F90089594
:1016900022E030E0E417F50771F680915503909150
:1016A0005603B0E0A0E08C159D05AE05BF0528F7F8
:1016B000E0916B03F0916C03309709F00995E0918C
:1016C0006D03F0916E03309729F080916F03909134
:1016D0007003099586E090E090937E0380937D03EC
:1016E000CCCF80918F0390919003019690939003BB
:1016F00080938F0383E090E0EFCF80918F039091F0
:101700009003409153035091540370E060E0C4167D
:10171000D506E606F70640F4209191033091920336
:101720002817390709F0A9CF8130910511F5E0910B
:101730005903F0915A03309709F00995E0915B0342
:10174000F0915C0380915D0390915E03309721F5E9
:1017500010927E0310927D031092900310928F03DB
:1017600010928B0310928C0310928D0310928E03B3
:1017700084CF029799F4E0915F03F0916003309772
:1017800009F00995E0916103F09162038091630390
:10179000909164033097E1F20995DACFE091650307
:1017A000F0916603309709F00995E0916703F09195
:1017B0006803309769F28091690390916A03ECCFD6
:1017C00027E030E0E417F50709F035CFE091770323
:1017D000F0917803309709F00995E0917903F09141
:1017E0007A03309709F449CF80917B0390917C0371
:1017F0001F910F91FF90EF90DF90CF90BF90AF902F
:101800009F908F900994E0917103F091720330974B
:1018100009F00995E0917303F091740380917503C9
:1018200090917603309709F0B7CF92CF089585ED68
:101830008093BC008091BC0084FDFCCF10920D020F
:1018400008952091E701260F3327331F21323105F8
:10185000ECF420910D02FC0190E080E0243069F06E
:1018600082E00895A091E7012191AC014B535E4FB6
:10187000A40FB52FB11D2C930196861798F3809174
:10188000E701680F6093E70180E0089581E0089523
:1018900008950895E091C4018091C301E81730F4E0
:1018A000F0E0ED55FE4F808190E008958FEF9FEFBF
:1018B00008959091C4018091C3012FEF3FEF9817D5
:1018C00048F4E92FF0E0ED55FE4F208130E09F5FB6
:1018D0009093C401C90108958091C3019091C401FE
:1018E000891B990B0895CF92DF92EF92FF920F938D
:1018F0001F93CF93DF937C01CB018A012091A80233
:10190000222389F0EB016B01C40ED51ECC15DD0539
:1019100069F06991D701ED91FC910190F081E02D82
:10192000C7010995F3CF642F0E94210CC801DF91F4
:10193000CF911F910F91FF90EF90DF90CF9008957E
:10194000CF93DF931F92CDB7DEB769832091A802B2
:101950002223F9F02091A502203258F021E030E056
:10196000FC013383228390E080E00F90DF91CF91E0
:1019700008958091A602E82FF0E0ED57FE4F99817F
:1019800090838F5F8093A6028093A50281E090E010
:10199000ECCF61E0CE0101960E94210CF7CF90912F
:1019A000A50281E0913208F043C080910D028111BF
:1019B000FCCF8091A70222E020930D0221E020932A
:1019C0000F022FEF20930C0223E831E03093110235
:1019D000209310021092130290931202109214029C
:1019E00090911402880F892B8093140280910E022B
:1019F000813029F510920E02809114028093BB0071
:101A00008091BC0083FDF8CF85EC8093BC00809171
:101A10000D028230E1F380910C028F3F91F08091B2
:101A20000C02803281F080910C02803371F084E0EE
:101A30001092A6021092A5021092A802089585EEB7
:101A4000E4CF80E0F5CF82E0F3CF83E0F1CF0895DB
:101A5000FC016370668B84819581268137816130BA
:101A600039F0633029F09187808733872287089582
:101A7000318720879387828708952F923F924F92D4
:101A80005F926F927F928F929F92AF92BF92CF920E
:101A9000DF92EF92FF920F931F93CF93DF93CDB717
:101AA000DEB76A970FB6F894DEBF0FBECDBF9A8F30
:101AB000898F7A8369834A01D22E18870F83370171
:101AC000BC2CDC0159962D913C915A97211531057A
:101AD00009F015C118968D919C911997681779078F
:101AE0000CF0D7C11A968D919C91481759070CF0AC
:101AF000D0C14C2C512CB6E0CB9E600D711D112431
:101B00007C876B87161617060CF0C3C1EA2DF0E030
:101B1000FA87E98793E0EE0FFF1F9A95E1F7F88BBC
:101B2000EF87CF01840F951F181619060CF0B1C16D
:101B3000A98DBA8D58968C91811104C0BFEABD154C
:101B400008F4D394A98DBA8DED91FC91119702847C
:101B5000F385E02DCD010995B5E0DB9EC001112490
:101B6000E981FA81FC83EB83312C212C9C012C53DD
:101B70003A4F388F2F8B4A2D50E05E8B4D8BEF897B
:101B8000F88DE20DF31D44919E828D82D12CC12CE3
:101B900069817A81620D731D7A8B698B842F90E045
:101BA0009C8B8B8BE98DFA8DA081B18140FF82C027
:101BB000F1E0BF126FC0AF126DC01C96ED91FC91A9
:101BC0002F813885A4014C0D5D1D69897A89898D25
:101BD0009A8D0995EB89FC89F595E7954E2F5FEF76
:101BE000C51AD50A6D817E818D899E89680F791FFE
:101BF0007E836D8398E0C916D10481F6AFEF2A1A6F
:101C00003A0AEB81FC81E40DF51DFC83EB83F5E0E2
:101C10002F16310409F0B3CF2F81388526153705EB
:101C2000B9F0A98DBA8DED91FC91B1E0BB1257C00E
:101C3000AB1255C069817A816B5F7F4F0088F18953
:101C4000E02D830128E030E0A401898D9A8D09956B
:101C5000A98DBA8DED91FC9111970688F789E02D39
:101C6000CD016A960FB6F894DEBF0FBECDBFDF91EF
:101C7000CF911F910F91FF90EF90DF90CF90BF9089
:101C8000AF909F908F907F906F905F904F903F901C
:101C90002F9009941E96ED91FC91EF80F8840985B0
:101CA0001A8592014D815E816B817C81898D9A8D2F
:101CB000099590CF2F8138852615370509F48ACFED
:101CC00031E0B31207C0A31205C01C96ED91FC9140
:101CD000930178CF1E96ED91FC917301E0CF6B8557
:101CE0007C85641975090684F785E02D73010F85DD
:101CF00018899201A401898D9A8D0995A9CFF901BE
:101D000034969491329745915491D91AB7E0DB9E5D
:101D1000400D511D1124F901259134913C8B2B8BE1
:101D2000FA0125903490FA013296749031963491EC
:101D3000398B329664903196449041E04C1518F0FE
:101D40004A1508F07FC0662D062C000C770B7C83AB
:101D50006B83842D042C000C990B9E838D83A98D9D
:101D6000BA8DED91FC9111970284F385E02DCD01A0
:101D70000995512CD12CC12CEA2DF0E0FA87E98786
:101D80002B2D30E03C872B87A401440D511D47FCCF
:101D90005A95588F4F8B69817A81660D711D67FC4A
:101DA0007A957E876D877989C71608F051CF2C2DDB
:101DB00030E04D815E81420F531FA985BA854A9F4D
:101DC000C0014B9F900D5A9F900D1124FC01E80D0E
:101DD000F91DF88BEF87852D612C4F89588D420FA7
:101DE000531F5E8B4D8B671408F050C044244394FE
:101DF000480E877041F4C1010196EB89FC89E20D20
:101E0000F31DD4901C01D7FE19C0A98DBA8DED9198
:101E1000FC91662D70E0B1E0BB1219C0AB1217C087
:101E20002D853E85620F731F0484F585E02D2F817B
:101E300038854D895E89898D9A8D0995DD0C63946D
:101E4000842DD1CF1E821D821C821B8288CF4B81A4
:101E50005C81640F751FAB85BC856A9FC0016B9F59
:101E6000900D7A9F900D112469817A81680F791FF6
:101E70000684F785E02DEF80F88409851A859D0199
:101E80004F855889898D9A8D0995D8CF570CC39461
:101E90008ACF6A960FB6F894DEBF0FBECDBFDF9132
:101EA000CF911F910F91FF90EF90DF90CF90BF9057
:101EB000AF909F908F907F906F905F904F903F90EA
:101EC0002F9008958F929F92AF92CF92EF92FF92B0
:101ED0000F931F93CF93DF93EC01262F898D9A8D5B
:101EE000009709F051C06A30D1F41D861C868D8997
:101EF00048E0849F900111248E859F85820F931F57
:101F00009F878E8781E090E0DF91CF911F910F91A5
:101F1000FF90EF90CF90AF909F908F9008956D308D
:101F200089F3CC88AD888F898823C1F08C859D8505
:101F300036E0C39E800D911D1124488559854817B0
:101F4000590764F44E855F851D861C8638E0A39E84
:101F5000C0011124840F951F9F878E87EA88FB8814
:101F6000088919894E855F856C857D85CE010E9423
:101F70003D0D2C898C859D8546E0249F800D911D0B
:101F800011249D878C87BECF6A3069F41D861C861C
:101F9000FC013896E4912D898E859F85E29F800D06
:101FA000911D1124ADCF6D3009F4ACCFFC013496F6
:101FB0003491631708F4A6CF3296E491E61708F43B
:101FC000A1CFFC01329685909490462F431B342F6D
:101FD00047E0349F800C911C1124F4013296349117
:101FE0003196E4913323A9F1EE2399F1CC88F401E1
:101FF0003596E491AD884F89442301F10E2E000CF3
:10200000FF0BE30FF11DCE9EA001CF9E500D1124BA
:102010006C857D85460F571F688579856417750720
:102020006CF44E855F851D861C86FC013896E49114
:10203000AE9E400D511D11245F874E87EA88FB88B4
:10204000088919894E855F856C857D85CE010E9442
:102050003D0DF4013496E4912C898C859D85E29F99
:10206000800D911D11248DCF6F927F928F929F9240
:10207000AF92BF92CF92DF92EF92FF920F931F9396
:10208000CF93DF93EC016B015A0139014801E881DC
:10209000F9810284F385E02D0995E881F9810288B0
:1020A000F389E02D87019301A501B601CE010995C1
:1020B000A501480D591D41505109E881F981028857
:1020C000F389E02D9301B601CE010995E881F981EC
:1020D0000088F189E02D9401A501B601CE01099592
:1020E000C60CD71CB60161507109E881F9810088DE
:1020F000F189E02D9401A501CE010995E881F981CE
:102100000688F789E02DCE01DF91CF911F910F91C5
:10211000FF90EF90DF90CF90BF90AF909F908F9007
:102120007F906F9009946F927F928F929F92AF925F
:10213000BF92CF92DF92EF92FF920F931F93CF93B4
:10214000DF935C01EB016A01490138018701DC0181
:10215000ED91FC916217730719F5641675062CF062
:10216000962D872D3A01C92ED82E960126193709AA
:102170002F5F3F4F048CF58DE02DA301BE01C501FB
:102180000995DF91CF911F910F91FF90EF90DF9014
:10219000CF90BF90AF909F908F907F906F90089559
:1021A0004615570591F42617370724F0892D4B0162
:1021B000C22FD82F9E01281939092F5F3F4F068C57
:1021C000F78DE02DA601B401DACF0284F385E02D6E
:1021D0000995D501ED91FC910488F589E02D8301E5
:1021E0009401A601BE01C5010995D501ED91FC91AF
:1021F0000688F789E02DC501DF91CF911F910F91DE
:10220000FF90EF90DF90CF90BF90AF909F908F9016
:102210007F906F900994EF92FF920F931F93DC01D0
:102220001A960D911C911B9718962D913C91199718
:10223000ED91FC9100A0F1A1E02D7B0150E040E088
:1022400070E060E009951F910F91FF90EF90089565
:102250004F925F926F927F928F929F92AF92BF92B6
:10226000CF92DF92EF92FF920F931F93CF93DF9362
:102270006C012B015A0139014801DC01ED91FC91FF
:102280000284F385E02D0995E201640C751CD601EA
:10229000ED91FC91C615D7055CF40088F189E02D1D
:1022A00087019401A501BE01C60109952196EFCFD2
:1022B0000688F789E02DC601DF91CF911F910F911C
:1022C000FF90EF90DF90CF90BF90AF909F908F9056
:1022D0007F906F905F904F9009948F929F92AF92F2
:1022E000BF92CF92DF92EF92FF920F931F93CF9303
:1022F000DF93EC015B014A016901E881F981028405
:10230000F385E02D099595012C0D3D1D21503109D6
:10231000E881F9810488F589E02D78018401A40120
:10232000B501CE010995E881F9810688F789E02D8C
:10233000CE01DF91CF911F910F91FF90EF90DF9031
:10234000CF90BF90AF909F908F9009948F929F9263
:10235000AF92BF92CF92DF92EF92FF920F931F93B3
:10236000CF93DF93EC015B014A0169017801E881B9
:10237000F9810284F385E02D0995C80CD91C8601EA
:1023800001501109E881F9810488F589E02D950152
:10239000A401B501CE010995E881F9810688F78984
:1023A000E02DCE01DF91CF911F910F91FF90EF9023
:1023B000DF90CF90BF90AF909F908F900994EF9255
:1023C000FF920F931F93DC01ED91FC9100A0F1A10E
:1023D000E02D09951F910F91FF90EF9008950F93B5
:1023E0001F93DC01ED91FC91068CF78DE02D099592
:1023F0001F910F9108950F931F93DC01ED91FC91B4
:10240000048CF58DE02D09951F910F910895DC0145
:10241000ED91FC910084F185E02D09943F924F925B
:102420005F926F927F928F929F92AF92BF92CF9264
:10243000DF92EF92FF920F931F93CF93DF9300D021
:1024400000D0CDB7DEB75C013B016A01490128012C
:1024500087E0480E511C93E0559447949A95E1F714
:10246000CA018E0D9F1D9A838983F12CE12C312C9A
:102470001C821B828B819C8187709927330C892B4E
:1024800061F4EB81FC8183E0F595E7958A95E1F7AE
:10249000EE0DFF1DE80DF91D349037FE0AC021E056
:1024A00030E0A6016B817C81660D771DC5010E941D
:1024B00007128B819C8101969C838B8308171907D7
:1024C000C9F69FEFC91AD90AE40CF51C89819A81D3
:1024D000C816D90669F60F900F900F900F90DF91F4
:1024E000CF911F910F91FF90EF90DF90CF90BF9011
:1024F000AF909F908F907F906F905F904F903F90A4
:1025000008952F923F924F925F926F927F928F9297
:102510009F92AF92BF92CF92DF92EF92FF920F9372
:102520001F93CF93DF9300D000D000D0CDB7DEB79C
:102530003C016A013E832D83FC82EB825801A41A80
:10254000B50AB7FE03C0B194A194B1088D809E80F6
:10255000861A970A97FE03C09194819491088A1471
:102560009B045CF0902F812F0D811E819D838E83B3
:102570009C2D8D2D6B01692F782F0C151D055CF09E
:102580009D818E817E836D83692F782F902F812F7F
:102590008601C92ED82E1601201A310A2B012D8151
:1025A0003E81421A530A57FE03C051944194510888
:1025B000710137FE03C03FEFE31AF30AF594E79485
:1025C0008D819E81861797075CF5A1E0B0E0BA8304
:1025D000A983C016D1064CF1D301ED91FC9104847E
:1025E000F585E02D2B813C81A8016D817E818A14C7
:1025F0009B041CF04D815E81B801C3010995E4186C
:10260000F508F7FE0AC02D813E8189819A81280F45
:10261000391F3E832D83E20CF31C0F5F1F4FD9CF70
:102620002FEF3FEF3A832983D4CF26960FB6F89445
:10263000DEBF0FBECDBFDF91CF911F910F91FF90F5
:10264000EF90DF90CF90BF90AF909F908F907F9052
:102650006F905F904F903F902F900895EF92FF9270
:102660000F931F93CF93DF93EC01EC80FD806E15E9
:102670007F050CF070C057FF04C0240F351F50E0D9
:1026800040E08E819F81FA01E20FF31F8E179F07B2
:102690001CF49C01241B350B121613060CF05BC0B6
:1026A000922F842F8695869586958E9DD0018F9D3D
:1026B000B00D11246A0F7B1FAF8DB8A1A60FB71FF5
:1026C000477049F188E0841B482F682F70E0FB01B8
:1026D000E454FA4FE491281708F063C0621B7109B3
:1026E0002FEF30E002C0359527956A95E2F7E22397
:1026F0000130110539F0B0F10230110561F58C910E
:10270000E82702C08C91E82BEC93941720F12C81E0
:102710003D81A20FB31FE92FE41BE83078F00230AF
:10272000110521F58E2F9C9190959C932C813D81D4
:10273000A20FB31F88508830B0F7E770EE2359F02E
:10274000F0E0EC54FA4FE49101301105F9F010F18A
:102750000230110519F1DF91CF911F910F91FF9078
:10276000EF900895E0958C91E823CECF81E001159C
:10277000110509F480E081959E2F8C932C813D8179
:10278000A20FB31F98509830C0F7D7CF8C91E82B89
:10279000EC93E1CFE0958C91E823FACF8C91E82778
:1027A000F7CF0130110509F4ADCFE0F20230110589
:1027B00009F4A5CFAE0DBF1DAECF0F931F93CF93DE
:1027C000DF9377FF04C0260F371F70E060E0DC0165
:1027D0001496CD91DC91FB01E20FF31FCE17DF07BA
:1027E0001CF49E01261B370B121613064CF5FA013A
:1027F00057FD3796A3E0F595E795AA95E1F7EC9F8D
:10280000D001ED9FB00DFC9FB00D11246A0F7B1F0E
:10281000DC015F96ED91FC91E60FF71F477055279D
:1028200081E090E001C0880F4A95EAF7482F013017
:10283000110559F0A8F02E0F3F1F02301105E1F0ED
:10284000DF91CF911F910F9108952E0F3F1FE21737
:10285000F307B1F38191DF011197842B8C93F7CFAC
:1028600080952E0F3F1FE217F30751F39191DF017F
:10287000119798239C93F7CFE217F30709F38191FF
:10288000DF01119784278C93F7CF0F931F93FA01E1
:10289000DC0156964C9156974230E9F04330A1F155
:1028A000413061F514964D915C91DA01AE1BBF0B7E
:1028B000FD01E21BF30B77FD0BC0DC0116964D9179
:1028C0005C916417750724F4AB01BF010E94DD130E
:1028D0001F910F91089514964D915C91DA01A61BFA
:1028E000B70BBD0161507109DC0116964D915C91E9
:1028F000DA01AE1BBF0BFD01E21BF30B77FDE8CF46
:10290000AF010E942E13E4CF16964D915C91DA012F
:10291000A61BB70BBD0161507109CDCF0F931F935B
:10292000FA01DC0156964C9156974230A9F043309B
:1029300091F1413019F514964D915C91DA01AE1B7D
:10294000BF0BFD013197F7FD04C0AB01BF010E9431
:102950002E131F910F91089516964D915C91DA01F7
:10296000AE1BBF0BFD013197DC0114964D915C91BC
:10297000DA01A61BB70BBD01621B730BF7FDE9CF94
:10298000DC0116964D915C91E417F50714F7AF0141
:102990000E94DD13DECF16964D915C91DA01A61BE5
:1029A000B70BBD01621B730BCECFFC0177FD64C07A
:1029B00080859185681779070CF05EC057FD5CC073
:1029C00082859385481759070CF056C08689823056
:1029D000B1F0833029F1813041F484819581841BE9
:1029E000950BAB01BC01615071092130310509F132
:1029F00008F443C02230310509F463C0089584818E
:102A00009581DC01A61BB70BBD0161507109868160
:102A10009781DC01A41BB50BAD0141505109E5CFF5
:102A200086819781861B970BBA01AC0141505109F1
:102A3000DCCFCA0157FD0796A3E095958795AA9527
:102A4000E1F7A481B5818A9F90018B9F300D9A9FF9
:102A5000300D1124620F731F078CF0A1E02DE60FDB
:102A6000F71F4770552721E030E001C0220F4A953B
:102A7000EAF78081822B80830895CA0157FD07966B
:102A800033E0959587953A95E1F7A481B5818A9FC2
:102A900090018B9F300D9A9F300D1124620F731F90
:102AA000078CF0A1E02DE60FF71F4770552781E056
:102AB00090E001C0880F4A95EAF7809590818923BC
:102AC000DACFCA0157FD079623E0959587952A9599
:102AD000E1F7A481B5818A9F90018B9F300D9A9F69
:102AE000300D1124620F731F078CF0A1E02DE60F4B
:102AF000F71F4770552721E030E001C0220F4A95AB
:102B0000EAF780818227B7CF08958EBD00000DB40B
:102B100007FEFDCF8EB50895EF92FF920F931F939E
:102B2000CF93DF937C01C62F8091CC039091CD038E
:102B3000009709F459C02091D00331E03093A802E6
:102B40002093A7021092A6021092A502DC01ED913B
:102B5000FC910190F081E02D60E009958701EE2461
:102B6000E394F12CD1E0C1508091CC039091CD033E
:102B7000CF3F91F1B0E2EB16F104D8F00E94CF0CF8
:102B80008091CC039091CD032091D003D093A802E3
:102B90002093A7021092A6021092A502DC01ED91EB
:102BA000FC910190F081E02D60E00995EE24E39422
:102BB000F12C8091CC039091CD03F8016491DC015C
:102BC000ED91FC910190F081E02D0995BFEFEB1A9A
:102BD000FB0A0F5F1F4FC7CFDF91CF911F910F915E
:102BE000FF90EF900C94CF0CE091DC03F091DD03AB
:102BF00090818091E2038095892380838701C15071
:102C000008F438C0F80184912091CA033091CB03B5
:102C1000232B29F00E9485150F5F1F4FF0CF28E06E
:102C200030E040E8E091D803F091D9039091E003BF
:102C3000582F5423D9F05081952B9083E091DA03DB
:102C4000F091DB0390815091E103952B9083E0910B
:102C5000DA03F091DB0350819091E1039095952385
:102C60009083469521503109E9F6D6CF5081909551
:102C70009523E3CFDF91CF911F910F91FF90EF90BC
:102C800008951F93CF93DF93EC018D8D9E8D009758
:102C900021F1162F29A131E03093A8022093A70239
:102CA0001092A6021092A502DC01ED91FC91019018
:102CB000F081E02D60E009958D8D9E8DDC01ED9118
:102CC000FC910190F081E02D612F09958D8D9E8DF5
:102CD000DF91CF911F910C94CF0CADA5BEA59C9117
:102CE0008BA9809589238C938B8D9C8D892B31F0BA
:102CF000862FDF91CF911F910C94851528E030E04D
:102D000080E8A9A5BAA599A9462F4823C1F04C91FE
:102D1000942B9C93ABA5BCA59C914AA9942B9C9306
:102D2000ABA5BCA54C919AA9909594239C938695AC
:102D30002150310931F7DF91CF911F9108954C91C6
:102D400090959423E6CF8CBD9DBD0895DF92EF92C0
:102D5000FF920F931F93CF93DF938091CC039091B9
:102D6000CD03892B09F498C02091E4033091E50349
:102D70004091E6035091E70360E074E284EF90E055
:102D80000E946F3B205131094109510956954795E1
:102D9000379527952093B80065E08FEC9DE00E9461
:102DA0008C156091B30361508FEA93E00E94411645
:102DB0002091B5033091B603C901079697FD079698
:102DC00033E0959587953A95E1F72091B3033091DB
:102DD000B403829F8001839F100D929F100D1124D8
:102DE000C091CE03D091CF038091CC039091CD03BD
:102DF0000C0F1D1F009709F48FC02091D00331E004
:102E00003093A8022093A7021092A6021092A50266
:102E1000DC01ED91FC910190F081E02D60E40995D9
:102E2000EE24E394F12CDD24D3948091CC03909193
:102E3000CD030C171D0709F446C0B0E2EB16F104F0
:102E4000D8F00E94CF0C8091CC039091CD032091BB
:102E5000D003D092A8022093A7021092A60210924B
:102E6000A502DC01ED91FC910190F081E02D60E480
:102E70000995EE24E394F12C8091CC039091CD033D
:102E80006991DC01ED91FC910190F081E02D0995B3
:102E9000BFEFEB1AFB0AC9CF8091CA039091CB0315
:102EA000892B31F08091ED039091EE030E94A316DF
:102EB000E091DE03F091DF0390818091E303809540
:102EC0008923808369CF0E94CF0C8091CC0390919D
:102ED000CD03892B09F461C02091E8033091E90307
:102EE0004091EA035091EB0360E074E284EF90E0DC
:102EF0000E946F3B20513109410951095695479570
:102F0000379527952093B800DF91CF911F910F91AE
:102F1000FF90EF90DF900895E091DC03F091DD03E6
:102F200080819091E203892B80830C171D0769F241
:102F300089912091CA033091CB03232B19F00E9471
:102F40008515F3CF28E030E040E8E091D803F09118
:102F5000D9039091E003582F5423D9F05081952B39
:102F60009083E091DA03F091DB0390815091E103CB
:102F7000952B9083E091DA03F091DB0350819091DF
:102F8000E103909595239083469521503109E9F608
:102F9000CCCF508190959523E3CFE091DE03F09163
:102FA000DF0380819091E303892B8083ADCF1F9352
:102FB000CF93DF93EC01162F8D8D9E8D892BB1F170
:102FC0002DA93EA94FA958AD60E074E284EF90E0CE
:102FD0000E946F3B2051310941095109569547958F
:102FE000379527952093B80066EA111167EACE015C
:102FF0000E9441168D8D9E8D892B41F129AD3AADF0
:103000004BAD5CAD60E074E284EF90E00E946F3BFA
:103010002051310941095109569547953795279512
:103020002093B800DF91CF911F9108958B8D9C8DD7
:10303000892B21F08EAD9FAD0E94A316EFA5F8A9B4
:1030400090818CA9809589238083CECFEFA5F8A9A4
:1030500080819CA9892B8083E5CF089590E080E052
:103060000895CF93DF93D0918D02D13051F460E079
:1030700084E00E94BD0862E370E080E090E00E947E
:10308000520AC0919C02EFEFEC0FEA3008F03FC00B
:10309000F0E0E35BF74E0C94643D571873189F18EB
:1030A000A918A918A918B718C918C918CB1861E028
:1030B0008DE00E94BD0861E089E00E94BD0860E0EB
:1030C00088E00E94BD0860E087E00E94BD0860E0E3
:1030D00086E00E94BD0810928D0281E080939802E4
:1030E000DF91CF91089561E08DE00E94BD0861E01D
:1030F00089E00E94BD0860E088E00E94BD0860E0B1
:1031000087E00E94BD0860E086E00E94BD088091D3
:103110009902811104C0C430F1F2C730E1F210927B
:103120009802D130E9F662E370E080E090E00E941E
:10313000520A61E084E0DF91CF910C94BD0861E018
:103140008DE00E94BD0860E089E00E94BD0861E05A
:10315000D3CF61E08DE00E94BD0860E089E00E946D
:10316000BD0860E088E00E94BD0861E0C9CF61E071
:103170008DE00E94BD0860E089E00E94BD0860E02B
:1031800088E00E94BD0860E087E00E94BD0861E021
:10319000BBCF60E0EDCF60E08DE00E94BD0860E055
:1031A00089E00E94BD0860E088E00E94BD0860E000
:1031B00087E00E94BD0861E08BCFCF9382E00E9440
:1031C0009408892B99F58091A40281112FC08091D8
:1031D000740281112BC080918102811127C08091DE
:1031E0007202811123C08091980281111FC08091C9
:1031F000820281111BC080919D02811117C061E084
:1032000084E00E94BD0881E08093540280938D0287
:1032100010929402809383020E94840A6093900229
:1032200070939102809392029093930282E00E94A5
:1032300094080197E9F4C1E0C0938C021092540203
:10324000109283020E94840A60938802709389021C
:1032500080938A0290938B028091820181110AC02F
:1032600060E084E00E94BD0810928D0210929402EA
:10327000CF910895C09394020E94840A60939002B3
:10328000709391028093920290939302F1CF0C94E9
:10329000900A1092820210928102089581E0809338
:1032A000A302089580918F0390919003833091053C
:1032B00041F480918D02811162C081E08093A2026D
:1032C00008958430910559F480911101882319F0F3
:1032D00010921101089581E08093110108958530C5
:1032E000910541F480918D02811149C081E0809364
:1032F000A10208958630910541F480918D028111DB
:103300003EC081E08093A00208958730910541F48A
:1033100080918D02811133C081E080939F020895D6
:103320008830910541F480918D02811128C081E09F
:1033300080939E0208958930910589F480918D02D1
:1033400081111DC080919502811104C081E080939C
:1033500095020895813099F41092950208950A9784
:1033600071F480918D0281110AC0809197028111C0
:1033700004C081E080939702089510929702089507
:103380002091B5033091B603C901079697FD0796C2
:1033900023E0959587952A95E1F72091B303309125
:1033A000B403829FA001839F500D929F500D112462
:1033B00070E060E08091CE039091CF030C94943E36
:1033C0000E948F3EFB0101900020E9F73197AF0189
:1033D000461B570BDC01ED91FC910280F381E02D3F
:1033E0000994CF93DF93BC0189EA92E00E943A07E7
:1033F000EC016AE671E089EA92E00E94E2198C0F22
:103400009D1FDF91CF9108958F929F92AF92BF92AF
:10341000EF92FF920F931F93CF93DF93CDB7DEB759
:10342000A1970FB6F894DEBF0FBECDBF7C01FA01A5
:10343000CB0119A2223008F42AE08E010F5D1F4F44
:10344000822E912CB12CA12CBF01A50194010E94C8
:103450006F3BF901CA016A300CF5605DD8016E93CB
:103460008D01232B242B252B79F790E080E01097FA
:1034700021F0BD01C7010E94E219A1960FB6F89490
:10348000DEBF0FBECDBFDF91CF911F910F91FF9097
:10349000EF90BF90AF909F908F900895695CDECFC2
:1034A000CF92DF92EF92FF920F931F93CF93DF9310
:1034B0006B01770FEE08FF08F7FE1BC0EC016DE211
:1034C0000E9433078C0144275527BA014C195D0926
:1034D0006E097F092AE0CE010E94041A800F911F15
:1034E000DF91CF911F910F91FF90EF90DF90CF90E0
:1034F00008952AE0B701A601DF91CF911F910F91A6
:10350000FF90EF90DF90CF900C94041A2F923F928F
:103510004F925F926F927F928F929F92AF92BF92E3
:10352000CF92DF92EF92FF921F93CF93DF93EC0144
:103530006A017B01722EAB019601CB01B6010E949C
:103540002F3D6DE671E0811126C046015701E894D8
:10355000B7F82FEF3FEF4FE75FE7C501B4010E94D7
:103560002F3D81110CC02FEF3FEF4FE75FE7C50103
:10357000B4010E94353A61E771E0181664F02FEF4C
:103580003FEF4FE75FE4C701B6010E94C03C181649
:10359000B4F465E771E0CE01DF91CF911F91FF9008
:1035A000EF90DF90CF90BF90AF909F908F907F90E3
:1035B0006F905F904F903F902F900C94E2192FEFF7
:1035C0003FEF4FE75FECC701B6010E94353A87FD38
:1035D000E0CF20E030E0A901C701B6010E94353AF2
:1035E000312C212C87FF09C06DE2CE010E943307E8
:1035F0001C01F7FAF094F7F8F09410E060E070E046
:1036000080E09FE3711641F020E030E040E251E4B9
:103610000E94183C1F5FF6CFA70196010E94AC3BA9
:103620002B013C010E94913C4B015C012AE0BC0152
:10363000A401CE010E94041A7C01E20CF31C1123A8
:10364000C1F1C501B4010E943A3A9B01AC01C3012A
:10365000B2010E94AB3B4B015C016EE2CE010E94C5
:103660003307E80EF91E115020F120E030E040E26F
:1036700051E4C501B4010E949B3A2B013C010E9418
:10368000913C4B01B12CA12C2AE0B501A401CE0143
:103690000E94041AE80EF91EC501B4010E943A3ACC
:1036A0009B01AC01C301B2010E94AB3B4B015C0129
:1036B000DACFC701DF91CF911F91FF90EF90DF909C
:1036C000CF90BF90AF909F908F907F906F905F90C2
:1036D0004F903F902F900895242FAB01BC018FEAAB
:1036E00093E00C94861A1F93CF93DF93EC01162F6F
:1036F0000E94593B181739F0612FCE01DF91CF910D
:103700001F910C94613BDF91CF911F91089580919F
:1037100082018F3010F58F5F80938201609182016A
:1037200085E090E00E94731BE0918201E03118F582
:10373000F0E0E356F44E0C94643DB01BB51BBC1B8B
:10374000BF1BC21BC51BC81BCB1BCE1BD11BD41B55
:10375000D71BDA1BDD1BE01BE31B10928201DECFBF
:1037600010928F0210928E02089584E690E090935A
:103770008F0280938E02089586E990E0F8CF88EC5E
:1037800090E0F5CF8AEF90E0F2CF8CE291E0EFCFBE
:103790008EE591E0ECCF80E991E0E9CF84EF91E014
:1037A000E6CF88E592E0E3CF8CEB92E0E0CF80E2D9
:1037B00093E0DDCF84E893E0DACF88EE93E0D7CFD3
:1037C00080ED97E0D4CF88EB9BE0D1CF0C94593BB0
:1037D000CF92DF92EF92FF92CF938CE090E00E9425
:1037E000E61BC82E8BE090E00E94E61BD82EF12C41
:1037F000E12CC0923B02D0923C02E0923D02F0925A
:103800003E0280E190E00E94E61BC82F8FE090E02E
:103810000E94E61B982F8C2FB0E0A0E08093350229
:1038200090933602A0933702B093380282E190E081
:103830000E94E61BC82F81E190E00E94E61B982FB2
:103840008C2FB0E0A0E08093310290933202A093DD
:103850003302B093340221EDC21A27E0D20AE10804
:10386000F10887E8C81683E1D806E104F10480F086
:1038700088E893E1A0E0B0E080933B0290933C02A3
:10388000A0933D02B0933E028AEA95E00E94F119AE
:103890008091350290913602A0913702B0913802A2
:1038A000895C9109A109B1098F3B9241A105B1053C
:1038B00080F088EE93E0A0E0B0E080933502909332
:1038C0003602A0933702B09338028CE995E00E944B
:1038D000F1198091310290913202A0913302B0919E
:1038E0003402895C9109A109B1098F3B9241A1057C
:1038F000B105A8F088EE93E0A0E0B0E0809331023B
:1039000090933202A0933302B09334028EE895E094
:10391000CF91FF90EF90DF90CF900C94F119CF9161
:10392000FF90EF90DF90CF900895EF92FF920F936A
:103930001F93CF93DF93CDB7DEB728970FB6F894D8
:10394000DEBF0FBECDBF10921C0210921B02109260
:103950001E0210921D021092150210921602109271
:1039600017021092180210926702809180008091D5
:1039700081001092810010928000109285001092B8
:10398000840081E086BB10926F008091B00080912E
:10399000B1001092B10082E08093B0009CE7909358
:1039A000B30095E09093800187BB1092B20021E0B4
:1039B00030E030931A02209319029FB7F89483BD28
:1039C000209180012093B100809370008BE08150A2
:1039D000F1F787E0809381009FBF61E084E00E945F
:1039E000EB0860E084E00E94BD0862E083E00E9492
:1039F000EB0860E082E00E94EB0860E085E00E9456
:103A0000EB0861E08AE00E94EB0861E089E00E9437
:103A1000EB0861E088E00E94EB0861E087E00E942B
:103A2000EB0861E086E00E94EB0861E08CE00E9418
:103A3000EB0861E08DE00E94EB0860E08AE00E9404
:103A4000BD0860E08CE00E94BD0890E080E00E942C
:103A5000E61B182F80939B02682F70E090E080E0B7
:103A60000E943A3A9B01AC010E942F3D811103C094
:103A700011501A3040F069E090E080E00E94731B22
:103A800089E080939B0285E090E00E94E61B182F5E
:103A900080938201682F70E090E080E00E943A3AC3
:103AA0009B01AC010E942F3D811102C0103140F0FA
:103AB00063E085E090E00E94731B83E080938201C5
:103AC000E0918201E031C8F4F0E0E759F24E0C9445
:103AD000643D791D931F9A1F9D1FA01FA31FA61F42
:103AE000A91FAC1FAF1FB21FB51FB81FBB1FBE1F42
:103AF000C11F10928F0210928E0289E390E00E9403
:103B0000E61B182F80931301682F70E090E080E08F
:103B10000E943A3A9B01AC010E942F3D811103C0E3
:103B20001150133040F062E089E390E00E94731B73
:103B300082E0809313018AE390E00E94E61B182F35
:103B400080939A02682F70E090E080E00E943A3AF9
:103B50009B01AC010E942F3D811102C0123038F050
:103B600060E08AE390E00E94731B10929A028BE35C
:103B700090E00E94E61B182F80939902682F70E056
:103B800090E080E00E943A3A9B01AC010E942F3DF8
:103B9000811102C0123038F060E08BE390E00E94A7
:103BA000731B10929902E091B902F091BA0282E07F
:103BB0008083E091B502F091B6021082E091B702E5
:103BC000F091B80280E180831092C102E091BD02C1
:103BD000F091BE0286E08083E091BB02F091BC02CE
:103BE000808188698083E091BB02F091BC02808172
:103BF0008F7D80838DED98E190930101809300018A
:103C0000809169008C7F816080936900E89A87E4E5
:103C100099E1909303018093020180916900837F71
:103C2000846080936900E99A89E499E190935A034A
:103C30008093590387E89BE19093600380935F032F
:103C4000309191032091920382E599E1909366036C
:103C500080936503832F922F8436910514F484E6B4
:103C600090E0909392038093910388EE93E0909379
:103C70005603809355038EE499E190936C038093EF
:103C80006B0385E090E0909352038093510381E0B1
:103C9000809304018091470390914903890F9927EC
:103CA000991F880F991F8D53984F9A83898380910C
:103CB000480390914A03890F9927991F8F519C4F70
:103CC000880F991F9C838B8380914B0390914D03A8
:103CD000890F9927991F63E0880F991F6A95E1F76B
:103CE0008452984F9E838D8320914C0380914E0384
:103CF000280F3327331F46E0429FC001439F900D9A
:103D000011248252984F98878F8381E590E00E941A
:103D1000E61B182F80E590E00E94E61B982F812F6C
:103D200090932A028093290283E590E00E94E61B8B
:103D3000182F82E590E00E94E61B982F812F909328
:103D40002C0280932B0285E590E00E94E61B182F41
:103D500084E590E00E94E61B982F812F90932E021D
:103D600080932D0287E590E00E94E61B182F86E5E0
:103D700090E00E94E61B982F812F90933002809351
:103D80002F028091A402E9E2F2E0DE01119621E324
:103D900032E0619171914D915D916417750709F061
:103DA00081E02E173F07A9F78093A402813089F59F
:103DB00067E875E089EA92E00E943A0706E413E0BA
:103DC0003FE4E32E33E0F32EF80181918F0180313F
:103DD00030F465E875E089EA92E00E943A07F8015C
:103DE0003197408150E070E060E020E189EA92E0A4
:103DF0000E94041A63E875E089EA92E00E943A079B
:103E0000E016F10609F76AE671E089EA92E00E949D
:103E1000E21989E795E00E94F1198DE595E00E948D
:103E2000F11964E575E089EA92E00E943A078EE4B0
:103E300095E00E94F1190E94E81B60913B0270918D
:103E40003C0280913D0290913E020E943A3A20E06D
:103E500030E04AE754E40E94183C60930D017093EF
:103E60000E0180930F0190931001609135027091C3
:103E7000360280913702909138020E943A3A20E04F
:103E800030E04AE754E40E94183C609309017093C3
:103E90000A0180930B0190930C01609131027091A3
:103EA000320280913302909134020E943A3A20E02B
:103EB00030E04AE754E40E94183C60930501709397
:103EC000060180930701909308018091CE039091A1
:103ED000CF03892B09F458C00E94C0198091B50303
:103EE0009091B6036091B3037091B4038132910550
:103EF0000CF0D8C0AC014052510957FF02C04F5FCF
:103F00005F4F559547956357710977FF02C06F5F03
:103F10007F4F75956795F0E2EF2EF12C03E710E0E7
:103F20002AE730E0D7C084E690E090938F02809338
:103F30008E02E3CD86E990E0F8CF88EC90E0F5CFF3
:103F40008AEF90E0F2CF8CE291E0EFCF8EE591E046
:103F5000ECCF80E991E0E9CF84EF91E0E6CF88E50E
:103F600092E0E3CF8CEB92E0E0CF80E293E0DDCF14
:103F700084E893E0DACF88EE93E0D7CF80ED97E046
:103F8000D4CF88EB9BE0D1CF2091B5033091B6031D
:103F9000C901079697FD079623E0959587952A9581
:103FA000E1F72091B3033091B403AC01429FC0010B
:103FB000439F900D529F900D11240E946A3D909353
:103FC000CF038093CE03892B09F086CF0E94C019BE
:103FD00081E090E09093C2038093C1039093C0036B
:103FE0008093BF0382E08093C3038093C4038BE07C
:103FF00090E09093BC038093BB0384E090E09093A7
:10400000BE038093BD0364E475E08FEA93E00E94F1
:104010003A0781E08093C3038093C40388E090E073
:104020009093BC038093BB038CE190E09093BE031C
:104030008093BD0360E375E08FEA93E00E943A0746
:1040400086E090E09093BC038093BB038CE290E009
:104050009093BE038093BD0365E275E08FEA93E021
:104060000E943A0760E275E08FEA93E00E943A0707
:104070006AE175E08FEA93E00E943A070E94A61673
:1040800068EB7BE080E090E028960FB6F894DEBF06
:104090000FBECDBFDF91CF911F910F91FF90EF9099
:1040A0000C94520AAC014054510957FF02C04F5FB3
:1040B0005F4F559547956255710977FF02C06F5F55
:1040C0007F4F7595679510E4E12EF12C02E510E025
:1040D0002AE532E08FEA93E00E940E1282E080939C
:1040E000D1038091CC039091CD03892B09F4FCC0BE
:1040F0008CE38093D0031092C4011092C3011092FC
:10410000A6021092A50210920D0281E080930F0288
:1041100010920E0261E082E10E94BD0861E083E13D
:104120000E94BD088091B9008E7F8093B900809174
:10413000B9008D7F8093B90088E48093B80085E44E
:104140008093BC0088E49CE09093E6018093E501B5
:1041500089E49CE09093EA018093E9018091D70380
:1041600087FD1EC061E00E94EB0861E08091D703EB
:104170000E94BD0861E070E080E090E00E94520A79
:1041800060E08091D7030E94BD086AE070E080E0A3
:1041900090E00E94520A61E08091D7030E94BD081E
:1041A0008091CC039091CD03892B09F45CC12091BF
:1041B000E4033091E5034091E6035091E70360E0AA
:1041C00074E284EF90E00E946F3B20513109410975
:1041D000510956954795379527952093B80064E087
:1041E00086E790E00E948C156091B50361508FEADC
:1041F00093E00E94411664E082E790E00E948C15F3
:104200008091D10360E1813009F064E18FEA93E0AD
:104210000E94411664E08EE690E00E948C158FE8C3
:104220008093EC038091B3039091B403803891059F
:1042300009F032C18091B5039091B60380349105A5
:1042400009F03AC18091D103813009F023C18FE98F
:104250008093EC0312E16AED8FEA93E00E9441162D
:10426000612F8FEA93E00E94411661E88FEA93E0A4
:104270000E9441166091EC038FEA93E00E94411680
:1042800069ED8FEA93E00E9441168091D10362E2CA
:10429000813009F061EF8FEA93E00E94411666E0F9
:1042A00088E690E00E948C158091CC039091CD031C
:1042B000892B09F405C12091E8033091E90340916D
:1042C000EA035091EB0360E074E284EF90E00E9417
:1042D0006F3B205131094109510956954795379552
:1042E00027952093B80072CE61E08091D5030E949B
:1042F000EB0861E08091D6030E94EB088091D50322
:10430000082E000C990BFC01E252F24FE491F0E010
:10431000EE0FFF1FE253F54F259134913093DD03EB
:104320002093DC03FC01EB50F24FE491E093E203B5
:104330008091D603082E000C990BFC01E252F24F3B
:10434000E491F0E0EE0FFF1FE253F54FA591B49119
:10435000B093DF03A093DE03FC01EB50F24FE49136
:10436000E093E3038C91E82BEC938091CA03909146
:10437000CB03892B09F434C01FB7F89480918101D5
:10438000811127C0E8EEFDE08491EFEFFDE094910C
:10439000E82FF0E0EE0FFF1FEC53F54FA591B4911D
:1043A000EC91E92321F461E08AE00E94BD0861E01C
:1043B0008AE00E94EB088CB580618CBD8CB580646E
:1043C0008CBD61E08DE00E94EB0861E08BE00E9413
:1043D000EB08809181018F5F809381011FBFBECE6A
:1043E00061E08091D3030E94EB0861E08091D403E7
:1043F0000E94EB088091D303082E000C990BFC015E
:10440000E252F24FE491F0E0EE0FFF1FE253F54F5E
:10441000259134913093D9032093D803FC01EB50BC
:10442000F24FE491E093E0038091D403082E000C56
:10443000990BFC01E252F24FE491F0E0EE0FFF1F06
:10444000E253F54FA591B491B093DB03A093DA0347
:10445000FC01EB50F24FE491E093E1038C91E09585
:10446000E823EC937BCE8091CA039091CB03892BF8
:1044700031F08091ED039091EE030E94A316E0913C
:10448000DE03F091DF0390818091E303809589231F
:104490008083A5CE8FECDCCE8036910569F48091C7
:1044A000B5039091B603409739F48091D1038130E0
:1044B00029F480E18093EC0312E0CDCE8FEAFACFAD
:1044C000E091DE03F091DF0380819091E303892B7B
:1044D00080837CCD1F920F920FB60F9211242F93E1
:1044E0003F934F935F936F937F938F939F93AF937C
:1044F000BF93EF93FF9389EA92E00E94DC07FF915C
:10450000EF91BF91AF919F918F917F916F915F914B
:104510004F913F912F910F900FBE0F901F901895C4
:104520001F920F920FB60F9211242F938F939F9388
:10453000EF93FF93E091B902F091BA028081E0918C
:10454000BF02F091C00282FD1BC090818091C20227
:104550008F5F8F732091C302821741F0E091C202F6
:10456000F0E0E755FD4F958F8093C202FF91EF91E8
:104570009F918F912F910F900FBE0F901F901895C4
:104580008081F4CF1F920F920FB60F9211242F93B8
:104590003F938F939F93AF93BF938091200290910D
:1045A0002102A0912202B091230230911F0223E048
:1045B000230F2D3768F126E8230F0296A11DB11DA8
:1045C00020931F028093200290932102A093220245
:1045D000B09323028091240290912502A09126029B
:1045E000B09127020196A11DB11D809324029093E2
:1045F0002502A0932602B0932702BF91AF919F910D
:104600008F913F912F910F900FBE0F901F90189593
:104610000196A11DB11DD4CF1F920F920FB60F921C
:1046200011242F933F934F935F936F937F938F93B7
:104630009F93AF93BF93EF93FF93E0910201F091AB
:1046400003010995FF91EF91BF91AF919F918F91D8
:104650007F916F915F914F913F912F910F900FBE7E
:104660000F901F9018951F920F920FB60F92112462
:104670002F933F934F935F936F937F938F939F936A
:10468000AF93BF93EF93FF93E0910001F09101018D
:104690000995FF91EF91BF91AF919F918F917F917C
:1046A0006F915F914F913F912F910F900FBE0F909F
:1046B0001F9018951F920F920FB60F9211240F930F
:1046C0001F932F933F934F935F936F937F938F939A
:1046D0009F93AF93BF932091840030918500B09B4E
:1046E0000BC081E086BB80911D0290911E02019655
:1046F00090931E0280931D0280911B0290911C02D8
:1047000001964091190250911A028417950708F4F6
:1047100045C010921C0210921B0280911D029091C4
:104720001E02B0E0A0E0DC0199278827820F931FCA
:10473000A11DB11D40911502509116026091170202
:10474000709118028C019D01041B150B260B370B71
:10475000B901A801409368025093690260936A020C
:1047600070936B028093150290931602A093170228
:10477000B093180281E080936702BF91AF919F913F
:104780008F917F916F915F914F913F912F911F91E9
:104790000F910F900FBE0F901F90189590931C02D1
:1047A00080931B02EACF1F920F920FB60F92112433
:1047B0002F933F934F935F936F937F938F939F9329
:1047C000AF93BF93EF93FF938091B900887F8036BA
:1047D00009F44AC0F0F5883209F4A7C018F5803111
:1047E00009F49BC0B8F4882309F405C1883009F4A2
:1047F00094C0FF91EF91BF91AF919F918F917F9165
:104800006F915F914F913F912F910F900FBE0F903D
:104810001F901895883109F488C0803251F7809331
:104820000C0214C0803409F4A5C040F48033B9F3FD
:104830008833F9F680930C0285ECBCC0803509F40E
:1048400089C0883509F49EC0883499F60E94170CF7
:10485000D0CF883909F494C038F5883729F050F45E
:10486000883611F0803729F683E080930D0210928C
:104870000B0257C0883809F483C0803919F080389A
:1048800009F0B7CF80910B02803208F079C0E09137
:104890000B0281E08E0F80930B028091BB00F0E051
:1048A000E551FE4F80833DC0803B39F0E0F4803A13
:1048B00009F485C0883A09F09CCF84E080930D020A
:1048C0001092E8011092E701E091E501F091E60114
:1048D00009958091E70181110FC081E08093E70184
:1048E0001092C50109C0803C09F4A6CF883C09F4A8
:1048F000A3CF883B09F07DCFE091E80181E08E0FE6
:104900008093E801F0E0EB53FE4F80818093BB0081
:104910009091E8018091E70131C080911402809369
:10492000BB0085EC8093BC0064CF90911302809112
:1049300012029817B8F58091100290911102E0913F
:10494000130221E02E0F20931302E80FF92FF11D1F
:104950008081E5CF2091100230911102E091130285
:1049600081E08E0F809313028091BB00E20FF32F42
:10497000F11D80839091130280911202981788F2A2
:1049800085E8D0CF2091100230911102E0911302FE
:1049900081E08E0F809313028091BB00E20FF32F12
:1049A000F11D808380910F02811150CF81E08093AF
:1049B0000E0284EA8093BC0010920D021ACF85EC9F
:1049C0008093BC0010920D0280910B02803230F473
:1049D000E0910B02F0E0E551FE4F108260910B0276
:1049E00070E0E091E901F091EA018BEE91E0099528
:1049F00010920B02FECE10920C0228CF682F89EA8B
:104A000092E00C94FE07CF93DF93AB01BC0123E04F
:104A100089EA92E00E94861AEC016AE671E089EA6E
:104A200092E00E94E2198C0F9D1FDF91CF910895B3
:104A30001092AC021092AB0288EE93E0A0E0B0E0DE
:104A40008093AD029093AE02A093AF02B093B002F8
:104A50002EE131E03093AA022093A90225EC30E048
:104A60003093B6022093B50224EC30E03093B802C4
:104A70002093B70220EC30E03093BA022093B902C1
:104A800021EC30E03093BC022093BB0222EC30E0FA
:104A90003093BE022093BD0226EC30E03093C0027A
:104AA0002093BF021092C2021092C3021092C4025D
:104AB0001092C5021092A6031092A5038093A7033B
:104AC0009093A803A093A903B093AA0380E391E075
:104AD0009093A4038093A303A6E4B3E090E080E066
:104AE00021E2E1E0F0E08630910510F4F0E0E0E052
:104AF000AC01425F5F4FE40FF51F20935700E49134
:104B0000ED9301968930910561F760E08BE00E949A
:104B1000EB08E0E0FEE0E491E093EF03E9EEFDE076
:104B2000E491F0E0EE0FFF1FEC52F24F859194916B
:104B30009093F1038093F0031092FA031092FC0318
:104B40001092FB031092F9031092F8031092F703EE
:104B50001092F6031092F5031092F4031092F303EF
:104B60001092F2031092B2031092B10320E830E0E9
:104B70003093B4032093B30380E490E09093B603A2
:104B80008093B5033093B8032093B7039093BA038F
:104B90008093B9031092C5031092BC031092BB031B
:104BA0001092BE031092BD0381E08093C4038093F2
:104BB000C3032FEF3FEF3093C2032093C103309321
:104BC000C0032093BF038093C6031092C7031092C3
:104BD000C9031092C80382E491E09093B0038093DC
:104BE000AF031092CB031092CA0383EA93E0909331
:104BF000CD038093CC031092CF031092CE038FEF9E
:104C00008093D3038093D4038093D5038093D603FA
:104C10008093D70380E89AE1A6E0B0E08093E403B4
:104C20009093E503A093E603B093E70380EA96E848
:104C3000A1E0B0E08093E8039093E903A093EA0336
:104C4000B093EB0380E58093ED031092EE0386E6CC
:104C500096E6A6E2BFE380939B0390939C03A09308
:104C60009D03B0939E0310929F031092A003109295
:104C7000A1031092A20380E090E0A0E0BFE3809344
:104C8000930390939403A0939503B093960310928B
:104C90009703109298031092990310929A0382E35B
:104CA00090E0909352038093510380E991E09093B8
:104CB00054038093530380E293E0909356038093D0
:104CC0005503109258031092570310925A031092F2
:104CD000590310925C0310925B0310925E031092D2
:104CE0005D031092600310925F03109262031092B2
:104CF0006103109264031092630310926603109292
:104D00006503109268031092670310926A03109271
:104D1000690310926C0310926B0310926E03109251
:104D20006D031092700310926F0310927203109231
:104D30007103109274031092730310927603109211
:104D40007503109278031092770310927A031092F1
:104D5000790310927C0310927B0310927E031092D1
:104D60007D033093800320937F033093820320934D
:104D70008103109283031092840310928503109292
:104D80008603109287031092880310928903109271
:104D90008A0310928B0310928C0310928D03109251
:104DA0008E031092900310928F0381E090E0909315
:104DB00092038093910383E090E09093500380935B
:104DC0004F0362E00C94EB08CF93DF9300D000D048
:104DD00000D0CDB7DEB7789484B5836084BD85B547
:104DE000836085BD80916E00816080936E0082E05B
:104DF0008093810080918100816080938100809107
:104E000080008160809380008091B10084608093F5
:104E1000B1008091B00081608093B00087E88093FA
:104E20007A001092C1000E94951C82E0282E312C3D
:104E30000E94900A89EA92E00E94BC07892B09F43B
:104E400080C089EA92E00E949A078C018F7D8335A9
:104E5000910509F0D3C060913B0270913C028091B2
:104E60003D0290913E02672F782F892F99278BE082
:104E700090E00E94731B60913B028CE090E00E94E6
:104E8000731B6091350270913602809137029091C8
:104E90003802672F782F892F99278FE090E00E94A2
:104EA000731B6091350280E190E00E94731B60915A
:104EB0003102709132028091330290913402672F57
:104EC000782F892F992781E190E00E94731B6091D0
:104ED000310282E190E00E94731B60912A0280E51A
:104EE00090E00E94731B6091290281E590E00E948E
:104EF000731B60912C0282E590E00E94731B60910D
:104F00002B0283E590E00E94731B60912E0284E5E2
:104F100090E00E94731B60912D0285E590E00E9455
:104F2000731B6091300286E590E00E94731B6091D4
:104F30002F0287E590E00E94731B86EF9BE00E94A2
:104F4000F1190E94C0198091A402813009F015C3A3
:104F50008093C3038093C4031092BC031092BB03DD
:104F60003092BE032092BD036BEC7DE08FEA93E0AC
:104F70000E943A0706E413E0FFE4EF2EF3E0FF2E71
:104F8000F80181918F01803130F469EC7DE08FEA86
:104F900093E00E943A07F8013197408150E070E0B9
:104FA00060E020E18FEA93E00E94041A67EC7DE064
:104FB0008FEA93E00E943A07E016F10609F7109293
:104FC000BC031092BB038EE190E09093BE038093EC
:104FD000BD036BEA7DE08FEA93E00E943A070E94EE
:104FE000A61680E090E0892B09F422CF0E94C80722
:104FF000882309F41DCF0E9400001ACF8834910540
:1050000099F481E79BE00E94F1198CE39BE00E94F8
:10501000F11982E09BE00E94F11980EF9AE00E9472
:10502000F1198FEE9AE08BCF89349105A9F46DEEDA
:105030007BE089EA92E00E943A0721E030E0309379
:10504000400220933F0210923B0210923C021092C9
:105050003D0210923E0275CF8334910559F488E0E9
:1050600090E09093400280933F0210923A02109297
:10507000390267CF20913F0230914002283031053C
:1050800009F057C0C801C0970A9798F48091390277
:1050900090913A022AE0289FB001299F700D1124B7
:1050A000600F711F6053710970933A026093390267
:1050B00048CF0A30110521F00D30110509F041CF1C
:1050C0001092400210923F028091390290913A0270
:1050D000843C944009F035CF81EE9BE00E94F119A9
:1050E00060E08EE190E00E94731B60E08FE190E051
:1050F0000E94731B60E082E290E00E94731B60E0FC
:1051000083E290E00E94731B60E086E290E00E94E0
:10511000731B60E087E290E00E94731B60E08DE209
:1051200090E00E94731B60E08EE290E00E94731B8F
:1051300008CF8235910599F467ED7BE089EA92E02A
:105140000E943A073092400220923F0210923502AC
:10515000109236021092370210923802F2CE863444
:105160009105A9F46DEC7BE089EA92E00E943A0790
:1051700023E030E03093400220933F02109231024E
:10518000109232021092330210923402DACE2130A1
:105190003105C1F5C801C0970A9720F5C8010E94E2
:1051A000FE2420913B0230913C0240913D025091FF
:1051B0003E02AAE0B0E00E94913B60537109810970
:1051C0009109012E000C220B330B060F171F281F0D
:1051D000391F00933B0210933C0220933D02309311
:1051E0003E02AFCE0A30110521F00D30110509F055
:1051F000A8CE8CEC9BE00E94F11910924002109214
:105200003F029FCE2230310591F5C801C0970A9721
:1052100020F5C8010E94FE2420913502309136020B
:105220004091370250913802AAE0B0E00E94913BD1
:105230006053710981099109012E000C220B330B77
:10524000060F171F281F391F0093350210933602CF
:10525000209337023093380274CE0A30110521F0C2
:105260000D30110509F06DCE8BEC9BE0C4CF2330DF
:10527000310591F5C801C0970A9720F5C8010E9431
:10528000FE2420913102309132024091330250913C
:105290003402AAE0B0E00E94913B60537109810999
:1052A0009109012E000C220B330B060F171F281F2C
:1052B000391F00933102109332022093330230934E
:1052C00034023FCE0A30110521F00D30110509F0EE
:1052D00038CE8AEC9BE08FCF8734910509F097C0D8
:1052E0008FEB9BE00E94F1190E94E81B66EB7BE0CC
:1052F00089EA92E00E943A0760913B0270913C0279
:1053000080913D0290913E020E943A3A20E030E0C6
:105310004AE754E40E94183C0E9403256CEA7BE0B3
:1053200089EA92E00E943A07609135027091360254
:1053300080913702909138020E943A3A20E030E0A2
:105340004AE754E40E94183C0E94032562EA7BE08D
:1053500089EA92E00E943A0760913102709132022C
:1053600080913302909134020E943A3A20E030E07A
:105370004AE754E40E94183C0E94032560913B02D6
:1053800070913C0280913D0290913E020E943A3A17
:1053900020E030E04AE754E40E94183C60930D019D
:1053A00070930E0180930F0190931001609135026C
:1053B0007091360280913702909138020E943A3AF9
:1053C00020E030E04AE754E40E94183C6093090171
:1053D00070930A0180930B0190930C01609131024C
:1053E0007091320280913302909134020E943A3AD5
:1053F00020E030E04AE754E40E94183C6093050145
:105400007093060180930701909308019ACD80352F
:10541000910509F059C08CE89BE00E94F1198FE1D9
:1054200090E00E94E61B182F8EE190E00E94E61BA0
:10543000782F612F89EA92E00E94501A6AE87BE097
:1054400089EA92E00E943A0783E290E00E94E61B1C
:10545000182F82E290E00E94E61B782F612F89EAE4
:1054600092E00E94501A68E87BE089EA92E00E948C
:105470003A0787E290E00E94E61B182F86E290E050
:105480000E94E61B782F612F89EA92E00E94501A51
:1054900066E87BE089EA92E00E943A078EE290E0BB
:1054A0000E94E61B182F8DE290E00E94E61B782FE9
:1054B000612F89EA92E00E94501A6AE671E089EA57
:1054C00092E00E94E2193DCD8E349105E9F46EE937
:1054D0007BE089EA92E00E943A0785E090E09093B1
:1054E000400280933F0210922A02109229021092E9
:1054F0002C0210922B0210922E0210922D0210926A
:10550000300210922F021DCD2530310509F019CD42
:10551000C801C0970A9718F00D32110501F5C801AE
:105520000E94FE24E09128020D32110521F4EF5F64
:10553000E093280206CDF0E0EE0FFF1FE75DFD4F80
:10554000808191812AE0289FB001299F700D11244C
:10555000600F711F6053710971836083F2CC0A3050
:10556000110521F00D30110509F0EBCC8DE99BE020
:105570000E94F1191092280240CE1091A30211113D
:1055800015C08091A202811111C08091A1028111E8
:105590000DC08091A002811109C080919F028111EC
:1055A00005C080919E02882309F458C10E94C01949
:1055B000112321F11092A30260E08AE00E94BD084D
:1055C00080919D02811149C081E080939D0282E01B
:1055D0008093C3038093C4038CE190E09093BC0359
:1055E0008093BB0386E190E09093BE038093BD035C
:1055F00064EA7DE08FEA93E00E943A078091A2027C
:10560000882309F463C01092A20290919C0281E069
:10561000890F813019F0843009F037C09E5F909374
:105620009C02E0919C02E0939B0282E08093C30382
:105630008093C403E150EA3008F040C0F0E0ED5D33
:10564000F44D0C94643D4C2BA52CB42CC32CD22CC3
:10565000E12CF02CFF2C0E2D1D2D813079F61092AF
:105660009D0282E08093C3038093C40382E290E0B2
:105670009093BC038093BB0386E190E09093BE03BC
:105680008093BD036EE97DE0B5CF8A3018F4809336
:105690009C02C7CF82E0FBCF8BE090E09093BC03ED
:1056A0008093BB0386E190E09093BE038093BD039B
:1056B00064E97DE08FEA93E00E943A0760919C02E2
:1056C00090E080E00E94731B0E9431188091A1023B
:1056D000882359F11092A10280911301813009F0C1
:1056E000BBC182E08093130162E089E390E00E94F5
:1056F000731B82E08093C3038093C40380911301E2
:10570000813009F0B1C189E090E09093BC038093AF
:10571000BB0386E190E09093BE038093BD036AE3F0
:105720007DE08FEA93E00E943A078091A0028823EF
:1057300049F11092A00280919A028111A4C181E0E6
:1057400080939A0261E08AE390E00E94731B82E0FA
:105750008093C3038093C40380919A0281119AC1FC
:1057600089E090E09093BC038093BB0386E190E0D6
:105770009093BE038093BD0365E27DE08FEA93E0E2
:105780000E943A0780919E028823B1F110929E02F6
:105790008091990281118DC181E08093990261E02D
:1057A0008BE390E00E94731B82E08093C30380939D
:1057B000C4038091980290919902913009F080C1C0
:1057C000813041F480919C02843011F0873011F4D3
:1057D0001092980288E190E09093BC038093BB0301
:1057E00081E190E09093BE038093BD036BE07DE088
:1057F0008FEA93E00E943A0780919F02882301F18B
:1058000010929F0282E08093C3038093C40380912F
:105810001201882309F46EC11092120183E190E015
:105820009093BC038093BB0381E190E09093BE030F
:105830008093BD0368EE7CE08FEA93E00E943A0714
:1058400060E08AE00E94BD080E94A61668EE73E040
:1058500080E090E00E94520A0E94C01980919C0250
:105860008650823008F580919D0281111DC081E033
:105870008093C3038093C40386E590E09093BC03B8
:105880008093BB0387E290E09093BE038093BD03B7
:105890008091120164ED7CE0882311F062ED7CE0E0
:1058A0008FEA93E00E943A0780919702882309F4D7
:1058B00074C180919602811170C160E08AE00E94FB
:1058C000BD080AE010E0F12CE12CDD24D394809196
:1058D0009702882309F420C1101611060CF01CC190
:1058E0000E94900A0E94C019D092C303D092C403B0
:1058F0001092BC031092BB033092BE032092BD03F2
:1059000061E97CE08FEA93E00E943A07E2E7F0E089
:10591000F093BC03E093BB0329E330E03093BE0374
:105920002093BD03B8018FEA93E00E94501A0E94B1
:10593000A6163FEFE31AF30A84E1E816F1043CF2FD
:1059400001501109F12CE12CC2CF81E190E090933C
:10595000BC038093BB0386E190E09093BE038093E9
:10596000BD036BE87DE0A6CE81E190E09093BC039F
:105970008093BB0386E190E09093BE038093BD03C8
:1059800062E87DE097CE81E190E09093BC03809344
:10599000BB0386E190E09093BE038093BD0369E76B
:1059A0007DE088CE81E190E09093BC038093BB03BF
:1059B00086E190E09093BE038093BD0360E77DE0B5
:1059C00079CE81E190E09093BC038093BB0386E1A4
:1059D00090E09093BE038093BD0367E67DE06ACEBE
:1059E00081E190E09093BC038093BB0386E190E05B
:1059F0009093BE038093BD036EE57DE05BCE81E1B5
:105A000090E09093BC038093BB0386E190E0909379
:105A1000BE038093BD0365E57DE04CCE81E190E05F
:105A20009093BC038093BB0386E190E09093BE0308
:105A30008093BD036CE47DE03DCE24E130E0309303
:105A4000BC032093BB0386E190E09093BE03809358
:105A5000BD0364E47DE02ECE823009F04ACE81E0C1
:105A60008093130161E041CE84E090E09093BC0309
:105A70008093BB0386E190E09093BE038093BD03C7
:105A80006FE27DE04ECE813009F061CE10929A0235
:105A900060E059CE89E090E09093BC038093BB0313
:105AA00086E190E09093BE038093BD036BE17DE0BF
:105AB00065CE813009F078CE1092990260E070CE08
:105AC000811109C080919C02843011F0873019F453
:105AD00081E08093980288E190E09093BC038093EA
