:100000000C943B070C942D230C9406230C9463074B
:100010000C9463070C9463070C9463070C945423AB
:100020000C9463070C9463070C9463070C946307A8
:100030000C9463070C9463070C9463070C94630798
:100040000C94BC220C9463070C948A220C946422B6
:100050000C9463070C9463070C9463070C94630778
:100060000C94CD230C946307DB40A4A62EAF200094
:10007000A1C8D300408DAED580A80000600000006C
:100080000000000000000000000000E00000000090
:1000900000000000000000000001E000000000007F
:1000A000000000000000000001F00000000000005F
:1000B0000000000000000003F0000000000000004D
:1000C00000000000000007F0000000000000000039
:1000D000000000000007F800000000000000000021
:1000E000000000000FF800000003C0007E000001C7
:1000F000E0007F0FF800000003C000FE000001E0F8
:1001000000FFEFF800000003C000FE000001E00067
:10011000FFFFF800000003C000F00000000F007FA8
:10012000FE7FC0000003C000F00000000F003FFE93
:100130007FF83FF1FBCFFCFEF3BC3DEFE01FFE7FFD
:10014000FF7FFBFFDFFEFEFFBC3DEFE01FC6FFFFB2
:100150007FFBFFDFFEFEFFBC3DEFE00FE3C7FE7855
:100160007BC3DE1EF0FFBC3DEF0007FF87FC787B02
:10017000C3DE1EF0F83C3DEF0001FFFFF0007BC343
:10018000C01EF0F03C3DEF0001F37FE03FFBC3CF2A
:10019000FEF0F03C3DEF0003E33F807FFBC3DFFE5A
:1001A000F0F03C3DEF0007E73C00787BC3DE1EF03B
:1001B000F03C3DEF0007FFBE00787BC3DE1EF0F091
:1001C0003C3DEF0007FFFE00787BC3DE1EF0F03CF5
:1001D0003DEF000FFFFE007FFBFFDFFEF0F03FFD75
:1001E000EFE00FFFFF007FFBFFDFFEF0F03FFDEFD2
:1001F000E00FF9FF003E79F9CF9EF0F01F3DE7E0F8
:100200001FF1FF0000000000000000000000001FC0
:1002100080FF007FFFFFFFFFFFFFFFFFFFE01C00ED
:100220007F007FFFFFFFFEB46D888D18E000001F88
:10023000007FFFFFFFFE95AD7DB577E000000F006A
:100240007FFFFFFFFEA5AD9D8D19E0000006007F3A
:10025000FFFFFFFEB5ADEDB57EE000000000000140
:10026000800000000000000000000380000000008B
:10027000000000000007C0000000000000000000B7
:1002800007C00000000000000000000FC0000000D8
:100290000000000000001FE000000000000000005F
:1002A000001FE00000000000000000003FE0000030
:1002B000000000000000003FF0000000000000000F
:1002C00000007FF0000000000000001FF87FF00039
:1002D0000000000000003FFE7FF000000000000072
:1002E000003FFF7FF0000000000000001FFFFBE068
:1002F000000000000000000FFFF9FFC00000000038
:1003000000000FFFF9FFF800000000000007FFF1F8
:10031000FFFF00000000000003FC73FFFF800000EF
:1003200000000001FE3FFFFF80000000000000FF12
:100330001E0FFF000000000000007FFE1FFC0000F9
:1003400000000000003FFFFFF80000000000000078
:100350000FDFFFE0000000000000001F19FFC000D9
:100360000000000000003F3CFF0000000000000013
:10037000007E7CF800000000000000007FFE7C0092
:1003800000000000000000FFFFFC00000000000073
:100390000000FFFFFE0000000000000000FFFFFE65
:1003A0000000000000000001FFEFFE000000000060
:1003B000000001FFCFFE0000000000000003FF0767
:1003C000FE0000000000000003FC07FE000000002B
:1003D00000000003F003FE000000000000000180A8
:1003E00000FE000000000000000000007E00000091
:1003F000000000000000003E0000000000000000BF
:1004000000000C000000000000078000FC0000035A
:10041000C0000000078001FC000003C000000007CE
:100420008001FC000003C0000000078001E0000024
:10043000001E000000078001E00000001E007FE3B6
:10044000F79FF9FDE7787BDFC0FFF7FFBFFDFDFFFA
:10045000787BDFC0FFF7FFBFFDFDFF787BDFC0F0DB
:10046000F787BC3DE1FF787BDE00F0F787BC3DE11C
:10047000F0787BDE0000F787803DE1E0787BDE00EE
:100480007FF7879FFDE1E0787BDE00FFF787BFFD08
:10049000E1E0787BDE00F0F787BC3DE1E0787BDED1
:1004A00000F0F787BC3DE1E0787BDE00F0F787BC29
:1004B0003DE1E0787BDE00FFF7FFBFFDE1E07FFB81
:1004C000DFC0FFF7FFBFFDE1E07FFBDFC07CF3F3A0
:1004D0009F3DE1E03E7BCFC0000000000000000037
:1004E000000000FFFFFFFFFFFFFFFFFFFFC0FFFF58
:1004F000FFFFFD68DB111A31C0FFFFFFFFFD2B5A24
:10050000FB6AEFC0FFFFFFFFFD4B5B3B1A33C0FFF1
:10051000FFFFFFFD6B5BDB6AFDC0322E38005665C6
:10052000723A0042793A43535157445920200033DC
:100530002E352D32382E354D487A20353057204D06
:100540004158004D6963726F5041353000200030D2
:1005500000555549443A200056667764436F7272DD
:10056000206572722C205573657220446566617532
:100570006C740056726576436F7272206572722CCD
:1005800020557365722044656661756C7400415234
:100590004546206572722C2055736572204465664D
:1005A00061756C7400322E380056657273696F6E17
:1005B0003A00323032322D3230323320436F70798C
:1005C00072696768742040637371776479004D695C
:1005D00063726F5041353000000103070F1F3F7FEA
:1005E0000080C0E0F0F8FCFE00000000003E5B4F21
:1005F0005B3E3E6B4F6B3E1C3E7C3E1C183C7E3C83
:10060000181C577D571C1C5E7F5E1C00183C180090
:10061000FFE7C3E7FF0018241800FFE7DBE7FF3020
:10062000483A060E2629792926407F050507407F8E
:1006300005253F5A3CE73C5A7F3E1C1C08081C1C01
:100640003E7F14227F22145F5F005F5F06097F01F7
:100650007F006689956A606060606094A2FFA294E2
:1006600008047E040810207E201008082A1C0808B0
:100670001C2A08081E101010100C1E0C1E0C3038FE
:100680003E3830060E3E0E06000000000000005FFF
:1006900000000007000700147F147F14242A7F2A1B
:1006A00012231308646236495620500008070300DD
:1006B000001C2241000041221C002A1C7F1C2A0829
:1006C000083E08080080703000080808080800008C
:1006D00060600020100804023E5149453E00427F00
:1006E000400072494949462141494D331814127F4F
:1006F0001027454545393C4A4949314121110907EF
:100700003649494936464949291E0000140000006F
:100710004034000000081422411414141414004141
:1007200022140802015909063E415D594E7C1211FE
:10073000127C7F494949363E414141227F41414136
:100740003E7F494949417F090909013E41415173B1
:100750007F0808087F00417F41002040413F017F22
:10076000081422417F404040407F021C027F7F04EA
:1007700008107F3E4141413E7F090909063E415133
:10078000215E7F09192946264949493203017F0123
:10079000033F4040403F1F2040201F3F4038403F24
:1007A000631408146303047804036159494D43003A
:1007B0007F4141410204081020004141417F040271
:1007C0000102044040404040000307080020545408
:1007D00078407F28444438384444442838444428E6
:1007E0007F385454541800087E090218A4A49C7839
:1007F0007F0804047800447D40002040403D007F95
:100800001028440000417F40007C047804787C0874
:100810000404783844444438FC1824241818242448
:1008200018FC7C08040408485454542404043F442D
:10083000243C4040207C1C2040201C3C4030403C5C
:1008400044281028444C9090907C4464544C4400BC
:100850000836410000007700000041360800020120
:100860000204023C2623263C1EA1A161123A40400C
:10087000207A385454555921555579412254547889
:1008800042215554784020545579400C1E52721222
:1008900039555555593954545459395554545800AB
:1008A00000457C410002457D420001457C407D12AF
:1008B00011127DF0282528F07C5455450020545411
:1008C0007C547C0A097F4932494949323A444444BC
:1008D0003A324A4848303A4141217A3A42402078F7
:1008E000009DA0A07D3D4242423D3D4040403D3CF8
:1008F00024FF2424487E4943662B2FFC2F2BFF091D
:1009000029F620C0887E0903205454794100004410
:100910007D413048484A32384040227A007A0A0AFB
:10092000727D0D19317D2629292F2826292929266E
:1009300030484D4020380808080808080808382FB3
:1009400010C8ACBA2F102834FA00007B000008143D
:100950002A142222142A14085500550055AA55AA13
:1009600055AAFF55FF55FF000000FF00101010FFB3
:1009700000141414FF001010FF00FF1010F010F00E
:10098000141414FC001414F700FF0000FF00FF14FF
:1009900014F404FC141417101F10101F101F14144B
:1009A000141F00101010F0000000001F1010101095
:1009B0001F10101010F010000000FF101010101089
:1009C00010101010FF10000000FF140000FF00FFC7
:1009D00000001F10170000FC04F414141710171463
:1009E00014F404F40000FF00F71414141414141485
:1009F000F700F7141414171410101F101F141414F8
:100A0000F4141010F010F000001F101F0000001F61
:100A100014000000FC140000F010F01010FF10FF94
:100A2000141414FF141010101F00000000F010FF29
:100A3000FFFFFFFFF0F0F0F0F0FFFFFF000000000D
:100A400000FFFF0F0F0F0F0F3844443844FC4A4A91
:100A50004A347E02020606027E027E026355494146
:100A6000633844443C04407E201E2006027E02027D
:100A700099A5E7A5991C2A492A1C4C7201724C3091
:100A80004A4D4D303048784830BC625A463D3E4968
:100A90004949007E0101017E2A2A2A2A2A44445F0C
:100AA000444440514A444040444A51400000FF0100
:100AB00003E080FF000008086B6B0836123624360E
:100AC000060F090F06000018180000001010003073
:100AD00040FF0101001F01011E00191D1712003CFB
:100AE0003C3C3C0000000000000000002400270007
:100AF0002A0000000000250028002B00000000094B
:100B000000030200000405080000000000000000CF
:100B100000000000203A20532020202020202C53C9
:100B200061766573206461746100203A204E202E46
:100B30002E2E2E202C7365742073657269616C20D3
:100B40006E756D6265722C4578616D706C653A20CA
:100B50004E20313233342D323334352D3334353663
:100B60002D3435363700203A2049202E2E2E2E20C7
:100B70002C73657420496E74617265662C342C4543
:100B800078616D706C653A204120343936312072BD
:100B90006570726573656E747320617265663D344D
:100BA0002E3936310048656C7020666F72204D69B1
:100BB00063726F20504135303A002D002D002D001A
:100BC00054656D702D5077722D5377722D44696581
:100BD0000000534E3A0056667764436F72723A00D3
:100BE00056667764436F7272206572720056726542
:100BF00076436F72723A0056726576436F72722056
:100C000065727200496E74617265663A00415245C0
:100C1000462065727200476574454550524F4D3A03
:100C20000000000056667764436F72723A00567295
:100C30006576436F72723A00636C65617245455028
:100C4000524F4D2100496E74617265663A007361BE
:100C5000766564206461746120746F20454550524C
:100C60004F4D002D2D2D2D002020005357523A00BE
:100C70002020005057523A005600202000560055C0
:100C80003A00202000543A00366D0031306D0031BA
:100C9000326D0031356D0031376D0032306D00330B
:100CA000306D0034306D0038306D003136306D00FD
:100CB000424B494E004D487A20004652513A00417D
:100CC00055544F00582D47550049434F4D00425948
:100CD00050004F4646005458004E001035F2F23591
:100CE000104E4C204D6F64653A4F4E0057696C6C46
:100CF00020626520676F696E6720696E746F20756A
:100D00006E6C696D69746564206D6F6465207768C9
:100D10006963682077696C6C20766F6964207468F9
:100D2000652077617272616E7479212043616E6310
:100D3000656C206265666F72652074686520636FFC
:100D4000756E74646F776E20656E64732E00650037
:100D50006F0031376D20262031356D2053575220DA
:100D60004D657465723A4F4E0031376D2026203143
:100D7000356D20535752204D657465723A4F464683
:100D8000004D657465723A502E48004D6574657269
:100D90003A522E540042616E643A58494547550014
:100DA00042616E643A49434F4D0042616E643A3687
:100DB0006D0042616E643A31306D0042616E643A9A
:100DC00031326D0042616E643A31356D0042616EC0
:100DD000643A31376D0042616E643A32306D0042E0
:100DE000616E643A33306D0042616E643A34306D46
:100DF0000042616E643A38306D0042616E643A318F
:100E000036306D0050413A4F4E0050413A4F464601
:100E100000506C6561736520636F6E74616374204C
:100E2000746865206D65726368616E7400200030BF
:100E30000049443A002200FF210000000000230086
:100E4000260029000404040404040404020202022B
:100E50000202030303030303020203010204081056
:100E600020408001020408102001020408102040E4
:100E700080401225DE3911241FBECFEFD8E0DEBF3F
:100E8000CDBF11E0A0E0B1E0E0ECFCE702C00590CE
:100E90000D92AA37B107D9F723E0AAE7B1E001C064
:100EA0001D92AB3FB207E1F717E0CAE3D7E004C0F9
:100EB0002197FE010E941C3DC933D107C9F70E944A
:100EC000DE260C94533E0C9400000895DC01ED9155
:100ED000FC910190F081E02D0994EF92FF920F9325
:100EE0001F93CF93DF938C017B01D0E0C0E0F7012B
:100EF000EC0FFD1F6491662361F0D801ED91FC9128
:100F00000190F081E02DC8010995892B11F02196FF
:100F1000EECFCE01DF91CF911F910F91FF90EF9017
:100F20000895AF92BF92CF92DF92EF92FF920F930C
:100F30001F93CF93DF936C017B018B01040F151F6F
:100F4000EB015E01AE18BF08C017D10759F06991D7
:100F5000D601ED91FC910190F081E02DC60109953B
:100F6000892B79F7C501DF91CF911F910F91FF90E8
:100F7000EF90DF90CF90BF90AF900895FC01538D1C
:100F8000448D252F30E0842F90E0821B930B541763
:100F900010F0CF96089501970895FC01918D828DF0
:100FA000981761F0A28DAE0FBF2FB11D5D968C9189
:100FB000928D9F5F9F73928F90E008958FEF9FEFC8
:100FC0000895FC01918D828D981731F0828DE80F84
:100FD000F11D858D90E008958FEF9FEF0895FC013E
:100FE000918D228D892F90E0805C9F4F821B91090B
:100FF0008F739927089583EA92E00E94EF0721E01A
:10100000892B09F420E0822F089580E090E0892B5D
:1010100029F00E94FB0781110C9400000895FC0147
:10102000A48DA80FB92FB11DA35ABF4F2C91848D49
:1010300090E001968F739927848FA689B7892C93A6
:10104000A089B1898C91837080648C93938D848DF9
:10105000981306C00288F389E02D80818F7D8083FC
:101060000895EF92FF920F931F93CF93DF93EC01BC
:1010700081E0888F9B8D8C8D98131AC0E889F9893F
:10108000808185FF15C09FB7F894EE89FF89608342
:10109000E889F98980818370806480839FBF81E0C3
:1010A00090E0DF91CF911F910F91FF90EF90089505
:1010B000F62E0B8D10E00F5F1F4F0F731127E02EE0
:1010C0008C8D8E110CC00FB607FCFACFE889F98918
:1010D000808185FFF5CFCE010E940F08F1CFEB8D07
:1010E000EC0FFD2FF11DE35AFF4FF0829FB7F894EC
:1010F0000B8FEA89FB8980818062CFCFCF93DF930A
:10110000EC01888D8823B9F0AA89BB89E889F9891F
:101110008C9185FD03C0808186FD0DC00FB607FC54
:10112000F7CF8C9185FFF2CF808185FFEDCFCE0187
:101130000E940F08E9CFDF91CF910895843081F0AC
:1011400028F48230E9F08330F9F00895883071F0A6
:10115000893091F08530B9F4809180008F7D03C093
:10116000809180008F778093800008958091B000F7
:101170008F778093B00008958091B0008F7DF9CF74
:1011800084B58F7784BD089584B58F7DFBCFCF93D1
:10119000DF93282F30E0F901E450F54F8491F901F5
:1011A000E55AF14FD491F901EC5BF14FC491CC2396
:1011B000A1F081110E949E08EC2FF0E0EE0FFF1FBE
:1011C000E65CF14FA591B491EC91ED2381E090E0C4
:1011D00009F480E0DF91CF91089580E090E0FACFAC
:1011E0001F93CF93DF93282F30E0F901E450F54FA0
:1011F0008491F901E55AF14FD491F901EC5BF14F7B
:10120000C491CC23A9F0162F81110E949E08EC2FC7
:10121000F0E0EE0FFF1FEE50F54FA591B4918FB7A0
:10122000F894EC91111108C0D095DE23DC938FBFA8
:10123000DF91CF911F910895DE2BF8CFCF93DF93ED
:1012400090E0FC01E55AF14F24918C5B914FFC0139
:1012500084918823C9F090E0880F991FFC01E85120
:10126000F54FA591B491FC01EE50F54FC591D49185
:1012700061110DC09FB7F8948C91209582238C93B7
:101280008881282328839FBFDF91CF910895623002
:1012900051F49FB7F8943C91822F809583238C93CF
:1012A000E8812E2BEFCF8FB7F894EC912E2B2C9357
:1012B0008FBFEACF2091040190E4299F900111246F
:1012C0008E50822B80937C0080917A008064809382
:1012D0007A0080917A0086FDFCCF80917800909111
:1012E00079000895880F991F880F991F0597019716
:1012F000F1F70895CF92DF92EF92FF920F931F9331
:10130000CF93DF9388E0E82EF12C00E0DD24D39426
:101310001091E903C091EA03D091EB03F89489811D
:10132000812B89838A81C12EC0948C218A8383E09A
:1013300090E00E94720989818C2189838AE090E083
:101340000E94720988811823789485E390E00E94B6
:10135000720911110D29DD0C81E0E81AF108C1F6BE
:10136000802FDF91CF911F910F91FF90EF90DF9031
:10137000CF900895CF92DF92EF92FF920F931F9339
:10138000CF93DF93C82ED62E88E0E82EF12C01E013
:101390001091E903C091EA03D091EB03912F90954E
:1013A0008C2D8023B1F1F8948A8189238A838981E5
:1013B000812B89838AE090E00E9472098A81182B30
:1013C0001A83789487E390E00E947209000F81E00D
:1013D000E81AF108E9F6D11013C0F894E091EA0395
:1013E000F091EB0391818091E9038095982391839B
:1013F000E091EA03F091EB03928189238283789450
:10140000DF91CF911F910F91FF90EF90DF90CF90E0
:101410000895F8948A8189238A838981812B89831D
:1014200081E490E00E9472098A81182B1A837894D3
:1014300085E090E0C9CFFF920F931F93CF93DF9386
:101440001091E903C091EA03D091EB03F8948981EC
:10145000012F00958023898378948DE7F82EFA94E4
:10146000FF2061F182E090E00E947209888181236F
:10147000B1F3F8948A8180238A838981812B8983BF
:10148000789480EE91E00E947209F894898180231B
:10149000898386E490E00E94720988811823C1E064
:1014A00009F0C0E078948AE991E00E9472098C2FDB
:1014B000DF91CF911F910F91FF900895C0E0F7CF7A
:1014C0003FB7F8948091240290912502A0912602C2
:1014D000B091270226B5A89B05C02F3F19F00196B1
:1014E000A11DB11D3FBFBA2FA92F982F8827BC017E
:1014F000CD01620F711D811D911D42E0660F771FA6
:10150000881F991F4A95D1F708958F929F92AF92A5
:10151000BF92CF92DF92EF92FF924B015C010E944B
:10152000600A6B017C010E94600A6C197D098E09BA
:101530009F09683E734081059105A8F321E0821A56
:101540009108A108B10888EEC80E83E0D81EE11CFE
:10155000F11C81149104A104B10429F7FF90EF90CC
:10156000DF90CF90BF90AF909F908F9008952FB74E
:10157000F894609120027091210280912202909152
:1015800023022FBF08958F929F92AF92BF92CF9266
:10159000DF92EF92FF920F931F93809149039091F6
:1015A0004A0397FD9DC00E94C7087C010E94B70AAC
:1015B00060938103709382038093830390938403E9
:1015C00020917B0330917C03E216F30609F048C0BA
:1015D00000917D0310917E0320917F033091800361
:1015E0004B015C01801A910AA20AB30A00914B03D5
:1015F00010914C0330E020E080169106A206B3065D
:1016000020F0F0927A03E0927903409179035091AF
:101610007A03E0915103F0915203009185031091F8
:10162000860320918703309188036B017C01C01AE7
:10163000D10AE20AF30A209177033091780322302D
:10164000310509F481C0CCF421153105A1F1213017
:10165000310509F450C0109278031092770340C00E
:1016600060937D0370937E0380937F039093800348
:10167000F0927C03E0927B03C8CF2630310509F459
:10168000D2C02730310509F4F1C02330310519F7F4
:10169000E417F50709F064C021E030E030937803E7
:1016A0002093770360938503709386038093870369
:1016B0009093880315C0E417F50791F421E030E01A
:1016C00030937803209377036093850370938603A8
:1016D000809387039093880310928A031092890362
:1016E0001F910F91FF90EF90DF90CF90BF90AF9040
:1016F0009F908F90089522E030E0E417F50771F68F
:1017000080914F0390915003B0E0A0E08C159D05AF
:10171000AE05BF0528F7E0916503F09166033097A9
:1017200009F00995E0916703F0916803309729F07B
:101730008091690390916A03099586E090E0909307
:10174000780380937703CCCF8091890390918A03AB
:10175000019690938A038093890383E090E0EFCF12
:101760008091890390918A0340914D0350914E03DB
:1017700070E060E0C416D506E606F70640F4209156
:101780008B0330918C032817390709F0A9CF8130DA
:10179000910511F5E0915303F0915403309709F04E
:1017A0000995E0915503F09156038091570390916C
:1017B0005803309721F51092780310927703109216
:1017C0008A03109289031092850310928603109267
:1017D00087031092880384CF029799F4E09159030C
:1017E000F0915A03309709F00995E0915B03F0916D
:1017F0005C0380915D0390915E033097E1F209955F
:10180000DACFE0915F03F0916003309709F009951A
:10181000E0916103F0916203309769F28091630374
:1018200090916403ECCF27E030E0E417F50709F06E
:1018300035CFE0917103F0917203309709F009956B
:10184000E0917303F0917403309709F449CF8091CC
:101850007503909176031F910F91FF90EF90DF90A9
:10186000CF90BF90AF909F908F900994E0916B03C1
:10187000F0916C03309709F00995E0916D03F091B8
:101880006E0380916F0390917003309709F0B7CF8A
:1018900092CF089585ED8093BC008091BC0084FDBB
:1018A000FCCF10920D0208952091E701260F3327F7
:1018B000331F21323105ECF420910D02FC0190E040
:1018C00080E0243069F082E00895A091E701219141
:1018D000AC014B535E4FA40FB52FB11D2C93019655
:1018E000861798F38091E701680F6093E70180E025
:1018F000089581E0089508950895E091C4018091CC
:10190000C301E81730F4F0E0ED55FE4F808190E020
:1019100008958FEF9FEF08959091C4018091C301C6
:101920002FEF3FEF981748F4E92FF0E0ED55FE4F09
:10193000208130E09F5F9093C401C9010895809198
:10194000C3019091C401891B990B0895CF92DF9236
:10195000EF92FF920F931F93CF93DF937C01CB0104
:101960008A012091A202222389F0EB016B01C40EAF
:10197000D51ECC15DD0569F06991D701ED91FC917B
:101980000190F081E02DC7010995F3CF642F0E94EB
:10199000540CC801DF91CF911F910F91FF90EF90F0
:1019A000DF90CF900895CF93DF931F92CDB7DEB72E
:1019B00069832091A2022223F9F020919F02203214
:1019C00058F021E030E0FC013383228390E080E096
:1019D0000F90DF91CF9108958091A002E82FF0E061
:1019E000ED57FE4F998190838F5F8093A002809383
:1019F0009F0281E090E0ECCF61E0CE0101960E9471
:101A0000540CF7CF90919F0281E0913208F043C0CF
:101A100080910D028111FCCF8091A10222E02093E0
:101A20000D0221E020930F022FEF20930C0223E8F8
:101A300031E0309311022093100210921302909320
:101A400012021092140290911402880F892B809335
:101A5000140280910E02813029F510920E028091BD
:101A600014028093BB008091BC0083FDF8CF85EC0D
:101A70008093BC0080910D028230E1F380910C02D2
:101A80008F3F91F080910C02803281F080910C02A6
:101A9000803371F084E01092A00210929F021092A5
:101AA000A202089585EEE4CF80E0F5CF82E0F3CF87
:101AB00083E0F1CF0895FC016370668B848195818A
:101AC00026813781613039F0633029F09187808732
:101AD00033872287089531872087938782870895E7
:101AE0002F923F924F925F926F927F928F929F922E
:101AF000AF92BF92CF92DF92EF92FF920F931F931C
:101B0000CF93DF93CDB7DEB76A970FB6F894DEBFF9
:101B10000FBECDBF9A8F898F7A8369834A01D22EF7
:101B200018870F833701BC2CDC0159962D913C910D
:101B30005A972115310509F015C118968D919C9180
:101B40001997681779070CF0D7C11A968D919C9157
:101B5000481759070CF0D0C14C2C512CB6E0CB9E45
:101B6000600D711D11247C876B87161617060CF00B
:101B7000C3C1EA2DF0E0FA87E98793E0EE0FFF1F7B
:101B80009A95E1F7F88BEF87CF01840F951F181610
:101B900019060CF0B1C1A98DBA8D58968C9181119E
:101BA00004C0BFEABD1508F4D394A98DBA8DED9198
:101BB000FC9111970284F385E02DCD010995B5E0E4
:101BC000DB9EC0011124E981FA81FC83EB83312C77
:101BD000212C9C0128513A4F388F2F8B4A2D50E0F1
:101BE0005E8B4D8BEF89F88DE20DF31D44919E8243
:101BF0008D82D12CC12C69817A81620D731D7A8B03
:101C0000698B842F90E09C8B8B8BE98DFA8DA08162
:101C1000B18140FF82C0F1E0BF126FC0AF126DC052
:101C20001C96ED91FC912F813885A4014C0D5D1D12
:101C300069897A89898D9A8D0995EB89FC89F59551
:101C4000E7954E2F5FEFC51AD50A6D817E818D898C
:101C50009E89680F791F7E836D8398E0C916D10431
:101C600081F6AFEF2A1A3A0AEB81FC81E40DF51DEB
:101C7000FC83EB83F5E02F16310409F0B3CF2F81FD
:101C8000388526153705B9F0A98DBA8DED91FC91EF
:101C9000B1E0BB1257C0AB1255C069817A816B5F4E
:101CA0007F4F0088F189E02D830128E030E0A40116
:101CB000898D9A8D0995A98DBA8DED91FC91119719
:101CC0000688F789E02DCD016A960FB6F894DEBF3D
:101CD0000FBECDBFDF91CF911F910F91FF90EF907D
:101CE000DF90CF90BF90AF909F908F907F906F903C
:101CF0005F904F903F902F9009941E96ED91FC912C
:101D0000EF80F88409851A8592014D815E816B818F
:101D10007C81898D9A8D099590CF2F8138852615E4
:101D2000370509F48ACF31E0B31207C0A31205C00A
:101D30001C96ED91FC91930178CF1E96ED91FC914C
:101D40007301E0CF6B857C85641975090684F7857E
:101D5000E02D73010F8518899201A401898D9A8D58
:101D60000995A9CFF90134969491329745915491F0
:101D7000D91AB7E0DB9E400D511D1124F9012591C0
:101D800034913C8B2B8BFA0125903490FA013296DA
:101D9000749031963491398B329664903196449098
:101DA00041E04C1518F04A1508F07FC0662D062C4E
:101DB000000C770B7C836B83842D042C000C990B17
:101DC0009E838D83A98DBA8DED91FC91119702842C
:101DD000F385E02DCD010995512CD12CC12CEA2D94
:101DE000F0E0FA87E9872B2D30E03C872B87A401B0
:101DF000440D511D47FC5A95588F4F8B69817A814C
:101E0000660D711D67FC7A957E876D877989C71687
:101E100008F051CF2C2D30E04D815E81420F531FD1
:101E2000A985BA854A9FC0014B9F900D5A9F900D7E
:101E30001124FC01E80DF91DF88BEF87852D612C2D
:101E40004F89588D420F531F5E8B4D8B671408F0DE
:101E500050C044244394480E877041F4C101019658
:101E6000EB89FC89E20DF31DD4901C01D7FE19C04B
:101E7000A98DBA8DED91FC91662D70E0B1E0BB1299
:101E800019C0AB1217C02D853E85620F731F0484E5
:101E9000F585E02D2F8138854D895E89898D9A8D54
:101EA0000995DD0C6394842DD1CF1E821D821C8286
:101EB0001B8288CF4B815C81640F751FAB85BC850D
:101EC0006A9FC0016B9F900D7A9F900D11246981CC
:101ED0007A81680F791F0684F785E02DEF80F884FA
:101EE00009851A859D014F855889898D9A8D099597
:101EF000D8CF570CC3948ACF6A960FB6F894DEBF3A
:101F00000FBECDBFDF91CF911F910F91FF90EF904A
:101F1000DF90CF90BF90AF909F908F907F906F9009
:101F20005F904F903F902F9008958F929F92AF9225
:101F3000CF92EF92FF920F931F93CF93DF93EC0119
:101F4000262F898D9A8D009709F051C06A30D1F4FF
:101F50001D861C868D8948E0849F900111248E8502
:101F60009F85820F931F9F878E8781E090E0DF918E
:101F7000CF911F910F91FF90EF90CF90AF909F90D6
:101F80008F9008956D3089F3CC88AD888F89882330
:101F9000C1F08C859D8536E0C39E800D911D112476
:101FA000488559854817590764F44E855F851D8615
:101FB0001C8638E0A39EC0011124840F951F9F87C3
:101FC0008E87EA88FB88088919894E855F856C852C
:101FD0007D85CE010E94700D2C898C859D8546E003
:101FE000249F800D911D11249D878C87BECF6A3060
:101FF00069F41D861C86FC013896E4912D898E8536
:102000009F85E29F800D911D1124ADCF6D3009F4A5
:10201000ACCFFC0134963491631708F4A6CF329606
:10202000E491E61708F4A1CFFC01329685909490D4
:10203000462F431B342F47E0349F800C911C112402
:10204000F401329634913196E4913323A9F1EE23D1
:1020500099F1CC88F4013596E491AD884F894423F9
:1020600001F10E2E000CFF0BE30FF11DCE9EA0011F
:10207000CF9E500D11246C857D85460F571F6885B6
:102080007985641775076CF44E855F851D861C86FF
:10209000FC013896E491AE9E400D511D11245F87DE
:1020A0004E87EA88FB88088919894E855F856C858B
:1020B0007D85CE010E94700DF4013496E4912C8947
:1020C0008C859D85E29F800D911D11248DCF6F928F
:1020D0007F928F929F92AF92BF92CF92DF92EF92B8
:1020E000FF920F931F93CF93DF93EC016B015A0183
:1020F00039014801E881F9810284F385E02D0995D1
:10210000E881F9810288F389E02D87019301A50117
:10211000B601CE010995A501480D591D415051093F
:10212000E881F9810288F389E02D9301B601CE019F
:102130000995E881F9810088F189E02D9401A501D4
:10214000B601CE010995C60CD71CB60161507109C4
:10215000E881F9810088F189E02D9401A501CE0183
:102160000995E881F9810688F789E02DCE01DF9194
:10217000CF911F910F91FF90EF90DF90CF90BF9084
:10218000AF909F908F907F906F9009946F927F9205
:102190008F929F92AF92BF92CF92DF92EF92FF9277
:1021A0000F931F93CF93DF935C01EB016A01490109
:1021B00038018701DC01ED91FC916217730719F575
:1021C000641675062CF0962D872D3A01C92ED82E4F
:1021D0009601261937092F5F3F4F048CF58DE02DAE
:1021E000A301BE01C5010995DF91CF911F910F9108
:1021F000FF90EF90DF90CF90BF90AF909F908F9027
:102200007F906F9008954615570591F4261737076C
:1022100024F0892D4B01C22FD82F9E01281939098E
:102220002F5F3F4F068CF78DE02DA601B401DACF6A
:102230000284F385E02D0995D501ED91FC91048888
:10224000F589E02D83019401A601BE01C501099520
:10225000D501ED91FC910688F789E02DC501DF914C
:10226000CF911F910F91FF90EF90DF90CF90BF9093
:10227000AF909F908F907F906F900994EF92FF9214
:102280000F931F93DC011A960D911C911B971896C2
:102290002D913C911997ED91FC9100A0F1A1E02DB9
:1022A0007B0150E040E070E060E009951F910F91E4
:1022B000FF90EF9008954F925F926F927F928F926E
:1022C0009F92AF92BF92CF92DF92EF92FF920F93C5
:1022D0001F93CF93DF936C012B015A013901480101
:1022E000DC01ED91FC910284F385E02D0995E2017A
:1022F000640C751CD601ED91FC91C615D7055CF4F4
:102300000088F189E02D87019401A501BE01C60175
:1023100009952196EFCF0688F789E02DC601DF9158
:10232000CF911F910F91FF90EF90DF90CF90BF90D2
:10233000AF909F908F907F906F905F904F90099497
:102340008F929F92AF92BF92CF92DF92EF92FF92C5
:102350000F931F93CF93DF93EC015B014A01690157
:10236000E881F9810284F385E02D099595012C0D12
:102370003D1D21503109E881F9810488F589E02D5E
:1023800078018401A401B501CE010995E881F981A4
:102390000688F789E02DCE01DF91CF911F910F9133
:1023A000FF90EF90DF90CF90BF90AF909F908F9075
:1023B00009948F929F92AF92BF92CF92DF92EF9249
:1023C000FF920F931F93CF93DF93EC015B014A01C0
:1023D00069017801E881F9810284F385E02D09958E
:1023E000C80CD91C860101501109E881F9810488C3
:1023F000F589E02D9501A401B501CE010995E8818B
:10240000F9810688F789E02DCE01DF91CF911F91E8
:102410000F91FF90EF90DF90CF90BF90AF909F9083
:102420008F900994EF92FF920F931F93DC01ED912F
:10243000FC9100A0F1A1E02D09951F910F91FF9053
:10244000EF9008950F931F93DC01ED91FC91068CA2
:10245000F78DE02D09951F910F9108950F931F930C
:10246000DC01ED91FC91048CF58DE02D09951F9117
:102470000F910895DC01ED91FC910084F185E02D30
:1024800009943F924F925F926F927F928F929F92A8
:10249000AF92BF92CF92DF92EF92FF920F931F9372
:1024A000CF93DF9300D000D0CDB7DEB75C013B0106
:1024B0006A014901280187E0480E511C93E05594B8
:1024C00047949A95E1F7CA018E0D9F1D9A838983DF
:1024D000F12CE12C312C1C821B828B819C8187701A
:1024E0009927330C892B61F4EB81FC8183E0F5950E
:1024F000E7958A95E1F7EE0DFF1DE80DF91D349083
:1025000037FE0AC021E030E0A6016B817C81660DB8
:10251000771DC5010E943A128B819C8101969C8394
:102520008B8308171907C9F69FEFC91AD90AE40C5B
:10253000F51C89819A81C816D90669F60F900F900B
:102540000F900F90DF91CF911F910F91FF90EF901F
:10255000DF90CF90BF90AF909F908F907F906F90C3
:102560005F904F903F9008952F923F924F925F92CD
:102570006F927F928F929F92AF92BF92CF92DF9293
:10258000EF92FF920F931F93CF93DF9300D000D071
:1025900000D0CDB7DEB73C016A013E832D83FC82BB
:1025A000EB825801A41AB50AB7FE03C0B194A194F6
:1025B000B1088D809E80861A970A97FE03C0919479
:1025C000819491088A149B045CF0902F812F0D81D7
:1025D0001E819D838E839C2D8D2D6B01692F782FFD
:1025E0000C151D055CF09D818E817E836D83692FA6
:1025F000782F902F812F8601C92ED82E1601201AF0
:10260000310A2B012D813E81421A530A57FE03C025
:10261000519441945108710137FE03C03FEFE31A12
:10262000F30AF594E7948D819E81861797075CF5F0
:10263000A1E0B0E0BA83A983C016D1064CF1D30162
:10264000ED91FC910484F585E02D2B813C81A8015E
:102650006D817E818A149B041CF04D815E81B801DE
:10266000C3010995E418F508F7FE0AC02D813E81E3
:1026700089819A81280F391F3E832D83E20CF31C38
:102680000F5F1F4FD9CF2FEF3FEF3A832983D4CF6E
:1026900026960FB6F894DEBF0FBECDBFDF91CF9167
:1026A0001F910F91FF90EF90DF90CF90BF90AF9070
:1026B0009F908F907F906F905F904F903F902F9062
:1026C0000895EF92FF920F931F93CF93DF93EC0146
:1026D000EC80FD806E157F050CF070C057FF04C0C4
:1026E000240F351F50E040E08E819F81FA01E20FF8
:1026F000F31F8E179F071CF49C01241B350B121629
:1027000013060CF05BC0922F842F869586958695D4
:102710008E9DD0018F9DB00D11246A0F7B1FAF8D50
:10272000B8A1A60FB71F477049F188E0841B482F56
:10273000682F70E0FB01E052FA4FE491281708F08F
:1027400063C0621B71092FEF30E002C035952795F9
:102750006A95E2F7E2230130110539F0B0F1023059
:10276000110561F58C91E82702C08C91E82BEC9360
:10277000941720F12C813D81A20FB31FE92FE41B98
:10278000E83078F00230110521F58E2F9C9190955C
:102790009C932C813D81A20FB31F88508830B0F7E5
:1027A000E770EE2359F0F0E0E852FA4FE49101307F
:1027B0001105F9F010F10230110519F1DF91CF91F7
:1027C0001F910F91FF90EF900895E0958C91E82371
:1027D000CECF81E00115110509F480E081959E2F8F
:1027E0008C932C813D81A20FB31F98509830C0F775
:1027F000D7CF8C91E82BEC93E1CFE0958C91E82337
:10280000FACF8C91E827F7CF0130110509F4ADCF4D
:10281000E0F20230110509F4A5CFAE0DBF1DAECF19
:102820000F931F93CF93DF9377FF04C0260F371FBB
:1028300070E060E0DC011496CD91DC91FB01E20FC9
:10284000F31FCE17DF071CF49E01261B370B121651
:1028500013064CF5FA0157FD3796A3E0F595E79579
:10286000AA95E1F7EC9FD001ED9FB00DFC9FB00D54
:1028700011246A0F7B1FDC015F96ED91FC91E60F3E
:10288000F71F4770552781E090E001C0880F4A95F7
:10289000EAF7482F0130110559F0A8F02E0F3F1F1D
:1028A00002301105E1F0DF91CF911F910F91089552
:1028B0002E0F3F1FE217F307B1F38191DF0111974C
:1028C000842B8C93F7CF80952E0F3F1FE217F307D1
:1028D00051F39191DF01119798239C93F7CFE21761
:1028E000F30709F38191DF01119784278C93F7CFC8
:1028F0000F931F93FA01DC0156964C915697423084
:10290000E9F04330A1F1413061F514964D915C91AD
:10291000DA01AE1BBF0BFD01E21BF30B77FD0BC011
:10292000DC0116964D915C916417750724F4AB0198
:10293000BF010E9410141F910F91089514964D919C
:102940005C91DA01A61BB70BBD0161507109DC0176
:1029500016964D915C91DA01AE1BBF0BFD01E21B97
:10296000F30B77FDE8CFAF010E946113E4CF169619
:102970004D915C91DA01A61BB70BBD016150710945
:10298000CDCF0F931F93FA01DC0156964C915697C9
:102990004230A9F0433091F1413019F514964D9130
:1029A0005C91DA01AE1BBF0BFD013197F7FD04C04E
:1029B000AB01BF010E9461131F910F9108951696FC
:1029C0004D915C91DA01AE1BBF0BFD013197DC012B
:1029D00014964D915C91DA01A61BB70BBD01621BE9
:1029E000730BF7FDE9CFDC0116964D915C91E4176E
:1029F000F50714F7AF010E941014DECF16964D9123
:102A00005C91DA01A61BB70BBD01621B730BCECF25
:102A1000FC0177FD64C080859185681779070CF00B
:102A20005EC057FD5CC082859385481759070CF03E
:102A300056C086898230B1F0833029F1813041F46B
:102A400084819581841B950BAB01BC016150710998
:102A50002130310509F108F443C02230310509F471
:102A600063C0089584819581DC01A61BB70BBD016D
:102A70006150710986819781DC01A41BB50BAD0102
:102A800041505109E5CF86819781861B970BBA018A
:102A9000AC0141505109DCCFCA0157FD0796A3E0B4
:102AA00095958795AA95E1F7A481B5818A9F9001B4
:102AB0008B9F300D9A9F300D1124620F731F078C6E
:102AC000F0A1E02DE60FF71F4770552721E030E019
:102AD00001C0220F4A95EAF78081822B80830895F6
:102AE000CA0157FD079633E0959587953A95E1F72A
:102AF000A481B5818A9F90018B9F300D9A9F300DE4
:102B00001124620F731F078CF0A1E02DE60FF71F51
:102B10004770552781E090E001C0880F4A95EAF799
:102B2000809590818923DACFCA0157FD079623E06B
:102B3000959587952A95E1F7A481B5818A9F9001A3
:102B40008B9F300D9A9F300D1124620F731F078CDD
:102B5000F0A1E02DE60FF71F4770552721E030E088
:102B600001C0220F4A95EAF780818227B7CF0895E6
:102B70008EBD00000DB407FEFDCF8EB50895EF9217
:102B8000FF920F931F93CF93DF937C01C62F809109
:102B9000C6039091C703009709F459C02091CA0356
:102BA00031E03093A2022093A1021092A002109271
:102BB0009F02DC01ED91FC910190F081E02D60E03D
:102BC00009958701EE24E394F12CD1E0C150809166
:102BD000C6039091C703CF3F91F1B0E2EB16F10429
:102BE000D8F00E94020D8091C6039091C7032091F6
:102BF000CA03D093A2022093A1021092A0021092C5
:102C00009F02DC01ED91FC910190F081E02D60E0EC
:102C10000995EE24E394F12C8091C6039091C703AB
:102C2000F8016491DC01ED91FC910190F081E02DBF
:102C30000995BFEFEB1AFB0A0F5F1F4FC7CFDF915C
:102C4000CF911F910F91FF90EF900C94020DE091A6
:102C5000D603F091D70390818091DC03809589237E
:102C600080838701C15008F438C0F8018491209115
:102C7000C4033091C503232B29F00E94B8150F5FC0
:102C80001F4FF0CF28E030E040E8E091D203F09110
:102C9000D3039091DA03582F5423D9F05081952B08
:102CA0009083E091D403F091D50390815091DB03A0
:102CB000952B9083E091D403F091D50350819091AE
:102CC000DB03909595239083469521503109E9F6D1
:102CD000D6CF508190959523E3CFDF91CF911F916F
:102CE0000F91FF90EF9008951F93CF93DF93EC0126
:102CF0008D8D9E8D009721F1162F29A131E0309303
:102D0000A2022093A1021092A00210929F02DC0165
:102D1000ED91FC910190F081E02D60E009958D8DA1
:102D20009E8DDC01ED91FC910190F081E02D612FF1
:102D300009958D8D9E8DDF91CF911F910C94020D81
:102D4000ADA5BEA59C918BA9809589238C938B8D75
:102D50009C8D892B31F0862FDF91CF911F910C94A0
:102D6000B81528E030E080E8A9A5BAA599A9462FB2
:102D70004823C1F04C91942B9C93ABA5BCA59C918E
:102D80004AA9942B9C93ABA5BCA54C919AA990956C
:102D900094239C9386952150310931F7DF91CF918F
:102DA0001F9108954C9190959423E6CF8CBD9DBDC5
:102DB0000895DF92EF92FF920F931F93CF93DF93CB
:102DC0008091C6039091C703892B09F498C0209184
:102DD000DE033091DF034091E0035091E10360E0B6
:102DE00074E284EF90E00E94273B205131094109B1
:102DF000510956954795379527952093B80065E07A
:102E000085E39EE00E94BF156091AD03615089EAA1
:102E100093E00E9474162091AF033091B003C90172
:102E2000079697FD079633E0959587953A95E1F7D4
:102E30002091AD033091AE03829F8001839F100DDE
:102E4000929F100D1124C091C803D091C9038091A5
:102E5000C6039091C7030C0F1D1F009709F48FC084
:102E60002091CA0331E03093A2022093A102109274
:102E7000A00210929F02DC01ED91FC910190F08183
:102E8000E02D60E40995EE24E394F12CDD24D39445
:102E90008091C6039091C7030C171D0709F446C023
:102EA000B0E2EB16F104D8F00E94020D8091C60347
:102EB0009091C7032091CA03D092A2022093A1024D
:102EC0001092A00210929F02DC01ED91FC91019002
:102ED000F081E02D60E40995EE24E394F12C8091DB
:102EE000C6039091C7036991DC01ED91FC910190BB
:102EF000F081E02D0995BFEFEB1AFB0AC9CF809155
:102F0000C4039091C503892B31F08091E703909120
:102F1000E8030E94D616E091D803F091D90390817E
:102F20008091DD0380958923808369CF0E94020D03
:102F30008091C6039091C703892B09F461C0209149
:102F4000E2033091E3034091E4035091E50360E034
:102F500074E284EF90E00E94273B2051310941093F
:102F6000510956954795379527952093B800DF91DD
:102F7000CF911F910F91FF90EF90DF900895E09116
:102F8000D603F091D70380819091DC03892B808355
:102F90000C171D0769F289912091C4033091C50374
:102FA000232B19F00E94B815F3CF28E030E040E859
:102FB000E091D203F091D3039091DA03582F542378
:102FC000D9F05081952B9083E091D403F091D503F3
:102FD00090815091DB03952B9083E091D403F09185
:102FE000D50350819091DB0390959523908346956E
:102FF00021503109E9F6CCCF508190959523E3CF4C
:10300000E091D803F091D90380819091DD03892B61
:103010008083ADCF1F93CF93DF93EC01162F8D8D5F
:103020009E8D892BB1F12DA93EA94FA958AD60E025
:1030300074E284EF90E00E94273B2051310941095E
:10304000510956954795379527952093B80066EA1C
:10305000111167EACE010E9474168D8D9E8D892B09
:1030600041F129AD3AAD4BAD5CAD60E074E284EF67
:1030700090E00E94273B20513109410951095695A2
:103080004795379527952093B800DF91CF911F91F1
:1030900008958B8D9C8D892B21F08EAD9FAD0E9464
:1030A000D616EFA5F8A990818CA9809589238083F5
:1030B000CECFEFA5F8A980819CA9892B8083E5CF8D
:1030C000089590E080E00895CF93C0918B02C130C5
:1030D00051F460E084E00E94F00862E370E080E078
:1030E00090E00E94850AE0919702E150EA3008F0F2
:1030F0003EC0F0E0E258F74E0C941C3D8818A3182F
:10310000C618D018D018D018DE18F018F018F21819
:1031100061E08DE00E94F00861E089E00E94F00823
:1031200060E088E00E94F00860E087E00E94F0081C
:1031300060E086E00E94F00810928B0281E08093AC
:103140008102CF91089561E08DE00E94F00861E076
:1031500089E00E94F00860E088E00E94F00860E0EA
:1031600087E00E94F00860E086E00E94F00810927C
:103170008102C13031F762E370E080E090E00E94AC
:10318000850A61E084E0CF910C94F00861E08DE065
:103190000E94F00860E089E00E94F00861E0DCCF66
:1031A00061E08DE00E94F00860E089E00E94F00894
:1031B00060E088E00E94F00861E0D2CF61E08DE03D
:1031C0000E94F00860E089E00E94F00860E088E07A
:1031D0000E94F00860E087E00E94F00861E0C4CF40
:1031E00060E0EDCF60E08DE00E94F00860E089E0F3
:1031F0000E94F00860E088E00E94F00860E087E04C
:103200000E94F00861E095CFCF9382E00E94C7084A
:10321000892B89F580919E0281112DC080917002C9
:10322000811129C080916D02811125C080916E02AB
:10323000811121C08091810281111DC080916C0299
:10324000811119C080919802811115C061E084E05C
:103250000E94F00881E08093540280938B021092C8
:1032600092020E94B70A60938E0270938F0280933D
:1032700090029093910282E00E94C7080197D9F4CE
:10328000C1E0C0938A02109254020E94B70A609370
:1032900086027093870280938802909389028091BE
:1032A000820181110AC060E084E00E94F00810925F
:1032B0008B0210929202CF910895C09392020E94C5
:1032C000B70A60938E0270938F028093900290935E
:1032D0009102F1CF0C94C30A10926C0210926D020D
:1032E000089581E080939D020895809189039091D3
:1032F0008A038330910541F480918B02811143C090
:1033000081E080939C0208958430910559F4809166
:103310001101882319F010921101089581E0809322
:10332000110108958530910541F480918B0281113E
:103330002AC081E080939B0208958630910541F474
:1033400080918B0281111FC081E080939A020895C1
:103350008730910541F480918B02811114C081E086
:10336000809399020895089771F480918B028111DE
:103370000AC080919402811104C081E0809394027C
:1033800008951092940208952091AF033091B003F4
:10339000C901079697FD079623E0959587952A958D
:1033A000E1F72091AD033091AE03829FA001839F8E
:1033B000500D929F500D112470E060E08091C80381
:1033C0009091C9030C944C3E0E94473EFB01019032
:1033D0000020E9F73197AF01461B570BDC01ED9157
:1033E000FC910280F381E02D0994CF93DF93BC011F
:1033F00083EA92E00E946D07EC016AE671E083EADD
:1034000092E00E94E6198C0F9D1FDF91CF910895E5
:103410008F929F92AF92BF92EF92FF920F931F9362
:10342000CF93DF93CDB7DEB7A1970FB6F894DEBF89
:103430000FBECDBF7C01FA01CB0119A2223008F4E6
:103440002AE08E010F5D1F4F822E912CB12CA12CF2
:10345000BF01A50194010E94273BF901CA016A300E
:103460000CF5605DD8016E938D01232B242B252B49
:1034700079F790E080E0109721F0BD01C7010E942C
:10348000E619A1960FB6F894DEBF0FBECDBFDF914F
:10349000CF911F910F91FF90EF90BF90AF909F90B1
:1034A0008F900895695CDECFCF92DF92EF92FF920A
:1034B0000F931F93CF93DF936B01770FEE08FF08F5
:1034C000F7FE1BC0EC016DE20E9466078C014427E9
:1034D0005527BA014C195D096E097F092AE0CE0112
:1034E0000E94081A800F911FDF91CF911F910F91B9
:1034F000FF90EF90DF90CF9008952AE0B701A601EA
:10350000DF91CF911F910F91FF90EF90DF90CF90BF
:103510000C94081A2F923F924F925F926F927F9273
:103520008F929F92AF92BF92CF92DF92EF92FF92D3
:103530001F93CF93DF93EC016A017B01722EAB01E5
:103540009601CB01B6010E94E73C6DE671E0811166
:1035500026C046015701E894B7F82FEF3FEF4FE739
:103560005FE7C501B4010E94E73C81110CC02FEF59
:103570003FEF4FE75FE7C501B4010E94ED3961E716
:1035800071E0181664F02FEF3FEF4FE75FE4C701DB
:10359000B6010E94783C1816B4F465E771E0CE01DC
:1035A000DF91CF911F91FF90EF90DF90CF90BF9070
:1035B000AF909F908F907F906F905F904F903F90D3
:1035C0002F900C94E6192FEF3FEF4FE75FECC70108
:1035D000B6010E94ED3987FDE0CF20E030E0A9017F
:1035E000C701B6010E94ED39312C212C87FF09C09B
:1035F0006DE2CE010E9466071C01F7FAF094F7F81D
:10360000F09410E060E070E080E09FE3711641F01C
:1036100020E030E040E251E40E94D03B1F5FF6CF53
:10362000A70196010E94643B2B013C010E94493C8A
:103630004B015C012AE0BC01A401CE010E94081AE2
:103640007C01E20CF31C1123C1F1C501B4010E94FD
:10365000F2399B01AC01C301B2010E94633B4B01F3
:103660005C016EE2CE010E946607E80EF91E115061
:1036700020F120E030E040E251E4C501B4010E94B5
:10368000533A2B013C010E94493C4B01B12CA12C27
:103690002AE0B501A401CE010E94081AE80EF91E25
:1036A000C501B4010E94F2399B01AC01C301B20112
:1036B0000E94633B4B015C01DACFC701DF91CF91E0
:1036C0001F91FF90EF90DF90CF90BF90AF909F90B1
:1036D0008F907F906F905F904F903F902F900895C4
:1036E000242FAB01BC0189EA93E00C948A1A1F9342
:1036F000CF93DF93EC01162F0E94113B181739F07E
:10370000612FCE01DF91CF911F910C94193BDF9176
:10371000CF911F9108950C94113BCF938CE090E0D2
:103720000E948B1BC82F8BE090E00E948B1B982F70
:103730008C2FB0E0A0E0813727E1920720F088E8E5
:1037400093E1A0E0B0E080933B0290933C02A09311
:103750003D02B0933E0280E190E00E948B1BC82F97
:103760008FE090E00E948B1B982F8C2FB0E0A0E0A0
:103770008093350290933602A0933702B0933802BB
:1037800082E190E00E948B1BC82F81E190E00E94B3
:103790008B1B982F8C2FB0E0A0E080933102909388
:1037A0003202A0933302B0933402CF9108958091F6
:1037B00082018F3038F58F5F8093820160918201A2
:1037C00085E090E00E94771B85E090E00E948B1BD3
:1037D00080938201803120F5E82FF0E0EE50F44E26
:1037E0000C941C3D051C0A1C111C141C171C1A1CD3
:1037F0001D1C201C231C261C291C2C1C2F1C321CAD
:10380000351C381C10928201D9CF10928D02109273
:103810008C02089584E690E090938D0280938C0250
:10382000089586E990E0F8CF88EC90E0F5CF8AEF34
:1038300090E0F2CF8CE291E0EFCF8EE591E0ECCF1B
:1038400080E991E0E9CF84EF91E0E6CF88E592E06E
:10385000E3CF8CEB92E0E0CF80E293E0DDCF84E831
:1038600093E0DACF88EE93E0D7CF80ED97E0D4CF26
:1038700088EB9BE0D1CFEF92FF920F931F93CF93F2
:10388000DF93CDB7DEB728970FB6F894DEBF0FBE33
:10389000CDBF10921C0210921B0210921E021092B9
:1038A0001D02109215021092160210921702109229
:1038B0001802109261028091800080918100109224
:1038C000810010928000109285001092840081E0A7
:1038D00086BB10926F008091B0008091B100109271
:1038E000B10082E08093B0009CE79093B30095E034
:1038F0009093800187BB1092B20021E030E03093BA
:103900001A02209319029FB7F89483BD2091800179
:103910002093B100809370008BE08150F1F787E035
:10392000809381009FBF61E084E00E941E0960E0F7
:1039300084E00E94F00862E083E00E941E0960E0DB
:1039400082E00E941E0960E085E00E941E0961E09D
:103950008AE00E941E0961E089E00E941E0961E080
:1039600088E00E941E0961E087E00E941E0961E074
:1039700086E00E941E0961E08CE00E941E0961E061
:103980008DE00E941E0960E08AE00E94F00860E07D
:103990008CE00E94F00890E080E00E948B1B182FC2
:1039A00080939602682F70E090E080E00E94F239E8
:1039B0009B01AC010E94E73C811103C011501A30F9
:1039C00058F069E090E080E00E94771B90E080E092
:1039D0000E948B1B8093960285E090E00E948B1BD7
:1039E000182F80938201682F70E090E080E00E94A1
:1039F000F2399B01AC010E94E73C811102C01031F9
:103A000058F060E085E090E00E94771B85E090E050
:103A10000E948B1B80938201E0918201E031C8F407
:103A2000F0E0EB5EF24E0C941C3D251D8D1F941FA3
:103A3000971F9A1F9D1FA01FA31FA61FA91FAC1F82
:103A4000AF1FB21FB51FB81FBB1F10928D0210927F
:103A50008C0289E390E00E948B1B182F8093130146
:103A6000682F70E090E080E00E94F2399B01AC0189
:103A70000E94E73C811103C01150133058F061E0FF
:103A800089E390E00E94771B89E390E00E948B1B02
:103A9000809313018AE390E00E948B1B182F809380
:103AA0009502682F70E090E080E00E94F2399B015F
:103AB000AC010E94E73C811102C0123058F060E076
:103AC0008AE390E00E94771B8AE390E00E948B1BC0
:103AD00080939502E091B302F091B40282E080837A
:103AE000E091AF02F091B0021082E091B102F0914A
:103AF000B20280E180831092BB02E091B702F091A4
:103B0000B80286E08083E091B502F091B602808130
:103B100088698083E091B502F091B60280818F7D43
:103B200080838EEC95E00E94F51982EB95E00E946F
:103B3000F51969EA75E083EA92E00E946D0785EA6B
:103B400095E00E94F51984E099E19093010180933A
:103B50000001809169008C7F816080936900E89A00
:103B60008AE699E1909303018093020180916900B4
:103B7000837F846080936900E99A8CE699E1909351
:103B800054038093530387ED9BE190935A038093F2
:103B9000590330918B0320918C0385E799E1909331
:103BA000600380935F03832F922F8436910514F472
:103BB00084E690E090938C0380938B0388EE93E0EF
:103BC0009093500380934F0381E799E190936603AC
:103BD0008093650385E090E090934C0380934B03C2
:103BE0000E948D1B80913B0290913C02A0913D026E
:103BF000B0913E02815D9740A109B1098738934198
:103C0000A105B10580F088E893E1A0E0B0E08093E1
:103C10003B0290933C02A0933D02B0933E028EE89B
:103C200095E00E94F5198091350290913602A0919D
:103C30003702B0913802895C9109A109B1098F3B23
:103C40009241A105B10580F088EE93E0A0E0B0E0DC
:103C50008093350290933602A0933702B0933802D6
:103C600083E795E00E94F51980913102909132022C
:103C7000A0913302B0913402895C9109A109B10984
:103C80008F3B9241A105B10580F088EE93E0A0E062
:103C9000B0E08093310290933202A0933302B0934C
:103CA000340288E595E00E94F51960913B0270911D
:103CB0003C0280913D0290913E020E94F23920E048
:103CC00030E04AE754E40E94D03B60930D017093CA
:103CD0000E0180930F019093100160913502709155
:103CE000360280913702909138020E94F23920E02A
:103CF00030E04AE754E40E94D03B6093090170939E
:103D00000A0180930B0190930C0160913102709134
:103D1000320280913302909134020E94F23920E005
:103D200030E04AE754E40E94D03B60930501709371
:103D30000601809307019093080181E080930401BC
:103D40008091410390914303890F9927991F880F10
:103D5000991F8D53984F9A83898380914203909144
:103D60004403890F9927991F8F519C4F880F991FE2
:103D70009C838B838091450390914703890F9927FA
:103D8000991F63E0880F991F6A95E1F78452984F55
:103D90009E838D832091460380914803280F33270B
:103DA000331F46E0429FC001439F900D1124825271
:103DB000984F98878F8381E590E00E948B1B182F86
:103DC00080E590E00E948B1B982F812F90932A0210
:103DD0008093290283E590E00E948B1B182F82E5D7
:103DE00090E00E948B1B982F812F90932C02809340
:103DF0002B0285E590E00E948B1B182F84E590E054
:103E00000E948B1B982F812F90932E0280932D025E
:103E100087E590E00E948B1B182F86E590E00E94BA
:103E20008B1B982F812F9093300280932F028091CB
:103E30009E02E9E2F2E0DE01119621E332E06191B7
:103E400071914D915D916417750709F081E02E170E
:103E50003F07A9F780939E02813089F561E575E0FF
:103E600083EA92E00E946D0700E413E039E4E32E58
:103E700033E0F32EF80181918F01803130F46FE44B
:103E800075E083EA92E00E946D07F8013197408166
:103E900050E070E060E020E183EA92E00E94081ABE
:103EA0006DE475E083EA92E00E946D07E016F1068A
:103EB00009F76AE671E083EA92E00E94E6198091D0
:103EC000C8039091C903892B09F458C00E94C419F2
:103ED0008091AF039091B0036091AD037091AE03F8
:103EE000813291050CF0D8C0AC014052510957FF06
:103EF00002C04F5F5F4F559547956357710977FF34
:103F000002C06F5F7F4F75956795F0E2EF2EF12C41
:103F100003E710E02AE730E0D7C084E690E0909312
:103F20008D0280938C0295CD86E990E0F8CF88ECE5
:103F300090E0F5CF8AEF90E0F2CF8CE291E0EFCF06
:103F40008EE591E0ECCF80E991E0E9CF84EF91E05C
:103F5000E6CF88E592E0E3CF8CEB92E0E0CF80E221
:103F600093E0DDCF84E893E0DACF88EE93E0D7CF1B
:103F700080ED97E0D4CF88EB9BE0D1CF2091AF03C9
:103F80003091B003C901079697FD079623E09595F8
:103F900087952A95E1F72091AD033091AE03AC01EE
:103FA000429FC001439F900D529F900D11240E948B
:103FB000223D9093C9038093C803892B09F086CFD3
:103FC0000E94C41981E090E09093BC038093BB03EE
:103FD0009093BA038093B90382E08093BD038093EA
:103FE000BE038AE090E09093B6038093B50384E02B
:103FF00090E09093B8038093B70363E475E089EA97
:1040000093E00E946D0781E08093BD038093BE031F
:1040100087E090E09093B6038093B5038CE190E045
:104020009093B8038093B7036FE275E089EA93E059
:104030000E946D0789E090E09093B6038093B503EA
:104040008CE290E09093B8038093B70363E275E04D
:1040500089EA93E00E946D076EE175E089EA93E0DA
:104060000E946D076AE175E089EA93E00E946D079E
:104070000E94D91668EB7BE080E090E028960FB6AE
:10408000F894DEBF0FBECDBFDF91CF911F910F918E
:10409000FF90EF900C94850AAC014054510957FFF2
:1040A00002C04F5F5F4F559547956255710977FF85
:1040B00002C06F5F7F4F7595679510E4E12EF12C7C
:1040C00002E510E02AE532E089EA93E00E9441121D
:1040D00082E08093CB038091C6039091C703892B24
:1040E00009F4FCC08CE38093CA031092C4011092BF
:1040F000C3011092A00210929F0210920D0281E063
:1041000080930F0210920E0261E082E10E94F0089B
:1041100061E083E10E94F0088091B9008E7F809376
:10412000B9008091B9008D7F8093B90088E48093B5
:10413000B80085E48093BC008BE79CE09093E60197
:104140008093E5018CE79CE09093EA018093E9017C
:104150008091D10387FD1EC061E00E941E0961E0CD
:104160008091D1030E94F00861E070E080E090E06F
:104170000E94850A60E08091D1030E94F0086AE005
:1041800070E080E090E00E94850A61E08091D103B8
:104190000E94F0088091C6039091C703892B09F40F
:1041A0005CC12091DE033091DF034091E003509128
:1041B000E10360E074E284EF90E00E94273B20512D
:1041C000310941095109569547953795279520930F
:1041D000B80064E086E790E00E94BF156091AF03ED
:1041E000615089EA93E00E94741664E082E790E0EF
:1041F0000E94BF158091CB0360E1813009F064E13A
:1042000089EA93E00E94741664E08EE690E00E94D2
:10421000BF158FE88093E6038091AD039091AE03C4
:104220008038910509F032C18091AF039091B003BD
:104230008034910509F03AC18091CB03813009F0B7
:1042400023C18FE98093E60312E16AED89EA93E0E6
:104250000E947416612F89EA93E00E94741661E847
:1042600089EA93E00E9474166091E60389EA93E07C
:104270000E94741669ED89EA93E00E947416809199
:10428000CB0362E2813009F061EF89EA93E00E949A
:10429000741666E088E690E00E94BF158091C60320
:1042A0009091C703892B09F405C12091E203309155
:1042B000E3034091E4035091E50360E074E284EF8E
:1042C00090E00E94273B2051310941095109569540
:1042D0004795379527952093B80072CE61E080917D
:1042E000CF030E941E0961E08091D0030E941E0945
:1042F0008091CF03082E000C990BFC01EC5BF14F71
:10430000E491F0E0EE0FFF1FEE50F54F2591349150
:104310003093D7032093D603FC01E55AF14FE49183
:10432000E093DC038091D003082E000C990BFC0174
:10433000EC5BF14FE491F0E0EE0FFF1FEE50F54F14
:10434000A591B491B093D903A093D803FC01E55A89
:10435000F14FE491E093DD038C91E82BEC93809195
:10436000C4039091C503892B09F434C01FB7F89496
:1043700080918101811127C0EEE4FEE08491E5E6A1
:10438000FEE09491E82FF0E0EE0FFF1FE851F54FAB
:10439000A591B491EC91E92321F461E08AE00E94B7
:1043A000F00861E08AE00E941E098CB580618CBD36
:1043B0008CB580648CBD61E08DE00E941E0961E0D7
:1043C0008BE00E941E09809181018F5F80938101A3
:1043D0001FBFBECE61E08091CD030E941E0961E047
:1043E0008091CE030E941E098091CD03082E000CFF
:1043F000990BFC01EC5BF14FE491F0E0EE0FFF1F35
:10440000EE50F54F259134913093D3032093D2038E
:10441000FC01E55AF14FE491E093DA038091CE0379
:10442000082E000C990BFC01EC5BF14FE491F0E0DD
:10443000EE0FFF1FEE50F54FA591B491B093D50349
:10444000A093D403FC01E55AF14FE491E093DB0320
:104450008C91E095E823EC937BCE8091C4039091FE
:10446000C503892B31F08091E7039091E8030E9406
:10447000D616E091D803F091D90390818091DD03A5
:10448000809589238083A5CE8FECDCCE8036910584
:1044900069F48091AF039091B003409739F4809113
:1044A000CB03813029F480E18093E60312E0CDCE86
:1044B0008FEAFACFE091D803F091D90380819091EF
:1044C000DD03892B80837CCD1F920F920FB60F9254
:1044D00011242F933F934F935F936F937F938F9309
:1044E0009F93AF93BF93EF93FF9383EA92E00E9471
:1044F0000F08FF91EF91BF91AF919F918F917F91A5
:104500006F915F914F913F912F910F900FBE0F9040
:104510001F9018951F920F920FB60F9211242F9390
:104520008F939F93EF93FF93E091B302F091B402C6
:104530008081E091B902F091BA0282FD1BC09081A6
:104540008091BC028F5F8F732091BD02821741F072
:10455000E091BC02F0E0ED55FD4F958F8093BC02D9
:10456000FF91EF919F918F912F910F900FBE0F9020
:104570001F9018958081F4CF1F920F920FB60F9263
:1045800011242F933F938F939F93AF93BF93809169
:10459000200290912102A0912202B0912302309139
:1045A0001F0223E0230F2D3768F126E8230F029620
:1045B000A11DB11D20931F02809320029093210220
:1045C000A0932202B09323028091240290912502AD
:1045D000A0912602B09127020196A11DB11D8093E2
:1045E000240290932502A0932602B0932702BF9144
:1045F000AF919F918F913F912F910F900FBE0F9090
:104600001F9018950196A11DB11DD4CF1F920F9236
:104610000FB60F9211242F933F934F935F936F9395
:104620007F938F939F93AF93BF93EF93FF93E0910B
:104630000201F09103010995FF91EF91BF91AF91B4
:104640009F918F917F916F915F914F913F912F91AA
:104650000F900FBE0F901F9018951F920F920FB6DC
:104660000F9211242F933F934F935F936F937F93F8
:104670008F939F93AF93BF93EF93FF93E0910001CC
:10468000F09101010995FF91EF91BF91AF919F9139
:104690008F917F916F915F914F913F912F910F90EB
:1046A0000FBE0F901F9018951F920F920FB60F928A
:1046B00011240F931F932F933F934F935F936F9307
:1046C0007F938F939F93AF93BF93209184003091FA
:1046D0008500B09B0BC081E086BB80911D0290914C
:1046E0001E02019690931E0280931D0280911B0270
:1046F00090911C0201964091190250911A02841760
:10470000950708F445C010921C0210921B0280917C
:104710001D0290911E02B0E0A0E0DC0199278827DD
:10472000820F931FA11DB11D4091150250911602D9
:1047300060911702709118028C019D01041B150BEA
:10474000260B370BB901A801409362025093630214
:104750006093640270936502809315029093160231
:10476000A0931702B093180281E080936102BF9179
:10477000AF919F918F917F916F915F914F913F91F9
:104780002F911F910F910F900FBE0F901F901895B2
:1047900090931C0280931B02EACF1F920F920FB6D8
:1047A0000F9211242F933F934F935F936F937F93B7
:1047B0008F939F93AF93BF93EF93FF938091B90033
:1047C000887F803609F44AC0F0F5883209F4A7C022
:1047D00018F5803109F49BC0B8F4882309F405C1A9
:1047E000883009F494C0FF91EF91BF91AF919F91F0
:1047F0008F917F916F915F914F913F912F910F908A
:104800000FBE0F901F901895883109F488C0803230
:1048100051F780930C0214C0803409F4A5C040F411
:104820008033B9F38833F9F680930C0285ECBCC071
:10483000803509F489C0883509F49EC0883499F61A
:104840000E944A0CD0CF883909F494C038F58837D3
:1048500029F050F4883611F0803729F683E08093F0
:104860000D0210920B0257C0883809F483C08039BA
:1048700019F0803809F0B7CF80910B02803208F030
:1048800079C0E0910B0281E08E0F80930B02809142
:10489000BB00F0E0E551FE4F80833DC0803B39F026
:1048A000E0F4803A09F485C0883A09F09CCF84E0AE
:1048B00080930D021092E8011092E701E091E5016A
:1048C000F091E60109958091E70181110FC081E027
:1048D0008093E7011092C50109C0803C09F4A6CF7E
:1048E000883C09F4A3CF883B09F07DCFE091E80133
:1048F00081E08E0F8093E801F0E0EB53FE4F808162
:104900008093BB009091E8018091E70131C08091D4
:1049100014028093BB0085EC8093BC0064CF90911F
:104920001302809112029817B8F5809110029091AD
:104930001102E091130221E02E0F20931302E80FE1
:10494000F92FF11D8081E5CF2091100230911102E5
:10495000E091130281E08E0F809313028091BB00DF
:10496000E20FF32FF11D80839091130280911202C8
:10497000981788F285E8D0CF20911002309111026B
:10498000E091130281E08E0F809313028091BB00AF
:10499000E20FF32FF11D808380910F02811150CF20
:1049A00081E080930E0284EA8093BC0010920D0295
:1049B0001ACF85EC8093BC0010920D0280910B02FF
:1049C000803230F4E0910B02F0E0E551FE4F1082AE
:1049D00060910B0270E0E091E901F091EA018BEE49
:1049E00091E0099510920B02FECE10920C0228CF96
:1049F000682F83EA92E00C943108CF93DF93AB01E8
:104A0000BC0123E083EA92E00E948A1AEC016AE684
:104A100071E083EA92E00E94E6198C0F9D1FDF91FE
:104A2000CF9108951092A6021092A50288EE93E00D
:104A3000A0E0B0E08093A7029093A802A093A902FF
:104A4000B093AA022EE131E03093A4022093A30296
:104A500025EC30E03093B0022093AF0224EC30E03C
:104A60003093B2022093B10220EC30E03093B402D4
:104A70002093B30221EC30E03093B6022093B502CC
:104A800022EC30E03093B8022093B70226EC30E0FD
:104A90003093BA022093B9021092BC021092BD0268
:104AA0001092BE021092BF021092A00310929F03B8
:104AB0008093A1039093A203A093A303B093A403B4
:104AC00080E391E090939E0380939D03A0E4B3E084
:104AD00090E080E021E2E1E0F0E08630910510F422
:104AE000F0E0E0E0AC01425F5F4FE40FF51F209380
:104AF0005700E491ED9301968930910561F760E0EC
:104B00008BE00E941E09E6E6FEE0E491E093E903F3
:104B1000EFE4FEE0E491F0E0EE0FFF1FE65CF14F02
:104B2000859194919093EB038093EA031092F403A0
:104B30001092F6031092F5031092F3031092F20311
:104B40001092F1031092F0031092EF031092EE0313
:104B50001092ED031092EC031092AC031092AB0391
:104B600020E830E03093AE032093AD0380E490E082
:104B70009093B0038093AF033093B2032093B103BB
:104B80009093B4038093B3031092BF031092B603C3
:104B90001092B5031092B8031092B70381E080938E
:104BA000BE038093BD032FEF3FEF3093BC032093F0
:104BB000BB033093BA032093B9038093C0031092D0
:104BC000C1031092C3031092C20382E491E0909358
:104BD000AA038093A9031092C5031092C4038DE920
:104BE00093E09093C7038093C6031092C903109279
:104BF000C8038FEF8093CD038093CE038093CF03C0
:104C00008093D0038093D10380E89AE1A6E0B0E0DE
:104C10008093DE039093DF03A093E003B093E1035E
:104C200080EA96E8A1E0B0E08093E2039093E3038A
:104C3000A093E403B093E50380E58093E70310922B
:104C4000E80386E696E6A6E2BFE380939503909399
:104C50009603A0939703B093980310929903109230
:104C60009A0310929B0310929C0380E090E0A0E0D6
:104C7000BFE380938D0390938E03A0938F03B09333
:104C8000900310929103109292031092930310924A
:104C9000940382E390E090934C0380934B0380E96C
:104CA00091E090934E0380934D0380E293E09093C4
:104CB000500380934F0310925203109251031092AD
:104CC00054031092530310925603109255031092FE
:104CD00058031092570310925A03109259031092DE
:104CE0005C0310925B0310925E0310925D031092BE
:104CF000600310925F03109262031092610310929E
:104D0000640310926303109266031092650310927D
:104D100068031092670310926A031092690310925D
:104D20006C0310926B0310926E0310926D0310923D
:104D3000700310926F03109272031092710310921D
:104D400074031092730310927603109275031092FD
:104D500078031092770330937A032093790330938A
:104D60007C0320937B0310927D0310927E031092AC
:104D70007F0310928003109281031092820310929D
:104D8000830310928403109285031092860310927D
:104D900087031092880310928A031092890381E09E
:104DA00090E090938C0380938B0383E090E090934A
:104DB0004A038093490362E00C941E09CF93DF936A
:104DC00000D000D000D0CDB7DEB7789484B5836032
:104DD00084BD85B5836085BD80916E0081608093C0
:104DE0006E0082E0809381008091810081608093D9
:104DF0008100809180008160809380008091B1006B
:104E000084608093B1008091B00081608093B00095
:104E100087E880937A001092C1000E943B1C84E0D6
:104E2000282E312C0E94C30A83EA92E00E94EF07E9
:104E3000892B09F480C083EA92E00E94CD078C019F
:104E40008F7D8335910509F0D5C060913B0270914B
:104E50003C0280913D0290913E02672F782F892F6E
:104E600099278BE090E00E94771B60913B028CE0D9
:104E700090E00E94771B609135027091360280911C
:104E8000370290913802672F782F892F99278FE06A
:104E900090E00E94771B6091350280E190E00E94D3
:104EA000771B6091310270913202809133029091B0
:104EB0003402672F782F892F992781E190E00E9493
:104EC000771B6091310282E190E00E94771B609134
:104ED0002A0280E590E00E94771B6091290281E51B
:104EE00090E00E94771B60912C0282E590E00E9486
:104EF000771B60912B0283E590E00E94771B609105
:104F00002E0284E590E00E94771B60912D0285E5DA
:104F100090E00E94771B6091300286E590E00E944D
:104F2000771B60912F0287E590E00E94771B8EE44B
:104F30009CE00E94F5190E94C41980919E02813064
:104F400009F07CC38093BD038093BE031092B60327
:104F50001092B503E2E0F0E0F093B803E093B703FA
:104F600061E37EE089EA93E00E946D0700E413E0CC
:104F7000F9E4EF2EF3E0FF2ED8018D918D01803101
:104F800030F46FE27EE089EA93E00E946D07F80159
:104F90003197408150E070E060E020E189EA93E0E1
:104FA0000E94081A6DE27EE089EA93E00E946D0794
:104FB000E016F10609F71092B6031092B5038EE1E0
:104FC00090E09093B8038093B70361E17EE089EAB3
:104FD00093E00E946D070E94D91680E090E0892B33
:104FE00009F420CF0E94FB07882309F418CF0E9400
:104FF000000015CF8834910599F485EA9BE00E9462
:10500000F51986E69BE00E94F5198AE29BE00E9472
:10501000F51984E19BE00E94F51983E19BE089CFBB
:1050200089349105A9F465E47CE083EA92E00E946A
:105030006D0721E030E03093400220933F02109250
:105040003B0210923C0210923D0210923E0273CF3E
:105050008334910559F488E090E090934002809366
:105060003F0210923A021092390265CF20913F021E
:10507000309140022830310509F057C0C801C0976F
:105080000A9798F48091390290913A022AE0289F79
:10509000B001299F700D1124600F711F60537109B9
:1050A00070933A026093390246CF0A30110521F01D
:1050B0000D30110509F03FCF1092400210923F02CF
:1050C0008091390290913A02843C944009F033CFA8
:1050D00088E39CE00E94F51960E08EE190E00E9478
:1050E000771B60E08FE190E00E94771B60E082E236
:1050F00090E00E94771B60E083E290E00E94771BC3
:1051000060E086E290E00E94771B60E087E290E03A
:105110000E94771B60E08DE290E00E94771B60E0C8
:105120008EE290E00E94771B06CF82359105A9F4AC
:105130006EE27CE083EA92E00E946D07E2E0F0E03C
:10514000F0934002E0933F02109235021092360233
:105150001092370210923802EECE86349105A9F4EF
:1051600064E27CE083EA92E00E946D0723E030E095
:105170003093400220933F0210923102109232028B
:105180001092330210923402D6CE21303105C1F58F
:10519000C801C0970A9720F5C8010E94F824209101
:1051A0003B0230913C0240913D0250913E02AAE008
:1051B000B0E00E94493B6053710981099109012EB9
:1051C000000C220B330B060F171F281F391F0093EB
:1051D0003B0210933C0220933D0230933E02ABCE43
:1051E0000A30110521F00D30110509F0A4CE83E23B
:1051F0009CE00E94F5191092400210923F029BCE53
:105200002230310591F5C801C0970A9720F5C801F1
:105210000E94F824209135023091360240913702E5
:1052200050913802AAE0B0E00E94493B60537109F6
:1052300081099109012E000C220B330B060F171F59
:10524000281F391F0093350210933602209337022E
:105250003093380270CE0A30110521F00D3011055F
:1052600009F069CE82E29CE0C4CF2330310591F58C
:10527000C801C0970A9720F5C8010E94F824209120
:105280003102309132024091330250913402AAE04F
:10529000B0E00E94493B6053710981099109012ED8
:1052A000000C220B330B060F171F281F391F00930A
:1052B00031021093320220933302309334023BCEFA
:1052C0000A30110521F00D30110509F034CE81E2CC
:1052D0009CE08FCF8734910509F0FAC086E19CE00D
:1052E0000E94F5190E948D1B80913B0290913C0217
:1052F000A0913D02B0913E02815D9740A109B109A4
:1053000087389341A105B10580F088E893E1A0E0DA
:10531000B0E080933B0290933C02A0933D02B09397
:105320003E028DE09CE00E94F51964E07CE083EA97
:1053300092E00E946D0760913B0270913C02809167
:105340003D0290913E020E94F23920E030E04AE7AF
:1053500054E40E94D03B0E94FD248091350290913C
:105360003602A0913702B0913802895C9109A109F7
:10537000B1098F3B9241A105B10580F088EE93E021
:10538000A0E0B0E08093350290933602A0933702FC
:10539000B093380287EF9BE00E94F5196DEE7BE039
:1053A00083EA92E00E946D076091350270913602A7
:1053B00080913702909138020E94F23920E030E06B
:1053C0004AE754E40E94D03B0E94FD2480913102C0
:1053D00090913202A0913302B0913402895C91091C
:1053E000A109B1098F3B9241A105B10580F088EE7A
:1053F00093E0A0E0B0E08093310290933202A0935A
:105400003302B093340280EE9BE00E94F51966ED02
:105410007BE083EA92E00E946D0760913102709117
:10542000320280913302909134020E94F23920E0DE
:1054300030E04AE754E40E94D03B0E94FD24609192
:105440003B0270913C0280913D0290913E020E948D
:10545000F23920E030E04AE754E40E94D03B609308
:105460000D0170930E0180930F01909310016091D4
:1054700035027091360280913702909138020E9475
:10548000F23920E030E04AE754E40E94D03B6093D8
:10549000090170930A0180930B0190930C016091B4
:1054A00031027091320280913302909134020E9455
:1054B000F23920E030E04AE754E40E94D03B6093A8
:1054C000050170930601809307019093080133CD85
:1054D0008035910509F059C080EC9BE00E94F519D8
:1054E0008FE190E00E948B1B182F8EE190E00E94CC
:1054F0008B1B782F612F83EA92E00E94541A6EEB87
:105500007BE083EA92E00E946D0783E290E00E94D4
:105510008B1B182F82E290E00E948B1B782F612F4B
:1055200083EA92E00E94541A6CEB7BE083EA92E0FB
:105530000E946D0787E290E00E948B1B182F86E285
:1055400090E00E948B1B782F612F83EA92E00E94EB
:10555000541A6AEB7BE083EA92E00E946D078EE2C8
:1055600090E00E948B1B182F8DE290E00E948B1B15
:10557000782F612F83EA92E00E94541A6AE671E064
:1055800083EA92E00E94E619D6CC8E349105E9F4C4
:1055900062ED7BE083EA92E00E946D07A5E0B0E057
:1055A000B0934002A0933F0210922A021092290267
:1055B00010922C0210922B0210922E0210922D02A9
:1055C0001092300210922F02B6CC2530310509F02E
:1055D000B2CCC801C0970A9718F00D32110501F539
:1055E000C8010E94F824E09128020D32110521F42F
:1055F000EF5FE09328029FCCF0E0EE0FFF1FE75D26
:10560000FD4F808191812AE0289FB001299F700D74
:105610001124600F711F60537109718360838BCCFB
:105620000A30110521F00D30110509F084CC81ED0F
:105630009BE00E94F51910922802DDCD10919D0289
:10564000111111C080919C0281110DC080919B02AB
:10565000811109C080919A02811105C0809199023F
:10566000882309F41CC10E94C419112321F110924E
:105670009D0260E08AE00E94F0088091980281110A
:1056800049C081E08093980282E08093BD038093BB
:10569000BE038CE190E09093B6038093B50386E15E
:1056A00090E09093B8038093B7036AE07EE089EAC4
:1056B00093E00E946D0780919C02882309F463C0E7
:1056C00010929C029091970281E0890F813019F02D
:1056D000843009F037C09E5F90939702E091970263
:1056E000E093960282E08093BD038093BE03E15075
:1056F000EA3008F040C0F0E0E058F44D0C941C3D56
:10570000A92BC82CD72CE62CF52C042D132D222DDB
:10571000312D402D813079F61092980282E08093ED
:10572000BD038093BE0382E290E09093B603809322
:10573000B50386E190E09093B8038093B70364E0EB
:105740007EE0B5CF8A3018F480939702C7CF82E00D
:10575000FBCF8BE090E09093B6038093B50386E196
:1057600090E09093B8038093B7036AEF7DE089EAF5
:1057700093E00E946D076091970290E080E00E94A4
:10578000771B0E94641880919B02882359F1109224
:105790009B0280911301813009F081C182E08093E6
:1057A000130162E089E390E00E94771B82E080931E
:1057B000BD038093BE0380911301813009F077C14E
:1057C00089E090E09093B6038093B50386E190E082
:1057D0009093B8038093B70360EA7DE089EA93E091
:1057E0000E946D0780919A02882349F110929A02D3
:1057F00080919502811168C181E08093950261E0FA
:105800008AE390E00E94771B82E08093BD0380933F
:10581000BE038091950281115EC189E090E0909372
:10582000B6038093B50386E190E09093B80380932C
:10583000B7036BE87DE089EA93E00E946D078091F1
:1058400099028823F1F01092990282E08093BD03BF
:105850008093BE0380911201882309F44BC11092FA
:1058600012013092B6032092B50328E030E0309365
:10587000B8032093B70369E67DE089EA93E00E94CC
:105880006D0760E08AE00E94F0080E94D91668EE79
:1058900073E080E090E00E94850A0E94C419809124
:1058A00097028650823008F58091980281111DC0C0
:1058B00081E08093BD038093BE038AE590E09093DE
:1058C000B6038093B50387E290E09093B80380938A
:1058D000B7038091120160E57DE0882311F06EE44A
:1058E0007DE089EA93E00E946D078091940288230D
:1058F00009F44FC18091930281114BC160E08AE0AD
:105900000E94F0080AE010E0F12CE12CDD24D39491
:1059100080919402882309F4FDC0101611060CF042
:10592000F9C00E94C30A0E94C419D092BD03D0924C
:10593000BE031092B6031092B503A2E0B0E0B0939C
:10594000B803A093B7036CEE7CE089EA93E00E9471
:105950006D07E2E7F0E0F093B603E093B50329E3C7
:1059600030E03093B8032093B703B80189EA93E09D
:105970000E94541A0E94D9163FEFE31AF30A84E1F9
:10598000E816F1042CF201501109F12CE12CC0CFE2
:1059900081E190E09093B6038093B50386E190E0B7
:1059A0009093B8038093B70361EF7DE0E0CE81E18F
:1059B00090E09093B6038093B50386E190E09093D6
:1059C000B8038093B70368EE7DE0D1CE81E190E02B
:1059D0009093B6038093B50386E190E09093B8036B
:1059E0008093B7036FED7DE0C2CE81E190E09093AC
:1059F000B6038093B50386E190E09093B80380935B
:105A0000B70366ED7DE0B3CE81E190E09093B603FD
:105A10008093B50386E190E09093B8038093B70339
:105A20006DEC7DE0A4CE81E190E09093B60380938D
:105A3000B50386E190E09093B8038093B70364ECDC
:105A40007DE095CE81E190E09093B6038093B5031D
:105A500086E190E09093B8038093B7036BEB7DE011
:105A600086CE81E190E09093B6038093B50386E102
:105A700090E09093B8038093B70362EB7DE077CE1C
:105A8000E4E1F0E0F093B603E093B50386E190E043
:105A90009093B8038093B7036AEA7DE068CE8230C2
:105AA00009F084CE81E08093130161E07BCE3092D7
:105AB000B6032092B50386E190E09093B8038093FB
:105AC000B70365E97DE08ACE813009F09DCE109262
:105AD000950260E095CE89E090E09093B6038093C4
