:100000000C940A070C9423230C94FC220C943207C2
:100010000C9432070C9432070C9432070C94A223F0
:100020000C9432070C9432070C9432070C9432076C
:100030000C9432070C9432070C9432070C9432075C
:100040000C94B2220C9432070C9470230C944A2323
:100050000C9432070C9432070C9432070C9432073C
:100060000C941B240C943207DB40A4A62EAF200076
:10007000A1C8D300408DAED580A80000600000006C
:100080000000000000000000000000E00000000090
:1000900000000000000000000001E000000000007F
:1000A000000000000000000001F00000000000005F
:1000B0000000000000000003F0000000000000004D
:1000C00000000000000007F0000000000000000039
:1000D000000000000007F800000000000000000021
:1000E000000000000FF800000003C0007E000001C7
:1000F000E0007F0FF800000003C000FE000001E0F8
:1001000000FFEFF800000003C000FE000001E00067
:10011000FFFFF800000003C000F00000000F007FA8
:10012000FE7FC0000003C000F00000000F003FFE93
:100130007FF83FF1FBCFFCFEF3BC3DEFE01FFE7FFD
:10014000FF7FFBFFDFFEFEFFBC3DEFE01FC6FFFFB2
:100150007FFBFFDFFEFEFFBC3DEFE00FE3C7FE7855
:100160007BC3DE1EF0FFBC3DEF0007FF87FC787B02
:10017000C3DE1EF0F83C3DEF0001FFFFF0007BC343
:10018000C01EF0F03C3DEF0001F37FE03FFBC3CF2A
:10019000FEF0F03C3DEF0003E33F807FFBC3DFFE5A
:1001A000F0F03C3DEF0007E73C00787BC3DE1EF03B
:1001B000F03C3DEF0007FFBE00787BC3DE1EF0F091
:1001C0003C3DEF0007FFFE00787BC3DE1EF0F03CF5
:1001D0003DEF000FFFFE007FFBFFDFFEF0F03FFD75
:1001E000EFE00FFFFF007FFBFFDFFEF0F03FFDEFD2
:1001F000E00FF9FF003E79F9CF9EF0F01F3DE7E0F8
:100200001FF1FF0000000000000000000000001FC0
:1002100080FF007FFFFFFFFFFFFFFFFFFFE01C00ED
:100220007F007FFFFFFFFEB46D888D18E000001F88
:10023000007FFFFFFFFE95AD7DB577E000000F006A
:100240007FFFFFFFFEA5AD9D8D19E0000006007F3A
:10025000FFFFFFFEB5ADEDB57EE000000000000140
:10026000800000000000000000000380000000008B
:10027000000000000007C0000000000000000000B7
:1002800007C00000000000000000000FC0000000D8
:100290000000000000001FE000000000000000005F
:1002A000001FE00000000000000000003FE0000030
:1002B000000000000000003FF0000000000000000F
:1002C00000007FF0000000000000001FF87FF00039
:1002D0000000000000003FFE7FF000000000000072
:1002E000003FFF7FF0000000000000001FFFFBE068
:1002F000000000000000000FFFF9FFC00000000038
:1003000000000FFFF9FFF800000000000007FFF1F8
:10031000FFFF00000000000003FC73FFFF800000EF
:1003200000000001FE3FFFFF80000000000000FF12
:100330001E0FFF000000000000007FFE1FFC0000F9
:1003400000000000003FFFFFF80000000000000078
:100350000FDFFFE0000000000000001F19FFC000D9
:100360000000000000003F3CFF0000000000000013
:10037000007E7CF800000000000000007FFE7C0092
:1003800000000000000000FFFFFC00000000000073
:100390000000FFFFFE0000000000000000FFFFFE65
:1003A0000000000000000001FFEFFE000000000060
:1003B000000001FFCFFE0000000000000003FF0767
:1003C000FE0000000000000003FC07FE000000002B
:1003D00000000003F003FE000000000000000180A8
:1003E00000FE000000000000000000007E00000091
:1003F000000000000000003E0000000000000000BF
:1004000000000C000000000000078000FC0000035A
:10041000C0000000078001FC000003C000000007CE
:100420008001FC000003C0000000078001E0000024
:10043000001E000000078001E00000001E007FE3B6
:10044000F79FF9FDE7787BDFC0FFF7FFBFFDFDFFFA
:10045000787BDFC0FFF7FFBFFDFDFF787BDFC0F0DB
:10046000F787BC3DE1FF787BDE00F0F787BC3DE11C
:10047000F0787BDE0000F787803DE1E0787BDE00EE
:100480007FF7879FFDE1E0787BDE00FFF787BFFD08
:10049000E1E0787BDE00F0F787BC3DE1E0787BDED1
:1004A00000F0F787BC3DE1E0787BDE00F0F787BC29
:1004B0003DE1E0787BDE00FFF7FFBFFDE1E07FFB81
:1004C000DFC0FFF7FFBFFDE1E07FFBDFC07CF3F3A0
:1004D0009F3DE1E03E7BCFC0000000000000000037
:1004E000000000FFFFFFFFFFFFFFFFFFFFC0FFFF58
:1004F000FFFFFD68DB111A31C0FFFFFFFFFD2B5A24
:10050000FB6AEFC0FFFFFFFFFD4B5B3B1A33C0FFF1
:10051000FFFFFFFD6B5BDB6AFDC0322E392E38001A
:100520005665723A0062793A637371776479200094
:10053000332E352D32382E354D487A203530572020
:100540004D4158004D6963726F5041353000322E75
:10055000392E3800536F66745665723A00486172DE
:10056000645665723A00323032322D3230323520E4
:10057000436F707972696768742040637371776440
:1005800079004D6963726F504135300020003000B2
:10059000555549443A20005265737420446566619C
:1005A000756C740056667764436F72722065727260
:1005B000210056726576436F727220657272210057
:1005C00041524546206572722100000103070F1F4A
:1005D0003F7F0080C0E0F0F8FCFE00000000003E1D
:1005E0005B4F5B3E3E6B4F6B3E1C3E7C3E1C183CA3
:1005F0007E3C181C577D571C1C5E7F5E1C00183CFF
:100600001800FFE7C3E7FF0018241800FFE7DBE747
:10061000FF30483A060E2629792926407F0505072E
:10062000407F05253F5A3CE73C5A7F3E1C1C08088A
:100630001C1C3E7F14227F22145F5F005F5F06094F
:100640007F017F006689956A606060606094A2FFA8
:10065000A29408047E040810207E201008082A1C9A
:1006600008081C2A08081E101010100C1E0C1E0C66
:1006700030383E3830060E3E0E0600000000000006
:10068000005F00000007000700147F147F14242A75
:100690007F2A122313086462364956205000080747
:1006A0000300001C2241000041221C002A1C7F1C68
:1006B0002A08083E0808008070300008080808086A
:1006C000000060600020100804023E5149453E00D1
:1006D000427F400072494949462141494D3318142F
:1006E000127F1027454545393C4A4949314121117E
:1006F00009073649494936464949291E0000140070
:100700000000403400000008142241141414141492
:10071000004122140802015909063E415D594E7CF0
:100720001211127C7F494949363E414141227F41A5
:1007300041413E7F494949417F090909013E414103
:1007400051737F0808087F00417F41002040413FEE
:10075000017F081422417F404040407F021C027FFD
:100760007F0408107F3E4141413E7F090909063E52
:100770004151215E7F091929462649494932030121
:100780007F01033F4040403F1F2040201F3F403833
:10079000403F631408146303047804036159494D0E
:1007A00043007F4141410204081020004141417F44
:1007B00004020102044040404040000307080020BA
:1007C000545478407F2844443838444444283844BA
:1007D00044287F385454541800087E090218A4A4F1
:1007E0009C787F0804047800447D40002040403D10
:1007F000007F1028440000417F40007C047804788A
:100800007C080404783844444438FC18242418181C
:10081000242418FC7C080404084854545424040478
:100820003F44243C4040207C1C2040201C3C403065
:10083000403C44281028444C9090907C4464544C94
:1008400044000836410000007700000041360800EF
:1008500002010204023C2623263C1EA1A161123A99
:100860004040207A385454555921555579412254E5
:10087000547842215554784020545579400C1E52EA
:10088000721239555555593954545459395554548F
:10089000580000457C410002457D420001457C40F6
:1008A0007D1211127DF0282528F07C54554500203A
:1008B00054547C547C0A097F4932494949323A44AC
:1008C00044443A324A4848303A4141217A3A424017
:1008D0002078009DA0A07D3D4242423D3D404040E9
:1008E0003D3C24FF2424487E4943662B2FFC2F2BBC
:1008F000FF0929F620C0887E09032054547941005D
:1009000000447D413048484A32384040227A007ADB
:100910000A0A727D0D19317D2629292F28262929B9
:10092000292630484D4020380808080808080808DB
:10093000382F10C8ACBA2F102834FA00007B000002
:1009400008142A142222142A14085500550055AA06
:1009500055AA55AAFF55FF55FF000000FF001010D3
:1009600010FF00141414FF001010FF00FF1010F00F
:1009700010F0141414FC001414F700FF0000FF0022
:10098000FF1414F404FC141417101F10101F101F70
:100990001414141F00101010F0000000001F10109D
:1009A00010101F10101010F010000000FF10101099
:1009B000101010101010FF10000000FF140000FFB6
:1009C00000FF00001F10170000FC04F4141417109F
:1009D000171414F404F40000FF00F7141414141492
:1009E0001414F700F7141414171410101F101F1408
:1009F0001414F4141010F010F000001F101F000069
:100A0000001F14000000FC140000F010F01010FF94
:100A100010FF141414FF141010101F00000000F039
:100A200010FFFFFFFFFFF0F0F0F0F0FFFFFF00000E
:100A3000000000FFFF0F0F0F0F0F3844443844FC35
:100A40004A4A4A347E02020606027E027E0263554C
:100A50004941633844443C04407E201E2006027E07
:100A6000020299A5E7A5991C2A492A1C4C72017219
:100A70004C304A4D4D303048784830BC625A463D83
:100A80003E494949007E0101017E2A2A2A2A2A4438
:100A9000445F444440514A444040444A514000006D
:100AA000FF0103E080FF000008086B6B0836123678
:100AB0002436060F090F0600001818000000101059
:100AC000003040FF0101001F01011E00191D171217
:100AD000003C3C3C3C0000000000203A2053202019
:100AE0002C5361766573206461746100203A204E56
:100AF000202E2E202C73657420534E2C45583A20FE
:100B00004E20313233342D323334352D33343536B3
:100B10002D3435363700203A2049202E2E202C73D4
:100B2000657420496E74617265662C342C45583AA0
:100B30002041203439363120697320617265663D69
:100B4000342E3936310048656C7020666F72204D46
:100B50006963726F20504135303A002D002D002D11
:100B60000054656D702D5077722D5377722D446946
:100B7000650000534E3A0056667764436F72723ACE
:100B80000056726576436F72723A00496E746172F4
:100B900065663A00476574454550524F4D3A0043EB
:100BA0006C656172454550524F4D00000000004891
:100BB000563A0056667764436F72723A0056726511
:100BC00076436F72723A00496E74617265663A00DC
:100BD000736176656420746F20454550524F4D0017
:100BE0002D2D2D2D005357523A005057523A005692
:100BF000005600553A00543A0036306D00366D000C
:100C000031306D0031326D0031356D0031376D009E
:100C100032306D0033306D0034306D0038306D008F
:100C20003136306D00424B494E004D487A20004627
:100C300052513A004155544F00592D535500582DEB
:100C400047550049434F4D004D414E5500425950C4
:100C5000004F46460054580041004E001035F2F255
:100C6000351065006F004175746F206F66662064F3
:100C70006973706C61793A4F4E004175746F206FE3
:100C8000666620646973706C61793A4F4646004E1F
:100C90004C3A4F4646004E4C3A005357523A526532
:100CA00076697365005357523A5265616C00535729
:100CB000523A4F46460033302F31356D3A202020CE
:100CC00020436C6F730033302F31356D3A20202074
:100CD000204F50454E004D657465723A502E4800C5
:100CE0004D657465723A522E540042616E643A4DFD
:100CF000414E550042616E643A5941455355004298
:100D0000616E643A58494547550042616E643A49FC
:100D1000434F4D0042616E643A36306D0042616E61
:100D2000643A366D0042616E643A31306D00426162
:100D30006E643A31326D0042616E643A31356D0055
:100D400042616E643A31376D0042616E643A32300E
:100D50006D0042616E643A33306D0042616E643AF8
:100D600034306D0042616E643A38306D0042616E1D
:100D7000643A3136306D0050413A4F4E0050413A9E
:100D80004F464600506C6561736520636F6E7461F9
:100D9000637420746865206D65726368616E7400A9
:100DA0002000300049443A000000000024002700E1
:100DB0002A0000000000250028002B000000000988
:100DC000000302000004050800000000000000000D
:100DD0000000002200FF2100000000002300260088
:100DE00029000404040404040404020202020202AE
:100DF000030303030303020203010204081020405B
:100E000080010204081020010204081020408040E4
:100E100060251B3811241FBECFEFD8E0DEBFCDBF49
:100E200011E0A0E0B1E0E8E8F8E702C005900D921B
:100E3000A639B107D9F724E0A6E9B1E001C01D92B7
:100E4000A830B207E1F717E0C9E0D7E004C0219766
:100E5000FE010E94003BC830D107C9F70E94042759
:100E60000C94373C0C940000AF92BF92CF92DF926B
:100E7000EF92FF920F931F93CF93DF9364E070E0A4
:100E800050E040E0DB01AA0FBB1FA80FB91FAD90D7
:100E9000BC901197EA01CC0FDD1FC80FD91F8A0142
:100EA0009A01F901EE0FFF1FE80FF91FE080F180B2
:100EB0000617170784F4C990D990AC14BD0444F008
:100EC000D182C082FE013297F182E0822F5F3F4FD4
:100ED0000F5F1F4FE6CFCD91DC911197D183C08377
:100EE000ED92FC922230310569F480819181DF918D
:100EF000CF911F910F91FF90EF90DF90CF90BF9017
:100F0000AF9008952230310554F4A9014F5F5F4F2F
:100F1000641775070CF0B6CF8FEF9FEFE8CFB901DC
:100F200061507109F5CF0895843081F028F4823042
:100F3000E9F08330F9F00895883071F0893091F04C
:100F40008530B9F4809180008F7D03C0809180004E
:100F50008F778093800008958091B0008F77809381
:100F6000B00008958091B0008F7DF9CF84B58F7760
:100F700084BD089584B58F7DFBCFCF93DF93282F59
:100F800030E0F901E454F24F8491F901E750F24F57
:100F9000D491F901EE51F24FC491CC23A1F081110B
:100FA0000E949407EC2FF0E0EE0FFF1FE852F24F83
:100FB000A591B491EC91ED2381E090E009F480E0FB
:100FC000DF91CF91089580E090E0FACF1F93CF9307
:100FD000DF93282F30E0F901E454F24F8491F901B6
:100FE000E750F24FD491F901EE51F24FC491CC2366
:100FF000A9F0162F81110E949407EC2FF0E0EE0F5C
:10100000FF1FEE54F24FA591B4918FB7F894EC9175
:10101000111108C0D095DE23DC938FBFDF91CF91F3
:101020001F910895DE2BF8CFCF93DF9390E0FC0162
:10103000E750F24F24918E51924FFC018491882306
:10104000C9F090E0880F991FFC01E855F24FA59177
:10105000B491FC01EE54F24FC591D49161110DC0D1
:101060009FB7F8948C91209582238C9388812823B4
:1010700028839FBFDF91CF910895623051F49FB7CD
:10108000F8943C91822F809583238C93E8812E2BBA
:10109000EFCF8FB7F894EC912E2B2C938FBFEACF24
:1010A00020911A0190E4299F900111248E50822BE7
:1010B00080937C0080917A00806480937A00809194
:1010C0007A0086FDFCCF8091780090917900089598
:1010D000880F991F880F991F05970197F1F70895B9
:1010E000CF92DF92EF92FF920F931F93CF93DF93F4
:1010F00088E0E82EF12C00E0DD24D3941091F60373
:10110000C091F703D091F803F8948981812B8983EA
:101110008A81C12EC0948C218A8383E090E00E9452
:10112000680889818C2189838AE090E00E946808A0
:1011300088811823789485E390E00E946808111153
:101140000D29DD0C81E0E81AF108C1F6802FDF914E
:10115000CF911F910F91FF90EF90DF90CF90089566
:10116000CF92DF92EF92FF920F931F93CF93DF9373
:10117000C82ED62E88E0E82EF12C01E01091F6035F
:10118000C091F703D091F803912F90958C2D802377
:10119000B1F1F8948A8189238A838981812B89839B
:1011A0008AE090E00E9468088A81182B1A8378945C
:1011B00087E390E00E946808000F81E0E81AF108D8
:1011C000E9F6D11013C0F894E091F703F091F80319
:1011D00091818091F603809598239183E091F703A4
:1011E000F091F8039281892382837894DF91CF91E3
:1011F0001F910F91FF90EF90DF90CF900895F8949A
:101200008A8189238A838981812B898381E490E083
:101210000E9468088A81182B1A83789485E090E0F0
:10122000C9CFFF920F931F93CF93DF931091F603D3
:10123000C091F703D091F803F8948981012F0095AC
:101240008023898378948DE7F82EFA94FF2061F14A
:1012500082E090E00E94680888818123B1F3F894CD
:101260008A8180238A838981812B8983789480EE87
:1012700091E00E946808F89489818023898386E43C
:1012800090E00E94680888811823C1E009F0C0E05E
:1012900078948AE991E00E9468088C2FDF91CF91C1
:1012A0001F910F91FF900895C0E0F7CF3FB7F894DA
:1012B0008091B8029091B902A091BA02B091BB029C
:1012C00026B5A89B05C02F3F19F00196A11DB11DA1
:1012D0003FBFBA2FA92F982F8827BC01CD01620FDD
:1012E000711D811D911D42E0660F771F881F991F98
:1012F0004A95D1F708958F929F92AF92BF92CF9265
:10130000DF92EF92FF924B015C010E9456096B0144
:101310007C010E9456096C197D098E099F09683E5F
:10132000734081059105A8F321E0821A9108A10874
:10133000B10888EEC80E83E0D81EE11CF11C8114B0
:101340009104A104B10429F7FF90EF90DF90CF90B2
:10135000BF90AF909F908F9008952FB7F8946091B1
:10136000B4027091B5028091B6029091B7022FBF7E
:1013700008958F929F92AF92BF92CF92DF92EF9299
:10138000FF920F931F93809166039091670397FDDF
:101390009DC00E94BD077C010E94AD0960939E0321
:1013A00070939F038093A0039093A10320919803CF
:1013B00030919903E216F30609F048C000919A03B0
:1013C00010919B0320919C0330919D034B015C0184
:1013D000801A910AA20AB30A009168031091690366
:1013E00030E020E080169106A206B30620F0F092CD
:1013F0009703E09296034091960350919703E091F2
:101400006E03F0916F030091A2031091A30320914A
:10141000A4033091A5036B017C01C01AD10AE20A32
:10142000F30A20919403309195032230310509F499
:1014300081C0CCF421153105A1F12130310509F429
:1014400050C0109295031092940340C060939A0389
:1014500070939B0380939C0390939D03F092990358
:10146000E0929803C8CF2630310509F4D2C0273066
:10147000310509F4F1C02330310519F7E417F507F8
:1014800009F064C021E030E0309395032093940389
:101490006093A2037093A3038093A4039093A50386
:1014A00015C0E417F50791F421E030E0309395037F
:1014B000209394036093A2037093A3038093A403E7
:1014C0009093A5031092A7031092A6031F910F916A
:1014D000FF90EF90DF90CF90BF90AF909F908F9054
:1014E000089522E030E0E417F50771F680916C036F
:1014F00090916D03B0E0A0E08C159D05AE05BF0591
:1015000028F7E0918203F0918303309709F0099561
:10151000E0918403F0918503309729F08091860350
:1015200090918703099586E090E0909395038093CE
:101530009403CCCF8091A6039091A703019690933A
:10154000A7038093A60383E090E0EFCF8091A603EA
:101550009091A70340916A0350916B0370E060E0A3
:10156000C416D506E606F70640F42091A80330918C
:10157000A9032817390709F0A9CF8130910511F582
:10158000E0917003F0917103309709F00995E091B3
:101590007203F091730380917403909175033097F7
:1015A00021F510929503109294031092A7031092C4
:1015B000A6031092A2031092A3031092A403109208
:1015C000A50384CF029799F4E0917603F091770315
:1015D000309709F00995E0917803F09179038091B3
:1015E0007A0390917B033097E1F20995DACFE0918D
:1015F0007C03F0917D03309709F00995E0917E031B
:10160000F0917F03309769F280918003909181037C
:10161000ECCF27E030E0E417F50709F035CFE09193
:101620008E03F0918F03309709F00995E0919003B4
:10163000F0919103309709F449CF809192039091F2
:1016400093031F910F91FF90EF90DF90CF90BF9089
:10165000AF909F908F900994E0918803F091890357
:10166000309709F00995E0918A03F0918B038091FE
:101670008C0390918D03309709F0B7CF92CF0895E6
:10168000DC01ED91FC910190F081E02D0994EF9245
:10169000FF920F931F93CF93DF938C017B01D0E0D8
:1016A000C0E0F701EC0FFD1F6491662361F0D801E3
:1016B000ED91FC910190F081E02DC8010995892BF5
:1016C00011F02196EECFCE01DF91CF911F910F91B6
:1016D000FF90EF900895AF92BF92CF92DF92EF927A
:1016E000FF920F931F93CF93DF936C017B018B01CC
:1016F000040F151FEB015E01AE18BF08C017D1071C
:1017000059F06991D601ED91FC910190F081E02DA5
:10171000C6010995892B79F7C501DF91CF911F91FA
:101720000F91FF90EF90DF90CF90BF90AF90089512
:10173000FC01538D448D252F30E0842F90E0821BD7
:10174000930B541710F0CF96089501970895FC015C
:10175000918D828D981761F0A28DAE0FBF2FB11DB4
:101760005D968C91928D9F5F9F73928F90E008950C
:101770008FEF9FEF0895FC01918D828D981731F0C6
:10178000828DE80FF11D858D90E008958FEF9FEF1A
:101790000895FC01918D228D892F90E0805C9F4FF0
:1017A000821B91098F739927089580EC92E00E9423
:1017B000C90B21E0892B09F420E0822F089580E0F5
:1017C00090E0892B29F00E94D50B81110C94000028
:1017D0000895FC01A48DA80FB92FB11DA35ABF4FC6
:1017E0002C91848D90E001968F739927848FA68920
:1017F000B7892C93A089B1898C91837080648C9374
:10180000938D848D981306C00288F389E02D808122
:101810008F7D80830895EF92FF920F931F93CF9354
:10182000DF93EC0181E0888F9B8D8C8D98131AC01B
:10183000E889F989808185FF15C09FB7F894EE8902
:10184000FF896083E889F98980818370806480835F
:101850009FBF81E090E0DF91CF911F910F91FF90AA
:10186000EF900895F62E0B8D10E00F5F1F4F0F7352
:101870001127E02E8C8D8E110CC00FB607FCFACF0D
:10188000E889F989808185FFF5CFCE010E94E90BB7
:10189000F1CFEB8DEC0FFD2FF11DE35AFF4FF082DE
:1018A0009FB7F8940B8FEA89FB8980818062CFCF44
:1018B000CF93DF93EC01888D8823B9F0AA89BB8987
:1018C000E889F9898C9185FD03C0808186FD0DC072
:1018D0000FB607FCF7CF8C9185FFF2CF808185FF93
:1018E000EDCFCE010E94E90BE9CFDF91CF910895B2
:1018F00085ED8093BC008091BC0084FDFCCF1092EC
:101900002902089520910302260F3327331F213225
:101910003105ECF420912902FC0190E080E02430B4
:1019200069F082E00895A09103022191AC014F512A
:101930005E4FA40FB52FB11D2C930196861798F317
:1019400080910302680F6093030280E0089581E0B4
:1019500008959B01AC0160E074E284EF90E00E9486
:10196000403820513109410951095695479537951D
:1019700027952093B800089508950895E091E00117
:101980008091DF01E81730F4F0E0E154FE4F8081F0
:1019900090E008958FEF9FEF08959091E00180917E
:1019A000DF012FEF3FEF981748F4E92FF0E0E15403
:1019B000FE4F208130E09F5F9093E001C9010895C0
:1019C0008091DF019091E001891B990B0895CF92DE
:1019D000DF92EF92FF920F931F93CF93DF937C01DF
:1019E000CB018A012091BF02222389F0EB016B0118
:1019F000C40ED51ECC15DD0569F06991D701ED91B6
:101A0000FC910190F081E02DC7010995F3CF642F7F
:101A10000E94820CC801DF91CF911F910F91FF901E
:101A2000EF90DF90CF900895CF93DF931F92CDB7C3
:101A3000DEB769832091BF022223F9F02091BC0216
:101A4000203258F021E030E0FC013383228390E023
:101A500080E00F90DF91CF9108958091BD02E82F33
:101A6000F0E0E156FE4F998190838F5F8093BD0235
:101A70008093BC0281E090E0ECCF61E0CE01019662
:101A80000E94820CF7CF9091BC0281E0913208F065
:101A900043C0809129028111FCCF8091BE0222E0D7
:101AA0002093290221E020932B022FEF209328027C
:101AB0002FE931E030932D0220932C0210922F0257
:101AC00090932E021092300290913002880F892B51
:101AD0008093300280912A02813029F510922A02E7
:101AE000809130028093BB008091BC0083FDF8CFD1
:101AF00085EC8093BC00809129028230E1F38091D3
:101B000028028F3F91F080912802803281F08091ED
:101B10002802803371F084E01092BD021092BC0262
:101B20001092BF02089585EEE4CF80E0F5CF82E009
:101B3000F3CF83E0F1CF0895FC016370668B84815D
:101B4000958126813781613039F0633029F09187A2
:101B500080873387228708953187208793878287FC
:101B600008952F923F924F925F926F927F928F9241
:101B70009F92AF92BF92CF92DF92EF92FF920F931C
:101B80001F93CF93DF93CDB7DEB76A970FB6F89464
:101B9000DEBF0FBECDBF9A8F898F7A8369834A01DA
:101BA000D22E18870F833701BC2CDC0159962D915A
:101BB0003C915A972115310509F015C118968D9160
:101BC0009C911997681779070CF0D7C11A968D91D7
:101BD0009C91481759070CF0D0C14C2C512CB6E001
:101BE000CB9E600D711D11247C876B87161617061E
:101BF0000CF0C3C1EA2DF0E0FA87E98793E0EE0F1D
:101C0000FF1F9A95E1F7F88BEF87CF01840F951F9F
:101C1000181619060CF0B1C1A98DBA8D58968C9181
:101C2000811104C0BFEABD1508F4D394A98DBA8D03
:101C3000ED91FC9111970284F385E02DCD0109957A
:101C4000B5E0DB9EC0011124E981FA81FC83EB83BE
:101C5000312C212C9C0126523A4F388F2F8B4A2D44
:101C600050E05E8B4D8BEF89F88DE20DF31D4491B2
:101C70009E828D82D12CC12C69817A81620D731D67
:101C80007A8B698B842F90E09C8B8B8BE98DFA8DFE
:101C9000A081B18140FF82C0F1E0BF126FC0AF12DE
:101CA0006DC01C96ED91FC912F813885A4014C0DDF
:101CB0005D1D69897A89898D9A8D0995EB89FC89E1
:101CC000F595E7954E2F5FEFC51AD50A6D817E8198
:101CD0008D899E89680F791F7E836D8398E0C91670
:101CE000D10481F6AFEF2A1A3A0AEB81FC81E40DA8
:101CF000F51DFC83EB83F5E02F16310409F0B3CF1B
:101D00002F81388526153705B9F0A98DBA8DED914B
:101D1000FC91B1E0BB1257C0AB1255C069817A810A
:101D20006B5F7F4F0088F189E02D830128E030E070
:101D3000A401898D9A8D0995A98DBA8DED91FC919B
:101D400011970688F789E02DCD016A960FB6F894B1
:101D5000DEBF0FBECDBFDF91CF911F910F91FF90DE
:101D6000EF90DF90CF90BF90AF909F908F907F903B
:101D70006F905F904F903F902F9009941E96ED9139
:101D8000FC91EF80F88409851A8592014D815E816E
:101D90006B817C81898D9A8D099590CF2F813885B3
:101DA0002615370509F48ACF31E0B31207C0A31214
:101DB00005C01C96ED91FC91930178CF1E96ED9194
:101DC000FC917301E0CF6B857C85641975090684ED
:101DD000F785E02D73010F8518899201A401898D83
:101DE0009A8D0995A9CFF90134969491329745912E
:101DF0005491D91AB7E0DB9E400D511D1124F90111
:101E0000259134913C8B2B8BFA0125903490FA016B
:101E10003296749031963491398B32966490319623
:101E2000449041E04C1518F04A1508F07FC0662D2B
:101E3000062C000C770B7C836B83842D042C000C08
:101E4000990B9E838D83A98DBA8DED91FC9111978D
:101E50000284F385E02DCD010995512CD12CC12CA4
:101E6000EA2DF0E0FA87E9872B2D30E03C872B87BD
:101E7000A401440D511D47FC5A95588F4F8B698121
:101E80007A81660D711D67FC7A957E876D877989E9
:101E9000C71608F051CF2C2D30E04D815E81420FE6
:101EA000531FA985BA854A9FC0014B9F900D5A9F29
:101EB000900D1124FC01E80DF91DF88BEF87852D9D
:101EC000612C4F89588D420F531F5E8B4D8B6714C9
:101ED00008F050C044244394480E877041F4C10177
:101EE0000196EB89FC89E20DF31DD4901C01D7FE0D
:101EF00019C0A98DBA8DED91FC91662D70E0B1E00D
:101F0000BB1219C0AB1217C02D853E85620F731F1F
:101F10000484F585E02D2F8138854D895E89898D72
:101F20009A8D0995DD0C6394842DD1CF1E821D827C
:101F30001C821B8288CF4B815C81640F751FAB852F
:101F4000BC856A9FC0016B9F900D7A9F900D1124F4
:101F500069817A81680F791F0684F785E02DEF800B
:101F6000F88409851A859D014F855889898D9A8D38
:101F70000995D8CF570CC3948ACF6A960FB6F894B8
:101F8000DEBF0FBECDBFDF91CF911F910F91FF90AC
:101F9000EF90DF90CF90BF90AF909F908F907F9009
:101FA0006F905F904F903F902F9008958F929F92E7
:101FB000AF92CF92EF92FF920F931F93CF93DF9345
:101FC000EC01262F898D9A8D009709F051C06A3057
:101FD000D1F41D861C868D8948E0849F90011124D0
:101FE0008E859F85820F931F9F878E8781E090E06B
:101FF000DF91CF911F910F91FF90EF90CF90AF9015
:102000009F908F9008956D3089F3CC88AD888F892B
:102010008823C1F08C859D8536E0C39E800D911D7F
:102020001124488559854817590764F44E855F8502
:102030001D861C8638E0A39EC0011124840F951FC5
:102040009F878E87EA88FB88088919894E855F8576
:102050006C857D85CE010E94B10D2C898C859D8576
:1020600046E0249F800D911D11249D878C87BECF53
:102070006A3069F41D861C86FC013896E4912D892E
:102080008E859F85E29F800D911D1124ADCF6D300F
:1020900009F4ACCFFC0134963491631708F4A6CF51
:1020A0003296E491E61708F4A1CFFC0132968590B0
:1020B0009490462F431B342F47E0349F800C911C93
:1020C0001124F401329634913196E4913323A9F12D
:1020D000EE2399F1CC88F4013596E491AD884F89CF
:1020E000442301F10E2E000CFF0BE30FF11DCE9ED9
:1020F000A001CF9E500D11246C857D85460F571F82
:1021000068857985641775076CF44E855F851D8633
:102110001C86FC013896E491AE9E400D511D1124A1
:102120005F874E87EA88FB88088919894E855F8515
:102130006C857D85CE010E94B10DF4013496E49149
:102140002C898C859D85E29F800D911D11248DCF5A
:102150006F927F928F929F92AF92BF92CF92DF92B7
:10216000EF92FF920F931F93CF93DF93EC016B01DC
:102170005A0139014801E881F9810284F385E02D93
:102180000995E881F9810288F389E02D870193019F
:10219000A501B601CE010995A501480D591D415073
:1021A0005109E881F9810288F389E02D9301B60194
:1021B000CE010995E881F9810088F189E02D94012B
:1021C000A501B601CE010995C60CD71CB601615018
:1021D0007109E881F9810088F189E02D9401A50158
:1021E000CE010995E881F9810688F789E02DCE01B5
:1021F000DF91CF911F910F91FF90EF90DF90CF90E3
:10220000BF90AF909F908F907F906F9009946F9246
:102210007F928F929F92AF92BF92CF92DF92EF9276
:10222000FF920F931F93CF93DF935C01EB016A0141
:10223000490138018701DC01ED91FC9162177307B8
:1022400019F5641675062CF0962D872D3A01C92EC6
:10225000D82E9601261937092F5F3F4F048CF58D34
:10226000E02DA301BE01C5010995DF91CF911F911A
:102270000F91FF90EF90DF90CF90BF90AF909F9025
:102280008F907F906F9008954615570591F426170B
:10229000370724F0892D4B01C22FD82F9E01281912
:1022A00039092F5F3F4F068CF78DE02DA601B40151
:1022B000DACF0284F385E02D0995D501ED91FC91EB
:1022C0000488F589E02D83019401A601BE01C501B2
:1022D0000995D501ED91FC910688F789E02DC5019E
:1022E000DF91CF911F910F91FF90EF90DF90CF90F2
:1022F000BF90AF909F908F907F906F900994EF92D6
:10230000FF920F931F93DC011A960D911C911B975E
:1023100018962D913C911997ED91FC9100A0F1A197
:10232000E02D7B0150E040E070E060E009951F91F6
:102330000F91FF90EF9008954F925F926F927F926E
:102340008F929F92AF92BF92CF92DF92EF92FF92C5
:102350000F931F93CF93DF936C012B015A01390127
:102360004801DC01ED91FC910284F385E02D099593
:10237000E201640C751CD601ED91FC91C615D705E0
:102380005CF40088F189E02D87019401A501BE016C
:10239000C60109952196EFCF0688F789E02DC60181
:1023A000DF91CF911F910F91FF90EF90DF90CF9031
:1023B000BF90AF909F908F907F906F905F904F9065
:1023C00009948F929F92AF92BF92CF92DF92EF9239
:1023D000FF920F931F93CF93DF93EC015B014A01B0
:1023E0006901E881F9810284F385E02D0995950161
:1023F0002C0D3D1D21503109E881F9810488F589B2
:10240000E02D78018401A401B501CE010995E88190
:10241000F9810688F789E02DCE01DF91CF911F91D8
:102420000F91FF90EF90DF90CF90BF90AF909F9073
:102430008F9009948F929F92AF92BF92CF92DF922A
:10244000EF92FF920F931F93CF93DF93EC015B0109
:102450004A0169017801E881F9810284F385E02D60
:102460000995C80CD91C860101501109E881F98130
:102470000488F589E02D9501A401B501CE010995E7
:10248000E881F9810688F789E02DCE01DF91CF91AF
:102490001F910F91FF90EF90DF90CF90BF90AF9082
:1024A0009F908F900994EF92FF920F931F93DC01FE
:1024B000ED91FC9100A0F1A1E02D09951F910F91E4
:1024C000FF90EF9008950F931F93DC01ED91FC9125
:1024D000068CF78DE02D09951F910F9108950F93AC
:1024E0001F93DC01ED91FC91048CF58DE02D099595
:1024F0001F910F910895DC01ED91FC910084F1850D
:10250000E02D09943F924F925F926F927F928F924B
:102510009F92AF92BF92CF92DF92EF92FF920F9372
:102520001F93CF93DF9300D000D0CDB7DEB75C010F
:102530003B016A014901280187E0480E511C93E0E4
:10254000559447949A95E1F7CA018E0D9F1D9A8381
:102550008983F12CE12C312C1C821B828B819C8184
:1025600087709927330C892B61F4EB81FC8183E020
:10257000F595E7958A95E1F7EE0DFF1DE80DF91D3C
:10258000349037FE0AC021E030E0A6016B817C81E7
:10259000660D771DC5010E947B128B819C8101967F
:1025A0009C838B8308171907C9F69FEFC91AD90AAC
:1025B000E40CF51C89819A81C816D90669F60F903A
:1025C0000F900F900F90DF91CF911F910F91FF907F
:1025D000EF90DF90CF90BF90AF909F908F907F90C3
:1025E0006F905F904F903F9008952F923F924F923F
:1025F0005F926F927F928F929F92AF92BF92CF9293
:10260000DF92EF92FF920F931F93CF93DF9300D04F
:1026100000D000D0CDB7DEB73C016A013E832D83E8
:10262000FC82EB825801A41AB50AB7FE03C0B1942C
:10263000A194B1088D809E80861A970A97FE03C0E8
:102640009194819491088A149B045CF0902F812FBF
:102650000D811E819D838E839C2D8D2D6B01692F95
:10266000782F0C151D055CF09D818E817E836D8316
:10267000692F782F902F812F8601C92ED82E160111
:10268000201A310A2B012D813E81421A530A57FE2E
:1026900003C0519441945108710137FE03C03FEFCC
:1026A000E31AF30AF594E7948D819E8186179707C4
:1026B0005CF5A1E0B0E0BA83A983C016D1064CF165
:1026C000D301ED91FC910484F585E02D2B813C81B3
:1026D000A8016D817E818A149B041CF04D815E816E
:1026E000B801C3010995E418F508F7FE0AC02D8169
:1026F0003E8189819A81280F391F3E832D83E20C08
:10270000F31C0F5F1F4FD9CF2FEF3FEF3A83298381
:10271000D4CF26960FB6F894DEBF0FBECDBFDF91A3
:10272000CF911F910F91FF90EF90DF90CF90BF90CE
:10273000AF909F908F907F906F905F904F903F9061
:102740002F900895EF92FF920F931F93CF93DF93F3
:10275000EC01EC80FD806E157F050CF070C057FF1A
:1027600004C0240F351F50E040E08E819F81FA01A4
:10277000E20FF31F8E179F071CF49C01241B350BDF
:10278000121613060CF05BC0922F842F8695869547
:1027900086958E9DD0018F9DB00D11246A0F7B1FF1
:1027A000AF8DB8A1A60FB71F477049F188E0841B11
:1027B000482F682F70E0FB01EE52FA4FE491281782
:1027C00008F063C0621B71092FEF30E002C035953D
:1027D00027956A95E2F7E2230130110539F0B0F14F
:1027E0000230110561F58C91E82702C08C91E82B2D
:1027F000EC93941720F12C813D81A20FB31FE92F98
:10280000E41BE83078F00230110521F58E2F9C9101
:1028100090959C932C813D81A20FB31F88508830E6
:10282000B0F7E770EE2359F0F0E0E653FA4FE49189
:1028300001301105F9F010F10230110519F1DF91A5
:10284000CF911F910F91FF90EF900895E0958C919B
:10285000E823CECF81E00115110509F480E08195D0
:102860009E2F8C932C813D81A20FB31F98509830DE
:10287000C0F7D7CF8C91E82BEC93E1CFE0958C910A
:10288000E823FACF8C91E827F7CF0130110509F43E
:10289000ADCFE0F20230110509F4A5CFAE0DBF1D9A
:1028A000AECF0F931F93CF93DF9377FF04C0260F14
:1028B000371F70E060E0DC011496CD91DC91FB01E4
:1028C000E20FF31FCE17DF071CF49E01261B370B08
:1028D000121613064CF5FA0157FD3796A3E0F5954D
:1028E000E795AA95E1F7EC9FD001ED9FB00DFC9F15
:1028F000B00D11246A0F7B1FDC015F96ED91FC91F6
:10290000E60FF71F4770552781E090E001C0880F60
:102910004A95EAF7482F0130110559F0A8F02E0F1B
:102920003F1F02301105E1F0DF91CF911F910F9110
:1029300008952E0F3F1FE217F307B1F38191DF01D6
:102940001197842B8C93F7CF80952E0F3F1FE217A2
:10295000F30751F39191DF01119798239C93F7CFDF
:10296000E217F30709F38191DF01119784278C9314
:10297000F7CF0F931F93FA01DC0156964C915697AF
:102980004230E9F04330A1F1413061F514964D91A8
:102990005C91DA01AE1BBF0BFD01E21BF30B77FD6F
:1029A0000BC0DC0116964D915C916417750724F4F9
:1029B000AB01BF010E9451141F910F91089514960D
:1029C0004D915C91DA01A61BB70BBD0161507109F5
:1029D000DC0116964D915C91DA01AE1BBF0BFD0137
:1029E000E21BF30B77FDE8CFAF010E94A213E4CF07
:1029F00016964D915C91DA01A61BB70BBD01615093
:102A00007109CDCF0F931F93FA01DC0156964C91BB
:102A100056974230A9F0433091F1413019F51496A0
:102A20004D915C91DA01AE1BBF0BFD013197F7FDB3
:102A300004C0AB01BF010E94A2131F910F91089522
:102A400016964D915C91DA01AE1BBF0BFD013197DB
:102A5000DC0114964D915C91DA01A61BB70BBD0108
:102A6000621B730BF7FDE9CFDC0116964D915C916B
:102A7000E417F50714F7AF010E945114DECF169644
:102A80004D915C91DA01A61BB70BBD01621B730B64
:102A9000CECFFC0177FD64C08085918568177907EA
:102AA0000CF05EC057FD5CC08285938548175907BE
:102AB0000CF056C086898230B1F0833029F1813024
:102AC00041F484819581841B950BAB01BC0161505D
:102AD00071092130310509F108F443C02230310574
:102AE00009F463C0089584819581DC01A61BB70BAE
:102AF000BD016150710986819781DC01A41BB50B72
:102B0000AD0141505109E5CF86819781861B970B16
:102B1000BA01AC0141505109DCCFCA0157FD0796FB
:102B2000A3E095958795AA95E1F7A481B5818A9F41
:102B300090018B9F300D9A9F300D1124620F731FEF
:102B4000078CF0A1E02DE60FF71F4770552721E015
:102B500030E001C0220F4A95EAF78081822B808302
:102B60000895CA0157FD079633E0959587953A95E4
:102B7000E1F7A481B5818A9F90018B9F300D9A9FC8
:102B8000300D1124620F731F078CF0A1E02DE60FAA
:102B9000F71F4770552781E090E001C0880F4A95E4
:102BA000EAF7809590818923DACFCA0157FD07960D
:102BB00023E0959587952A95E1F7A481B5818A9FB1
:102BC00090018B9F300D9A9F300D1124620F731F5F
:102BD000078CF0A1E02DE60FF71F4770552721E085
:102BE00030E001C0220F4A95EAF780818227B7CFF3
:102BF00008958EBD00000DB407FEFDCF8EB508957B
:102C0000EF92FF920F931F93CF93DF937C01C62F18
:102C10008091D3039091D403009709F459C0209177
:102C2000D70331E03093BF022093BE021092BD0261
:102C30001092BC02DC01ED91FC910190F081E02D3D
:102C400060E009958701EE24E394F12CD1E0C150B6
:102C50008091D3039091D403CF3F91F1B0E2EB1672
:102C6000F104D8F00E94430D8091D3039091D403D6
:102C70002091D703D093BF022093BE021092BD02D1
:102C80001092BC02DC01ED91FC910190F081E02DED
:102C900060E00995EE24E394F12C8091D3039091A8
:102CA000D403F8016491DC01ED91FC910190F08175
:102CB000E02D0995BFEFEB1AFB0A0F5F1F4FC7CF3F
:102CC000DF91CF911F910F91FF90EF900C94430DE6
:102CD000E091E303F091E40390818091E903809512
:102CE000892380838701C15008F438C0F80184919A
:102CF0002091D1033091D203232B29F00E94F915A2
:102D00000F5F1F4FF0CF28E030E040E8E091DF0395
:102D1000F091E0039091E703582F5423D9F05081AC
:102D2000952B9083E091E103F091E2039081509123
:102D3000E803952B9083E091E103F091E203508149
:102D40009091E80390959523908346952150310901
:102D5000E9F6D6CF508190959523E3CFDF91CF91BF
:102D60001F910F91FF90EF9008951F93CF93DF93E2
:102D7000EC018D8D9E8D009721F1162F29A131E058
:102D80003093BF022093BE021092BD021092BC028B
:102D9000DC01ED91FC910190F081E02D60E009955E
:102DA0008D8D9E8DDC01ED91FC910190F081E02DE7
:102DB000612F09958D8D9E8DDF91CF911F910C9480
:102DC000430DADA5BEA59C918BA9809589238C93BD
:102DD0008B8D9C8D892B31F0862FDF91CF911F91A8
:102DE0000C94F91528E030E080E8A9A5BAA599A9C6
:102DF000462F4823C1F04C91942B9C93ABA5BCA5C6
:102E00009C914AA9942B9C93ABA5BCA54C919AA9E3
:102E1000909594239C9386952150310931F7DF9149
:102E2000CF911F9108954C9190959423E6CF8CBD3E
:102E30009DBD0895CF93C82F8091D3039091D40363
:102E4000892B01F16091EB037091EC038091ED030C
:102E50009091EE030E94A90C6C2F86EB93E00E94E8
:102E6000B5168091D3039091D403892B11F1609111
:102E7000EF037091F0038091F1039091F203CF91F1
:102E80000C94A90C8091D1039091D203892B31F03D
:102E90008091F4039091F5030E941717E091E503E8
:102EA000F091E60390818091EA03809589238083E5
:102EB000D3CFE091E503F091E60380819091EA039E
:102EC000892B8083CF910895DF92EF92FF920F9329
:102ED0001F93CF93DF938091D3039091D403892BD9
:102EE00009F48AC06091EB037091EC038091ED03CB
:102EF0009091EE030E94A90C65E083ED9DE00E9495
:102F000000166091BA03615086EB93E00E94B516FB
:102F10002091BC033091BD03C901079697FD079628
:102F200023E0959587952A95E1F72091BA03309192
:102F3000BB03829F8001839F100D929F100D11246F
:102F4000C091D503D091D6038091D3039091D4033F
:102F50000C0F1D1F009709F480C02091D70331E0AA
:102F60003093BF022093BE021092BD021092BC02A9
:102F7000DC01ED91FC910190F081E02D60E4099578
:102F8000EE24E394F12CDD24D3948091D30390912B
:102F9000D4030C171D0709F446C0B0E2EB16F10488
:102FA000D8F00E94430D8091D3039091D4032091D7
:102FB000D703D092BF022093BE021092BD0210929E
:102FC000BC02DC01ED91FC910190F081E02D60E408
:102FD0000995EE24E394F12C8091D3039091D403CE
:102FE0006991DC01ED91FC910190F081E02D099552
:102FF000BFEFEB1AFB0AC9CF8091D1039091D203A6
:10300000892B31F08091F4039091F5030E941717FA
:10301000E091E503F091E60390818091EA038095C9
:103020008923808369CF0E94430D8091D3039091BF
:10303000D403892B09F452C06091EF037091F0031F
:103040008091F1039091F203DF91CF911F910F9145
:10305000FF90EF90DF900C94A90CE091E303F091C6
:10306000E40380819091E903892B80830C171D076D
:10307000E1F289912091D1033091D203232B19F0F1
:103080000E94F915F3CF28E030E040E8E091DF033B
:10309000F091E0039091E703582F5423D9F0508129
:1030A000952B9083E091E103F091E20390815091A0
:1030B000E803952B9083E091E103F091E2035081C6
:1030C0009091E8039095952390834695215031097E
:1030D000E9F6CCCF508190959523E3CFE091E503BD
:1030E000F091E60380819091EA03892B8083DF9140
:1030F000CF911F910F91FF90EF90DF9008951F9354
:10310000CF93DF93EC01162F8D8D9E8D892BC9F007
:103110006DA97EA98FA998AD0E94A90C66EA11112C
:1031200067EACE010E94B5168D8D9E8D892BC9F060
:1031300069AD7AAD8BAD9CADDF91CF911F910C94B1
:10314000A90C8B8D9C8D892B21F08EAD9FAD0E949B
:103150001717EFA5F8A990818CA980958923808302
:10316000DDCFEFA5F8A980819CA9892B8083DF9111
:10317000CF911F910895089590E080E00895CF9336
:1031800082E00E94BD07892B89F58091B2028111EE
:103190002DC080918102811129C0809194028111FA
:1031A00025C080917F02811121C08091AB028111E5
:1031B0001DC080919502811119C08091B0028111CA
:1031C00015C061E084E00E94E60781E080939602EA
:1031D0008093A0021092A7020E94AD096093A302FF
:1031E0007093A4028093A5029093A60282E00E94AD
:1031F000BD070197D9F4C1E0C0939F0210929602D7
:103200000E94AD0960939B0270939C0280939D0283
:1032100090939E0280919E0181110AC060E084E03B
:103220000E94E6071092A0021092A702CF91089583
:10323000C093A7020E94AD096093A3027093A402F9
:103240008093A5029093A602F1CF0C94B90981E076
:103250008093B1020895609154027091550290E0FC
:1032600080E00E947C3920E030E04AE754E40E948C
:10327000D4386093110170931201809313019093DD
:103280001401609150027091510290E080E00E9420
:103290007C3920E030E04AE754E40E94D43860935F
:1032A000090170930A0180930B0190930C016091C6
:1032B0004E0270914F0290E080E00E947C3920E045
:1032C00030E04AE754E40E94D43860930D017093D3
:1032D0000E0180930F019093100108950E94AD0993
:1032E000609386027093870280938802909389028C
:1032F00080918B02882339F010928B028FEA0E9412
:103300001A170C9464170895109295021092940263
:103310000C946E19CF93DF930E946E19D091A00286
:10332000DD2351F060E084E00E94E60762E370E094
:1033300080E090E00E947B09C091AF02EFEFEC0FBC
:10334000EA3008F03FC0F0E0E855F64E0C94003B40
:10335000B219CE19FA19041A041A041A121A241AE4
:10336000241A261A61E08DE00E94E60761E089E0F8
:103370000E94E60760E088E00E94E60760E087E0E0
:103380000E94E60760E086E00E94E6071092A00235
:1033900081E08093AB02DF91CF91089561E08DE0F1
:1033A0000E94E60761E089E00E94E60760E088E0AD
:1033B0000E94E60760E087E00E94E60760E086E0A2
:1033C0000E94E6078091AC02811104C0C430F1F282
:1033D000C730E1F21092AB02DD23E9F262E370E064
:1033E00080E090E00E947B0961E084E0DF91CF9172
:1033F0000C94E60761E08DE00E94E60760E089E05A
:103400000E94E60761E0D3CF61E08DE00E94E6070D
:1034100060E089E00E94E60760E088E00E94E6073D
:1034200061E0C9CF61E08DE00E94E60760E089E0DD
:103430000E94E60760E088E00E94E60760E087E01F
:103440000E94E60761E0BBCF60E0EDCF60E08DE079
:103450000E94E60760E089E00E94E60760E088E0FD
:103460000E94E60760E087E00E94E60761E08BCFFC
:103470002091BC033091BD03C901079697FD0796C3
:1034800023E0959587952A95E1F72091BA0330912D
:10349000BB03829FA001839F500D929F500D11246A
:1034A00070E060E08091D5039091D6030C94303C9D
:1034B0000E942B3CFB0101900020E9F73197AF01FE
:1034C000461B570BDC01ED91FC910280F381E02D4E
:1034D0000994CF93DF93BC0180EC92E00E94470BEC
:1034E000EC0167E871E080EC92E00E945A1A8C0FC0
:1034F0009D1FDF91CF9108958F929F92AF92BF92BF
:10350000EF92FF920F931F93CF93DF93CDB7DEB768
:10351000A1970FB6F894DEBF0FBECDBF7C01FA01B4
:10352000CB0119A2223008F42AE08E010F5D1F4F53
:10353000822E912CB12CA12CBF01A50194010E94D7
:103540004038F901CA016A300CF5605DD8016E930C
:103550008D01232B242B252B79F790E080E0109709
:1035600021F0BD01C7010E945A1AA1960FB6F89426
:10357000DEBF0FBECDBFDF91CF911F910F91FF90A6
:10358000EF90BF90AF909F908F900895695CDECFD1
:10359000CF92DF92EF92FF92CF93DF936C01990F5E
:1035A000EE08FF08F7FE23C06DE280EC92E00E9477
:1035B000400BEC0144275527BA014C195D096E09EF
:1035C0007F092AE080EC92E00E947C1AC80FD91F84
:1035D00067E871E080EC92E00E945A1A8C0F9D1F00
:1035E000DF91CF91FF90EF90DF90CF9008952AE088
:1035F000B701A60180EC92E00E947C1AEC01E8CFB2
:10360000CF92DF92EF92FF920F931F93CF93DF93AE
:103610006B01770FEE08FF08F7FE1BC0EC016DE2AF
:103620000E94400B8C0144275527BA014C195D09B3
:103630006E097F092AE0CE010E947C1A800F911F3B
:10364000DF91CF911F910F91FF90EF90DF90CF907E
:1036500008952AE0B701A601DF91CF911F910F9144
:10366000FF90EF90DF90CF900C947C1A2F923F92B6
:103670004F925F926F927F928F929F92AF92BF9282
:10368000CF92DF92EF92FF921F93CF93DF93EC01E3
:103690006A017B01722EAB019601CB01B6010E943B
:1036A000E63A6AE871E0811126C046015701E894C4
:1036B000B7F82FEF3FEF4FE75FE7C501B4010E9476
:1036C000E63A81110CC02FEF3FEF4FE75FE7C501EE
:1036D000B4010E94CF386EE871E0181664F02FEF45
:1036E0003FEF4FE75FE4C701B6010E942E3A18167C
:1036F000B4F462E971E0CE01DF91CF911F91FF90A8
:10370000EF90DF90CF90BF90AF909F908F907F9081
:103710006F905F904F903F902F900C945A1A2FEF1C
:103720003FEF4FE75FECC701B6010E94CF3887FD3E
:10373000E0CF20E030E0A901C701B6010E94CF38F8
:10374000312C212C87FF09C06DE2CE010E94400B75
:103750001C01F7FAF094F7F8F09410E060E070E0E4
:1037600080E09FE3711641F020E030E040E251E458
:103770000E94D4381F5FF6CFA70196010E946338DC
:103780002B013C010E944D394B015C012AE0BC0138
:10379000A401CE010E947C1A7C01E20CF31C1123CF
:1037A000C1F1C501B4010E947C399B01AC01C30188
:1037B000B2010E9462384B015C016EE2CE010E94B0
:1037C000400BE80EF91E115020F120E030E040E2FD
:1037D00051E4C501B4010E94333A2B013C010E941F
:1037E0004D394B01B12CA12C2AE0B501A401CE0129
:1037F0000E947C1AE80EF91EC501B4010E947C39B2
:103800009B01AC01C301B2010E9462384B015C0113
:10381000DACFC701DF91CF911F91FF90EF90DF903A
:10382000CF90BF90AF909F908F907F906F905F9060
:103830004F903F902F900895242FAB01BC0186EB51
:1038400093E00C94361B1F93CF93DF93EC01162F5C
:103850000E942A38181739F0612FCE01DF91CF91DD
:103860001F910C943238DF91CF911F910895809170
:10387000520290915302843C944041F560E08EE105
:1038800090E00E94231C60E08FE190E00E94231CE6
:1038900060E082E290E00E94231C60E083E290E01E
:1038A0000E94231C60E086E290E00E94231C60E0FE
:1038B00087E290E00E94231C60E08DE290E00E948D
:1038C000231C60E08EE290E00E94231C65E090E003
:1038D00080E00E94231C63E085E090E00E94231CAE
:1038E00062E089E390E00E94231C61E08AE390E0BB
:1038F0000E94231C61E08BE390E00E94231C61E0A6
:103900008CE390E00E94231C61E08DE390E00E9434
:10391000231C60E08EE390E00E94231C60E08FE3B4
:1039200090E00E94231C62E080E490E00C94231C51
:103930001F93CF93DF93EC01162F672F0E94231C58
:10394000612FCE010196DF91CF911F910C94231C22
:103950000E946E1980919E018A30B8F48F5F809327
:103960009E0160919E0185E090E00E94231CE09101
:103970009E01F0E0EE0FFF1FEF5DFE4F8081918111
:103980009093A2028093A102089510929E01E9CF24
:103990000E946E198091A00281110AC08091A60335
:1039A0009091A7038330910521F483E08093B102C5
:1039B00008958430910581F480911701813041F49C
:1039C00010921701609117018DE390E00C94231C75
:1039D00081E080931701F6CF8530910511F485E0E1
:1039E000E5CF8630910511F486E0E0CF8730910570
:1039F00011F487E0DBCF8830910511F488E0D6CF51
:103A00008930910589F480911601811108C081E007
:103A100080931601609116018CE390E0D7CF81303E
:103A2000C9F710921601F6CF8A30910511F48AE099
:103A3000BDCF0B9709F0BCCF8BE0B8CF0C942A38E0
:103A40001F93CF93DF93C82FD0E0CE010E941E1D9D
:103A5000182FCE0101960E941E1D912FDF91CF914C
:103A60001F910895CF93DF938BE00E94201DEC01FE
:103A700090935502809354028FE00E94201D9093F2
:103A800051028093500281E10E94201D90934F02C9
:103A900080934E02C15DD740CF39DF4050F088E8B7
:103AA00093E1909355028093540280EC95E00E943C
:103AB000691A80915002909151028D5291408B3839
:103AC0009A4050F088EE93E0909351028093500218
:103AD00082EB95E00E94691A80914E0290914F020C
:103AE0008D5291408B389A4060F088EE93E090932D
:103AF0004F0280934E0284EA95E0DF91CF910C94BF
:103B0000691ADF91CF910895EF92FF920F931F935F
:103B1000CF93DF938C017C018FEFE81AF80AC7017D
:103B20000E941E1DC82FC8010E941E1DD82F21965D
:103B30006D2FC8010E94231C6C2FC701DF91CF910C
:103B40001F910F91FF90EF900C94231CEF92FF9226
:103B50000F931F93CF93DF93109238021092370286
:103B600010923A02109239021092310210923202EF
:103B700010923302109234021092740280918000ED
:103B80008091810010928100109280001092850037
:103B90001092840081E086BB10926F008091B0008B
:103BA0008091B1001092B10082E08093B0009CE758
:103BB0009093B30095E090939C0187BB1092B20064
:103BC00021E030E030933602209335029FB7F8941D
:103BD00083BD20919C012093B100809370008BE005
:103BE0008150F1F787E0809381009FBF61E084E01E
:103BF0000E94140860E084E00E94E60762E083E02F
:103C00000E94140860E082E00E94140860E085E0F1
:103C10000E94140861E08CE00E94140860E08CE0CF
:103C20000E94E60761E089E00E94140861E088E0F4
:103C30000E94140861E087E00E94140861E086E0B9
:103C40000E94140861E08DE00E94140861E08AE09F
:103C50000E94140860E08AE00E94E6078091D50384
:103C60009091D603892B39F10E94381A8091BC03B8
:103C70009091BD036091BA037091BB0381329105AD
:103C80000CF06DC2AC014052510957FF02C04F5FAA
:103C90005F4F559547956357710977FF02C06F5F76
:103CA0007F4F7595679510E2E12EF12C03E710E048
:103CB0002AE730E06CC22091BC033091BD03C901FA
:103CC000079697FD079633E0959587953A95E1F726
:103CD0002091BA033091BB03AC01429FC001439FC6
:103CE000900D529F900D11240E94063B9093D60395
:103CF0008093D503892B09F0B7CF0E94381A81E051
:103D000090E09093C9038093C8039093C703809376
:103D1000C60383E00E94BD07892B09F581E08093EB
:103D2000CA038093CB038CE190E09093C30380930C
:103D3000C2039093C5038093C40367E975E086EBE3
:103D400093E00E94470B0E94371C0E94641768EEA4
:103D500073E080E090E00E947B090E94381A90E0B6
:103D600080E00E941E1D8093AE0285E090E00E94DC
:103D70001E1D80939E01E82FF0E0EE0FFF1FEF5D08
:103D8000FE4F808191819093A2028093A10289E3EA
:103D900090E00E941E1D809319018AE390E00E942A
:103DA0001E1D8093AD028BE390E00E941E1D809348
:103DB000AC028CE390E00E941E1D809316018DE3FF
:103DC00090E00E941E1D809317018EE390E00E94F8
:103DD0001E1D8093A9028FE390E00E941E1D809318
:103DE00018018AE50E94201DEC01BC01990F880B87
:103DF000990B0E947E399B01AC010E94E63A811129
:103E0000AAC3C436D1050CF4A6C3D0934D02C09307
:103E10004C0280914C0290914D028D3191401CF0EA
:103E200081E48093150180E490E00E941E1D809340
:103E3000AA02E091D002F091D10282E08083E09169
:103E4000CC02F091CD021082E091CE02F091CF022F
:103E500080E180831092D802E091D402F091D502E3
:103E600086E08083E091D202F091D302808188695C
:103E70008083E091D202F091D30280818F7D808394
:103E80008FEB98E19093010180930001809169008C
:103E90008C7F816080936900E89A85E299E1909334
:103EA00003018093020180916900837F8460809385
:103EB0006900E99A84E899E1909371038093700313
:103EC00088EA9CE190937703809376033091A8036E
:103ED0002091A90388EC9CE190937D0380937C035F
:103EE000832F922F8436910514F484E690E090930A
:103EF000A9038093A80384EF91E090936D038093CE
:103F00006C0387E299E1909383038093820385E0B9
:103F100090E0909369038093680381E080931A0195
:103F200080915E0390916003890F9927991F880FF4
:103F3000991F8D53984F90933C0280933B02809140
:103F40005F0390916103890F9927991F8F519C4FAF
:103F5000880F991F90933E0280933D0280916203E7
:103F600090916403890F9927991F43E0880F991F47
:103F70004A95E1F78452984F9093400280933F0214
:103F80002091630380916503280F3327331F46E098
:103F9000429FC001439F900D11248252984F9093ED
:103FA00042028093410280E50E94201D90934502C9
:103FB0008093440282E50E94201D909347028093E3
:103FC000460284E50E94201D909349028093480296
:103FD00086E50E94201D90934B0280934A028091B7
:103FE000B202E4E4F2E0ABE3B2E02CE432E061914F
:103FF00071914D915D916417750709F081E02E175D
:104000003F07A9F78093B202813069F560E975E056
:1040100080EC92E00E94470BCDE5D3E006E613E08A
:104020008991803130F46EE875E080EC92E00E9476
:10403000470BFE013197408150E070E060E020E1E5
:1040400080EC92E00E947C1A6CE875E080EC92E0D3
:104050000E94470B0C171D0719F767E871E080EC09
:1040600092E00E945A1A82E895E00E94691A86E658
:1040700095E00E94691A6DE575E080EC92E00E947F
:10408000470B80914C0290914D020E94C81A64E542
:1040900075E080EC92E00E94470B8EE495E00E9470
:1040A000691A0E94321D0E942B1982E08093CA0374
:1040B0008093CB038BE090E09093C3038093C20383
:1040C00084E090E09093C5038093C40364E475E0BA
:1040D00086EB93E00E94470B81E08093CA038093B4
:1040E000CB0388E090E09093C3038093C2038CE1FC
:1040F00090E09093C5038093C40360E375E086EB82
:1041000093E00E94470B87E090E09093C303809375
:10411000C2038CE290E09093C5038093C40365E2F0
:1041200075E086EB93E00E94470B60E275E086EB5A
:1041300093E00E94470B6AE175E086EB93E00E94F2
:10414000470B0E94641768EB7BE080E090E0DF9112
:10415000CF911F910F91FF90EF900C947B09AC01D0
:104160004054510957FF02C04F5F5F4F5595479527
:104170006255710977FF02C06F5F7F4F7595679534
:1041800090E4E92EF12C02E510E02AE532E086EB1E
:1041900093E00E94821282E08093D8038091D3033F
:1041A0009091D403892B09F4E0C08CE38093D7036A
:1041B0001092E0011092DF011092BD021092BC0239
:1041C0001092290281E080932B0210922A0261E072
:1041D00082E10E94E60761E083E10E94E6078091A8
:1041E000B9008E7F8093B9008091B9008D7F809354
:1041F000B90088E48093B80085E48093BC008CEB20
:104200009CE090930202809301028DEB9CE09093DE
:104210000602809305028091DE0387FD1EC061E0E7
:104220000E94140861E08091DE030E94E60761E0CD
:1042300070E080E090E00E947B0960E08091DE0306
:104240000E94E6076AE070E080E090E00E947B094F
:1042500061E08091DE030E94E6078091D303909194
:10426000D403892B09F440C16091EB037091EC03F6
:104270008091ED039091EE030E94A90C64E086E723
:1042800090E00E9400166091BC03615086EB93E0C1
:104290000E94B51664E082E790E00E9400168091CB
:1042A000D80360E1813009F064E186EB93E00E947D
:1042B000B51664E08EE690E00E9400168FE88093C9
:1042C000F3038091BA039091BB038038910509F004
:1042D00024C18091BC039091BD038034910509F005
:1042E0002CC18091D803813009F015C18FE98093EA
:1042F000F303C2E16AED86EB93E00E94B5166C2FE2
:1043000086EB93E00E94B51661E886EB93E00E948D
:10431000B5166091F30386EB93E00E94B51669ED44
:1043200086EB93E00E94B5168091D80362E281305B
:1043300009F061EF86EB93E00E94B51666E088E62F
:1043400090E00E9400168091D3039091D403892BB2
:1043500009F4F7C06091EF037091F0038091F103CD
:104360009091F2030E94A90CC8CC61E08091DC031B
:104370000E94140861E08091DD030E94140880917E
:10438000DC03082E000C990BFC01EE51F24FE49176
:10439000F0E0EE0FFF1FEE54F24F25913491309371
:1043A000E4032093E303FC01E750F24FE491E09330
:1043B000E9038091DD03082E000C990BFC01EE51FE
:1043C000F24FE491F0E0EE0FFF1FEE54F24FA59193
:1043D000B491B093E603A093E503FC01E750F24FDC
:1043E000E491E093EA038C91E82BEC938091D10364
:1043F0009091D203892B09F434C0CFB7F8948091FF
:104400009D01811127C0ECEEFDE08491E3E0FEE028
:104410009491E82FF0E0EE0FFF1FE855F24FA591C1
:10442000B491EC91E92321F461E08AE00E94E6076F
:1044300061E08AE00E9414088CB580618CBD8CB567
:1044400080648CBD61E08DE00E94140861E08BE027
:104450000E94140880919D018F5F80939D01CFBFC2
:10446000DACE61E08091DA030E94140861E0809165
:10447000DB030E9414088091DA03082E000C990BCC
:10448000FC01EE51F24FE491F0E0EE0FFF1FEE540D
:10449000F24F259134913093E0032093DF03FC0128
:1044A000E750F24FE491E093E7038091DB03082E9D
:1044B000000C990BFC01EE51F24FE491F0E0EE0F8D
:1044C000FF1FEE54F24FA591B491B093E203A09375
:1044D000E103FC01E750F24FE491E093E8038C9193
:1044E000E095E823EC9397CE8091D1039091D2038D
:1044F000892B31F08091F4039091F5030E941717F6
:10450000E091E503F091E60390818091EA038095C4
:1045100089238083B3CE8FECEACE8036910569F48F
:104520008091BC039091BD03409739F48091D803EA
:10453000813029F480E18093F303C2E0DBCE8FEA7F
:10454000FACFE091E503F091E60380819091EA03D0
:10455000892B8083D2CB86E191E090934D028093AA
:104560004C0257CC1F920F920FB60F9211242F932B
:104570003F938F939F93AF93BF938091B402909199
:10458000B502A091B602B091B7023091B30223E018
:10459000230F2D3768F126E8230F0296A11DB11DC8
:1045A0002093B3028093B4029093B502A093B60215
:1045B000B093B7028091B8029091B902A091BA026B
:1045C000B091BB020196A11DB11D8093B8029093DA
:1045D000B902A093BA02B093BB02BF91AF919F9171
:1045E0008F913F912F910F900FBE0F901F901895B4
:1045F0000196A11DB11DD4CF1F920F920FB60F923D
:1046000011242F933F934F935F936F937F938F93D7
:104610009F93AF93BF93EF93FF93E0910201F091CB
:1046200003010995FF91EF91BF91AF919F918F91F8
:104630007F916F915F914F913F912F910F900FBE9E
:104640000F901F9018951F920F920FB60F92112482
:104650002F933F934F935F936F937F938F939F938A
:10466000AF93BF93EF93FF93E0910001F0910101AD
:104670000995FF91EF91BF91AF919F918F917F919C
:104680006F915F914F913F912F910F900FBE0F90BF
:104690001F9018951F920F920FB60F9211242F930F
:1046A0003F934F935F936F937F938F939F93AF93BA
:1046B000BF93EF93FF9380EC92E00E94E90BFF9190
:1046C000EF91BF91AF919F918F917F916F915F918A
:1046D0004F913F912F910F900FBE0F901F90189503
:1046E0001F920F920FB60F9211242F938F939F93C7
:1046F000EF93FF93E091D002F091D1028081E0919D
:10470000D602F091D70282FD1BC090818091D90220
:104710008F5F8F732091DA02821741F0E091D90206
:10472000F0E0E054FD4F958F8093D902FF91EF9117
:104730009F918F912F910F900FBE0F901F90189502
:104740008081F4CF1F920F920FB60F9211240F9316
:104750001F932F933F934F935F936F937F938F9309
:104760009F93AF93BF932091840030918500B09BBD
:104770000BC081E086BB8091390290913A0201968C
:1047800090933A02809339028091370290913802D7
:10479000019640913502509136028417950708F42E
:1047A00045C01092380210923702809139029091E0
:1047B0003A02B0E0A0E0DC0199278827820F931F1E
:1047C000A11DB11D4091310250913202609133021E
:1047D000709134028C019D01041B150B260B370BC5
:1047E000B901A80140937502509376026093770255
:1047F000709378028093310290933202A093330237
:10480000B093340281E080937402BF91AF919F9185
:104810008F917F916F915F914F913F912F911F9158
:104820000F910F900FBE0F901F9018959093380224
:1048300080933702EACF1F920F920FB60F92112486
:104840002F933F934F935F936F937F938F939F9398
:10485000AF93BF93EF93FF938091B900887F803629
:1048600009F44AC0F0F5883209F4A7C018F5803180
:1048700009F49BC0B8F4882309F405C1883009F411
:1048800094C0FF91EF91BF91AF919F918F917F91D4
:104890006F915F914F913F912F910F900FBE0F90AD
:1048A0001F901895883109F488C0803251F78093A1
:1048B000280214C0803409F4A5C040F48033B9F351
:1048C0008833F9F68093280285ECBCC0803509F462
:1048D00089C0883509F49EC0883499F60E94780C06
:1048E000D0CF883909F494C038F5883729F050F4CE
:1048F000883611F0803729F683E0809329021092E0
:10490000270257C0883809F483C0803919F08038ED
:1049100009F0B7CF80912702803208F079C0E0918A
:10492000270281E08E0F809327028091BB00F0E088
:10493000E95FFD4F80833DC0803B39F0E0F4803A71
:1049400009F485C0883A09F09CCF84E0809329025D
:104950001092040210920302E0910102F09102020F
:1049600009958091030281110FC081E080930302B9
:104970001092E10109C0803C09F4A6CF883C09F4FB
:10498000A3CF883B09F07DCFE091040281E08E0F38
:1049900080930402F0E0EF51FE4F80818093BB00D2
:1049A000909104028091030231C080913002809383
:1049B000BB0085EC8093BC0064CF90912F02809166
:1049C0002E029817B8F580912C0290912D02E0915B
:1049D0002F0221E02E0F20932F02E80FF92FF11D57
:1049E0008081E5CF20912C0230912D02E0912F02A1
:1049F00081E08E0F80932F028091BB00E20FF32F96
:104A0000F11D808390912F0280912E02981788F2D9
:104A100085E8D0CF20912C0230912D02E0912F0219
:104A200081E08E0F80932F028091BB00E20FF32F65
:104A3000F11D808380912B02811150CF81E0809302
:104A40002A0284EA8093BC00109229021ACF85ECD6
:104A50008093BC001092290280912702803230F4AA
:104A6000E0912702F0E0E95FFD4F1082609127029C
:104A700070E0E0910502F091060287E092E009956E
:104A800010922702FECE1092280228CF682F80ECC9
:104A900092E00C940B0CCF93DF93AB01BC0123E0AD
:104AA00080EC92E00E94361BEC0167E871E080EC3C
:104AB00092E00E945A1A8C0F9D1FDF91CF910895AA
:104AC0001092C3021092C20288EE93E0A0E0B0E020
:104AD0008093C4029093C502A093C602B093C7020C
:104AE0002BE331E03093C1022093C00225EC30E08B
:104AF0003093CD022093CC0224EC30E03093CF02EF
:104B00002093CE0220EC30E03093D1022093D002EB
:104B100021EC30E03093D3022093D20222EC30E03B
:104B20003093D5022093D40226EC30E03093D702A4
:104B30002093D6021092D9021092DA021092DB0270
:104B40001092DC021092AD031092AC038093AE037E
:104B50009093AF03A093B003B093B1038DE491E0C1
:104B60009093AB038093AA03ADE5B3E090E080E0BF
:104B700021E2E1E0F0E08630910510F4F0E0E0E0C1
:104B8000AC01425F5F4FE40FF51F20935700E491A3
:104B9000ED9301968930910561F760E08BE00E940A
:104BA0001408E4E0FEE0E491E093F603EDEEFDE0AE
:104BB000E491F0E0EE0FFF1FE852F24F85919491DF
:104BC0009093F8038093F70310920104109203046A
:104BD00010920204109200041092FF031092FE0340
:104BE0001092FD031092FC031092FB031092FA0343
:104BF0001092F9031092B9031092B80320E830E044
:104C00003093BB032093BA0380E490E09093BD03FC
:104C10008093BC033093BF032093BE039093C103E2
:104C20008093C0031092CC031092C3031092C2036E
:104C30001092C5031092C40381E08093CB0380934C
:104C4000CA032FEF3FEF3093C9032093C80330937B
:104C5000C7032093C6038093CD031092CE03109216
:104C6000D0031092CF038FE591E09093B703809328
:104C7000B6031092D2031092D1038AEA93E0909384
:104C8000D4038093D3031092D6031092D5038FEFF1
:104C90008093DA038093DB038093DC038093DD034E
:104CA0008093DE0380E89AE1A6E0B0E08093EB0316
:104CB0009093EC03A093ED03B093EE0380EA96E8A3
:104CC000A1E0B0E08093EF039093F003A093F10391
:104CD000B093F20380E58093F4031092F50382E32E
:104CE00090E0909369038093680380E991E090934A
:104CF0006B0380936A0380E293E090936D0380934B
:104D00006C0310926F0310926E0310927103109255
:104D10007003109273031092720310927503109235
:104D20007403109277031092760310927903109215
:104D3000780310927B0310927A0310927D031092F5
:104D40007C0310927F0310927E03109281031092D5
:104D500080031092830310928203109285031092B5
:104D60008403109287031092860310928903109295
:104D7000880310928B0310928A0310928D03109275
:104D80008C0310928F0310928E0310929103109255
:104D90009003109293031092920310929503109235
:104DA00094033093970320939603309399032093B1
:104DB000980310929A0310929B0310929C031092F6
:104DC0009D0310929E0310929F031092A0031092D5
:104DD000A1031092A2031092A3031092A4031092B5
:104DE000A5031092A7031092A60381E090E0909390
:104DF000A9038093A80383E090E0909367038093D6
:104E0000660362E00C941408CF93DF93CDB7DEB74E
:104E10006C970FB6F894DEBF0FBECDBF789484B503
:104E2000836084BD85B5836085BD80916E0081609F
:104E300080936E0082E08093810080918100816088
:104E400080938100809180008160809380008091B8
:104E5000B10084608093B1008091B0008160809344
:104E6000B00087E880937A001092C1000E94A61DCE
:104E70009E012B5E3F4F3E8B2D8B332433940E943B
:104E8000B90980EC92E00E94C90B892B09F462C039
:104E900080EC92E00E94A70B8C018F7D83359105F9
:104EA00009F0D1C060915402709155028BE090E0FE
:104EB0000E94981C60915002709151028FE090E026
:104EC0000E94981C60914E0270914F0281E190E027
:104ED0000E94981C60914C0270914D028AE590E00E
:104EE0000E94981C80910401811130C0609145029C
:104EF00080E590E00E94231C6091440281E590E0EF
:104F00000E94231C6091470282E590E00E94231CCE
:104F10006091460283E590E00E94231C6091490263
:104F200084E590E00E94231C6091480285E590E0B2
:104F30000E94231C60914B0286E590E00E94231C96
:104F400060914A0287E590E00E94231C80ED9BE07F
:104F50000E94691A0E94381A3092CA033092CB0319
:104F60008091B202813009F097C21092C30310926F
:104F7000C20382E090E09093C5038093C40364EA87
:104F80007DE086EB93E00E94470B0DE513E0F6E62B
:104F9000EF2EF3E0FF2ED8018D918D01803130F49A
:104FA00062EA7DE086EB93E00E94470BF8013197BF
:104FB000408150E070E060E020E186EB93E00E94E9
:104FC0007C1A60EA7DE086EB93E00E94470BE016D6
:104FD000F10609F71092C3031092C2038EE190E02C
:104FE0009093C5038093C40364E87DE086EB93E06F
:104FF0000E94470B0E946417809118018130B1F420
:1050000080918B02811112C080918A0281110EC0A1
:105010000E94AD09683B7B408105910510F00C941E
:10502000C73730928B028EEA0E941A1780E090E018
:10503000892B09F424CF0E94D50B882309F41DCFB6
:105040000E9400001ACF8834910579F486E49BE031
:105050000E94691A86E19BE00E94691A8CEE9AE030
:105060000E94691A8AED9AE073CF8934910589F418
:1050700067EC7BE080EC92E00E94470B81E090E0DF
:105080009093570280935602109255021092540248
:1050900061CF8334910559F4A8E0B0E0B093570292
:1050A000A0935602109253021092520253CF8235AF
:1050B000910589F46DEB7BE080EC92E00E94470B58
:1050C000E2E0F0E0F0935702E093560210925102B2
:1050D000109250023FCF8634910589F463EB7BE058
:1050E00080EC92E00E94470B23E030E030935702BF
:1050F0002093560210924F0210924E022BCF84340E
:10510000910589F46FEA7BE080EC92E00E94470B06
:1051100084E090E0909357028093560210924D02E3
:1051200010924C0217CF2091560230915702213035
:10513000310549F5C801C0970A97A8F4C8010E9433
:10514000462520915402309155024AE0429FC00109
:10515000439F900D1124C097080F191F10935502FB
:1051600000935402F7CE0A30110521F00D301105DD
:1051700009F0F0CE8EEA9BE00E94691A1092570265
:1051800010925602E7CE2230310519F5C801C097BA
:105190000A97A8F4C8010E94462520915002309138
:1051A00051024AE0429FC001439F900D1124C097D5
:1051B000080F191F1093510200935002CBCE0A30F2
:1051C000110521F00D30110509F0C4CE8DEA9BE0E8
:1051D000D3CF2330310519F5C801C0970A97A8F439
:1051E000C8010E94462520914E0230914F024AE0AC
:1051F000429FC001439F900D1124C097080F191FB3
:1052000010934F0200934E02A5CE0A30110521F0F3
:105210000D30110509F09ECE8CEA9BE0ADCF243015
:10522000310521F5C801C0970A97B0F4C8010E9462
:10523000462520914C0230914D024AE0429FC00128
:10524000439F900D1124080F191F0053110910934B
:105250004D0200934C027ECE0A30110521F00D3034
:10526000110509F077CE8BEA9BE086CF2830310517
:1052700079F5C801C0970A9798F4209152023091AD
:1052800053024AE0429FC001439F900D1124080F32
:10529000191F0053110910935302009352025ACE62
:1052A0000A30110521F00D30110509F053CE10928E
:1052B0005702109256028091520290915302843C00
:1052C000944009F047CE0E94371C8FE99BE040CE06
:1052D00087349105C9F584E99BE00E94691A0E9410
:1052E000321D0E942B196BE87BE080EC92E00E945B
:1052F000470B6091110170911201809113019091FF
:1053000014010E944B2561E87BE080EC92E00E9452
:10531000470B6091090170910A0180910B019091F6
:105320000C010E944B2567E77BE080EC92E00E9435
:10533000470B60910D0170910E0180910F019091CA
:1053400010010E944B2506CE80359105A1F581E61E
:105350009BE00E94691A8EE10E94201DBC0180EC36
:1053600092E00E94001B6FE57BE080EC92E00E94DF
:10537000470B82E20E94201DBC0180EC92E00E945B
:10538000001B6DE57BE080EC92E00E94470B86E21B
:105390000E94201DBC0180EC92E00E94001B6BE586
:1053A0007BE080EC92E00E94470B8DE20E94201D82
:1053B0000E94C81ACFCD8E349105E9F463E77BE0F3
:1053C00080EC92E00E94470BE9E0F0E0F093570296
:1053D000E093560210924502109244021092470246
:1053E00010924602109249021092480210924B020B
:1053F00010924A02AFCD2930310509F0ABCDC8017A
:10540000C0970A9718F00D32110501F5C8010E94E6
:105410004625E09143020D32110521F4EF5FE09340
:10542000430298CDF0E0EE0FFF1FEC5BFD4F2081B3
:1054300031814AE0429FC001439F900D1124080F23
:10544000191F005311091183008384CD0A301105FF
:1054500021F00D30110509F07DCD82E79BE00E941F
:10546000691A109243021092570210925602E4E415
:10547000F2E0ABE3B2E080E0419151912D913D919A
:105480004217530709F081E02CE432E02E173F0762
:1054900099F7809304015ECD1091B102112309F4B4
:1054A0009FC10E94381A82E08093CA038093CB0385
:1054B0001130E1F460E08AE00E94E6078091B002DA
:1054C000811144C01093B0028CE190E09093C3032B
:1054D0008093C20386E190E09093C5038093C40358
:1054E0006DE77DE086EB93E00E94470B8091B1026F
:1054F000833009F054C08091AF028F5F8A3008F08A
:1055000038C08093AF02E091AF02E093AE0281E138
:1055100090E09093C3038093C20386E190E0909360
:10552000C5038093C403E150EB3088F5F0E0E55605
:10553000F54D0C94003BBB2A843087308A308D3087
:1055400090309330963099309C30A530813039F5C9
:105550001092B00282E290E09093C3038093C20362
:1055600086E190E09093C5038093C40367E77DE0F4
:10557000B9CF82E0C6CF8BE090E09093C3038093D5
:10558000C2036DE67DE086EB93E00E94470B6091DD
:10559000AF0290E080E00E94231C0E948A19809153
:1055A000B102853059F5809119018F5F853008F07F
:1055B000CFC5809319016091190189E390E00E94A1
:1055C000231C24E030E03093C3032093C20386E120
:1055D00090E09093C5038093C403809119018130BA
:1055E00009F0B9C589E090E09093C3038093C203AA
:1055F0006AE07DE086EB93E00E94470B8091B10268
:10560000863011F58091AD028111B5C53092AD02A1
:105610006091AD028AE390E00E94231C8091AD026C
:105620008111AFC5A9E0B0E0B093C303A093C2035A
:1056300086E190E09093C5038093C40360EE7CE024
:1056400086EB93E00E94470B8091B102873079F599
:105650008091AC028111A4C53092AC026091AC0281
:105660008BE390E00E94231C9091AC028091AB02EE
:10567000913009F09BC5813041F48091AF028430B4
:1056800011F0873011F41092AB0288E190E0909312
:10569000C3038093C20381E190E09093C50380939C
:1056A000C40366EC7CE086EB93E00E94470B80919C
:1056B000B102883071F58091AA02882309F48FC560
:1056C00081508093AA026091AA0280E490E00E9437
:1056D000231C8EE090E09093C3038093C20386E185
:1056E00090E09093C5038093C4038091AA026EEA70
:1056F0007CE0882351F065EA7CE0813031F0109243
:10570000C3031092C2036AE97CE086EB93E00E9437
:10571000470B8091B1028A3071F58091A9028230E5
:1057200008F05FC58F5F8093A90284E290E09093B8
:10573000C3038093C20386E190E09093C5038093F6
:10574000C40366E97CE086EB93E00E94470B40913E
:10575000A90250E070E060E02AE086EB93E00E944E
:105760007C1A8DE290E00E94841D6091A9028EE374
:1057700090E00E94231C8091B1028B30E9F41092DA
:10578000C3031092C20381E190E09093C50380931C
:10579000C40380911801813009F038C510921801B6
:1057A0006AE77CE086EB93E00E94470B609118016A
:1057B0008FE390E00E94231C60E08AE00E94E607ED
:1057C0000E94641768EE73E080E090E00E947B091D
:1057D0000E94381A3092CA033092CB031092B10261
:1057E0008091AF028650823008F015C58091B002DA
:1057F000811111C53092A80286E590E09093C30311
:105800008093C20387E290E09093C5038093C40322
:105810008091AA0264E67CE0882321F0823031F492
:1058200062E67CE086EB93E00E94470B80911701D3
:1058300081110FC0E6E0EE2EF12C08E010E02CE51F
:105840003CE048E250E062E070E086EB93E00E94CA
:1058500082128091A902882391F08CE090E09093CD
:10586000C3038093C20387E290E09093C5038093C3
:10587000C4036AE57CE086EB93E00E94470B8091CD
:105880001601813091F48CE590E09093C3038093EE
:10589000C20387E290E09093C5038093C40368E558
:1058A0007CE086EB93E00E94470B8091A70288235F
:1058B000C9F10E94AD090091A3021091A4022091A8
:1058C000A5023091A602601771078207930751F471
:1058D0000E94AD096093A3027093A4028093A50275
:1058E0009093A6020E94AD092091A3023091A402D8
:1058F000621B730B8091A1029091A2028897681796
:10590000790784F01092A0021092A7021092A302CD
:105910001092A4021092A5021092A60260E084E008
:105920000E94E60780919F02882389F10E94AD09B9
:1059300000919B0210919C0220919D0230919E0249
:10594000601B710B820B930B60327E4481059105C5
:10595000F0F020E030E048E052E46091970270916E
:1059600098028091990290919A020E94CF3887FF05
:105970000EC010929F0210929B0210929C021092F5
:105980009D0210929E0260E08CE00E94E6078091EA
:105990001601813019F58091960281111FC0809106
:1059A0009502813021F0809194028130B9F40E94F7
:1059B000AD0900919B0210919C0220919D023091B3
:1059C0009E02601B710B820B930B683B7B40810531
:1059D000910520F010929502109294028091A002FD
:1059E0008823F9F082E08093CA038093CB0386E694
:1059F00090E09093C3038093C20384E090E090937F
:105A0000C5038093C40365E57CE086EB93E00E94C8
:105A1000470B61E08CE00E94E6073092CA033092A7
:105A2000CB038091B002813091F489E690E09093AD
:105A3000C3038093C20387E090E09093C5038093F3
:105A4000C40361E57CE086EB93E00E94470B809104
:105A5000AB028130B1F48091B002811112C089E6AD
:105A600090E09093C3038093C20387E090E090930B
:105A7000C5038093C4036DE47CE086EB93E00E9451
:105A8000470B7E019BE0E90EF11C8E010F5F1F4F5B
:105A9000570168018FE00E945008D7018D939D93B4
:105AA0007D018EE00E945008F801819391938F014F
:105AB00062E070E080E090E00E947B092D893E89E1
:105AC0002E153F0539F7C5010E9434077C01C60138
:105AD0000E9434078C014090110150901201609097
