:100000000C94E1040C9439140C9412140C9409050A
:100010000C9409050C9409050C9409050C94E3153E
:100020000C9409050C9409050C9409050C94090518
:100030000C9409050C9409050C9409050C94090508
:100040000C94C8130C9409050C9486140C94601439
:100050000C9409050C9409050C9409050C940905E8
:100060000C94B8140C9409054D414E550059414566
:1000700053550058494547550049434F4D0053617A
:10008000766520262045786974004469732E2050D7
:10009000726F742E00446973706C617920536C65C3
:1000A000657000412E522E43005065616B20486FF1
:1000B0006C6400426565700042616E64204D6F643F
:1000C0006500426B696E0036306D00366D00313070
:1000D0006D0031326D0031356D0031376D003230D9
:1000E0006D0033306D0034306D0038306D003136C6
:1000F000306D0000000000003E5B4F5B3E3E6B4FEA
:100100006B3E1C3E7C3E1C183C7E3C181C577D57A9
:100110001C1C5E7F5E1C00183C1800FFE7C3E7FF55
:100120000018241800FFE7DBE7FF30483A060E26E8
:1001300029792926407F050507407F05253F5A3C40
:10014000E73C5A7F3E1C1C08081C1C3E7F14227F83
:1001500022145F5F005F5F06097F017F006689955B
:100160006A606060606094A2FFA29408047E040844
:1001700010207E201008082A1C08081C2A08081EC7
:10018000101010100C1E0C1E0C30383E3830060EAD
:100190003E0E06000000000000005F0000000700A7
:1001A0000700147F147F14242A7F2A122313086463
:1001B0006236495620500008070300001C22410007
:1001C0000041221C002A1C7F1C2A08083E08080047
:1001D00080703000080808080800006060002010E7
:1001E0000804023E5149453E00427F4000724949A1
:1001F00049462141494D331814127F102745454582
:10020000393C4A49493141211109073649494936A2
:10021000464949291E000014000000403400000037
:100220000814224114141414140041221408020169
:100230005909063E415D594E7C1211127C7F494995
:1002400049363E414141227F4141413E7F49494932
:10025000417F090909013E414151737F0808087F28
:1002600000417F41002040413F017F081422417F2F
:10027000404040407F021C027F7F0408107F3E41C7
:1002800041413E7F090909063E4151215E7F09191E
:100290002946264949493203017F01033F40404036
:1002A0003F1F2040201F3F4038403F631408146325
:1002B00003047804036159494D43007F41414102E1
:1002C00004081020004141417F0402010204404023
:1002D000404040000307080020545478407F2844E1
:1002E00044383844444428384444287F38545454CB
:1002F0001800087E090218A4A49C787F08040478DA
:1003000000447D40002040403D007F102844000014
:10031000417F40007C047804787C080404783844E9
:10032000444438FC1824241818242418FC7C08049D
:100330000408485454542404043F44243C404020BE
:100340007C1C2040201C3C4030403C442810284469
:100350004C9090907C4464544C440008364100001A
:1003600000770000004136080002010204023C262A
:1003700023263C1EA1A161123A4040207A385454F1
:100380005559215555794122545478422155547874
:100390004020545579400C1E52721239555555590A
:1003A000395454545939555454580000457C41002F
:1003B00002457D420001457C407D1211127DF028EE
:1003C0002528F07C545545002054547C547C0A095F
:1003D0007F4932494949323A4444443A324A4848CA
:1003E000303A4141217A3A42402078009DA0A07DD8
:1003F0003D4242423D3D4040403D3C24FF24244894
:100400007E4943662B2FFC2F2BFF0929F620C0883D
:100410007E090320545479410000447D413048480E
:100420004A32384040227A007A0A0A727D0D193128
:100430007D2629292F28262929292630484D402084
:10044000380808080808080808382F10C8ACBA2F60
:10045000102834FA00007B000008142A1422221409
:100460002A14085500550055AA55AA55AAFF55FF4C
:1004700055FF000000FF00101010FF00141414FFBF
:10048000001010FF00FF1010F010F0141414FC0006
:100490001414F700FF0000FF00FF1414F404FC1410
:1004A0001417101F10101F101F1414141F00101009
:1004B00010F0000000001F101010101F101010107E
:1004C000F010000000FF101010101010101010FF9E
:1004D00010000000FF140000FF00FF00001F1017B5
:1004E0000000FC04F414141710171414F404F4009E
:1004F00000FF00F714141414141414F700F7141464
:1005000014171410101F101F141414F4141010F0EA
:1005100010F000001F101F0000001F14000000FC5E
:10052000140000F010F01010FF10FF141414FF144A
:100530001010101F00000000F010FFFFFFFFFFF081
:10054000F0F0F0F0FFFFFF0000000000FFFF0F0FD2
:100550000F0F0F3844443844FC4A4A4A347E0202A2
:100560000606027E027E0263554941633844443CDC
:1005700004407E201E2006027E020299A5E7A5996E
:100580001C2A492A1C4C7201724C304A4D4D3030A5
:1005900048784830BC625A463D3E494949007E0190
:1005A00001017E2A2A2A2A2A44445F444440514AAF
:1005B000444040444A51400000FF0103E080FF00F6
:1005C0000008086B6B083612362436060F090F0632
:1005D000000018180000001010003040FF0101005A
:1005E0001F01011E00191D1712003C3C3C3C00007D
:1005F000000000C307C207DC07DE0702020806018D
:100600000302040507060856667764436F7272207A
:10061000657272210056726576436F727220657240
:1006200072210041524546206572722100AED5808C
:10063000A81FD300408D102002A1C8DA02819FD9E3
:1006400022DB40A4A6AFAED580A83FD300408D10DA
:100650002002A1C8DA12819FD922DB40A4A6AFAE46
:10066000D580A81FD300408D142002A1C8DA0281D2
:10067000CFD9F1DB40A4A6AFAED580A83FD30040D0
:100680008D142000A1C8DA1281CFD9F1DB40A4A6D5
:10069000AF332E302E32005665723A0062793A63DB
:1006A00073717764792000332E352D32382E354D15
:1006B000487A20353057204D4158004D6963726F9C
:1006C0005041353000332E302E3200536F66745651
:1006D00065723A00486172645665723A003230328F
:1006E000322D3230323620436F7079726967687408
:1006F0002040637371776479004D6963726F504174
:1007000035300020003000555549443A20005265EC
:1007100073742044656661756C7400203A20532020
:10072000202C5361766573206461746100203A2047
:100730004E202E2E202C73657420534E2C45583A93
:10074000204E20313233342D323334352D3334358D
:10075000362D3435363700203A2049202E2E202CD5
:1007600073657420496E74617265662C342C45582B
:100770003A20412034393631206973206172656630
:100780003D342E3936310048656C7020666F72201A
:100790004D6963726F20504135303A002D002D00B5
:1007A0002D0054656D702D5077722D5377722D4446
:1007B00069650000534E3A0056667764436F727263
:1007C0003A0056726576436F72723A00496E7461F0
:1007D0007265663A00476574454550524F4D3A0080
:1007E000436C656172454550524F4D00000000005A
:1007F00048563A0056667764436F72723A005672F2
:100800006576436F72723A00496E74617265663A3A
:1008100000736176656420746F20454550524F4DDA
:10082000004F4646004F4E00790073006D0068008F
:100830003A2000C2000020010000D0076400000040
:10084000B8000018010000030001000000B300011F
:100850001A010000010001000000A90001110100BF
:1008600000010001000000A300011E0100000100C2
:10087000010000009500015302000001000100008A
:10088000008A0000630200000200010000007E00F8
:10089000020000000000000000A3122020003E2003
:1008A000002A20002D2D2D2D2053657474696E674C
:1008B00073202D2D2D2D002D2D2D2D005357523A07
:1008C000005057523A0056005600553A00543A002C
:1008D0000000EE00EA00E600E200DE00DA00D600EA
:1008E000D200CE00CB00C700696569696969696992
:1008F00069696B69424B494E004D487A2000465267
:10090000513A00592D535500582D47550049434F32
:100910004D004155544F004D414E55004259500035
:100920004F46460054580041004E001035F2F23553
:100930001065006F00506C6561736520636F6E74A5
:1009400061637420746865206D65726368616E749C
:10095000002000300049443A000000000024002735
:10096000002A0000000000250028002B00000000E5
:100970000900030200000405080000000000000058
:10098000000000002200FF210000000023002600DC
:100990002900040404040404040402020202020202
:1009A00003030303030302020301020408102040AF
:1009B0008001020408102001020408102040804039
:1009C000761611241FBECFEFD8E0DEBFCDBF11E0F9
:1009D000A0E0B1E0E2E3FCE502C005900D92AA368A
:1009E000B107D9F723E0AAE6B1E001C01D92AB3808
:1009F000B207E1F714E0C1EED4E004C02197FE0194
:100A00000E94CC2CC03ED107C9F70E949F170C94BE
:100A1000172E0C940000AF92BF92CF92DF92EF920C
:100A2000FF920F931F93CF93DF9364E070E050E049
:100A300040E0DB01AA0FBB1FA80FB91FAD90BC900F
:100A40001197EA01CC0FDD1FC80FD91F8A019A0147
:100A5000F901EE0FFF1FE80FF91FE080F180061784
:100A6000170784F4C990D990AC14BD0444F0D18226
:100A7000C082FE013297F182E0822F5F3F4F0F5F0D
:100A80001F4FE6CFCD91DC911197D183C083ED92BA
:100A9000FC922230310569F480819181DF91CF9100
:100AA0001F910F91FF90EF90DF90CF90BF90AF908C
:100AB00008952230310554F4A9014F5F5F4F641748
:100AC00075070CF0B6CF8FEF9FEFE8CFB9016150FB
:100AD0007109F5CF843081F028F48230E9F0833059
:100AE000F9F00895883071F0893091F08530B9F4CB
:100AF000809180008F7D03C0809180008F778093EC
:100B0000800008958091B0008F778093B0000895A1
:100B10008091B0008F7DF9CF84B58F7784BD089523
:100B200084B58F7DFBCFCF93DF93282F30E0F90181
:100B3000E359F64F8491F901E755F64FD491F90145
:100B4000EE56F64FC491CC23A1F081110E946A05A4
:100B5000EC2FF0E0EE0FFF1FE857F64FA591B49190
:100B6000EC91ED2381E090E009F480E0DF91CF91FA
:100B7000089580E090E0FACF1F93CF93DF93282F62
:100B800030E0F901E359F64F8491F901E755F64F4A
:100B9000D491F901EE56F64FC491CC23A9F0162F4B
:100BA00081110E946A05EC2FF0E0EE0FFF1FED5956
:100BB000F64FA591B4918FB7F894EC91111108C03C
:100BC000D095DE23DC938FBFDF91CF911F910895E5
:100BD000DE2BF8CFCF93DF9390E0FC01E755F64F83
:100BE00024918E56964FFC0184918823C9F090E0A1
:100BF000880F991FFC01E75AF64FA591B491FC01AB
:100C0000ED59F64FC591D49161110DC09FB7F8947D
:100C10008C91209582238C938881282328839FBFE1
:100C2000DF91CF910895623051F49FB7F8943C91D1
:100C3000822F809583238C93E8812E2BEFCF8FB763
:100C4000F894EC912E2B2C938FBFEACF20912201A8
:100C500090E4299F900111248E50822B80937C0078
:100C600080917A00806480937A0080917A0086FD7A
:100C7000FCCF80917800909179000895880F991F9A
:100C8000880F991F05970197F1F70895CF92DF928A
:100C9000EF92FF920F931F93CF93DF9388E0E82E9C
:100CA000F12C00E0DD24D39410917903C0917A03F4
:100CB000D0917B03F8948981812B89838A81C12E0D
:100CC000C0948C218A8383E090E00E943E06898153
:100CD0008C2189838AE090E00E943E068881182357
:100CE000789485E390E00E943E0611110D29DD0CF9
:100CF00081E0E81AF108C1F6802FDF91CF911F91B2
:100D00000F91FF90EF90DF90CF900895CF92DF92F8
:100D1000EF92FF920F931F93CF93DF93C82ED62E9F
:100D200088E0E82EF12C01E010917903C0917A035C
:100D3000D0917B03912F90958C2D8023B1F1F89465
:100D40008A8189238A838981812B89838AE090E043
:100D50000E943E068A81182B1A83789487E390E0DC
:100D60000E943E06000F81E0E81AF108E9F6D11072
:100D700013C0F894E0917A03F0917B039181809104
:100D80007903809598239183E0917A03F0917B0316
:100D90009281892382837894DF91CF911F910F9163
:100DA000FF90EF90DF90CF900895F8948A81892387
:100DB0008A838981812B898381E490E00E943E06A9
:100DC0008A81182B1A83789485E090E0C9CFFF922E
:100DD0000F931F93CF93DF9310917903C0917A0300
:100DE000D0917B03F8948981012F0095802389831A
:100DF00078948DE7F82EFA94FF2061F182E090E07C
:100E00000E943E0688818123B1F3F8948A81802371
:100E10008A838981812B8983789480EE91E00E9476
:100E20003E06F89489818023898386E490E00E94BD
:100E30003E0688811823C1E009F0C0E078948AE971
:100E400091E00E943E068C2FDF91CF911F910F9170
:100E5000FF900895C0E0F7CF3FB7F89480918102EA
:100E600090918202A0918302B091840226B5A89B42
:100E700005C02F3F19F00196A11DB11D3FBFBA2F2C
:100E8000A92F982F8827BC01CD01620F711D811DEC
:100E9000911D42E0660F771F881F991F4A95D1F771
:100EA00008958F929F92AF92BF92CF92DF92EF926E
:100EB000FF924B015C010E942C076B017C010E9498
:100EC0002C076C197D098E099F09683E73408105C6
:100ED0009105A8F321E0821A9108A108B10888EED3
:100EE000C80E83E0D81EE11CF11C81149104A104FA
:100EF000B10429F7FF90EF90DF90CF90BF90AF90B3
:100F00009F908F9008952FB7F89460917D02709113
:100F10007E0280917F02909180022FBF0895CF9230
:100F2000DF92EF92FF920F931F93CF930E9483075C
:100F30006093490370934A0380934B0390934C034F
:100F400080912F030E9493057C010091370310913B
:100F50003803C1E08017910709F0C0E00E948307C1
:100F60006093490370934A0380934B0390934C031F
:100F7000E016F10649F4209131033091320337FF36
:100F800003C021E02093430320914403C2134CC0CB
:100F90000091450310914603209147033091480387
:100FA0006B017C01C01AD10AE20AF30A00913103F5
:100FB0001091320317FF03C0119501951109012EFD
:100FC000000C220B330BC016D106E206F30610F01C
:100FD000C09343034091430300914D0310914E038E
:100FE00020914F03309150036B017C01C01AD10A4C
:100FF000E20AF30A20914103309142032230310585
:1010000009F462C0E4F42115310529F121303105DC
:10101000F1F1109242031092410310925203109288
:1010200051030E94830764C0609345037093460395
:101030008093470390934803C0934403CBCF23305E
:10104000310509F44DC02630310519F7411117C09B
:1010500087E090E034C0442391F021E030E0309309
:1010600042032093410360934D0370934E0380939A
:101070004F03909350031092520310925103CF915B
:101080001F910F91FF90EF90DF90CF90089522E095
:1010900030E0442349F18091350390913603B0E06C
:1010A000A0E08C159D05AE05BF0548F7E0913F0314
:1010B000F0914003309709F0099586E090E0909315
:1010C000420380934103DBCF8091510390915203FF
:1010D0000196909352038093510383E090E0EFCF09
:1010E000442379F021E030E0309342032093410320
:1010F00060934D0370934E0380934F03909350037E
:10110000BECF80915103909152034091330350918F
:10111000340370E060E0C416D506E606F70640F436
:1011200020915303309154032817390709F0A7CFB2
:10113000E0913903F0913A038130910551F0E0914B
:101140003B03F0913C03029721F0E0913D03F091C5
:101150003E03309709F45DCF09955BCFCF9382E0D2
:101160000E949305892BB9F580911C0190911D0176
:10117000019789F58091680281112DC080917B02D1
:10118000811129C080914802811125C08091690296
:10119000811121C08091460281111DC0809162029F
:1011A000811119C080916A02811115C061E084E04B
:1011B0000E94BC0581E080936B02809375021092BF
:1011C0007A020E948307609376027093770280937D
:1011D00078029093790282E00E9493050197E9F4E6
:1011E000C1E0C093740210926B020E948307609367
:1011F0006C0270936D0280936E0290936F028091E7
:10120000200190912101892B51F460E084E00E943B
:10121000BC051092750210927A02CF910895C09386
:101220007A020E948307609376027093770280931C
:10123000780290937902F1CF089508950895DC0122
:10124000ED91FC910190F081E02D0994EF92FF92D5
:101250000F931F93CF93DF938C017B01D0E0C0E00D
:10126000F701EC0FFD1F6491662361F0D801ED9149
:10127000FC910190F081E02DC8010995892B11F0B6
:101280002196EECFCE01DF91CF911F910F91FF906C
:10129000EF900895AF92BF92CF92DF92EF92FF92BC
:1012A0000F931F93CF93DF936C017B018B01040F8E
:1012B000151FEB015E01AE18BF08C017D10759F02A
:1012C0006991D601ED91FC910190F081E02DC6016C
:1012D0000995892B79F7C501DF91CF911F910F9166
:1012E000FF90EF90DF90CF90BF90AF900895FC01FA
:1012F000538D448D252F30E0842F90E0821B930B7B
:10130000541710F0CF96089501970895FC01918D20
:10131000828D981761F0A28DAE0FBF2FB11D5D9623
:101320008C91928D9F5F9F73928F90E008958FEFC5
:101330009FEF0895FC01918D828D981731F0828D79
:10134000E80FF11D858D90E008958FEF9FEF0895D0
:10135000FC01918D228D892F90E0805C9F4F821B34
:1013600091098F739927089589E892E00E94A8094E
:1013700021E0892B09F420E0822F089580E090E09D
:10138000892B29F00E94B40981110C940000089562
:10139000FC01A48DA80FB92FB11DA35ABF4F2C91EA
:1013A000848D90E001968F739927848FA689B789E1
:1013B0002C93A089B1898C91837080648C93938DD8
:1013C000848D981306C00288F389E02D80818F7D7B
:1013D00080830895EF92FF920F931F93CF93DF9333
:1013E000EC0181E0888F9B8D8C8D98131AC0E88961
:1013F000F989808185FF15C09FB7F894EE89FF8930
:101400006083E889F98980818370806480839FBFCD
:1014100081E090E0DF91CF911F910F91FF90EF90CD
:101420000895F62E0B8D10E00F5F1F4F0F731127DD
:10143000E02E8C8D8E110CC00FB607FCFACFE88918
:10144000F989808185FFF5CFCE010E94C809F1CFCF
:10145000EB8DEC0FFD2FF11DE35AFF4FF0829FB78C
:10146000F8940B8FEA89FB8980818062CFCFCF937C
:10147000DF93EC01888D8823B9F0AA89BB89E889BC
:10148000F9898C9185FD03C0808186FD0DC00FB662
:1014900007FCF7CF8C9185FFF2CF808185FFEDCFE0
:1014A000CE010E94C809E9CFDF91CF91089585ED63
:1014B0008093BC008091BC0084FDFCCF10920B0295
:1014C00008952091D001260F3327331F2132310593
:1014D000ECF420910B02FC0190E080E0243069F0F4
:1014E00082E00895A091D0012191AC0140555E4F5A
:1014F000A40FB52FB11D2C930196861798F38091F8
:10150000D001680F6093D00180E0089581E00895D4
:101510000895E0910D0280910C02E81730F4F0E09C
:10152000E057FE4F808190E008958FEF9FEF089580
:1015300090910D0280910C022FEF3FEF981748F425
:10154000E92FF0E0E057FE4F208130E09F5F90935D
:101550000D02C901089580910C0290910D02891B22
:10156000990B0895CF92DF92EF92FF920F931F9302
:10157000CF93DF937C01CB018A0120918802222343
:1015800089F0EB016B01C40ED51ECC15DD0569F0A9
:101590006991D701ED91FC910190F081E02DC70197
:1015A0000995F3CF642F0E94610AC801DF91CF91A2
:1015B0001F910F91FF90EF90DF90CF900895CF9300
:1015C000DF931F92CDB7DEB7698320918802222373
:1015D000F9F020918502203258F021E030E0FC0142
:1015E0003383228390E080E00F90DF91CF910895C4
:1015F00080918602E82FF0E0E059FE4F99819083B8
:101600008F5F809386028093850281E090E0ECCF2B
:1016100061E0CE0101960E94610AF7CF90918502A8
:1016200081E0913208F043C080910B028111FCCF20
:101630008091870222E020930B0221E020930A028E
:101640002FEF2093F30120E731E03093F501209351
:10165000F4011092F7019093F6011092F801909125
:10166000F801880F892B8093F8018091090281305D
:1016700029F5109209028091F8018093BB008091B6
:10168000BC0083FDF8CF85EC8093BC0080910B02F9
:101690008230E1F38091F3018F3F91F08091F3016B
:1016A000803281F08091F301803371F084E01092F8
:1016B00086021092850210928802089585EEE4CF8A
:1016C00080E0F5CF82E0F3CF83E0F1CF1F93CF939B
:1016D000DF93182FC1E6D3E08C899D892E8931E0F4
:1016E000309388022093870210928602109285021E
:1016F000DC01ED91FC910190F081E02D60E0099515
:101700008C899D89DC01ED91FC910190F081E02DA7
:10171000612F09958C899D89DF91CF911F910C9440
:101720000E0BEF92FF920F931F93CF93DF938C01D9
:10173000F62E80917503909176032091770331E026
:1017400030938802209387021092860210928502BD
:10175000DC01ED91FC910190F081E02D60E00995B4
:10176000E80101E010E0EE24E394FA94809175031F
:1017700090917603BFEFFB1671F100321105D0F0A6
:101780000E940E0B80917503909176032091770350
:10179000E0928802209387021092860210928502BE
:1017A000DC01ED91FC910190F081E02D60E0099564
:1017B00001E010E08091750390917603FE01649141
:1017C000DC01ED91FC910190F081E02D09950F5F16
:1017D0001F4F2196CACFDF91CF911F910F91FF909C
:1017E000EF900C940E0BDF92EF92FF920F931F93EA
:1017F000CF93DF9364E084E899E00E94910B80919D
:101800006503909166038034910509F075C080E20C
:101810000E94660B80916503815E0E94660B209199
:10182000670330916803C901079697FD079623E087
:10183000959587952A95E1F7209165033091660388
:10184000829F7001839FF00C929FF00C11240091F5
:101850007203109173038091750390917603209128
:10186000770331E03093880220938702109286023A
:1018700010928502DC01ED91FC910190F081E02D48
:1018800060E40995E801EC0EFD1E01E010E0DD24A6
:10189000D3948091750390917603EC16FD0699F12F
:1018A00000321105D0F00E940E0B809175039091CB
:1018B000760320917703D0928802209387021092BA
:1018C000860210928502DC01ED91FC910190F0817D
:1018D000E02D60E4099501E010E08091750390919E
:1018E00076036991DC01ED91FC910190F081E02D8E
:1018F00009950F5F1F4FCDCF80E00E94660B80914E
:10190000650381508ACFDF91CF911F910F91FF9096
:10191000EF90DF900C940E0B90E09C01220F331F90
:10192000F901E150FA4F5491F901E050FA4F449116
:1019300085509A4FFC0194912D503A4FF9016591D1
:101940007491E52FF0E0EA5DFC4F2081E42FF0E098
:10195000EA5DFC4F8081280F3327331F929FA0013F
:10196000939F500D1124CA01860F971F089560910F
:101970001F027091200290E080E00E94342B20E052
:1019800030E04AE754E40E948C2A6093130170937C
:101990001401809315019093160160911B027091C0
:1019A0001C0290E080E00E94342B20E030E04AE707
:1019B00054E40E948C2A6093090170930A01809379
:1019C0000B0190930C016091190270911A0290E042
:1019D00080E00E94342B20E030E04AE754E40E948B
:1019E0008C2A60930D0170930E0180930F019093E8
:1019F0001001089580912F039091300397FF0C946C
:101A00008F0708950E94830760934D0270934E02E2
:101A100080934F029093500280915102882339F0B5
:101A2000109251028FEA0E94660B0C94F30B0895FA
:101A30000E94020D80916802813009F070C080918F
:101A40000401209122028F3FE9F48091240290E06A
:101A5000019668E0211101C067E070E00E94B82C97
:101A60008093240220912302821718F4809323028A
:101A7000089530E02C5F3F4F281739070CF053C012
:101A80008450F4CF211103C0863008F08F5F2DE021
:101A9000829FC0011124FC01EB5CF74F24912111BE
:101AA00022C0FC01EA5CF74FA591B491FC01E85C0F
:101AB000F74F25913491FC01E65CF74F4591549125
:101AC000FC01E45CF74F859194916D917C911197A5
:101AD000860F971F481759071CF08D939C93089504
:101AE0002D933C9308952491213069F4FC01EA5C24
:101AF000F74FA591B4912D913C91119781E090E021
:101B0000821B930BEACFE491E23069F4FC01E25CC2
:101B1000F74F85919491009731F0FC010994109250
:101B20006A02109269020895CF930E94020DC0913B
:101B30007502CC2351F060E084E00E94BC0562E3B2
:101B400070E080E090E00E945107E0916702E15070
:101B5000EA3008F03EC0F0E0E055F24F0C94CC2C97
:101B6000BA0DD50DF80D020E100E100E1E0E300E11
:101B7000300E420E61E08DE00E94BC0561E089E01C
:101B80000E94BC0560E088E00E94BC0560E087E040
:101B90000E94BC0560E086E00E94BC0510927502C0
:101BA00081E080936202CF91089561E08DE00E9410
:101BB000BC0561E089E00E94BC0560E088E00E940D
:101BC000BC0560E087E00E94BC0560E086E00E9402
:101BD000BC0510926202CC2331F362E370E080E036
:101BE00090E00E94510761E084E0CF910C94BC0525
:101BF00061E08DE00E94BC0560E089E00E94BC05C8
:101C000061E0DCCF61E08DE00E94BC0560E089E02E
:101C10000E94BC0560E088E00E94BC0561E0B7CF8F
:101C200061E08DE00E94BC0560E089E00E94BC0597
:101C300060E088E00E94BC0561E0C4CF61E08DE017
:101C40000E94BC0560E089E00E94BC0560E088E07D
:101C50000E94BC0560E087E00E94BC0561E09BCF6C
:101C600060E08DE00E94BC0560E089E00E94BC0558
:101C700060E088E00E94BC0560E087E00E94BC054F
:101C800061E0A4CF60E0DBCF0E94020D80911A01D9
:101C900090911B01019721F461E08AE00C94BC054E
:101CA0000895CF93DF93E90177FD34C0DC011496EA
:101CB0002D913C9115976217730764F557FD2AC063
:101CC0001696ED91FC914E175F0724F5DA0157FD4A
:101CD0001796E3E0B595A795EA95E1F7A29FF00185
:101CE000A39FF00DB29FF00D11246E0F7F1FDC013A
:101CF0005196ED91FC91E60FF71F30814770552703
:101D000081E090E001C0880F4A95EAF7CD2B29F0D9
:101D1000832B8083DF91CF91089580958323F9CF22
:101D20002F923F924F925F926F927F928F929F92EB
:101D3000AF92BF92CF92DF92EF92FF920F931F93D9
:101D4000CF93DF9300D000D000D0CDB7DEB73C01F9
:101D50006A013E832D83FC82EB825801A41AB50AE6
:101D6000B7FE03C0B194A194B1088D809E80861AFD
:101D7000970A97FE03C09194819491088A149B045A
:101D80005CF0902F812F0D811E819D838E839C2D71
:101D90008D2D6B01692F782F0C151D055CF09D8131
:101DA0008E817E836D83692F782F902F812F8601FE
:101DB000C92ED82E1601201A310A2B012D813E8101
:101DC000421A530A57FE03C05194419451087101BD
:101DD00037FE03C03FEFE31AF30AF594E7948D81D1
:101DE0009E81861797075CF5A1E0B0E0BA83A983CE
:101DF000C016D1064CF1D301ED91FC910084F18520
:101E0000E02D2B813C81A8016D817E818A149B0489
:101E10001CF04D815E81B801C3010995E418F508F5
:101E2000F7FE0AC02D813E8189819A81280F391FD2
:101E30003E832D83E20CF31C0F5F1F4FD9CF2FEF92
:101E40003FEF3A832983D4CF26960FB6F894DEBFAE
:101E50000FBECDBFDF91CF911F910F91FF90EF90FB
:101E6000DF90CF90BF90AF909F908F907F906F90BA
:101E70005F904F903F902F9008954F925F926F9296
:101E80007F928F929F92AF92BF92CF92DF92EF920A
:101E9000FF920F931F93CF93DF935C013A014701A9
:101EA000EB012B01420E531E040F151F680181E048
:101EB000C81AD108C415D50554F4740186019E01D1
:101EC000A301BE01C5010E94900E2196F3CFDF91C0
:101ED000CF911F910F91FF90EF90DF90CF90BF9027
:101EE000AF909F908F907F906F905F904F900895EC
:101EF0006F927F928F929F92AF92BF92CF92DF921A
:101F0000EF92FF920F931F93CF93DF93EC016A3010
:101F1000F1F4198618868C8598E0899F9001112428
:101F20008A859B85820F931F9B878A8781E090E03B
:101F3000DF91CF911F910F91FF90EF90DF90CF90A5
:101F4000BF90AF909F908F907F906F9008956D306D
:101F500069F38C852885398595E0899F200D311D91
:101F600011244C815D812417350764F01986188689
:101F700028E0829FC00111242A853B85820F931F90
:101F80009B878A8735E0639FB0011124D12CC12C37
:101F9000CB018D509F4F3C01F301EC0DFD1DE491F1
:101FA000B12CA12C8E2E912CED84FE842C8568857D
:101FB0007985E0FF44C04A855B85213041F54A0DB3
:101FC0005B1D6C0D7D1DE881F9810084F185E02D9C
:101FD0009701CE010995F401F595E7959FEFA91AB0
:101FE000B90A28E0A216B104E9F63FEFC31AD30AF2
:101FF00085E0C816D10481F62C858885998536E060
:10200000239F800D911D1124998788878FCF30E001
:102010002A9DC0012B9D900D3A9D900D1124480FD3
:10202000591F2C9DC0012D9D900D3C9D900D11249C
:10203000680F791F8901CE010E943D0FCCCF8F859B
:1020400098898E159F0539F24A855B85213059F4B0
:102050004A0D5B1D6C0D7D1DE881F9810084F185C1
:10206000E02D9C01B6CF30E02A9DF0012B9DF00DB4
:102070003A9DF00D11244E0F5F1F2C9DF0012D9DF8
:10208000F00D3C9DF00D11246E0F7F1F7C01D2CF0F
:10209000089590E080E008952091670330916803EF
:1020A000C901079697FD079623E0959587952A9590
:1020B000E1F72091650330916603829FA001839F21
:1020C000500D929F500D112470E060E080917203DA
:1020D000909173030C94102E0E940B2EFB01019023
:1020E0000020E9F73197AF01461B570BDC01ED915A
:1020F000FC910280F381E02D0994CF93DF93BC0122
:1021000089E892E00E942609EC016BE571E089E81C
:1021100092E00E946E108C0F9D1FDF91CF91089569
:102120008F929F92AF92BF92EF92FF920F931F9365
:10213000CF93DF93CDB7DEB7A1970FB6F894DEBF8C
:102140000FBECDBF7C01FA01CB0119A2223008F4E9
:102150002AE08E010F5D1F4F822E912CB12CA12CF5
:10216000BF01A50194010E94F829F901CA016A3052
:102170000CF5605DD8016E938D01232B242B252B4C
:1021800079F790E080E0109721F0BD01C7010E942F
:102190006E10A1960FB6F894DEBF0FBECDBFDF91D3
:1021A000CF911F910F91FF90EF90BF90AF909F90B4
:1021B0008F900895695CDECFCF92DF92EF92FF920D
:1021C0000F931F93CF93DF936B01770FEE08FF08F8
:1021D000F7FE1BC0EC016DE20E941F098C01442731
:1021E0005527BA014C195D096E097F092AE0CE0115
:1021F0000E949010800F911FDF91CF911F910F913E
:10220000FF90EF90DF90CF9008952AE0B701A601EC
:10221000DF91CF911F910F91FF90EF90DF90CF90C2
:102220000C9490102F923F924F925F926F927F92F8
:102230008F929F92AF92BF92CF92DF92EF92FF92D6
:102240001F93CF93DF93EC016A017B01722EAB01E8
:102250009601CB01B6010E949E2C6EE571E08111C2
:1022600026C046015701E894B7F82FEF3FEF4FE73C
:102270005FE7C501B4010E949E2C81110CC02FEFB5
:102280003FEF4FE75FE7C501B4010E94872A62E68E
:1022900071E0181664F02FEF3FEF4FE75FE4C701DE
:1022A000B6010E94E62B1816B4F466E671E0CE0182
:1022B000DF91CF911F91FF90EF90DF90CF90BF9073
:1022C000AF909F908F907F906F905F904F903F90D6
:1022D0002F900C946E102FEF3FEF4FE75FECC7018C
:1022E000B6010E94872A87FDE0CF20E030E0A901F7
:1022F000C701B6010E94872A312C212C87FF09C013
:102300006DE2CE010E941F091C01F7FAF094F7F864
:10231000F09410E060E070E080E09FE3711641F01F
:1023200020E030E040E251E40E948C2A1F5FF6CFAB
:10233000A70196010E941B2A2B013C010E94052B3C
:102340004B015C012AE0BC01A401CE010E94901067
:102350007C01E20CF31C1123C1F1C501B4010E9400
:10236000342B9B01AC01C301B2010E941A2A4B011C
:102370005C016EE2CE010E941F09E80EF91E1150A9
:1023800020F120E030E040E251E4C501B4010E94B8
:10239000EB2B2B013C010E94052B4B01B12CA12CF6
:1023A0002AE0B501A401CE010E949010E80EF91EAA
:1023B000C501B4010E94342B9B01AC01C301B201E1
:1023C0000E941A2A4B015C01DACFC701DF91CF913D
:1023D0001F91FF90EF90DF90CF90BF90AF909F90B4
:1023E0008F907F906F905F904F903F902F900895C7
:1023F000242FAB01BC0181E693E00C9412111F93D2
:10240000CF93DF93EC01162F0E94E229181739F0C1
:10241000612FCE01DF91CF911F910C94EA29DF91BA
:10242000CF911F9108951F93CF93DF93EC01162F47
:10243000672F0E94FF11612FCE010196DF91CF918E
:102440001F910C94FF1180911D0290911E02843CFB
:10245000944041F560E08EE190E00E94FF1160E061
:102460008FE190E00E94FF1160E082E290E00E9424
:10247000FF1160E083E290E00E94FF1160E086E2DD
:1024800090E00E94FF1160E087E290E00E94FF115F
:1024900060E08DE290E00E94FF1160E08EE290E04B
:1024A0000E94FF1165E090E080E00E94FF116CE265
:1024B00071E085E090E00E94131261E089E390E012
:1024C0000E94FF1161E08AE390E00E94FF1161E049
:1024D0008BE390E00E94FF1161E08CE390E00E94AA
:1024E000FF1161E08DE390E00E94FF1160E08EE358
:1024F00090E00E94FF1160E08FE390E00E94FF11E6
:1025000062E080E490E00C94FF110E94020D809143
:102510006B02811117C080916802811113C08091F4
:1025200067028F5F8A3060F4809367026091670270
:102530006093550290E080E00E94FF110C94940D8E
:1025400082E0F2CF089510926802609120017091AC
:10255000210185E090E00E9413126091180189E347
:1025600090E00E94FF11609111018AE390E00E94C7
:10257000FF1160911E018CE390E00E94FF116091B9
:1025800053028FE390E00E94FF1160911A018DE3E6
:1025900090E00E94FF11609163028EE390E00C9442
:1025A000FF110E94020D80916B0281112FC080915A
:1025B00068028130D1F480912402482F50E090913C
:1025C000220226E030E0992311F027E030E04217A4
:1025D000530721F40E94A3128FEF04C090910401CD
:1025E0009F3FD1F780930401089580911C01909141
:1025F0001D01019729F410921D0110921C010895EC
:1026000081E090E090931D0180931C0108950C944B
:10261000E2291F93CF93DF93C82FD0E0CE010E9411
:102620000713182FCE0101960E940713912FDF91F7
:10263000CF911F910895CF93DF938BE00E940913F0
:10264000EC019093200280931F028FE00E940913F7
:1026500090931C0280931B0281E10E9409139093C6
:102660001A0280931902C15DD740CF39DF4050F084
:1026700088E893E19093200280931F0283E296E022
:102680000E947D1080911B0290911C028D529140FE
:102690008B389A4050F088EE93E090931C02809320
:1026A0001B0285E196E00E947D10809119029091B5
:1026B0001A028D5291408B389A4060F088EE93E078
:1026C00090931A028093190287E096E0DF91CF91F0
:1026D0000C947D10DF91CF910895EF92FF920F93AC
:1026E0001F93CF93DF938C017C018FEFE81AF80AD8
:1026F000C7010E940713C82FC8010E940713D82FD3
:1027000021966D2FC8010E94FF116C2FC701DF9128
:10271000CF911F910F91FF90EF900C94FF110E94A9
:10272000020D80917502811132C080915103909108
:10273000520384309105B1F48091680290916B024C
:1027400091110BC0811109C081E080936802109241
:1027500024028FEF8093040108958130C1F40E9418
:10276000A312F7CF0A9799F40E94440E64E670E032
:1027700080E090E00E94510760E08AE00E94BC0582
:102780008DE290E00E946D1381E080932202089513
:102790001F920F920FB60F9211242F933F938F9396
:1027A0009F93AF93BF9380917D0290917E02A09101
:1027B0007F02B091800230917C0223E0230F2D37FD
:1027C00068F126E8230F0296A11DB11D20937C021B
:1027D00080937D0290937E02A0937F02B09380024B
:1027E0008091810290918202A0918302B091840233
:1027F0000196A11DB11D8093810290938202A09346
:102800008302B0938402BF91AF919F918F913F91CA
:102810002F910F900FBE0F901F9018950196A11D3C
:10282000B11DD4CF1F920F920FB60F9211242F9388
:102830003F934F935F936F937F938F939F93AF9348
:10284000BF93EF93FF93E0910201F091030109958B
:10285000FF91EF91BF91AF919F918F917F916F9178
:102860005F914F913F912F910F900FBE0F901F904E
:1028700018951F920F920FB60F9211242F933F932A
:102880004F935F936F937F938F939F93AF93BF9378
:10289000EF93FF93E0910001F09101010995FF9101
:1028A000EF91BF91AF919F918F917F916F915F91C8
:1028B0004F913F912F910F900FBE0F901F90189541
:1028C0001F920F920FB60F9211242F933F934F93A5
:1028D0005F936F937F938F939F93AF93BF93EF9388
:1028E000FF9389E892E00E94C809FF91EF91BF91A0
:1028F000AF919F918F917F916F915F914F913F9198
:102900002F910F900FBE0F901F9018951F920F924E
:102910000FB60F9211242F938F939F93EF93FF93F2
:10292000E0919902F0919A028081E0919F02F091EA
:10293000A00282FD1BC090818091A2028F5F8F73E5
:102940002091A302821741F0E091A202F0E0E75744
:10295000FD4F958F8093A202FF91EF919F918F91F0
:102960002F910F900FBE0F901F9018958081F4CF7C
:102970001F920F920FB60F9211242F933F934F93F4
:102980005F936F937F938F939F93AF93BF93EF93D7
:10299000FF938091B900887F803609F44AC0F0F532
:1029A000883209F4A7C018F5803109F49BC0B8F447
:1029B000882309F405C1883009F494C0FF91EF9190
:1029C000BF91AF919F918F917F916F915F914F9147
:1029D0003F912F910F900FBE0F901F901895883147
:1029E00009F488C0803251F78093F30114C0803419
:1029F00009F4A5C040F48033B9F38833F9F6809325
:102A0000F30185ECBCC0803509F489C0883509F430
:102A10009EC0883499F60E94570AD0CF883909F4AD
:102A200094C038F5883729F050F4883611F0803793
:102A300029F683E080930B021092F20157C0883888
:102A400009F483C0803919F0803809F0B7CF80913C
:102A5000F201803208F079C0E091F20181E08E0F3E
:102A60008093F2018091BB00F0E0EE52FE4F808334
:102A70003DC0803B39F0E0F4803A09F485C0883AE3
:102A800009F09CCF84E080930B021092D101109248
:102A9000D001E0910702F091080209958091D001E0
:102AA00081110FC081E08093D0011092B00109C064
:102AB000803C09F4A6CF883C09F4A3CF883B09F0F9
:102AC0007DCFE091D10181E08E0F8093D101F0E0C4
:102AD000E055FE4F80818093BB009091D1018091A1
:102AE000D00131C08091F8018093BB0085EC8093C8
:102AF000BC0064CF9091F7018091F6019817B8F56A
:102B00008091F4019091F501E091F70121E02E0F01
:102B10002093F701E80FF92FF11D8081E5CF209177
:102B2000F4013091F501E091F70181E08E0F80937F
:102B3000F7018091BB00E20FF32FF11D808390918C
:102B4000F7018091F601981788F285E8D0CF20919F
:102B5000F4013091F501E091F70181E08E0F80934F
:102B6000F7018091BB00E20FF32FF11D808380916C
:102B70000A02811150CF81E08093090284EA809398
:102B8000BC0010920B021ACF85EC8093BC0010920F
:102B90000B028091F201803230F4E091F201F0E01A
:102BA000EE52FE4F10826091F20170E0E09105025A
:102BB000F091060282ED91E009951092F201FECEAD
:102BC0001092F30128CF1F920F920FB60F9211248B
:102BD0000F931F932F933F934F935F936F937F9325
:102BE0008F939F93AF93BF93209184003091850082
:102BF000B09B0BC081E086BB8091010290910202E4
:102C000001969093020280930102809103029091B9
:102C1000040201964091FA015091FB018417950737
:102C200008F445C010920402109203028091010240
:102C300090910202B0E0A0E0DC0199278827820F82
:102C4000931FA11DB11D4091FD015091FE016091A6
:102C5000FF01709100028C019D01041B150B260BD6
:102C6000370BB901A80140935E0250935F02609355
:102C70006002709361028093FD019093FE01A09326
:102C8000FF01B093000281E08093FC01BF91AF91FE
:102C90009F918F917F916F915F914F913F912F9174
:102CA0001F910F910F900FBE0F901F90189590934A
:102CB000040280930302EACF682F89E892E00C9423
:102CC000EA09CF93DF93AB01BC0123E089E892E0EE
:102CD0000E941211EC016BE571E089E892E00E941C
:102CE0006E108C0F9D1FDF91CF91089510928C0272
:102CF00010928B0288EE93E0A0E0B0E080938D020A
:102D000090938E02A0938F02B09390022DE231E057
:102D100030938A022093890225EC30E030939602AA
:102D20002093950224EC30E0309398022093970290
:102D300020EC30E030939A022093990221EC30E0AD
:102D400030939C0220939B0222EC30E030939E0251
:102D500020939D0226EC30E03093A00220939F0246
:102D60001092A2021092A3021092A4021092A50245
:102D700010925803109257038093590390935A036B
:102D8000A0935B03B0935C038FE391E090935603B1
:102D900080935503A6E2B3E090E080E021E2E1E019
:102DA000F0E08630910510F4F0E0E0E0AC01425F25
:102DB0005F4FE40FF51F20935700E491ED930196C8
:102DC0008930910561F760E08BE00E94EA05E4EB51
:102DD000F9E0E491E0937903EDE9F9E0E491F0E0C2
:102DE000EE0FFF1FE857F64F8591949190937B0368
:102DF00080937A03109284031092860310928503C5
:102E00001092830310928203109281031092800328
:102E100010927F0310927E0310927D0310927C0328
:102E2000109264031092630380E890E0909366032D
:102E30008093650380E490E0909368038093670338
:102E400010926C0310926B0310926A031092690344
:102E500081E080936D0381E090E090936F03809315
:102E60006E03109271031092700321E531E03093EC
:102E70006203209361032FEF2093740325E533E071
:102E800030937603209375031092730310927203AC
:102E90002AE030E0309332032093310326E930E01A
:102EA000309334032093330324EF31E0309336031F
:102EB0002093350310923A031092390310923C0389
:102EC00010923B0310923E0310923D031092400378
:102ED00010923F0310924203109241031092430359
:102EE0001092440310924503109246031092470338
:102EF000109248031092490310924A0310924B0318
:102F000010924C0310924D0310924E0310924F03F7
:102F10001092500310925203109251039093540355
:102F20008093530383E090E09093300380932F03CA
:102F3000109238031092370362E00C94EA05CF93A5
:102F4000DF93CDB7DEB76A970FB6F894DEBF0FBE3A
:102F5000CDBF789484B5836084BD85B5836085BD1D
:102F600080916E00816080936E0012E0109381006A
:102F700080918100816080938100809180008160D8
:102F8000809380008091B10084608093B100809133
:102F9000B00081608093B00087E880937A0010923F
:102FA000C1001092040210920302109202021092C9
:102FB00001021092FD011092FE011092FF01109289
:102FC00000021092FC01809180008091810010929B
:102FD000810010928000109285001092840081E0A0
:102FE00086BB10926F008091B0008091B10010926A
:102FF000B1001093B0008CE78093B30085E080931C
:10300000F90117BB1092B20081E090E09093FB01B0
:103010008093FA018FB7F89413BD9091F9019093C2
:10302000B1001093700097E0909381008FBF61E032
:1030300084E00E94EA0560E084E00E94BC0562E052
:1030400083E00E94EA0560E082E00E94EA0560E019
:1030500085E00E94EA0561E08CE00E94EA0560E0FC
:103060008CE00E94BC0561E089E00E94EA0561E015
:1030700088E00E94EA0561E087E00E94EA0561E0DD
:1030800086E00E94EA0561E08DE00E94EA0561E0C9
:103090008AE00E94EA0560E08AE00E94BC058CE3B9
:1030A0008093770310937803809174031816F4F4D7
:1030B00061E00E94EA0561E0809174030E94BC0512
:1030C00061E070E080E090E00E94510760E0809154
:1030D00074030E94BC056AE070E080E090E00E940A
:1030E000510761E0809174030E94BC0510920D02AB
:1030F00010920C02109286021092850210920B021E
:1031000081E080930A021092090261E082E10E944C
:10311000BC0561E083E10E94BC058091B9008E7F0F
:103120008093B9008091B9008D7F8093B90088E4C5
:103130008093B80085E48093BC008CE199E0909383
:103140000802809307028DE199E090930602809334
:10315000050280916703909168038034910509F01E
:1031600097C280917803813009F09CC286E496E092
:1031700069E10E94910B2091670330916803C901B6
:10318000079697FD079633E0959587953A95E1F771
:103190002091650330916603AC01429FC001439FBB
:1031A000900D529F900D11240E94E62C9093730372
:1031B00080937203892B11F00E944C108CE0809355
:1031C000B8000E944C1081E090E090936F038093D0
:1031D0006E03909371038093700383E00E949305C4
:1031E000892BF9F481E080936D038CE190E090935A
:1031F0006A038093690390936C0380936B036EE082
:1032000077E081E693E00E9426090E9423120E9443
:10321000F30B68EE73E080E090E00E9451070E949B
:103220004C1090E080E00E9407138093550285E0E7
:103230000E940913909321018093200189E390E07B
:103240000E94071390E090931901809318018AE37C
:1032500090E00E94071390E0909312018093110177
:103260008CE390E00E94071390E090931F018093FD
:103270001E018DE390E00E94071390E090931B01E4
:1032800080931A018EE390E00E94071390E09093E0
:10329000640280936302892B19F081E080932202FB
:1032A0008FE390E00E94071390E090935402809384
:1032B00053028AE50E9409138C01909318028093AF
:1032C0001702BC01990F880B990B0E94362B9B01AA
:1032D000AC010E949E2C811103C00436110534F408
:1032E00086E191E090931802809317028091170273
:1032F000909118028D3191401CF081E48093170168
:1033000080E490E00E94071380936502E0919902A7
:10331000F0919A0282E08083E0919502F09196020A
:103320001082E0919702F091980280E180831092E0
:10333000A102E0919D02F0919E0286E08083E091DF
:103340009B02F0919C02808188698083E0919B02BE
:10335000F0919C0280818F7D80838EEA98E090932B
:10336000010180930001809169008C7F81608093CE
:103370006900E89A8AEF9CE0909303018093020130
:1033800080916900837F846080936900E99A88E175
:103390009DE090933A038093390385E892E19093FE
:1033A0003C0380933B0330915303209154038FE8F7
:1033B00093E190933E0380933D03832F922F8436B5
:1033C000910514F484E690E09093540380935303A2
:1033D00088E592E0909336038093350381ED92E186
:1033E0009093400380933F038AE090E090933203F0
:1033F0008093310381E08093220110927B0210E0E0
:1034000088E2810F880F0E9409137C01812F0E949E
:103410008C0CE816F90609F44BC181E080937B021D
:1034200080917B02813071F567E077E089E892E076
:103430000E94260906E213E0D8018D918D018031AA
:1034400030F465E077E089E892E00E942609F8010F
:103450003197408150E070E060E020E189E892E03F
:103460000E94901063E077E089E892E00E942609CC
:10347000B3E00F321B0701F76BE571E089E892E0DA
:103480000E946E1089EF96E00E947D108DED96E00F
:103490000E947D1064ED76E089E892E00E942609A2
:1034A000609117027091180289E892E00E94DC1086
:1034B0006BE571E089E892E00E946E106BEC76E0BB
:1034C00089E892E00E94260985EC96E00E947D1032
:1034D0000E941B130E94B70C82E080936D038BE067
:1034E00090E090936A038093690384E090E0909366
:1034F0006C0380936B036BEB76E081E693E00E94B4
:10350000260981E080936D0388E090E090936A0340
:10351000809369038CE190E090936C0380936B033C
:1035200067EA76E081E693E00E94260987E090E072
:1035300090936A03809369038CE290E090936C030C
:1035400080936B036CE976E081E693E00E942609A4
:1035500067E976E081E693E00E94260961E976E07A
:1035600081E693E00E9426090E94F30B68EB7BE062
:1035700080E090E00E945107FE017596FE8BED8B76
:1035800080912F039091300397FF0E948F0789E865
:1035900092E00E94A809892B71F189E892E00E94CB
:1035A00086098C018F7D8335910509F086C0609175
:1035B0001F02709120028BE090E00E941312609134
:1035C0001B0270911C028FE090E00E941312609128
:1035D000190270911A0281E190E00E941312609129
:1035E0001702709118028AE590E00E94131281E19F
:1035F00098E00E947D100E944C10E1E0E0936D0382
:1036000080917B02813009F089C210926A03109286
:10361000690342E050E050936C0340936B0365E50F
:1036200079E081E693E00E94260906E213E0D801E2
:103630008D918D01803130F463E579E081E693E08E
:103640000E942609F8013197408150E070E060E067
:1036500020E181E693E00E94901061E579E081E647
:1036600093E00E942609B3E00F321B0701F7109286
:103670006A03109269038EE190E090936C0380934B
:103680006B0365E379E081E693E00E9426099BC322
:10369000809709F093CD80917803813031F48DE2E9
:1036A00096E066CD88E796E063CD8FE596E060CD45
:1036B0001F5F143009F0A4CEB3CE8834910579F49D
:1036C00087E897E00E947D1087E597E00E947D10D3
:1036D0008DE297E00E947D108BE197E08ACF8934DC
:1036E000910571F468E078E089E892E00E9426098B
:1036F000F1E0F09321021092200210921F027BCF82
:103700008334910541F488E08093210210921E02D7
:1037100010921D0270CF8235910571F46EEF77E043
:1037200089E892E00E94260982E0809321021092AB
:103730001C0210921B025FCF8634910571F464EF76
:1037400077E089E892E00E94260983E080932102D5
:1037500010921A02109219024ECF8434910571F41E
:1037600060EF77E089E892E00E94260984E0809388
:10377000210210921802109217023DCF20912102CF
:10378000213039F5C801C0970A97A8F4C8010E94F2
:103790005C1620911F02309120024AE0429FC00136
:1037A000439F900D1124C097080F191F10932002FA
:1037B00000931F0220CF0A30110521F00D301105B2
:1037C00009F019CF8FEE97E00E947D101092210230
:1037D00012CF223019F5C801C0970A97A8F4C80182
:1037E0000E945C1620911B0230911C024AE0429F0D
:1037F000C001439F900D1124C097080F191F10930B
:103800001C0200931B02F7CE0A30110521F00D3087
:10381000110509F0F0CE8EEE97E0D6CF233019F5E2
:10382000C801C0970A97A8F4C8010E945C162091AD
:10383000190230911A024AE0429FC001439F900D45
:103840001124C097080F191F10931A020093190230
:10385000D2CE0A30110521F00D30110509F0CBCE82
:103860008DEE97E0B1CF243021F5C801C0970A97BB
:10387000B0F4C8010E945C16209117023091180222
:103880004AE0429FC001439F900D1124080F191F69
:10389000005311091093180200931702ACCE0A309E
:1038A000110521F00D30110509F0A5CE8CEE97E041
:1038B0008BCF283069F5C801C0970A9798F42091FA
:1038C0001D0230911E024AE0429FC001439F900DAD
:1038D0001124080F191F0053110910931E020093A1
:1038E0001D0289CE0A30110521F00D30110509F0B5
:1038F00082CE1092210280911D0290911E02843C82
:10390000944009F078CE0E94231280EE97E071CEA9
:1039100087349105C9F585ED97E00E947D100E94DE
:103920001B130E94B70C6CEC77E089E892E00E94D0
:1039300026096091130170911401809115019091F5
:1039400016010E94611662EC77E089E892E00E941D
:1039500026096091090170910A0180910B019091F3
:103960000C010E94611668EB77E089E892E00E9402
:10397000260960910D0170910E0180910F019091C7
:1039800010010E94611637CE80359105E9F582EA73
:1039900097E00E947D108EE10E940913BC0189E826
:1039A00092E00E94DC1060EA77E089E892E00E94F1
:1039B000260982E20E940913BC0189E892E00E9474
:1039C000DC106EE977E089E892E00E94260986E241
:1039D0000E940913BC0189E892E00E94DC106CE9A6
:1039E00077E089E892E00E9426098DE20E9409139F
:1039F000BC0189E892E00E94DC106BE571E089E887
:103A000092E00E946E10F7CD8E349105E1F464EBE4
:103A100077E089E892E00E94260989E080932102FC
:103A200010921602109215021092140210921302B4
:103A300010921202109211021092100210920F02B4
:103A400010920E02D8CD293009F0D5CDC801C0970B
:103A50000A9718F00D321105F9F4C8010E945C169E
:103A6000E0910E020D32110521F4EF5FE0930E029A
:103A7000C2CDF0E0EE0FFF1FE15FFD4F20813181ED
:103A80004AE0429FC001439F900D1124C097080F48
:103A9000191F11830083AFCD0A30110521F00D30BD
:103AA000110509F0A8CD83EB97E00E947D101092DC
:103AB00021020FE012E0F12C8F2D0E948C0CD80116
:103AC0002D913D918D018217930709F0B9CFF394A1
:103AD000B4E0FB12F1CF60910F027091100280E50B
:103AE00090E00E941312609111027091120282E51F
:103AF00090E00E941312609113027091140284E509
:103B000090E00E941312609115027091160286E5F2
:103B100090E00E94131210927B0292CF80917A0261
:103B20008823C9F10E9483070091760210917702E1
:103B3000209178023091790260177107820793070C
:103B400051F40E948307609376027093770280930A
:103B50007802909379020E94830720917602309137
:103B60007702621B730B809120019091210188974D
:103B70006817790784F01092750210927A021092F9
:103B8000760210927702109278021092790260E029
:103B900084E00E94BC0580917402882389F120E0B2
:103BA00030E048E052E460917002709171028091BF
:103BB0007202909173020E94872A87FF21C00E949F
:103BC000830700916C0210916D0220916E0230917A
:103BD0006F02601B710B820B930B60327E44810578
:103BE000910570F01092740210926C0210926D02A6
:103BF00010926E0210926F0260E08CE00E94BC0591
:103C000080916B02811125C080911E0190911F014E
:103C10000197F9F480916A02813021F08091690264
:103C20008130B9F40E94830700916C0210916D02FB
:103C300020916E0230916F02601B710B820B930B0F
:103C4000683B7B408105910520F010926A0210923A
:103C5000690280916802882309F4EBC060E08AE081
:103C60000E94BC050E944C1021E020936D0381E06E
:103C700090E090936F0380936E0390937103809311
:103C800070038AE090E090936A0380936903109236
:103C90006C0310926B0364EA78E081E693E00E9483
:103CA00026098091240220912302821708F075C012
:103CB0008093230203E318E0F12CE12C9AE0C92E53
:103CC00080912202811104C046E0E41609F475C017
:103CD00080912302F81608F46FC02F2D30E0482F92
:103CE00050E04C5F5F4F421753070CF465C01092D1
:103CF0006A031092690351E0581B852F8F0D8C9D2C
:103D0000802D112490E090936C0380936B0380913D
:103D100024026BE978E08F110CC080910401082E19
:103D2000000C990B61EA78E02817390711F06EE969
:103D300078E081E693E00E942609F801659174918C
:103D400081E693E00E942609F8013296D49081E042
:103D50008D1590F160E378E081E693E00E942609FA
:103D6000F8013396A591B491D11059C06C91119678
:103D70007C9191E0E9121CC0E62F062E000CFF0B8F
:103D80006430A8F4EE0FFF1FE85DF74F6591749162
:103D900081E693E00E9426090FC030E02C5F3F4F80
:103DA0008217130609F00CF485CF845081CFBF0130
:103DB00081E693E00E94DC10F394E394035F1F4FCD
:103DC000A8E0EA127DCF0E94F30B809153029091FC
:103DD00054020197B9F480915202811113C080916D
:103DE000510281110FC00E948307683B7B4081050F
:103DF000910510F00C94CB29B1E0B09351028EEAFA
:103E00000E94660B80E090E0892B09F4B9CB0E94F8
:103E1000B409882309F4B4CB0E940000B1CB8D9182
:103E20009C9165E278E0019709F4B2CF61E278E015
:103E3000AFCF80911C0190911D01019709F033C40F
:103E4000809167028650823008F02DC4B1E0B093B3
:103E5000660286E590E090936A038093690387E2A7
:103E600090E090936C0380936B038091650263E311
:103E700079E0882321F0823031F461E379E081E652
:103E800093E00E94260980911A0190911B01892BD1
:103E900051F50BE2C02E09E0D02EB12C08E210E063
:103EA000F12CE12CBB0CE114F10411F4F601B490F7
:103EB000B7FE0AC021E030E0A801B7016E5F7F4F76
:103EC00081E693E00E94510EFFEFEF1AFF0A28E00F
:103ED000E216F10439F70F5F1F4F4FEFC41AD40AEF
:103EE0000E321105E9F68091630290916402892BEC
:103EF00091F08CE090E090936A038093690387E2ED
:103F000090E090936C0380936B0369E279E081E623
:103F100093E00E94260980911E0190911F01019754
:103F200091F48CE590E090936A038093690387E2B3
:103F300090E090936C0380936B0367E279E081E6F5
:103F400093E00E942609809175028823E1F082E0C7
:103F500080936D0386E690E090936A0380936903F3
:103F600084E090E090936C0380936B0364E279E0CB
:103F700081E693E00E94260961E08CE00E94BC0586
:103F800051E050936D0380911C0190911D01892B8C
:103F900091F489E690E090936A038093690387E047
:103FA00090E090936C0380936B0360E279E081E68C
:103FB00093E00E942609809162028130C1F48091D1
:103FC0001C0190911D01019791F489E690E0909376
:103FD0006A038093690387E090E090936C03809379
:103FE0006B036CE179E081E693E00E9426097E0193
:103FF0008BE0E80EF11C8E010F5F1F4F6701580127
:104000008FE00E942606D7018D939D937D018EE05F
:104010000E942606F801819391938F0162E070E07F
:1040200080E090E00E9451074D895E89E416F50614
:1040300039F7C6010E940B056C01C5010E940B05F2
:104040007C018090130190901401A0901501B09014
:104050001601B601DD0C880B990B0E94362BA501C9
:1040600094010E94EB2B20E030EC4FE754E40E94D7
:104070008C2A20E030E040E250E40E94EB2B2B0140
:104080003C012AE037ED43E25CE30E94872A87FF88
:1040900003C0412C512C320120910D0130910E01B1
:1040A00040910F0150911001C301B2010E94EB2B0E
:1040B0006F8B788F898F9A8F9B01AC010E94EB2BBD
:1040C0002BE734E14EE85FE30E94EB2B2B013C0130
:1040D00024E13EEA47E45FE36F89788D898D9A8D0C
:1040E0000E94EB2B9B01AC01C301B2010E941B2A71
:1040F0002B013C012091250230912602409127029C
:10410000509128026F89788D898D9A8D0E94E62BB7
:1041100087FDD3C2B701FF0C880B990B0E94362B89
:10412000A50194010E94EB2B20E030EC4FE754E412
:104130000E948C2A20E030E040E250E40E94EB2B09
:104140006B017C012AE037ED43E25CE30E94872AA1
:1041500087FF03C0C12CD12C760120910901309139
:104160000A0140910B0150910C01C701B6010E9458
:10417000EB2B6B017C01AC019B010E94EB2B2BE72D
:1041800034E14EE85FE30E94EB2B4B015C0124E13C
:104190003EEA47E45FE3C701B6010E94EB2B9B01B7
:1041A000AC01C501B4010E941B2A6B017C012AE00D
:1041B00037ED43E25CE30E94872A87FF03C0C12CEE
:1041C000D12C76012DEC3CEC4CEC5EE3C301B2014A
:1041D0000E94872A812C912CA0E8AA2EAFE3BA2E48
:1041E00087FD44C0A3019201C701B6010E948C2A39
:1041F0000E945E2C6B017C0120E030E040E85FE330
:104200000E941B2A4B015C01A701960160E070E04F
:1042100080E89FE30E941A2A9B01AC01C501B4010A
:104220000E948C2A4B015C0120E030E040E85FE313
:104230000E94872A87FD3AC22DEC3CEC47EC52E401
:10424000C501B4010E94E62B181644F41DEC812E22
:104250001CEC912E17ECA12E12E4B12E80920501D8
:1042600090920601A0920701B09208018F89988D63
:10427000A98DBA8D8093250290932602A0932702E0
:10428000B093280282E080936D03A2E0B0E0B09387
:104290006A03A0936903B0936C03A0936B0361EC72
:1042A00078E081E693E00E9426098091470281111F
:1042B0003DC080911C0190911D01019709F071C0D2
:1042C0008091630290916402892BB1F526E636E66F
:1042D0004CE452E4C301B2010E94E62B87FDF6C113
:1042E0000E94440E809140028F5F8093400287FFBE
:1042F0001DC060E084E00E94BC0510927502B1E030
:10430000B0936A0240923C0250923D0260923E029B
:1043100070923F02B09374020E94830760936C0214
:1043200070936D0280936E0290936F0280911C01D6
:1043300090911D010197A9F580916302909164020B
:10434000892B79F520E030E04CE552E4C301B2015D
:104350000E94E62B87FD25C010916A0260E084E090
:104360000E94BC0510927502111113C0E1E0E093A8
:104370006A02E09374020E94830760936C02709358
:104380006D0280936E0290936F0282E290E00E9431
:104390006D1340923C0250923D0260923E02709238
:1043A0003F02A301920160913C0270913D02809115
:1043B0003E0290913F020E94872A87FF08C04092E8
:1043C0003C0250923D0260923E0270923F02809108
:1043D0006A02813009F08CC1F0914702FF8BFF2304
:1043E00029F1C0903C02D0903D02E0903E02F09056
:1043F0003F0220E030E048EC52E4C701B6010E94E1
:10440000872A87FF0CC020E030E040E251E4C7017A
:10441000B6010E94E62B41E050E087FF02C050E069
:1044200040E0C701B6010E94F8111F8A80911C016B
:1044300090911D012DED34E246ED5FE3019721F0EF
:1044400021E93DEE4CE15FE3C301B2010E94EB2B99
:104450000E94052B22E030E0623038F0262F30E059
:104460002F35310514F02EE530E0EE24E394F12CE5
:1044700002E010E041E150E063E070E081E693E0AB
:104480000E943D0F80911101909112010197A1F5B9
:10449000609138027091390280913A0290913B020A
:1044A00020911C0130911D012130310509F021C2FC
:1044B0002DED34E246ED5FE30E94EB2B20E030E08F
:1044C00040E850E40E941B2A0E94052B663008F445
:1044D00015C270E06F35710514F06EE570E0EE24E2
:1044E000E394F12C02E010E021E030E041E150E003
:1044F00081E693E00E943D0FA2E0B0E0B0936A0332
:10450000A0936903E4E1F0E0F0936C03E0936B03A4
:104510006CEB78E081E693E00E94260910916B0233
:10452000112309F452C0809166028823A9F1809179
:104530006502882309F4E5C1823071F520E030E09E
:1045400040EC5FE3C501B4010E94E62B181624F588
:10455000A5019401C501B4010E94EB2B22E838EAC1
:104560004BE758EB0E94EB2B6B017C012DEC3CECF4
:104570004CEC5DE3C501B4010E94EB2B9B01AC0147
:10458000C701B6010E941B2A2BE734E14EEA5FE324
:104590000E941B2A4B015C0120E030E040E251E424
:1045A000C301B2010E94872A87FFB1C120E030E039
:1045B00040E450E4C501B4010E94E62B87FDA7C189
:1045C000809132028F5F80933202809163029091DA
:1045D000640202976CF5112359F180913202863002
:1045E00038F1109169021092320260E084E00E947A
:1045F000BC0510927502111113C0F1E0F09369022D
:10460000F09374020E94830760936C0270936D02B2
:1046100080936E0290936F0286E290E00E946D1389
:1046200080922E0290922F02A0923002B09231021C
:10463000A501940160912E0270912F0280913002A9
:10464000909131020E94872A87FF08C080922E0233
:1046500090922F02A0923002B092310280916902B2
:10466000813009F073C180914702882309F4BDC1EC
:10467000C0902E02D0902F02E0903002F0903102D4
:1046800020E030E040E251E4C701B6010E94E62B91
:1046900041E050E0181614F042E050E0C701B601C6
:1046A0000E94F811A2C110926602EDCB812C912CD0
:1046B000B0E8AB2EBFE3BB2ED1CD8090050190902A
:1046C0000601A0900701B0900801D0CD20E030E0B5
:1046D0004CE452E4C301B2010E94872A18160CF47C
:1046E0002BCE60E08AE00E94BC05109240021ECEF4
:1046F0008091110190911201009709F05FC04092E2
:1047000038025092390260923A0270923B02409213
:10471000340250923502609236027092370221E0E4
:104720002F8B2DEC3CEC4CE45DE3609134027091F6
:10473000350280913602909137020E94E62B87FF66
:104740000E94020DC0903402D0903502E0903602F3
:10475000F090370220E030E048EC52E4C701B601A7
:104760000E94E62B50E040E087FFC0C020E030E030
:1047700040E251E4C701B6010E94E62B87FD0CC060
:1047800020E030E048EC52E4C701B6010E94872ADD
:1047900041E050E087FDAAC02DEC3CEC4CE45DE329
:1047A000C701B6010E94872A42E050E087FF9EC001
:1047B00060E070E0CB010E94F81138CE019711F053
:1047C0001F8AAFCF209134023091350240913602DA
:1047D00050913702C301B2010E94E62B18166CF506
:1047E00080911C0190911D01892B21F080916B0219
:1047F000882319F1409234025092350260923602B9
:1048000070923702A30192016091380270913902CF
:1048100080913A0290913B020E94872A87FF63C0F1
:10482000409238025092390260923A0270923B02F2
:104830001092330241E04F8B74CF809133028F5F2F
:10484000809333028F3008F4BBCFC0903802D090F1
:104850003902E0903A02F0903B0220E030E040E87C
:104860005FE3C701B6010E941A2A6F8B788F898F88
:104870009A8FA3019201C701B6010E941A2A23E36D
:1048800033E343EB5EE30E94EB2B9B01AC016F89AA
:10489000788D898D9A8D0E941A2A6B017C01A30163
:1048A00092010E94872A18164CF4C0923802D092C6
:1048B0003902E0923A02F0923B0282CF40923802F3
:1048C0005092390260923A0270923B024092340256
:1048D0005092350260923602709237021092330283
:1048E00051E05F8B1ECF81E08F8B1BCFC701B601DC
:1048F00062CF21E93DEE4CE15FE3DECD66E070E0A2
:10490000EECD812C912C50E8A52E5FE3B52E0091C1
:10491000320220E030E040E251E4C301B2010E94E3
:10492000E62B87FD0EC020E030E040E050E4C501FA
:10493000B4010E94E62B87FD04C00F5F0093320292
:1049400044CE002309F441CE0150F8CF80911101EB
:1049500090911201009761F42F89222339F18092FE
:104960002A0290922B02A0922C02B0922D021EC01D
:104970000197E1F4A501940160912A0270912B0244
:1049800080912C0290912D020E94872A87FF2BC3D1
:104990004F89442309F427C380922A0290922B0264
:1049A000A0922C02B0922D021092290220E030E059
:1049B00040E05FE3609134027091350280913602ED
:1049C000909137020E94872A87FD09C08091650275
:1049D000811118C380916602882309F413C367EB21
:1049E00078E081E693E00E94260920E030E040E88C
:1049F0005FE360912A0270912B0280912C029091CA
:104A00002D020E941A2A20E030E048EB51E40E9477
:104A1000EB2B20E030E040E050E40E941B2A0E9493
:104A2000052B02E010E0623038F0062F10E000366F
:104A3000110514F00FE510E02AE037ED43EA5CE3DE
:104A4000609138027091390280913A0290913B0254
:104A50000E94872A87FF02C002E010E0202F30E08A
:104A6000EE24E394F12C02E010E043E250E063E036
:104A700070E081E693E00E943D0F81E080936D033A
:104A800080E10E9426068C01A5E6B0E0B0936A039F
:104A9000A093690384E390E090936C0380936B038D
:104AA00080911801909119018330910509F0B3C2EA
:104AB00067E179E081E693E00E942609312C212C00
:104AC00080915502909167028917D1F0882309F4EB
:104AD00035C4809367026091550290E080E00E94A7
:104AE000FF1180916702813011F08A3039F481E042
:104AF0008093620260E084E00E94BC050E94940DF5
:104B000080914802813069F080916902813049F0DA
:104B100080914602813029F080916A02813009F04B
:104B200016C40E94020D91E0909352020E948307E6
:104B300000914202109143022091440230914502BB
:104B4000601771078207930709F4FBC30E9483076C
:104B50006093420270934302809344029093450213
:104B6000809141028F5F8093410280911A01909160
:104B70001B01019759F480911C0190911D0101972F
:104B800029F48091470261E0811101C060E08AE070
:104B90000E94BC0580914102823048F0109241028F
:104BA000809147028111D0C3A1E0A0934702EE2477
:104BB000E394F12C10E000E02FE730E050E040E01B
:104BC00070E060E081E693E00E94900E0FE310E059
:104BD0002FE730E04FE350E070E060E081E693E0E3
:104BE0000E94900E30E020E050E040E070E060E095
:104BF00081E693E00E94900E2FE730E050E040E025
:104C00006FE770E081E693E00E94900E00E310E011
:104C10002FE730E040E350E070E060E081E693E0B1
:104C20000E94900E0FE310E022E630E050E040E0FA
:104C300062E670E081E693E00E94900E04E110E0ED
:104C40002FE730E044E150E062E670E081E693E077
:104C50000E94900E02E210E02FE730E042E250E0C6
:104C600062E670E081E693E00E94900E0FE310E0B0
:104C700022E330E040E350E062E370E081E693E05D
:104C80000E94900E81E10E942606BC01990F880BBC
:104C9000990B0E94362B2091130130911401409101
:104CA0001501509116010E94EB2B20E030EC4FE7EC
:104CB00054E40E948C2A2DEC3CEC4CE950E40E9418
:104CC000EB2B6B017C0184E090E090936A0380936E
:104CD000690384E390E090936C0380936B036AEC28
:104CE00078E081E693E00E94260920E030E04CE87D
:104CF00051E4C701B6010E94E62B87FF0BC02AE9E9
:104D000039E949E151E4C701B6010E94872A181622
:104D10000CF426C360E084E00E94BC05109275028A
:104D2000B1E0B093460280914702882361F041E0F0
:104D300050E0C701B6010E94F81168EC78E081E606
:104D400093E00E9426090E94E70660E08CEC0E9436
:104D5000860661E084E40E9486060E948307009133
:104D6000490210914A0220914B0230914C02601B83
:104D7000710B820B930B693E73408105910508F41A
:104D800046C00E9483076093490270934A02809351
:104D90004B0290934C020E94E70660E08CEC0E946C
:104DA000860660E08EEB0E9486060E944606182F5B
:104DB0000E944606782F612F072E000C880B990B56
:104DC0000E94362B20E030E040E85DE30E94EB2BB0
:104DD00060937002709371028093720290937302D9
:104DE00020E030E04AEA52E40E94872A81110FC095
:104DF0000E948307603177428105910540F410924B
:104E0000700210927102109272021092730288E383
:104E100090E090936A038093690384E390E0909319
:104E20006C0380936B036DEC78E081E693E00E9465
:104E3000260980917502811118C080917402811138
:104E400014C020E030E048E052E4609170027091BC
:104E5000710280917202909173020E94872A87FFEB
:104E600004C060E08CE00E94BC05C0907002D0904D
:104E70007102E0907202F090730220E030E04CE0AA
:104E800052E4C701B6010E94E62B87FD04C061E031
:104E90008CE00E94BC056091170170E090E080E01A
:104EA0000E94362B9B01AC01C701B6010E94E62B84
:104EB00087FD11C01091480260E084E00E94BC05AB
:104EC000111107C021E0209348028EE190E00E947A
:104ED0006D13109275026091700270917102809151
:104EE00072029091730220914802213021F42091A6
:104EF0004702222321F041E050E00E94F81120E017
:104F000030E040E252E46091700270917102809151
:104F10007202909173020E94872A181614F0109260
:104F2000480244E150E050936A034093690387E2EA
:104F300090E090936C0380936B036EEF78E081E6D2
:104F400093E00E942609B101032C000C880B990BF9
:104F50000E94362B20E030E040E251E40E948C2A8F
:104F600041E050E00E94F81169EF78E081E693E0BB
:104F70000E942609809167029FEF980F9B30D8F41A
:104F800090E0FC01E851F74FE491F0E0F0936A0300
:104F9000E093690326E230E030936C0320936B03C7
:104FA000FC01EE0FFF1FE053F74F6591749181E60E
:104FB00093E00E94260985E690E090936A0380932F
:104FC000690388E190E090936C0380936B03609198
:104FD0002001709121016115710509F0CCC164EFC8
:104FE00078E00C94431B809129028F5F8093290203
:104FF0008A3008F4DBCC5F89552309F4D7CC1092B2
:105000002902ADCCC0902A02D0902B02E0902C0255
:10501000F0902D0235CB0A3011050CF0E7C062E1AB
:1050200079E081E693E00E94260903E010E06091B8
:105030005E0270915F0280916002909161020E9415
:10504000342B2AE037ED43E25EE30E94EB2B6B0149
:105050007C0161E070E080E090E00E9451072091C7
:105060005A0230915B0240915C0250915D02C7018F
:10507000B6010E94E62B181644F4C0925A02D09250
:105080005B02E0925C02F0925D020150110979F638
:1050900003E010E060915E0270915F028091600217
:1050A000909161020E94342B2AE037ED43E25EE3E7
:1050B0000E94EB2B6B017C0161E070E080E090E0EE
:1050C0000E94510720915602309157024091580298
:1050D00050915902C701B6010E94E62B181644F4FC
:1050E000C0925602D0925702E0925802F0925902B2
:1050F0000150110979F680905A0290905B02A090BD
:105100005C02B0905D0220915602309157024091AE
:10511000580250915902C501B4010E94872A811199
:1051200005C0C501B4010E94FE2A1B01C1014097C0
:105130008F3E9140D0F4EFEB2E163104ACF5F1EA3E
:105140002F1631040CF04EC021E52216310434F53F
:1051500043E3241631040CF041C082E05FE12516E0
:105160003104CCF5F1E0F0935502A5019401C7019B
:10517000B6010E94872A87FFA3CC10925A02109290
:105180005B0210925C0210925D0210925602109225
:105190005702109258021092590292CC89E72816B1
:1051A0003104F4F484E017C095E0291691E0390643
:1051B0003CF487E0A7EE2A1631046CF088E00BC0BF
:1051C000BDE22B16B1E03B067CF08AE0EFEF2E1635
:1051D000E1E03E063CF680935502C7CF83E0FBCF6B
:1051E00085E0F9CF86E0F7CF89E0F5CF0097E1F5CC
:1051F0006DE079E081E693E00E9426090E3621E019
:105200001207DCF40A3041E014070CF08BC0053DB6
:1052100011050CF05FC00F3711050CF055C00233BB
:105220001105F4F58AE080935502E1E0E093620213
:1052300060E084E00E94BC0543CC0F3452E01507C7
:105240002CF4063E114074F083E03FC00D3B92E029
:1052500019070CF457C00333134024F7B1E0B0939F
:1052600055022ECC85E031C081309105A9F568E06A
:1052700079E081E693E00E9426090539110594F44E
:10528000013811057CF7053311053CF40F31110588
:10529000CCF50A30110514F7C5CF04361105A4F278
:1052A00084E013C00D3D110544F4033C110584F462
:1052B0000D3A1105BCF586E008C0043F110554F015
:1052C0000C3011400CF0AECF8AE080935502F8CB41
:1052D00088E0FBCF89E0F9CF029709F0F1CB63E0DA
:1052E00079E081E693E00E9426090B3B110584F4E6
:1052F000093911050CF0B6CF053511052CF4023330
:1053000011053CF282E0E1CF073711054CF69CCF46
:10531000023221E0120744F40F3F1105CCF60D3D97
:1053200011054CF287E0D1CF043441E0140794F228
:10533000015612400F39114038F274CF9093550244
:10534000CACB1092410226CC1092470230CC60E0CA
:105350008AE00E94BC05109247021092520227CCAC
:105360001092460241E050E0C701B6010E94F811D8
:1053700066EC78E0E4CC683E93E0790734F489E6A3
:1053800090E090936A038093690381E693E00E9422
:10539000DC100C94E31E0E94830700914D021091D3
:1053A0004E0220914F0230915002601B710B820B14
:1053B000930B60367A4E8105910510F40C94021F10
:1053C0000C94FC1EF999FECF92BD81BDF89A9927E5
:1053D00080B50895262FF999FECF1FBA92BD81BDE1
:1053E00020BD0FB6F894FA9AF99A0FBE0196089567
:1053F000A1E21A2EAA1BBB1BFD010DC0AA1FBB1FD9
:10540000EE1FFF1FA217B307E407F50720F0A21B4A
:10541000B30BE40BF50B661F771F881F991F1A94B7
:1054200069F760957095809590959B01AC01BD01E1
:10543000CF0108955058BB27AA270E94322A0C9406
:10544000AC2B0E949E2B38F00E94A52B20F039F443
:105450009F3F19F426F40C949B2B0EF4E095E7FB88
:105460000C94952BE92F0E94BD2B58F3BA176207B5
:1054700073078407950720F079F4A6F50C94DF2BC9
:105480000EF4E0950B2EBA2FA02D0B01B90190015F
:105490000C01CA01A0011124FF27591B99F0593FA3
:1054A00050F4503E68F11A16F040A22F232F342FEB
:1054B0004427585FF3CF469537952795A795F04039
:1054C0005395C9F77EF41F16BA0B620B730B840B4E
:1054D000BAF09150A1F0FF0FBB1F661F771F881F06
:1054E000C2F70EC0BA0F621F731F841F48F487955E
:1054F00077956795B795F7959E3F08F0B0CF939550
:10550000880F08F09927EE0F9795879508950E94C8
:10551000712B08F481E008950E94A02A0C94AC2B12
:105520000E94A52B58F00E949E2B40F029F45F3F6B
:1055300029F00C94952B51110C94E02B0C949B2B7F
:105540000E94BD2B68F39923B1F3552391F3951B6A
:10555000550BBB27AA2762177307840738F09F5F94
:105560005F4F220F331F441FAA1FA9F335D00E2E01
:105570003AF0E0E832D091505040E695001CCAF76E
:105580002BD0FE2F29D0660F771F881FBB1F261731
:1055900037074807AB07B0E809F0BB0B802DBF0108
:1055A000FF2793585F4F3AF09E3F510578F00C94D7
:1055B000952B0C94E02B5F3FE4F3983ED4F3869553
:1055C00077956795B795F7959F5FC9F7880F911DF8
:1055D0009695879597F90895E1E0660F771F881FE4
:1055E000BB1F621773078407BA0720F0621B730B97
:1055F000840BBA0BEE1F88F7E09508950E94052BE7
:105600006894B1110C94E02B08950E94C52B88F08A
:105610009F5798F0B92F9927B751B0F0E1F0660F76
:10562000771F881F991F1AF0BA95C9F714C0B130B7
:1056300091F00E94DF2BB1E008950C94DF2B672FCF
:10564000782F8827B85F39F0B93FCCF386957795E6
:105650006795B395D9F73EF49095809570956195CF
:105660007F4F8F4F9F4F0895E89409C097FB3EF4FA
:1056700090958095709561957F4F8F4F9F4F99239F
:10568000A9F0F92F96E9BB279395F695879577951D
:105690006795B795F111F8CFFAF4BB0F11F460FFDD
:1056A0001BC06F5F7F4F8F4F9F4F16C0882311F035
:1056B00096E911C0772321F09EE8872F762F05C049
:1056C000662371F096E8862F70E060E02AF09A95E4
:1056D000660F771F881FDAF7880F9695879597F9D9
:1056E0000895990F0008550FAA0BE0E8FEEF161673
:1056F0001706E807F907C0F012161306E407F507C6
:1057000098F0621B730B840B950B39F40A2661F039
:10571000232B242B252B21F408950A2609F4A140DC
:10572000A6958FEF811D811D089597F99F6780E8E9
:1057300070E060E008959FEF80EC089500240A94E3
:105740001616170618060906089500240A9412165C
:105750001306140605060895092E0394000C11F48F
:10576000882352F0BB0F40F4BF2B11F460FF04C03C
:105770006F5F7F4F8F4F9F4F089557FD9058440F95
:10578000551F59F05F3F71F04795880F97FB991FA0
:1057900061F09F3F79F0879508951216130614065D
:1057A000551FF2CF4695F1DF08C0161617061806EA
:1057B000991FF1CF86957105610508940895E894C5
:1057C000BB2766277727CB0197F908950E94712B95
:1057D00008F48FEF08950E94FE2B0C94AC2B0E94CE
:1057E0009E2B38F00E94A52B20F0952311F00C94ED
:1057F000952B0C949B2B11240C94E02B0E94BD2B19
:1058000070F3959FC1F3950F50E0551F629FF00113
:10581000729FBB27F00DB11D639FAA27F00DB11D2C
:10582000AA1F649F6627B00DA11D661F829F2227B5
:10583000B00DA11D621F739FB00DA11D621F839F3C
:10584000A00D611D221F749F3327A00D611D231F12
:10585000849F600D211D822F762F6A2F11249F5760
:1058600050409AF0F1F088234AF0EE0FFF1FBB1F63
:10587000661F771F881F91505040A9F79E3F510522
:1058800080F00C94952B0C94E02B5F3FE4F3983E52
:10589000D4F3869577956795B795F795E7959F5FCC
:1058A000C1F7FE2B880F911D9695879597F908955E
:1058B00019F416F40C949B2B0C94A32C0E94C52B6A
:1058C000B8F39923C9F3B6F39F57550B87FF0E948E
:1058D000B12C0024A0E640EA900180585695979597
:1058E00028F4805C660F771F881F20F02617370783
:1058F000480730F4621B730B840B202931294A2B93
:10590000A69517940794202531254A2758F7660F46
:10591000771F881F20F026173707480730F4620BDF
:10592000730B840B200D311D411DA09581F7B9012A
:10593000842F9158880F9695879508950E94712B12
:10594000880B990B08959F3F31F0915020F4879573
:1059500077956795B795880F911D9695879597F9D7
:10596000089591505040660F771F881FD2F7089511
:1059700097FB072E16F4009407D077FD09D00E94FC
:10598000D22C07FC05D03EF4909581959F4F089549
:10599000709561957F4F0895EE0FFF1F0590F4916C
:1059A000E02D0994AA1BBB1B51E107C0AA1FBB1F16
:1059B000A617B70710F0A61BB70B881F991F5A959B
:1059C000A9F780959095BC01CD0108950F931F9381
:1059D000CF93DF938230910510F482E090E0E09164
:1059E0008903F0918A0330E020E0B0E0A0E0309736
:1059F00099F42115310509F44AC0281B390B2430CC
:105A00003105D8F58A819B816115710589F1FB010A
:105A100093838283FE0111C04081518102811381F1
:105A200048175907E0F04817590799F4109761F0A3
:105A300012960C93129713961C933296CF01DF9116
:105A4000CF911F910F9108950093890310938A03BA
:105A5000F4CF2115310551F04217530738F0A90151
:105A6000DB019A01BD01DF01F801C1CFEF01F9CFE0
:105A700090938A0380938903CDCFFE01E20FF31F39
:105A8000819391932250310939832883D7CF209174
:105A9000870330918803232B41F420912501309115
:105AA00026013093880320938703209123013091AE
:105AB00024012115310541F42DB73EB7409127014E
:105AC00050912801241B350BE0918703F091880346
:105AD000E217F307A0F42E1B3F0B2817390778F0C5
