:100000000C94E1040C9437140C9410140C9409050E
:100010000C9409050C9409050C9409050C94E11540
:100020000C9409050C9409050C9409050C94090518
:100030000C9409050C9409050C9409050C94090508
:100040000C94C6130C9409050C9484140C945E143F
:100050000C9409050C9409050C9409050C940905E8
:100060000C94B6140C9409054D414E550059414568
:1000700053550058494547550049434F4D0053617A
:10008000766520262045786974004469732E2050D7
:10009000726F742E00446973706C617920536C65C3
:1000A000657000412E522E43005065616B20486FF1
:1000B0006C6400426565700042616E64204D6F643F
:1000C0006500426B696E0036306D00366D00313070
:1000D0006D0031326D0031356D0031376D003230D9
:1000E0006D0033306D0034306D0038306D003136C6
:1000F000306D0000000000003E5B4F5B3E3E6B4FEA
:100100006B3E1C3E7C3E1C183C7E3C181C577D57A9
:100110001C1C5E7F5E1C00183C1800FFE7C3E7FF55
:100120000018241800FFE7DBE7FF30483A060E26E8
:1001300029792926407F050507407F05253F5A3C40
:10014000E73C5A7F3E1C1C08081C1C3E7F14227F83
:1001500022145F5F005F5F06097F017F006689955B
:100160006A606060606094A2FFA29408047E040844
:1001700010207E201008082A1C08081C2A08081EC7
:10018000101010100C1E0C1E0C30383E3830060EAD
:100190003E0E06000000000000005F0000000700A7
:1001A0000700147F147F14242A7F2A122313086463
:1001B0006236495620500008070300001C22410007
:1001C0000041221C002A1C7F1C2A08083E08080047
:1001D00080703000080808080800006060002010E7
:1001E0000804023E5149453E00427F4000724949A1
:1001F00049462141494D331814127F102745454582
:10020000393C4A49493141211109073649494936A2
:10021000464949291E000014000000403400000037
:100220000814224114141414140041221408020169
:100230005909063E415D594E7C1211127C7F494995
:1002400049363E414141227F4141413E7F49494932
:10025000417F090909013E414151737F0808087F28
:1002600000417F41002040413F017F081422417F2F
:10027000404040407F021C027F7F0408107F3E41C7
:1002800041413E7F090909063E4151215E7F09191E
:100290002946264949493203017F01033F40404036
:1002A0003F1F2040201F3F4038403F631408146325
:1002B00003047804036159494D43007F41414102E1
:1002C00004081020004141417F0402010204404023
:1002D000404040000307080020545478407F2844E1
:1002E00044383844444428384444287F38545454CB
:1002F0001800087E090218A4A49C787F08040478DA
:1003000000447D40002040403D007F102844000014
:10031000417F40007C047804787C080404783844E9
:10032000444438FC1824241818242418FC7C08049D
:100330000408485454542404043F44243C404020BE
:100340007C1C2040201C3C4030403C442810284469
:100350004C9090907C4464544C440008364100001A
:1003600000770000004136080002010204023C262A
:1003700023263C1EA1A161123A4040207A385454F1
:100380005559215555794122545478422155547874
:100390004020545579400C1E52721239555555590A
:1003A000395454545939555454580000457C41002F
:1003B00002457D420001457C407D1211127DF028EE
:1003C0002528F07C545545002054547C547C0A095F
:1003D0007F4932494949323A4444443A324A4848CA
:1003E000303A4141217A3A42402078009DA0A07DD8
:1003F0003D4242423D3D4040403D3C24FF24244894
:100400007E4943662B2FFC2F2BFF0929F620C0883D
:100410007E090320545479410000447D413048480E
:100420004A32384040227A007A0A0A727D0D193128
:100430007D2629292F28262929292630484D402084
:10044000380808080808080808382F10C8ACBA2F60
:10045000102834FA00007B000008142A1422221409
:100460002A14085500550055AA55AA55AAFF55FF4C
:1004700055FF000000FF00101010FF00141414FFBF
:10048000001010FF00FF1010F010F0141414FC0006
:100490001414F700FF0000FF00FF1414F404FC1410
:1004A0001417101F10101F101F1414141F00101009
:1004B00010F0000000001F101010101F101010107E
:1004C000F010000000FF101010101010101010FF9E
:1004D00010000000FF140000FF00FF00001F1017B5
:1004E0000000FC04F414141710171414F404F4009E
:1004F00000FF00F714141414141414F700F7141464
:1005000014171410101F101F141414F4141010F0EA
:1005100010F000001F101F0000001F14000000FC5E
:10052000140000F010F01010FF10FF141414FF144A
:100530001010101F00000000F010FFFFFFFFFFF081
:10054000F0F0F0F0FFFFFF0000000000FFFF0F0FD2
:100550000F0F0F3844443844FC4A4A4A347E0202A2
:100560000606027E027E0263554941633844443CDC
:1005700004407E201E2006027E020299A5E7A5996E
:100580001C2A492A1C4C7201724C304A4D4D3030A5
:1005900048784830BC625A463D3E494949007E0190
:1005A00001017E2A2A2A2A2A44445F444440514AAF
:1005B000444040444A51400000FF0103E080FF00F6
:1005C0000008086B6B083612362436060F090F0632
:1005D000000018180000001010003040FF0101005A
:1005E0001F01011E00191D1712003C3C3C3C00007D
:1005F000000000C307C207DC07DE0702020806018D
:100600000302040507060856667764436F7272207A
:10061000657272210056726576436F727220657240
:1006200072210041524546206572722100AED5808C
:10063000A81FD300408D102002A1C8DA02819FD9E3
:1006400022DB40A4A6AFAED580A83FD300408D10DA
:100650002002A1C8DA12819FD922DB40A4A6AFAE46
:10066000D580A81FD300408D142002A1C8DA0281D2
:10067000CFD9F1DB40A4A6AFAED580A83FD30040D0
:100680008D142000A1C8DA1281CFD9F1DB40A4A6D5
:10069000AF332E302E30005665723A0062793A63DD
:1006A00073717764792000332E352D32382E354D15
:1006B000487A20353057204D4158004D6963726F9C
:1006C0005041353000332E302E3000536F66745653
:1006D00065723A00486172645665723A003230328F
:1006E000322D3230323620436F7079726967687408
:1006F0002040637371776479004D6963726F504174
:1007000035300020003000555549443A20005265EC
:1007100073742044656661756C7400203A20532020
:10072000202C5361766573206461746100203A2047
:100730004E202E2E202C73657420534E2C45583A93
:10074000204E20313233342D323334352D3334358D
:10075000362D3435363700203A2049202E2E202CD5
:1007600073657420496E74617265662C342C45582B
:100770003A20412034393631206973206172656630
:100780003D342E3936310048656C7020666F72201A
:100790004D6963726F20504135303A002D002D00B5
:1007A0002D0054656D702D5077722D5377722D4446
:1007B00069650000534E3A0056667764436F727263
:1007C0003A0056726576436F72723A00496E7461F0
:1007D0007265663A00476574454550524F4D3A0080
:1007E000436C656172454550524F4D00000000005A
:1007F00048563A0056667764436F72723A005672F2
:100800006576436F72723A00496E74617265663A3A
:1008100000736176656420746F20454550524F4DDA
:10082000004F4646004F4E00790073006D0068008F
:100830003A2000C2000020010000D0076400000040
:10084000B8000018010000030001000000B300011F
:100850001A010000010001000000A90001110100BF
:1008600000010001000000A300011E0100000100C2
:100870000100000095000154020000010001000089
:10088000008A0000640200000200010000007E00F7
:10089000020000000000000000A1122020003E2005
:1008A000002A20002D2D2D2D2053657474696E674C
:1008B00073202D2D2D2D002D2D2D2D005357523A07
:1008C000005057523A0056005600553A00543A002C
:1008D0000000EE00EA00E600E200DE00DA00D600EA
:1008E000D200CE00CB00C700696569696969696992
:1008F00069696B69424B494E004D487A2000465267
:10090000513A00592D535500582D47550049434F32
:100910004D004155544F004D414E55004259500035
:100920004F46460054580041004E001035F2F23553
:100930001065006F00506C6561736520636F6E74A5
:1009400061637420746865206D65726368616E749C
:10095000002000300049443A000000000024002735
:10096000002A0000000000250028002B00000000E5
:100970000900030200000405080000000000000058
:10098000000000002200FF210000000023002600DC
:100990002900040404040404040402020202020202
:1009A00003030303030302020301020408102040AF
:1009B0008001020408102001020408102040804039
:1009C000741611241FBECFEFD8E0DEBFCDBF11E0FB
:1009D000A0E0B1E0E6E4FCE502C005900D92AA3685
:1009E000B107D9F723E0AAE6B1E001C01D92AC3807
:1009F000B207E1F714E0C1EED4E004C02197FE0194
:100A00000E94D62CC03ED107C9F70E949D170C94B6
:100A1000212E0C940000AF92BF92CF92DF92EF9202
:100A2000FF920F931F93CF93DF9364E070E050E049
:100A300040E0DB01AA0FBB1FA80FB91FAD90BC900F
:100A40001197EA01CC0FDD1FC80FD91F8A019A0147
:100A5000F901EE0FFF1FE80FF91FE080F180061784
:100A6000170784F4C990D990AC14BD0444F0D18226
:100A7000C082FE013297F182E0822F5F3F4F0F5F0D
:100A80001F4FE6CFCD91DC911197D183C083ED92BA
:100A9000FC922230310569F480819181DF91CF9100
:100AA0001F910F91FF90EF90DF90CF90BF90AF908C
:100AB00008952230310554F4A9014F5F5F4F641748
:100AC00075070CF0B6CF8FEF9FEFE8CFB9016150FB
:100AD0007109F5CF843081F028F48230E9F0833059
:100AE000F9F00895883071F0893091F08530B9F4CB
:100AF000809180008F7D03C0809180008F778093EC
:100B0000800008958091B0008F778093B0000895A1
:100B10008091B0008F7DF9CF84B58F7784BD089523
:100B200084B58F7DFBCFCF93DF93282F30E0F90181
:100B3000E359F64F8491F901E755F64FD491F90145
:100B4000EE56F64FC491CC23A1F081110E946A05A4
:100B5000EC2FF0E0EE0FFF1FE857F64FA591B49190
:100B6000EC91ED2381E090E009F480E0DF91CF91FA
:100B7000089580E090E0FACF1F93CF93DF93282F62
:100B800030E0F901E359F64F8491F901E755F64F4A
:100B9000D491F901EE56F64FC491CC23A9F0162F4B
:100BA00081110E946A05EC2FF0E0EE0FFF1FED5956
:100BB000F64FA591B4918FB7F894EC91111108C03C
:100BC000D095DE23DC938FBFDF91CF911F910895E5
:100BD000DE2BF8CFCF93DF9390E0FC01E755F64F83
:100BE00024918E56964FFC0184918823C9F090E0A1
:100BF000880F991FFC01E75AF64FA591B491FC01AB
:100C0000ED59F64FC591D49161110DC09FB7F8947D
:100C10008C91209582238C938881282328839FBFE1
:100C2000DF91CF910895623051F49FB7F8943C91D1
:100C3000822F809583238C93E8812E2BEFCF8FB763
:100C4000F894EC912E2B2C938FBFEACF20912201A8
:100C500090E4299F900111248E50822B80937C0078
:100C600080917A00806480937A0080917A0086FD7A
:100C7000FCCF80917800909179000895880F991F9A
:100C8000880F991F05970197F1F70895CF92DF928A
:100C9000EF92FF920F931F93CF93DF9388E0E82E9C
:100CA000F12C00E0DD24D39410917A03C0917B03F2
:100CB000D0917C03F8948981812B89838A81C12E0C
:100CC000C0948C218A8383E090E00E943E06898153
:100CD0008C2189838AE090E00E943E068881182357
:100CE000789485E390E00E943E0611110D29DD0CF9
:100CF00081E0E81AF108C1F6802FDF91CF911F91B2
:100D00000F91FF90EF90DF90CF900895CF92DF92F8
:100D1000EF92FF920F931F93CF93DF93C82ED62E9F
:100D200088E0E82EF12C01E010917A03C0917B035A
:100D3000D0917C03912F90958C2D8023B1F1F89464
:100D40008A8189238A838981812B89838AE090E043
:100D50000E943E068A81182B1A83789487E390E0DC
:100D60000E943E06000F81E0E81AF108E9F6D11072
:100D700013C0F894E0917B03F0917C039181809102
:100D80007A03809598239183E0917B03F0917C0313
:100D90009281892382837894DF91CF911F910F9163
:100DA000FF90EF90DF90CF900895F8948A81892387
:100DB0008A838981812B898381E490E00E943E06A9
:100DC0008A81182B1A83789485E090E0C9CFFF922E
:100DD0000F931F93CF93DF9310917A03C0917B03FE
:100DE000D0917C03F8948981012F00958023898319
:100DF00078948DE7F82EFA94FF2061F182E090E07C
:100E00000E943E0688818123B1F3F8948A81802371
:100E10008A838981812B8983789480EE91E00E9476
:100E20003E06F89489818023898386E490E00E94BD
:100E30003E0688811823C1E009F0C0E078948AE971
:100E400091E00E943E068C2FDF91CF911F910F9170
:100E5000FF900895C0E0F7CF3FB7F89480918202E9
:100E600090918302A0918402B091850226B5A89B3F
:100E700005C02F3F19F00196A11DB11D3FBFBA2F2C
:100E8000A92F982F8827BC01CD01620F711D811DEC
:100E9000911D42E0660F771F881F991F4A95D1F771
:100EA00008958F929F92AF92BF92CF92DF92EF926E
:100EB000FF924B015C010E942C076B017C010E9498
:100EC0002C076C197D098E099F09683E73408105C6
:100ED0009105A8F321E0821A9108A108B10888EED3
:100EE000C80E83E0D81EE11CF11C81149104A104FA
:100EF000B10429F7FF90EF90DF90CF90BF90AF90B3
:100F00009F908F9008952FB7F89460917E02709112
:100F10007F0280918002909181022FBF0895CF922D
:100F2000DF92EF92FF920F931F93CF930E9483075C
:100F300060934A0370934B0380934C0390934D034B
:100F4000809130030E9493057C0100913803109139
:100F50003903C1E08017910709F0C0E00E948307C0
:100F600060934A0370934B0380934C0390934D031B
:100F7000E016F10649F4209132033091330337FF34
:100F800003C021E02093440320914503C2134CC0C9
:100F90000091460310914703209148033091490383
:100FA0006B017C01C01AD10AE20AF30A00913203F4
:100FB0001091330317FF03C0119501951109012EFC
:100FC000000C220B330BC016D106E206F30610F01C
:100FD000C09344034091440300914E0310914F038A
:100FE00020915003309151036B017C01C01AD10A4A
:100FF000E20AF30A20914203309143032230310583
:1010000009F462C0E4F42115310529F121303105DC
:10101000F1F1109243031092420310925303109285
:1010200052030E94830764C0609346037093470392
:101030008093480390934903C0934503CBCF23305B
:10104000310509F44DC02630310519F7411117C09B
:1010500087E090E034C0442391F021E030E0309309
:1010600043032093420360934E0370934F03809396
:101070005003909351031092530310925203CF9157
:101080001F910F91FF90EF90DF90CF90089522E095
:1010900030E0442349F18091360390913703B0E06A
:1010A000A0E08C159D05AE05BF0548F7E091400313
:1010B000F0914103309709F0099586E090E0909314
:1010C000430380934203DBCF8091520390915303FB
:1010D0000196909353038093520383E090E0EFCF07
:1010E000442379F021E030E030934303209342031E
:1010F00060934E0370934F0380935003909351037A
:10110000BECF80915203909153034091340350918C
:10111000350370E060E0C416D506E606F70640F435
:1011200020915403309155032817390709F0A7CFB0
:10113000E0913A03F0913B038130910551F0E09149
:101140003C03F0913D03029721F0E0913E03F091C2
:101150003F03309709F45DCF09955BCFCF9382E0D1
:101160000E949305892BB9F580911C0190911D0176
:10117000019789F58091690281112DC080917C02CF
:10118000811129C080914902811125C080916A0294
:10119000811121C08091470281111DC0809163029D
:1011A000811119C080916B02811115C061E084E04A
:1011B0000E94BC0581E080936C02809376021092BD
:1011C0007B020E948307609377027093780280937A
:1011D000790290937A0282E00E9493050197E9F4E4
:1011E000C1E0C093750210926C020E948307609365
:1011F0006D0270936E0280936F02909370028091E3
:10120000200190912101892B51F460E084E00E943B
:10121000BC051092760210927B02CF910895C09384
:101220007B020E9483076093770270937802809319
:10123000790290937A02F1CF089508950895DC0120
:10124000ED91FC910190F081E02D0994EF92FF92D5
:101250000F931F93CF93DF938C017B01D0E0C0E00D
:10126000F701EC0FFD1F6491662361F0D801ED9149
:10127000FC910190F081E02DC8010995892B11F0B6
:101280002196EECFCE01DF91CF911F910F91FF906C
:10129000EF900895AF92BF92CF92DF92EF92FF92BC
:1012A0000F931F93CF93DF936C017B018B01040F8E
:1012B000151FEB015E01AE18BF08C017D10759F02A
:1012C0006991D601ED91FC910190F081E02DC6016C
:1012D0000995892B79F7C501DF91CF911F910F9166
:1012E000FF90EF90DF90CF90BF90AF900895FC01FA
:1012F000538D448D252F30E0842F90E0821B930B7B
:10130000541710F0CF96089501970895FC01918D20
:10131000828D981761F0A28DAE0FBF2FB11D5D9623
:101320008C91928D9F5F9F73928F90E008958FEFC5
:101330009FEF0895FC01918D828D981731F0828D79
:10134000E80FF11D858D90E008958FEF9FEF0895D0
:10135000FC01918D228D892F90E0805C9F4F821B34
:1013600091098F73992708958AE892E00E94A8094D
:1013700021E0892B09F420E0822F089580E090E09D
:10138000892B29F00E94B40981110C940000089562
:10139000FC01A48DA80FB92FB11DA35ABF4F2C91EA
:1013A000848D90E001968F739927848FA689B789E1
:1013B0002C93A089B1898C91837080648C93938DD8
:1013C000848D981306C00288F389E02D80818F7D7B
:1013D00080830895EF92FF920F931F93CF93DF9333
:1013E000EC0181E0888F9B8D8C8D98131AC0E88961
:1013F000F989808185FF15C09FB7F894EE89FF8930
:101400006083E889F98980818370806480839FBFCD
:1014100081E090E0DF91CF911F910F91FF90EF90CD
:101420000895F62E0B8D10E00F5F1F4F0F731127DD
:10143000E02E8C8D8E110CC00FB607FCFACFE88918
:10144000F989808185FFF5CFCE010E94C809F1CFCF
:10145000EB8DEC0FFD2FF11DE35AFF4FF0829FB78C
:10146000F8940B8FEA89FB8980818062CFCFCF937C
:10147000DF93EC01888D8823B9F0AA89BB89E889BC
:10148000F9898C9185FD03C0808186FD0DC00FB662
:1014900007FCF7CF8C9185FFF2CF808185FFEDCFE0
:1014A000CE010E94C809E9CFDF91CF91089585ED63
:1014B0008093BC008091BC0084FDFCCF10920B0295
:1014C00008952091D001260F3327331F2132310593
:1014D000ECF420910B02FC0190E080E0243069F0F4
:1014E00082E00895A091D0012191AC0140555E4F5A
:1014F000A40FB52FB11D2C930196861798F38091F8
:10150000D001680F6093D00180E0089581E00895D4
:101510000895E0910D0280910C02E81730F4F0E09C
:10152000E057FE4F808190E008958FEF9FEF089580
:1015300090910D0280910C022FEF3FEF981748F425
:10154000E92FF0E0E057FE4F208130E09F5F90935D
:101550000D02C901089580910C0290910D02891B22
:10156000990B0895CF92DF92EF92FF920F931F9302
:10157000CF93DF937C01CB018A0120918902222342
:1015800089F0EB016B01C40ED51ECC15DD0569F0A9
:101590006991D701ED91FC910190F081E02DC70197
:1015A0000995F3CF642F0E94610AC801DF91CF91A2
:1015B0001F910F91FF90EF90DF90CF900895CF9300
:1015C000DF931F92CDB7DEB7698320918902222372
:1015D000F9F020918602203258F021E030E0FC0141
:1015E0003383228390E080E00F90DF91CF910895C4
:1015F00080918702E82FF0E0E059FE4F99819083B7
:101600008F5F809387028093860281E090E0ECCF29
:1016100061E0CE0101960E94610AF7CF90918602A7
:1016200081E0913208F043C080910B028111FCCF20
:101630008091880222E020930B0221E020930A028D
:101640002FEF2093F30120E731E03093F501209351
:10165000F4011092F7019093F6011092F801909125
:10166000F801880F892B8093F8018091090281305D
:1016700029F5109209028091F8018093BB008091B6
:10168000BC0083FDF8CF85EC8093BC0080910B02F9
:101690008230E1F38091F3018F3F91F08091F3016B
:1016A000803281F08091F301803371F084E01092F8
:1016B00087021092860210928902089585EEE4CF87
:1016C00080E0F5CF82E0F3CF83E0F1CF1F93CF939B
:1016D000DF93182FC2E6D3E08C899D892E8931E0F3
:1016E000309389022093880210928702109286021A
:1016F000DC01ED91FC910190F081E02D60E0099515
:101700008C899D89DC01ED91FC910190F081E02DA7
:10171000612F09958C899D89DF91CF911F910C9440
:101720000E0BEF92FF920F931F93CF93DF938C01D9
:10173000F62E80917603909177032091780331E023
:1017400030938902209388021092870210928602B9
:10175000DC01ED91FC910190F081E02D60E00995B4
:10176000E80101E010E0EE24E394FA94809176031E
:1017700090917703BFEFFB1671F100321105D0F0A5
:101780000E940E0B8091760390917703209178034D
:10179000E0928902209388021092870210928602BA
:1017A000DC01ED91FC910190F081E02D60E0099564
:1017B00001E010E08091760390917703FE0164913F
:1017C000DC01ED91FC910190F081E02D09950F5F16
:1017D0001F4F2196CACFDF91CF911F910F91FF909C
:1017E000EF900C940E0BDF92EF92FF920F931F93EA
:1017F000CF93DF9364E084E899E00E94910B80919D
:101800006603909167038034910509F075C080E20A
:101810000E94660B80916603815E0E94660B209198
:10182000680330916903C901079697FD079623E085
:10183000959587952A95E1F7209166033091670386
:10184000829F7001839FF00C929FF00C11240091F5
:101850007303109174038091760390917703209124
:10186000780331E030938902209388021092870236
:1018700010928602DC01ED91FC910190F081E02D47
:1018800060E40995E801EC0EFD1E01E010E0DD24A6
:10189000D3948091760390917703EC16FD0699F12D
:1018A00000321105D0F00E940E0B809176039091CA
:1018B000770320917803D0928902209388021092B6
:1018C000870210928602DC01ED91FC910190F0817B
:1018D000E02D60E4099501E010E08091760390919D
:1018E00077036991DC01ED91FC910190F081E02D8D
:1018F00009950F5F1F4FCDCF80E00E94660B80914E
:10190000660381508ACFDF91CF911F910F91FF9095
:10191000EF90DF900C940E0B90E09C01220F331F90
:10192000F901E150FA4F5491F901E050FA4F449116
:1019300085509A4FFC0194912D503A4FF9016591D1
:101940007491E52FF0E0E95DFC4F2081E42FF0E099
:10195000E95DFC4F8081280F3327331F929FA00140
:10196000939F500D1124CA01860F971F089560910F
:1019700020027091210290E080E00E943E2B20E046
:1019800030E04AE754E40E94962A60931301709372
:101990001401809315019093160160911C027091BF
:1019A0001D0290E080E00E943E2B20E030E04AE7FC
:1019B00054E40E94962A6093090170930A0180936F
:1019C0000B0190930C0160911A0270911B0290E040
:1019D00080E00E943E2B20E030E04AE754E40E9481
:1019E000962A60930D0170930E0180930F019093DE
:1019F00010010895809130039091310397FF0C946A
:101A00008F0708950E94830760934E0270934F02E0
:101A1000809350029093510280915202882339F0B2
:101A2000109252028FEA0E94660B0C94F30B0895F9
:101A30000E94020D80916902813009F070C080918E
:101A40000401209123028F3FE9F48091250290E068
:101A5000019668E0211101C067E070E00E94C22C8D
:101A60008093250220912402821718F48093240287
:101A7000089530E02C5F3F4F281739070CF053C012
:101A80008450F4CF211103C0863008F08F5F2DE021
:101A9000829FC0011124FC01EB5CF74F24912111BE
:101AA00022C0FC01EA5CF74FA591B491FC01E85C0F
:101AB000F74F25913491FC01E65CF74F4591549125
:101AC000FC01E45CF74F859194916D917C911197A5
:101AD000860F971F481759071CF08D939C93089504
:101AE0002D933C9308952491213069F4FC01EA5C24
:101AF000F74FA591B4912D913C91119781E090E021
:101B0000821B930BEACFE491E23069F4FC01E25CC2
:101B1000F74F85919491009731F0FC010994109250
:101B20006B0210926A020895CF93DF930E94020D18
:101B3000D0917602DD2351F060E084E00E94BC0584
:101B400062E370E080E090E00E945107C09168027B
:101B5000EFEFEC0FEA3008F03FC0F0E0EE54F24F48
:101B60000C94D62CBC0DD80D040E0E0E0E0E0E0EBF
:101B70001C0E2E0E2E0E300E61E08DE00E94BC0574
:101B800061E089E00E94BC0560E088E00E94BC053D
:101B900060E087E00E94BC0560E086E00E94BC0532
:101BA0001092760281E080936302DF91CF910895D5
:101BB00061E08DE00E94BC0561E089E00E94BC0507
:101BC00060E088E00E94BC0560E087E00E94BC0500
:101BD00060E086E00E94BC0580910E02811104C085
:101BE000C430F1F2C730E1F210926302DD23E9F272
:101BF00062E370E080E090E00E94510761E084E0E1
:101C0000DF91CF910C94BC0561E08DE00E94BC0592
:101C100060E089E00E94BC0561E0D3CF61E08DE027
:101C20000E94BC0560E089E00E94BC0560E088E09D
:101C30000E94BC0561E0C9CF61E08DE00E94BC0557
:101C400060E089E00E94BC0560E088E00E94BC057D
:101C500060E087E00E94BC0561E0BBCF60E0EDCFB3
:101C600060E08DE00E94BC0560E089E00E94BC0558
:101C700060E088E00E94BC0560E087E00E94BC054F
:101C800061E08BCF0E94020D80911A0190911B019F
:101C9000019721F461E08AE00C94BC050895CF938C
:101CA000DF93E90177FD34C0DC0114962D913C915E
:101CB00015976217730764F557FD2AC01696ED91C4
:101CC000FC914E175F0724F5DA0157FD1796E3E004
:101CD000B595A795EA95E1F7A29FF001A39FF00DB6
:101CE000B29FF00D11246E0F7F1FDC015196ED9114
:101CF000FC91E60FF71F30814770552781E090E097
:101D000001C0880F4A95EAF7CD2B29F0832B8083F9
:101D1000DF91CF91089580958323F9CF2F923F9241
:101D20004F925F926F927F928F929F92AF92BF92EB
:101D3000CF92DF92EF92FF920F931F93CF93DF9397
:101D400000D000D000D0CDB7DEB73C016A013E83A1
:101D50002D83FC82EB825801A41AB50AB7FE03C09A
:101D6000B194A194B1088D809E80861A970A97FE3F
:101D700003C09194819491088A149B045CF0902F85
:101D8000812F0D811E819D838E839C2D8D2D6B0156
:101D9000692F782F0C151D055CF09D818E817E8347
:101DA0006D83692F782F902F812F8601C92ED82E11
:101DB0001601201A310A2B012D813E81421A530A45
:101DC00057FE03C0519441945108710137FE03C07E
:101DD0003FEFE31AF30AF594E7948D819E8186170D
:101DE00097075CF5A1E0B0E0BA83A983C016D106DD
:101DF0004CF1D301ED91FC910084F185E02D2B8114
:101E00003C81A8016D817E818A149B041CF04D8168
:101E10005E81B801C3010995E418F508F7FE0AC010
:101E20002D813E8189819A81280F391F3E832D8320
:101E3000E20CF31C0F5F1F4FD9CF2FEF3FEF3A8318
:101E40002983D4CF26960FB6F894DEBF0FBECDBF40
:101E5000DF91CF911F910F91FF90EF90DF90CF9086
:101E6000BF90AF909F908F907F906F905F904F90BA
:101E70003F902F9008954F925F926F927F928F9232
:101E80009F92AF92BF92CF92DF92EF92FF920F9309
:101E90001F93CF93DF935C013A014701EB012B01C4
:101EA000420E531E040F151F680181E0C81AD108A5
:101EB000C415D50554F4740186019E01A301BE0129
:101EC000C5010E948E0E2196F3CFDF91CF911F9115
:101ED0000F91FF90EF90DF90CF90BF90AF909F90C9
:101EE0008F907F906F905F904F9008956F927F9248
:101EF0008F929F92AF92BF92CF92DF92EF92FF921A
:101F00000F931F93CF93DF93EC016A30F1F419869E
:101F100018868C8598E0899F900111248A859B857D
:101F2000820F931F9B878A8781E090E0DF91CF919A
:101F30001F910F91FF90EF90DF90CF90BF90AF90E7
:101F40009F908F907F906F9008956D3069F38C858E
:101F50002885398595E0899F200D311D11244C81FC
:101F60005D812417350764F01986188628E0829F62
:101F7000C00111242A853B85820F931F9B878A8786
:101F800035E0639FB0011124D12CC12CCB018D50C1
:101F90009F4F3C01F301EC0DFD1DE491B12CA12CF0
:101FA0008E2E912CED84FE842C8568857985E0FF4A
:101FB00044C04A855B85213041F54A0D5B1D6C0D9F
:101FC0007D1DE881F9810084F185E02D9701CE0126
:101FD0000995F401F595E7959FEFA91AB90A28E04C
:101FE000A216B104E9F63FEFC31AD30A85E0C8167A
:101FF000D10481F62C858885998536E0239F800D54
:10200000911D1124998788878FCF30E02A9DC001C8
:102010002B9D900D3A9D900D1124480F591F2C9D1A
:10202000C0012D9D900D3C9D900D1124680F791FCE
:102030008901CE010E943B0FCCCF8F8598898E15E8
:102040009F0539F24A855B85213059F44A0D5B1DA5
:102050006C0D7D1DE881F9810084F185E02D9C01E6
:10206000B6CF30E02A9DF0012B9DF00D3A9DF00D8A
:1020700011244E0F5F1F2C9DF0012D9DF00D3C9DF6
:10208000F00D11246E0F7F1F7C01D2CF089590E0D8
:1020900080E008952091680330916903C901079693
:1020A00097FD079623E0959587952A95E1F720916E
:1020B000660330916703829FA001839F500D929F1A
:1020C000500D112470E060E08091730390917403CF
:1020D0000C941A2E0E94152EFB0101900020E9F7A6
:1020E0003197AF01461B570BDC01ED91FC9102804B
:1020F000F381E02D0994CF93DF93BC018AE892E04D
:102100000E942609EC016BE571E08AE892E00E94EA
:102110006C108C0F9D1FDF91CF9108958F929F922D
:10212000AF92BF92EF92FF920F931F93CF93DF93E3
:10213000CDB7DEB7A1970FB6F894DEBF0FBECDBF07
:102140007C01FA01CB0119A2223008F42AE08E01A9
:102150000F5D1F4F822E912CB12CA12CBF01A50128
:1021600094010E94022AF901CA016A300CF5605DEF
:10217000D8016E938D01232B242B252B79F790E02A
:1021800080E0109721F0BD01C7010E946C10A1965C
:102190000FB6F894DEBF0FBECDBFDF91CF911F9178
:1021A0000F91FF90EF90BF90AF909F908F90089508
:1021B000695CDECFCF92DF92EF92FF920F931F9375
:1021C000CF93DF936B01770FEE08FF08F7FE1BC07C
:1021D000EC016DE20E941F098C0144275527BA01CA
:1021E0004C195D096E097F092AE0CE010E948E100C
:1021F000800F911FDF91CF911F910F91FF90EF9072
:10220000DF90CF9008952AE0B701A601DF91CF912A
:102210001F910F91FF90EF90DF90CF900C948E1054
:102220002F923F924F925F926F927F928F929F92E6
:10223000AF92BF92CF92DF92EF92FF921F93CF9314
:10224000DF93EC016A017B01722EAB019601CB0199
:10225000B6010E94A82C6EE571E0811126C04601EE
:102260005701E894B7F82FEF3FEF4FE75FE7C5015D
:10227000B4010E94A82C81110CC02FEF3FEF4FE753
:102280005FE7C501B4010E94912A62E671E0181669
:1022900064F02FEF3FEF4FE75FE4C701B6010E9404
:1022A000F02B1816B4F466E671E0CE01DF91CF9101
:1022B0001F91FF90EF90DF90CF90BF90AF909F90D5
:1022C0008F907F906F905F904F903F902F900C94E5
:1022D0006C102FEF3FEF4FE75FECC701B6010E9494
:1022E000912A87FDE0CF20E030E0A901C701B601C7
:1022F0000E94912A312C212C87FF09C06DE2CE016A
:102300000E941F091C01F7FAF094F7F8F09410E00E
:1023100060E070E080E09FE3711641F020E030E083
:1023200040E251E40E94962A1F5FF6CFA701960172
:102330000E94252A2B013C010E940F2B4B015C01BE
:102340002AE0BC01A401CE010E948E107C01E20CA7
:10235000F31C1123C1F1C501B4010E943E2B9B0166
:10236000AC01C301B2010E94242A4B015C016EE260
:10237000CE010E941F09E80EF91E115020F120E045
:1023800030E040E251E4C501B4010E94F52B2B017D
:102390003C010E940F2B4B01B12CA12C2AE0B5016E
:1023A000A401CE010E948E10E80EF91EC501B401F1
:1023B0000E943E2B9B01AC01C301B2010E94242A62
:1023C0004B015C01DACFC701DF91CF911F91FF90E4
:1023D000EF90DF90CF90BF90AF909F908F907F90C5
:1023E0006F905F904F903F902F900895242FAB01F6
:1023F000BC0182E693E00C9410111F93CF93DF93FE
:10240000EC01162F0E94EC29181739F0612FCE012C
:10241000DF91CF911F910C94F429DF91CF911F91FF
:1024200008951F93CF93DF93EC01162F672F0E941F
:10243000FD11612FCE010196DF91CF911F910C9478
:10244000FD1180911E0290911F02843C944041F541
:1024500060E08EE190E00E94FD1160E08FE190E08D
:102460000E94FD1160E082E290E00E94FD1160E0B8
:1024700083E290E00E94FD1160E086E290E00E941D
:10248000FD1160E087E290E00E94FD1160E08DE2C6
:1024900090E00E94FD1160E08EE290E00E94FD114C
:1024A00065E090E080E00E94FD116CE271E085E063
:1024B00090E00E94111261E089E390E00E94FD111A
:1024C00061E08AE390E00E94FD1161E08BE390E01F
:1024D0000E94FD1161E08CE390E00E94FD1161E03B
:1024E0008DE390E00E94FD1160E08EE390E00E9499
:1024F000FD1160E08FE390E00E94FD1162E080E456
:1025000090E00C94FD110E94020D80916C028111EB
:1025100017C080916902811113C0809168028F5F9A
:102520008A3060F48093680260916802609356027A
:1025300090E080E00E94FD110C94940D82E0F2CFB7
:10254000089510926902609120017091210185E047
:1025500090E00E9411126091180189E390E00E94BE
:10256000FD11609111018AE390E00E94FD116091DC
:102570001E018CE390E00E94FD11609154028FE3F4
:1025800090E00E94FD1160911A018DE390E00E949D
:10259000FD11609164028EE390E00C94FD110E94A5
:1025A000020D80916C0281112FC0809169028130EF
:1025B000D1F480912502482F50E09091230226E02B
:1025C00030E0992311F027E030E04217530721F45F
:1025D0000E94A1128FEF04C0909104019F3FD1F798
:1025E00080930401089580911C0190911D01019731
:1025F00029F410921D0110921C01089581E090E0D1
:1026000090931D0180931C0108950C94EC291F9355
:10261000CF93DF93C82FD0E0CE010E940513182F6F
:10262000CE0101960E940513912FDF91CF911F914A
:102630000895CF93DF938BE00E940713EC019093F2
:102640002102809320028FE00E94071390931D02C5
:1026500080931C0281E10E94071390931B028093D8
:102660001A02C15DD740CF39DF4050F088E893E1CE
:10267000909321028093200283E296E00E947B10D7
:1026800080911C0290911D028D5291408B389A408E
:1026900050F088EE93E090931D0280931C0285E138
:1026A00096E00E947B1080911A0290911B028D523D
:1026B00091408B389A4060F088EE93E090931B0233
:1026C00080931A0287E096E0DF91CF910C947B1003
:1026D000DF91CF910895EF92FF920F931F93CF93C5
:1026E000DF938C017C018FEFE81AF80AC7010E9482
:1026F0000513C82FC8010E940513D82F21966D2FEE
:10270000C8010E94FD116C2FC701DF91CF911F916D
:102710000F91FF90EF900C94FD110E94020D80919B
:102720007602811132C0809152039091530384301C
:102730009105B1F48091690290916C0291110BC0E6
:10274000811109C081E080936902109225028FEF08
:102750008093040108958130C1F40E94A112F7CF43
:102760000A9799F40E94420E64E670E080E090E0DF
:102770000E94510760E08AE00E94BC058DE290E073
:102780000E946B1381E08093230208951F920F92A1
:102790000FB60F9211242F933F938F939F93AF9374
:1027A000BF9380917E0290917F02A0918002B091B0
:1027B000810230917D0223E0230F2D3768F126E856
:1027C000230F0296A11DB11D20937D0280937E02EE
:1027D00090937F02A0938002B09381028091820245
:1027E00090918302A0918402B09185020196A11D6F
:1027F000B11D8093820290938302A0938402B093D0
:102800008502BF91AF919F918F913F912F910F9032
:102810000FBE0F901F9018950196A11DB11DD4CF2A
:102820001F920F920FB60F9211242F933F934F9345
:102830005F936F937F938F939F93AF93BF93EF9328
:10284000FF93E0910201F09103010995FF91EF914F
:10285000BF91AF919F918F917F916F915F914F91B8
:102860003F912F910F900FBE0F901F9018951F92C0
:102870000F920FB60F9211242F933F934F935F93B4
:102880006F937F938F939F93AF93BF93EF93FF9338
:10289000E0910001F09101010995FF91EF91BF9145
:1028A000AF919F918F917F916F915F914F913F91E8
:1028B0002F910F900FBE0F901F9018951F920F929F
:1028C0000FB60F9211242F933F934F935F936F9303
:1028D0007F938F939F93AF93BF93EF93FF938AE878
:1028E00092E00E94C809FF91EF91BF91AF919F9133
:1028F0008F917F916F915F914F913F912F910F90A9
:102900000FBE0F901F9018951F920F920FB60F9247
:1029100011242F938F939F93EF93FF93E0919A024B
:10292000F0919B028081E091A002F091A10282FDD2
:102930001BC090818091A3028F5F8F732091A402AE
:10294000821741F0E091A302F0E0E657FD4F958F2A
:102950008093A302FF91EF919F918F912F910F9000
:102960000FBE0F901F9018958081F4CF1F920F9289
:102970000FB60F9211242F933F934F935F936F9352
:102980007F938F939F93AF93BF93EF93FF93809128
:10299000B900887F803609F44AC0F0F5883209F41E
:1029A000A7C018F5803109F49BC0B8F4882309F456
:1029B00005C1883009F494C0FF91EF91BF91AF91A8
:1029C0009F918F917F916F915F914F913F912F9147
:1029D0000F900FBE0F901F901895883109F488C092
:1029E000803251F78093F30114C0803409F4A5C0FC
:1029F00040F48033B9F38833F9F68093F30185EC22
:102A0000BCC0803509F489C0883509F49EC088347B
:102A100099F60E94570AD0CF883909F494C038F546
:102A2000883729F050F4883611F0803729F683E092
:102A300080930B021092F20157C0883809F483C0CA
:102A4000803919F0803809F0B7CF8091F2018032D7
:102A500008F079C0E091F20181E08E0F8093F201DD
:102A60008091BB00F0E0EE52FE4F80833DC0803B82
:102A700039F0E0F4803A09F485C0883A09F09CCF37
:102A800084E080930B021092D1011092D001E0916A
:102A90000702F091080209958091D00181110FC0C1
:102AA00081E08093D0011092B00109C0803C09F40C
:102AB000A6CF883C09F4A3CF883B09F07DCFE091F5
:102AC000D10181E08E0F8093D101F0E0E055FE4FFF
:102AD00080818093BB009091D1018091D00131C061
:102AE0008091F8018093BB0085EC8093BC0064CF9B
:102AF0009091F7018091F6019817B8F58091F40153
:102B00009091F501E091F70121E02E0F2093F7015C
:102B1000E80FF92FF11D8081E5CF2091F40130916C
:102B2000F501E091F70181E08E0F8093F70180912C
:102B3000BB00E20FF32FF11D80839091F70180918C
:102B4000F601981788F285E8D0CF2091F4013091F2
:102B5000F501E091F70181E08E0F8093F7018091FC
:102B6000BB00E20FF32FF11D808380910A028111D7
:102B700050CF81E08093090284EA8093BC001092D8
:102B80000B021ACF85EC8093BC0010920B0280914F
:102B9000F201803230F4E091F201F0E0EE52FE4FAB
:102BA00010826091F20170E0E0910502F09106025E
:102BB00082ED91E009951092F201FECE1092F301A0
:102BC00028CF1F920F920FB60F9211240F931F93CD
:102BD0002F933F934F935F936F937F938F939F9325
:102BE000AF93BF932091840030918500B09B0BC0C0
:102BF00081E086BB80910102909102020196909340
:102C000002028093010280910302909104020196D6
:102C10004091FA015091FB018417950708F445C0D3
:102C2000109204021092030280910102909102021C
:102C3000B0E0A0E0DC0199278827820F931FA11D37
:102C4000B11D4091FD015091FE016091FF01709115
:102C500000028C019D01041B150B260B370BB901DB
:102C6000A80140935F0250936002609361027093E9
:102C700062028093FD019093FE01A093FF01B09347
:102C8000000281E08093FC01BF91AF919F918F91F1
:102C90007F916F915F914F913F912F911F910F9174
:102CA0000F900FBE0F901F90189590930402809381
:102CB0000302EACF682F8AE892E00C94EA09CF93E6
:102CC000DF93AB01BC0123E08AE892E00E9410117F
:102CD000EC016BE571E08AE892E00E946C108C0FC9
:102CE0009D1FDF91CF91089510928D0210928C025A
:102CF00088EE93E0A0E0B0E080938E0290938F0284
:102D0000A0939002B09391022DE231E030938B02B8
:102D100020938A0225EC30E03093970220939602AC
:102D200024EC30E0309399022093980220EC30E0BC
:102D300030939B0220939A0221EC30E030939D0265
:102D400020939C0222EC30E030939F0220939E025D
:102D500026EC30E03093A1022093A0021092A3024F
:102D60001092A4021092A5021092A602109259038A
:102D70001092580380935A0390935B03A0935C03D3
:102D8000B0935D038FE391E09093570380935603D4
:102D9000A7E2B3E090E080E021E2E1E0F0E08630FD
:102DA000910510F4F0E0E0E0AC01425F5F4FE40F0A
:102DB000F51F20935700E491ED930196893091051A
:102DC00061F760E08BE00E94EA05E4EBF9E0E49152
:102DD000E0937A03EDE9F9E0E491F0E0EE0FFF1FF4
:102DE000E857F64F8591949190937C0380937B03F1
:102DF0001092850310928703109286031092840329
:102E00001092830310928203109281031092800328
:102E100010927F0310927E0310927D03109265033F
:102E20001092640380E890E09093670380936603B8
:102E300080E490E0909369038093680310926D039F
:102E400010926C0310926B0310926A0381E08093DE
:102E50006E0381E090E09093700380936F03109273
:102E600072031092710321E531E0309363032093E4
:102E700062032FEF2093750326E533E03093770349
:102E80002093760310927403109273032AE030E0CB
:102E9000309333032093320326E930E03093350337
:102EA0002093340324EF31E030933703209336032B
:102EB00010923B0310923A0310923D0310923C0390
:102EC00010923F0310923E03109241031092400370
:102ED0001092430310924203109244031092450350
:102EE0001092460310924703109248031092490330
:102EF00010924A0310924B0310924C0310924D0310
:102F000010924E0310924F031092500310925103EF
:102F100010925303109252039093550380935403DD
:102F200083E090E090933103809330031092390353
:102F30001092380362E00C94EA05CF93DF93CDB78B
:102F4000DEB76A970FB6F894DEBF0FBECDBF789498
:102F500084B5836084BD85B5836085BD80916E0036
:102F6000816080936E0012E0109381008091810057
:102F700081608093810080918000816080938000D7
:102F80008091B10084608093B1008091B000816035
:102F90008093B00087E880937A001092C10010926D
:102FA0000402109203021092020210920102109287
:102FB000FD011092FE011092FF011092000210928A
:102FC000FC0180918000809181001092810010921C
:102FD0008000109285001092840081E086BB1092E0
:102FE0006F008091B0008091B1001092B1001093F9
:102FF000B0008CE78093B30085E08093F90117BBA4
:103000001092B20081E090E09093FB018093FA016E
:103010008FB7F89413BD9091F9019093B10010937C
:10302000700097E0909381008FBF61E084E00E9480
:10303000EA0560E084E00E94BC0562E083E00E9453
:10304000EA0560E082E00E94EA0560E085E00E9417
:10305000EA0561E08CE00E94EA0560E08CE00E94F5
:10306000BC0561E089E00E94EA0561E088E00E9419
:10307000EA0561E087E00E94EA0561E086E00E94DF
:10308000EA0561E08DE00E94EA0561E08AE00E94C5
:10309000EA0560E08AE00E94BC058CE38093780337
:1030A00010937903809175031816F4F461E00E947F
:1030B000EA0561E0809175030E94BC0561E070E063
:1030C00080E090E00E94510760E0809175030E94CB
:1030D000BC056AE070E080E090E00E94510761E08A
:1030E000809175030E94BC0510920D0210920C0293
:1030F000109287021092860210920B0281E0809358
:103100000A021092090261E082E10E94BC0561E0BE
:1031100083E10E94BC058091B9008E7F8093B90045
:103120008091B9008D7F8093B90088E48093B800C6
:1031300085E48093BC008CE199E090930802809331
:1031400007028DE199E09093060280930502809139
:103150006803909169038034910509F09DC28091C4
:103160007903813009F0A2C286E496E069E10E9409
:10317000910B2091680330916903C901079697FD6F
:10318000079633E0959587953A95E1F72091660388
:1031900030916703AC01429FC001439F900D529F45
:1031A000900D11240E94F02C90937403809373036C
:1031B000892B11F00E944A108CE08093B8000E9485
:1031C0004A1081E090E09093700380936F03909396
:1031D00072038093710383E00E949305892BF9F4B5
:1031E00081E080936E038CE190E090936B03809379
:1031F0006A0390936D0380936C036EE077E082E640
:1032000093E00E9426090E9421120E94F30B68EEAF
:1032100073E080E090E00E9451070E944A1090E025
:1032200080E00E9405138093560285E00E940713F8
:10323000909321018093200189E390E00E9405137F
:1032400090E090931901809318018AE390E00E9426
:10325000051390E090931201809311018BE390E0AD
:103260000E94051380930E028CE390E00E940513E8
:1032700090E090931F0180931E018DE390E00E94E7
:10328000051390E090931B0180931A018EE390E068
:103290000E94051390E09093650280936402892B4D
:1032A00019F081E0809323028FE390E00E940513E0
:1032B00090E090935502809354028AE50E94071390
:1032C0008C019093190280931802BC01990F880B0E
:1032D000990B0E94402B9B01AC010E94A82C8111EC
:1032E00003C00436110534F486E191E0909319028D
:1032F0008093180280911802909119028D319140AB
:103300001CF081E48093170180E490E00E94051393
:1033100080936602E0919A02F0919B0282E08083A2
:10332000E0919602F09197021082E0919802F0915C
:10333000990280E180831092A202E0919E02F091B6
:103340009F0286E08083E0919C02F0919D02808143
:1033500088698083E0919C02F0919D0280818F7D3D
:1033600080838EEA98E09093010180930001809120
:1033700069008C7F816080936900E89A8AEF9CE005
:10338000909303018093020180916900837F8460A0
:1033900080936900E99A88E19DE090933B038093D4
:1033A0003A0383E892E190933D0380933C0330918C
:1033B0005403209155038DE893E190933F0380934C
:1033C0003E03832F922F8436910514F484E690E017
:1033D000909355038093540388E592E090933703CC
:1033E000809336038FEC92E19093410380934003E6
:1033F0008AE090E0909333038093320381E08093DE
:10340000220110927C0210E088E2810F880F0E9456
:1034100007137C01812F0E948C0CE816F90609F431
:103420004BC181E080937C0280917C02813071F5F8
:1034300067E077E08AE892E00E94260907E213E05D
:10344000D8018D918D01803130F465E077E08AE814
:1034500092E00E942609F8013197408150E070E027
:1034600060E020E18AE892E00E948E1063E077E05D
:103470008AE892E00E942609B3E000331B0701F7B7
:103480006BE571E08AE892E00E946C1089EF96E0AB
:103490000E947B108DED96E00E947B1064ED76E03B
:1034A0008AE892E00E942609609118027091190240
:1034B0008AE892E00E94DA106BE571E08AE892E017
:1034C0000E946C106BEC76E08AE892E00E9426097C
:1034D00085EC96E00E947B100E9419130E94B70CA5
:1034E00082E080936E038BE090E090936B03809377
:1034F0006A0384E090E090936D0380936C036BEB20
:1035000076E082E693E00E94260981E080936E03D4
:1035100088E090E090936B0380936A038CE190E0E5
:1035200090936D0380936C0367EA76E082E693E004
:103530000E94260987E090E090936B0380936A03D2
:103540008CE290E090936D0380936C036CE976E0DD
:1035500082E693E00E94260967E976E082E693E03E
:103560000E94260961E976E082E693E00E9426093E
:103570000E94F30B68EB7BE080E090E00E94510733
:10358000FE017596FE8BED8B809130039091310397
:1035900097FF0E948F078AE892E00E94A809892B72
:1035A00071F18AE892E00E9486098C018F7D833553
:1035B000910509F086C060912002709121028BE094
:1035C00090E00E94111260911C0270911D028FE028
:1035D00090E00E94111260911A0270911B0281E129
:1035E00090E00E94111260911802709119028AE510
:1035F00090E00E94111281E198E00E947B100E94ED
:103600004A10E1E0E0936E0380917C02813009F082
:1036100089C210926B0310926A0342E050E050930B
:103620006D0340936C0365E579E082E693E00E94C8
:10363000260907E213E0D8018D918D01803130F425
:1036400063E579E082E693E00E942609F80131976C
:10365000408150E070E060E020E182E693E00E946B
:103660008E1061E579E082E693E00E942609B3E0DE
:1036700000331B0701F710926B0310926A038EE16F
:1036800090E090936D0380936C0365E379E082E6AC
:1036900093E00E9426099BC3809709F08DCD80910D
:1036A0007903813031F48DE296E060CD88E796E0D1
:1036B0005DCD8FE596E05ACD1F5F143009F0A4CEA2
:1036C000B3CE8834910579F487E897E00E947B10A7
:1036D00087E597E00E947B108DE297E00E947B10C7
:1036E0008BE197E08ACF8934910571F468E078E046
:1036F0008AE892E00E942609F1E0F09322021092FB
:103700002102109220027BCF8334910541F488E09E
:103710008093220210921F0210921E0270CF8235F7
:10372000910571F46EEF77E08AE892E00E94260935
:1037300082E08093220210921D0210921C025FCF41
:103740008634910571F464EF77E08AE892E00E9494
:10375000260983E08093220210921B0210921A0223
:103760004ECF8434910571F460EF77E08AE892E0FF
:103770000E94260984E0809322021092190210927E
:1037800018023DCF20912202213039F5C801C0979F
:103790000A97A8F4C8010E945A162091200230917D
:1037A00021024AE0429FC001439F900D1124C0971F
:1037B000080F191F109321020093200220CF0A3016
:1037C000110521F00D30110509F019CF8FEE97E0AA
:1037D0000E947B101092220212CF223019F5C801EC
:1037E000C0970A97A8F4C8010E945A1620911C029B
:1037F00030911D024AE0429FC001439F900D112469
:10380000C097080F191F10931D0200931C02F7CEDA
:103810000A30110521F00D30110509F0F0CE8EEEC1
:1038200097E0D6CF233019F5C801C0970A97A8F4BE
:10383000C8010E945A1620911A0230911B024AE0D8
:10384000429FC001439F900D1124C097080F191F7C
:1038500010931B0200931A02D2CE0A30110521F0F8
:103860000D30110509F0CBCE8DEE97E0B1CF2430AD
:1038700021F5C801C0970A97B0F4C8010E945A16F2
:1038800020911802309119024AE0429FC001439FE3
:10389000900D1124080F191F0053110910931902DC
:1038A00000931802ACCE0A30110521F00D3011053D
:1038B00009F0A5CE8CEE97E08BCF283069F5C801D2
:1038C000C0970A9798F420911E0230911F024AE097
:1038D000429FC001439F900D1124080F191F0053F0
:1038E000110910931F0200931E0289CE0A301105A0
:1038F00021F00D30110509F082CE10922202809144
:103900001E0290911F02843C944009F078CE0E94E0
:10391000211280EE97E071CE87349105C9F585EDCF
:1039200097E00E947B100E9419130E94B70C6CEC68
:1039300077E08AE892E00E94260960911301709175
:10394000140180911501909116010E945F1662EC9E
:1039500077E08AE892E00E9426096091090170915F
:103960000A0180910B0190910C010E945F1668EB97
:1039700077E08AE892E00E94260960910D0170913B
:103980000E0180910F01909110010E945F1637CEB9
:1039900080359105E9F582EA97E00E947B108EE17F
:1039A0000E940713BC018AE892E00E94DA1060EAE4
:1039B00077E08AE892E00E94260982E20E940713DB
:1039C000BC018AE892E00E94DA106EE977E08AE8AA
:1039D00092E00E94260986E20E940713BC018AE851
:1039E00092E00E94DA106CE977E08AE892E00E94A7
:1039F00026098DE20E940713BC018AE892E00E942A
:103A0000DA106BE571E08AE892E00E946C10F7CD65
:103A10008E349105E1F464EB77E08AE892E00E944D
:103A2000260989E080932202109217021092160252
:103A300010921502109214021092130210921202A8
:103A4000109211021092100210920F02D8CD29305C
:103A500009F0D5CDC801C0970A9718F00D321105AD
:103A6000F9F4C8010E945A16E0910F020D321105B7
:103A700021F4EF5FE0930F02C2CDF0E0EE0FFF1FE5
:103A8000E05FFD4F208131814AE0429FC001439FAA
:103A9000900D1124C097080F191F11830083AFCD1B
:103AA0000A30110521F00D30110509F0A8CD83EB86
:103AB00097E00E947B101092220200E112E0F12CAC
:103AC0008F2D0E948C0CD8012D913D918D01821774
:103AD000930709F0B9CFF394B4E0FB12F1CF6091F2
:103AE00010027091110280E590E00E941112609125
:103AF00012027091130282E590E00E94111260910F
:103B000014027091150284E590E00E9411126091F8
:103B100016027091170286E590E00E941112109231
:103B20007C0292CF80917B028823C9F10E94830797
:103B300000917702109178022091790230917A02F7
:103B4000601771078207930751F40E9483076093FF
:103B50007702709378028093790290937A020E94A0
:103B600083072091770230917802621B730B80915A
:103B700020019091210188976817790784F01092AD
:103B8000760210927B0210927702109278021092C5
:103B9000790210927A0260E084E00E94BC05809174
:103BA0007502882389F120E030E048E052E460911A
:103BB00071027091720280917302909174020E945E
:103BC000912A87FF21C00E94830700916D02109106
:103BD0006E0220916F0230917002601B710B820B9C
:103BE000930B60327E448105910570F0109275024E
:103BF00010926D0210926E0210926F02109270027B
:103C000060E08CE00E94BC0580916C02811125C0AF
:103C100080911E0190911F010197F9F480916B0230
:103C2000813021F080916A028130B9F40E948307CB
:103C300000916D0210916E0220916F02309170021E
:103C4000601B710B820B930B683B7B4081059105D8
:103C500020F010926B0210926A0280916902882310
:103C600009F4EBC060E08AE00E94BC050E944A10A3
:103C700021E020936E0381E090E0909370038093A5
:103C80006F0390937203809371038AE090E09093A6
:103C90006B0380936A0310926D0310926C0364EAC5
:103CA00078E082E693E00E94260980912502209127
:103CB0002402821708F075C08093240203E318E001
:103CC000F12CE12C9AE0C92E80912302811104C0CD
:103CD00046E0E41609F475C080912402F81608F451
:103CE0006FC02F2D30E0482F50E04C5F5F4F4217E0
:103CF00053070CF465C010926B0310926A0351E0F5
:103D0000581B852F8F0D8C9D802D112490E0909352
:103D10006D0380936C03809125026BE978E08F112D
:103D20000CC080910401082E000C990B61EA78E028
:103D30002817390711F06EE978E082E693E00E94D7
:103D40002609F8016591749182E693E00E942609A4
:103D5000F8013296D49081E08D1590F160E378E01F
:103D600082E693E00E942609F8013396A591B4916A
:103D7000D11059C06C9111967C9191E0E9121CC050
:103D8000E62F062E000CFF0B6430A8F4EE0FFF1F89
:103D9000E85DF74F6591749182E693E00E942609F1
:103DA0000FC030E02C5F3F4F8217130609F00CF470
:103DB00085CF845081CFBF0182E693E00E94DA1064
:103DC000F394E394035F1F4FA8E0EA127DCF0E94B3
:103DD000F30B80915402909155020197B9F48091B0
:103DE0005302811113C08091520281110FC00E94B1
:103DF0008307683B7B408105910510F00C94D52921
:103E0000B1E0B09352028EEA0E94660B80E090E02F
:103E1000892B09F4B9CB0E94B409882309F4B4CBE7
:103E20000E940000B1CB8D919C9165E278E00197F2
:103E300009F4B2CF61E278E0AFCF80911C0190919C
:103E40001D01019709F033C48091680286508230C9
:103E500008F02DC4B1E0B093670286E590E090933E
:103E60006B0380936A0387E290E090936D038093E5
:103E70006C038091660263E379E0882321F082304D
:103E800031F461E379E082E693E00E9426098091B3
:103E90001A0190911B01892B51F50BE2C02E09E00C
:103EA000D02EB12C08E210E0F12CE12CBB0CE11477
:103EB000F10411F4F601B490B7FE0AC021E030E03D
:103EC000A801B7016E5F7F4F82E693E00E944F0E1C
:103ED000FFEFEF1AFF0A28E0E216F10439F70F5F4F
:103EE0001F4F4FEFC41AD40A0E321105E9F6809124
:103EF000640290916502892B91F08CE090E09093A0
:103F00006B0380936A0387E290E090936D03809344
:103F10006C0369E279E082E693E00E9426098091D1
:103F20001E0190911F01019791F48CE590E0909310
:103F30006B0380936A0387E290E090936D03809314
:103F40006C0367E279E082E693E00E9426098091A3
:103F500076028823E1F082E080936E0386E690E0AB
:103F600090936B0380936A0384E090E090936D03D9
:103F700080936C0364E279E082E693E00E94260974
:103F800061E08CE00E94BC0551E050936E0380918B
:103F90001C0190911D01892B91F489E690E090938A
:103FA0006B0380936A0387E090E090936D038093A6
:103FB0006C0360E279E082E693E00E94260980913A
:103FC00063028130C1F480911C0190911D01019721
:103FD00091F489E690E090936B0380936A0387E005
:103FE00090E090936D0380936C036CE179E082E63E
:103FF00093E00E9426097E018BE0E80EF11C8E0101
:104000000F5F1F4F670158018FE00E942606D701FE
:104010008D939D937D018EE00E942606F801819389
:1040200091938F0162E070E080E090E00E94510780
:104030004D895E89E416F50639F7C6010E940B0525
:104040006C01C5010E940B057C01809013019090CA
:104050001401A0901501B0901601B601DD0C880B7B
:10406000990B0E94402BA50194010E94F52B20E0A2
:1040700030EC4FE754E40E94962A20E030E040E222
:1040800050E40E94F52B2B013C012AE037ED43E27E
:104090005CE30E94912A87FF03C0412C512C32011E
:1040A00020910D0130910E0140910F0150911001AE
:1040B000C301B2010E94F52B6F8B788F898F9A8F85
:1040C0009B01AC010E94F52B2BE734E14EE85FE346
:1040D0000E94F52B2B013C0124E13EEA47E45FE31B
:1040E0006F89788D898D9A8D0E94F52B9B01AC018B
:1040F000C301B2010E94252A2B013C012091260216
:104100003091270240912802509129026F89788DC1
:10411000898D9A8D0E94F02B87FDD3C2B701FF0CC9
:10412000880B990B0E94402BA50194010E94F52B4E
:1041300020E030EC4FE754E40E94962A20E030E083
:1041400040E250E40E94F52B6B017C012AE037ED40
:1041500043E25CE30E94912A87FF03C0C12CD12C6B
:1041600076012091090130910A0140910B01509193
:104170000C01C701B6010E94F52B6B017C01AC015B
:104180009B010E94F52B2BE734E14EE85FE30E9490
:10419000F52B4B015C0124E13EEA47E45FE3C701F4
:1041A000B6010E94F52B9B01AC01C501B4010E9430
:1041B000252A6B017C012AE037ED43E25CE30E9493
:1041C000912A87FF03C0C12CD12C76012DEC3CEC49
:1041D0004CEC5EE3C301B2010E94912A812C912C28
:1041E000A0E8AA2EAFE3BA2E87FD44C0A301920136
:1041F000C701B6010E94962A0E94682C6B017C01BF
:1042000020E030E040E85FE30E94252A4B015C019A
:10421000A701960160E070E080E89FE30E94242AF5
:104220009B01AC01C501B4010E94962A4B015C01BF
:1042300020E030E040E85FE30E94912A87FD3AC227
:104240002DEC3CEC47EC52E4C501B4010E94F02B8C
:10425000181644F41DEC812E1CEC912E17ECA12EA7
:1042600012E4B12E8092050190920601A0920701FE
:10427000B09208018F89988DA98DBA8D80932602FE
:1042800090932702A0932802B093290282E08093A2
:104290006E03A2E0B0E0B0936B03A0936A03B09307
:1042A0006D03A0936C0361EC78E082E693E00E94DA
:1042B00026098091480281113DC080911C01909196
:1042C0001D01019709F071C080916402909165020F
:1042D000892BB1F526E636E64CE452E4C301B2017F
:1042E0000E94F02B87FDF6C10E94420E8091410290
:1042F0008F5F8093410287FF1DC060E084E00E94D1
:10430000BC0510927602B1E0B0936B0240923D0280
:1043100050923E0260923F0270924002B09375024A
:104320000E94830760936D0270936E0280936F0208
:104330009093700280911C0190911D010197A9F545
:104340008091640290916502892B79F520E030E03C
:104350004CE552E4C301B2010E94F02B87FD25C059
:1043600010916B0260E084E00E94BC05109276021E
:10437000111113C0E1E0E0936B02E09375020E941B
:10438000830760936D0270936E0280936F02909327
:10439000700282E290E00E946B1340923D025092C4
:1043A0003E0260923F0270924002A301920160912E
:1043B0003D0270913E0280913F02909140020E9426
:1043C000912A87FF08C040923D0250923E026092BF
:1043D0003F027092400280916B02813009F08CC1E3
:1043E000F0914802FF8BFF2329F1C0903D02D0904D
:1043F0003E02E0903F02F090400220E030E048ECC6
:1044000052E4C701B6010E94912A87FF0CC020E048
:1044100030E040E251E4C701B6010E94F02B41E0D8
:1044200050E087FF02C050E040E0C701B6010E94A3
:10443000F6111F8A80911C0190911D012DED34E22F
:1044400046ED5FE3019721F021E93DEE4CE15FE3AA
:10445000C301B2010E94F52B0E940F2B22E030E035
:10446000623038F0262F30E02F35310514F02EE57C
:1044700030E0EE24E394F12C02E010E041E150E062
:1044800063E070E082E693E00E943B0F80911101AF
:10449000909112010197A1F56091390270913A0251
:1044A00080913B0290913C0220911C0130911D01B2
:1044B0002130310509F021C22DED34E246ED5FE3F4
:1044C0000E94F52B20E030E040E850E40E94252ACD
:1044D0000E940F2B663008F415C270E06F3571052D
:1044E00014F06EE570E0EE24E394F12C02E010E0AD
:1044F00021E030E041E150E082E693E00E943B0F92
:10450000A2E0B0E0B0936B03A0936A03E4E1F0E0B3
:10451000F0936D03E0936C036CEB78E082E693E03C
:104520000E94260910916C02112309F452C0809157
:1045300067028823A9F180916602882309F4E5C106
:10454000823071F520E030E040EC5FE3C501B4015A
:104550000E94F02B181624F5A5019401C501B401A1
:104560000E94F52B22E838EA4BE758EB0E94F52B26
:104570006B017C012DEC3CEC4CEC5DE3C501B4011E
:104580000E94F52B9B01AC01C701B6010E94252AB0
:104590002BE734E14EEA5FE30E94252A4B015C01E0
:1045A00020E030E040E251E4C301B2010E94912AD0
:1045B00087FFB1C120E030E040E450E4C501B40120
:1045C0000E94F02B87FDA7C1809133028F5F8093FB
:1045D0003302809164029091650202976CF5112379
:1045E00059F180913302863038F110916A021092AD
:1045F000330260E084E00E94BC0510927602111143
:1046000013C0F1E0F0936A02F09375020E948307F1
:1046100060936D0270936E0280936F0290937002AC
:1046200086E290E00E946B1380922F0290923002FB
:10463000A0923102B0923202A501940160912F0242
:104640007091300280913102909132020E94912A41
:1046500087FF08C080922F0290923002A092310210
:10466000B092320280916A02813009F073C1809168
:104670004802882309F4BDC1C0902F02D0903002B7
:10468000E0903102F090320220E030E040E251E46C
:10469000C701B6010E94F02B41E050E0181614F05B
:1046A00042E050E0C701B6010E94F611A2C110928B
:1046B0006702EDCB812C912CB0E8AB2EBFE3BB2E73
:1046C000D1CD8090050190900601A0900701B09097
:1046D0000801D0CD20E030E04CE452E4C301B20147
:1046E0000E94912A18160CF42BCE60E08AE00E94FA
:1046F000BC05109241021ECE8091110190911201D1
:10470000009709F05FC04092390250923A026092DD
:104710003B0270923C024092350250923602609207
:1047200037027092380221E02F8B2DEC3CEC4CE4E8
:104730005DE360913502709136028091370290916D
:1047400038020E94F02B87FF0E94020DC0903502B4
:10475000D0903602E0903702F090380220E030E04E
:1047600048EC52E4C701B6010E94F02B50E040E053
:1047700087FFC0C020E030E040E251E4C701B6014D
:104780000E94F02B87FD0CC020E030E048EC52E4A2
:10479000C701B6010E94912A41E050E087FDAAC0FE
:1047A0002DEC3CEC4CE45DE3C701B6010E94912A7C
:1047B00042E050E087FF9EC060E070E0CB010E94C5
:1047C000F61138CE019711F01F8AAFCF2091350234
:1047D000309136024091370250913802C301B20144
:1047E0000E94F02B18166CF580911C0190911D0110
:1047F000892B21F080916C02882319F140923502B7
:10480000509236026092370270923802A3019201F0
:104810006091390270913A0280913B0290913C0282
:104820000E94912A87FF63C04092390250923A0257
:1048300060923B0270923C021092340241E04F8B36
:1048400074CF809134028F5F809334028F3008F4EC
:10485000BBCFC0903902D0903A02E0903B02F0907A
:104860003C0220E030E040E85FE3C701B6010E946F
:10487000242A6F8B788F898F9A8FA3019201C701A9
:10488000B6010E94242A23E333E343EB5EE30E9454
:10489000F52B9B01AC016F89788D898D9A8D0E94D3
:1048A000242A6B017C01A30192010E94912A18160F
:1048B0004CF4C0923902D0923A02E0923B02F0925C
:1048C0003C0282CF4092390250923A0260923B02FF
:1048D00070923C024092350250923602609237024A
:1048E000709238021092340251E05F8B1ECF81E04B
:1048F0008F8B1BCFC701B60162CF21E93DEE4CE1A2
:104900005FE3DECD66E070E0EECD812C912C50E8C7
:10491000A52E5FE3B52E0091330220E030E040E2A7
:1049200051E4C301B2010E94F02B87FD0EC020E0CC
:1049300030E040E050E4C501B4010E94F02B87FD57
:1049400004C00F5F0093330244CE002309F441CE2C
:104950000150F8CF8091110190911201009761F4FC
:104960002F89222339F180922B0290922C02A0925F
:104970002D02B0922E021EC00197E1F4A501940110
:1049800060912B0270912C0280912D0290912E0249
:104990000E94912A87FF31C34F89442309F42DC314
:1049A00080922B0290922C02A0922D02B0922E02A5
:1049B00010922A0220E030E040E05FE3609135028F
:1049C0007091360280913702909138020E94912AAC
:1049D00087FD09C08091660281111EC38091670224
:1049E000882309F419C367EB78E082E693E00E941C
:1049F000260920E030E040E85FE360912B027091EF
:104A00002C0280912D0290912E020E94242A20E0F7
:104A100030E048EB51E40E94F52B20E030E040E02C
:104A200050E40E94252A0E940F2B02E010E0623021
:104A300038F0062F10E00036110514F00FE510E0F5
:104A40002AE037ED43EA5CE36091390270913A0263
:104A500080913B0290913C020E94912A87FF02C004
:104A600002E010E0202F30E0EE24E394F12C02E08D
:104A700010E043E250E063E070E082E693E00E94E1
:104A80003B0F81E080936E0380E10E9426068C013B
:104A9000A5E6B0E0B0936B03A0936A0384E390E0D3
:104AA00090936D0380936C0380911801909119018C
:104AB0008330910509F0B9C267E179E082E693E0BD
:104AC0000E942609312C212C809156029091680277
:104AD0008917D1F0882309F43BC480936802609160
:104AE000560290E080E00E94FD11809168028130C2
:104AF00011F08A3039F481E08093630260E084E051
:104B00000E94BC050E94940D80914902813069F099
:104B100080916A02813049F080914702813029F00A
:104B200080916B02813009F01CC40E94020D91E05B
:104B3000909353020E948307009143021091440214
:104B40002091450230914602601771078207930752
:104B500009F401C40E9483076093430270934402E6
:104B60008093450290934602809142028F5F80932A
:104B7000420280911A0190911B01019759F4809192
:104B80001C0190911D01019729F48091480261E078
:104B9000811101C060E08AE00E94BC058091420260
:104BA000823048F010924202809148028111D6C3AF
:104BB000A1E0A0934802EE24E394F12C10E000E081
:104BC0002FE730E050E040E070E060E082E693E004
:104BD0000E948E0E0FE310E02FE730E04FE350E02D
:104BE00070E060E082E693E00E948E0E30E020E00C
:104BF00050E040E070E060E082E693E00E948E0EBC
:104C00002FE730E050E040E06FE770E082E693E0AD
:104C10000E948E0E00E310E02FE730E040E350E00A
:104C200070E060E082E693E00E948E0E0FE310E0F9
:104C300022E630E050E040E062E670E082E693E099
:104C40000E948E0E04E110E02FE730E044E150E0D6
:104C500062E670E082E693E00E948E0E02E210E0CF
:104C60002FE730E042E250E062E670E082E693E057
:104C70000E948E0E0FE310E022E330E040E350E0AC
:104C800062E370E082E693E00E948E0E81E10E9472
:104C90002606BC01990F880B990B0E94402B20918E
:104CA00013013091140140911501509116010E9499
:104CB000F52B20E030EC4FE754E40E94962A2DECCF
:104CC0003CEC4CE950E40E94F52B2AE037ED43E23E
:104CD0005DE30E94242A6B017C0184E090E09093C4
:104CE0006B0380936A0384E390E090936D03809359
:104CF0006C036AEC78E082E693E00E94260920E0EB
:104D000030E04CE851E4C701B6010E94F02B87FF68
:104D10000BC02AE939E949E151E4C701B6010E9413
:104D2000912A18160CF426C360E084E00E94BC05AA
:104D300010927602B1E0B093470280914802882336
:104D400061F041E050E0C701B6010E94F61168EC45
:104D500078E082E693E00E9426090E94E70660E080
:104D60008CEC0E94860661E084E40E9486060E9424
:104D7000830700914A0210914B0220914C0230911E
:104D80004D02601B710B820B930B693E73408105D2
:104D9000910508F446C00E94830760934A0270930D
:104DA0004B0280934C0290934D020E94E70660E014
:104DB0008CEC0E94860660E08EEB0E9486060E94C4
:104DC0004606182F0E944606782F612F072E000CEA
:104DD000880B990B0E94402B20E030E040E85DE317
:104DE0000E94F52B6093710270937202809373029C
:104DF0009093740220E030E04AEA52E40E94912A43
:104E000081110FC00E9483076031774281059105AF
:104E100040F410927102109272021092730210927A
:104E2000740288E390E090936B0380936A0384E3B9
:104E300090E090936D0380936C036DEC78E082E6D4
:104E400093E00E94260980917602811118C080911A
:104E50007502811114C020E030E048E052E4609116
:104E600071027091720280917302909174020E949B
:104E7000912A87FF04C060E08CE00E94BC05C090CE
:104E80007102D0907202E0907302F090740220E000
:104E900030E04CE052E4C701B6010E94F02B87FDE0
:104EA00004C061E08CE00E94BC056091170170E0D5
:104EB00090E080E00E94402B9B01AC01C701B6014D
:104EC0000E94F02B87FD11C01091490260E084E040
:104ED0000E94BC05111107C021E0209349028EE118
:104EE00090E00E946B1310927602609171027091B3
:104EF00072028091730290917402209149022130D4
:104F000021F420914802222321F041E050E00E9448
:104F1000F61120E030E040E252E4609171027091BD
:104F2000720280917302909174020E94912A181665
:104F300014F01092490244E150E050936B03409307
:104F40006A0387E290E090936D0380936C036EEFA9
:104F500078E082E693E00E942609B101032C000C60
:104F6000880B990B0E94402B20E030E040E251E496
:104F70000E94962A41E050E00E94F61169EF78E025
:104F800082E693E00E942609809168029FEF980FC5
:104F90009B30D8F490E0FC01E851F74FE491F0E049
:104FA000F0936B03E0936A0326E230E030936D03E5
:104FB00020936C03FC01EE0FFF1FE053F74F659148
:104FC000749182E693E00E94260985E690E0909332
:104FD0006B0380936A0388E190E090936D03809364
:104FE0006C0360912001709121016115710509F038
:104FF000CCC164EF78E00C94471B80912A028F5F4C
:1050000080932A028A3008F4D5CC5F89552309F4AD
:10501000D1CC10922A02A7CCC0902B02D0902C02A7
:10502000E0902D02F0902E022FCB0A3011050CF0EB
:10503000E7C062E179E082E693E00E94260903E09E
:1050400010E060915F027091600280916102909126
:1050500062020E943E2B2AE037ED43E25EE30E94AB
:10506000F52B6B017C0161E070E080E090E00E9434
:10507000510720915B0230915C0240915D0250919A
:105080005E02C701B6010E94F02B181644F4C092CC
:105090005B02D0925C02E0925D02F0925E020150EF
:1050A000110979F603E010E060915F0270916002EF
:1050B00080916102909162020E943E2B2AE037EDBE
:1050C00043E25EE30E94F52B6B017C0161E070E03E
:1050D00080E090E00E9451072091570230915802E1
:1050E0004091590250915A02C701B6010E94F02B1B
:1050F000181644F4C0925702D0925802E092590216
:10510000F0925A020150110979F680905B0290905A
:105110005C02A0905D02B0905E0220915702309137
:1051200058024091590250915A02C501B4010E949F
:10513000912A811105C0C501B4010E94082B1B01F1
:10514000C10140978F3E9140D0F4EFEB2E16310411
:10515000ACF5F1EA2F1631040CF04EC021E5221611
:10516000310434F543E3241631040CF041C082E0ED
:105170005FE125163104CCF5F1E0F0935602A5016C
:105180009401C701B6010E94912A87FF9DCC10921D
:105190005B0210925C0210925D0210925E0210920D
:1051A0005702109258021092590210925A028CCC57
:1051B00089E728163104F4F484E017C095E0291635
:1051C00091E039063CF487E0A7EE2A1631046CF032
:1051D00088E00BC0BDE22B16B1E03B067CF08AE014
:1051E000EFEF2E16E1E03E063CF680935602C7CF65
:1051F00083E0FBCF85E0F9CF86E0F7CF89E0F5CFFC
:105200000097E1F56DE079E082E693E00E942609DF
:105210000E3621E01207DCF40A3041E014070CF0EE
:105220008BC0053D11050CF05FC00F3711050CF068
:1052300055C002331105F4F58AE080935602E1E08F
:10524000E093630260E084E00E94BC053DCC0F3433
:1052500052E015072CF4063E114074F083E03FC085
:105260000D3B92E019070CF457C00333134024F7A9
:10527000B1E0B093560228CC85E031C08130910571
:10528000A9F568E079E082E693E00E9426090539F5
:10529000110594F4013811057CF7053311053CF430
:1052A0000F311105CCF50A30110514F7C5CF0436BE
:1052B0001105A4F284E013C00D3D110544F4033C34
:1052C000110584F40D3A1105BCF586E008C0043FD1
:1052D000110554F00C3011400CF0AECF8AE08093F1
:1052E0005602F2CB88E0FBCF89E0F9CF029709F0B4
:1052F000EBCB63E079E082E693E00E9426090B3B6A
:10530000110584F4093911050CF0B6CF05351105E6
:105310002CF4023311053CF282E0E1CF073711058E
:105320004CF69CCF023221E0120744F40F3F1105E6
:10533000CCF60D3D11054CF287E0D1CF043441E0AD
:10534000140794F2015612400F39114038F274CF0D
:1053500090935602C4CB1092420220CC1092480285
:105360002ACC60E08AE00E94BC05109248021092AC
:10537000530221CC1092470241E050E0C701B60130
:105380000E94F61166EC78E0E4CC683E93E0790781
:1053900034F489E690E090936B0380936A0382E68D
:1053A00093E00E94DA100C94E71E0E94830700919C
:1053B0004E0210914F022091500230915102601B19
:1053C000710B820B930B60367A4E8105910510F4B8
:1053D0000C94061F0C94001FF999FECF92BD81BD5D
:1053E000F89A992780B50895262FF999FECF1FBA0C
:1053F00092BD81BD20BD0FB6F894FA9AF99A0FBEFE
:1054000001960895A1E21A2EAA1BBB1BFD010DC037
:10541000AA1FBB1FEE1FFF1FA217B307E407F50764
:1054200020F0A21BB30BE40BF50B661F771F881F40
:10543000991F1A9469F760957095809590959B01D6
:10544000AC01BD01CF0108955058BB27AA270E9487
:105450003C2A0C94B62B0E94A82B38F00E94AF2B4C
:1054600020F039F49F3F19F426F40C94A52B0EF488
:10547000E095E7FB0C949F2BE92F0E94C72B58F374
:10548000BA17620773078407950720F079F4A6F529
:105490000C94E92B0EF4E0950B2EBA2FA02D0B01E6
:1054A000B90190010C01CA01A0011124FF27591B69
:1054B00099F0593F50F4503E68F11A16F040A22F6F
:1054C000232F342F4427585FF3CF469537952795E0
:1054D000A795F0405395C9F77EF41F16BA0B620BDF
:1054E000730B840BBAF09150A1F0FF0FBB1F661F26
:1054F000771F881FC2F70EC0BA0F621F731F841F69
:1055000048F4879577956795B795F7959E3F08F08E
:10551000B0CF9395880F08F09927EE0F9795879550
:1055200008950E947B2B08F481E008950E94AA2A26
:105530000C94B62B0E94AF2B58F00E94A82B40F081
:1055400029F45F3F29F00C949F2B51110C94EA2B06
:105550000C94A52B0E94C72B68F39923B1F3552314
:1055600091F3951B550BBB27AA2762177307840776
:1055700038F09F5F5F4F220F331F441FAA1FA9F30C
:1055800035D00E2E3AF0E0E832D091505040E695FA
:10559000001CCAF72BD0FE2F29D0660F771F881F5B
:1055A000BB1F261737074807AB07B0E809F0BB0B4E
:1055B000802DBF01FF2793585F4F3AF09E3F510562
:1055C00078F00C949F2B0C94EA2B5F3FE4F3983E09
:1055D000D4F3869577956795B795F7959F5FC9F74B
:1055E000880F911D9695879597F90895E1E0660FCC
:1055F000771F881FBB1F621773078407BA0720F045
:10560000621B730B840BBA0BEE1F88F7E0950895AD
:105610000E940F2B6894B1110C94EA2B08950E94FC
:10562000CF2B88F09F5798F0B92F9927B751B0F03A
:10563000E1F0660F771F881F991F1AF0BA95C9F716
:1056400014C0B13091F00E94E92BB1E008950C94A0
:10565000E92B672F782F8827B85F39F0B93FCCF353
:10566000869577956795B395D9F73EF49095809593
:10567000709561957F4F8F4F9F4F0895E89409C0B3
:1056800097FB3EF490958095709561957F4F8F4F75
:105690009F4F9923A9F0F92F96E9BB279395F6958B
:1056A000879577956795B795F111F8CFFAF4BB0F09
:1056B00011F460FF1BC06F5F7F4F8F4F9F4F16C06D
:1056C000882311F096E911C0772321F09EE8872FF7
:1056D000762F05C0662371F096E8862F70E060E0B3
:1056E0002AF09A95660F771F881FDAF7880F96952C
:1056F000879597F90895990F0008550FAA0BE0E8D0
:10570000FEEF16161706E807F907C0F01216130683
:10571000E407F50798F0621B730B840B950B39F4C3
:105720000A2661F0232B242B252B21F408950A2629
:1057300009F4A140A6958FEF811D811D089597F969
:105740009F6780E870E060E008959FEF80EC089527
:1057500000240A9416161706180609060895002450
:105760000A9412161306140605060895092E0394CA
:10577000000C11F4882352F0BB0F40F4BF2B11F43E
:1057800060FF04C06F5F7F4F8F4F9F4F089557FD9D
:105790009058440F551F59F05F3F71F04795880F9F
:1057A00097FB991F61F09F3F79F087950895121636
:1057B00013061406551FF2CF4695F1DF08C01616E2
:1057C00017061806991FF1CF869571056105089493
:1057D0000895E894BB2766277727CB0197F90895AA
:1057E0000E947B2B08F48FEF08950E94082C0C94E4
:1057F000B62B0E94A82B38F00E94AF2B20F09523E7
:1058000011F00C949F2B0C94A52B11240C94EA2BD3
:105810000E94C72B70F3959FC1F3950F50E0551F61
:10582000629FF001729FBB27F00DB11D639FAA27F5
:10583000F00DB11DAA1F649F6627B00DA11D661F44
:10584000829F2227B00DA11D621F739FB00DA11D65
:10585000621F839FA00D611D221F749F3327A00D1F
:10586000611D231F849F600D211D822F762F6A2FBB
:1058700011249F5750409AF0F1F088234AF0EE0F20
:10588000FF1FBB1F661F771F881F91505040A9F74D
:105890009E3F510580F00C949F2B0C94EA2B5F3FA8
:1058A000E4F3983ED4F3869577956795B795F79589
:1058B000E7959F5FC1F7FE2B880F911D9695879501
:1058C00097F9089519F416F40C94A52B0C94AD2CAB
:1058D0000E94CF2BB8F39923C9F3B6F39F57550B0A
:1058E00087FF0E94BB2C0024A0E640EA900180586C
:1058F0005695979528F4805C660F771F881F20F0D7
:1059000026173707480730F4621B730B840B2029D6
:1059100031294A2BA69517940794202531254A272B
:1059200058F7660F771F881F20F02617370748079C
:1059300030F4620B730B840B200D311D411DA095BB
:1059400081F7B901842F9158880F9695879508950E
:105950000E947B2B880B990B08959F3F31F091504B
:1059600020F4879577956795B795880F911D969543
:10597000879597F9089591505040660F771F881FBB
:10598000D2F7089597FB072E16F4009407D077FD01
:1059900009D00E94DC2C07FC05D03EF4909581953F
:1059A0009F4F0895709561957F4F0895EE0FFF1FEB
:1059B0000590F491E02D0994AA1BBB1B51E107C08F
:1059C000AA1FBB1FA617B70710F0A61BB70B881F8F
:1059D000991F5A95A9F780959095BC01CD0108951E
:1059E0000F931F93CF93DF938230910510F482E0E1
:1059F00090E0E0918A03F0918B0330E020E0B0E08A
:105A0000A0E0309799F42115310509F44AC0281B0C
:105A1000390B24303105D8F58A819B8161157105D8
:105A200089F1FB0193838283FE0111C04081518182
:105A30000281138148175907E0F04817590799F474
:105A4000109761F012960C93129713961C9332964E
:105A5000CF01DF91CF911F910F91089500938A0399
:105A600010938B03F4CF2115310551F042175307E2
:105A700038F0A901DB019A01BD01DF01F801C1CFB6
:105A8000EF01F9CF90938B0380938A03CDCFFE0172
:105A9000E20FF31F819391932250310939832883B8
:105AA000D7CF2091880330918903232B41F4209193
:105AB000250130912601309389032093880320919A
:105AC0002301309124012115310541F42DB73EB752
:105AD0004091270150912801241B350BE091880348
