:100000000C943C030C946E030C946E030C946E03DE
:100010000C946E030C94F8240C946E030C94D1246D
:100020000C946E030C946E030C946E030C946E038C
:100030000C946E030C946E030C946E030C946E037C
:100040000C9487240C946E030C9455240C942F2448
:100050000C946E030C946E030C946E030C946E035C
:100060000C946E030C946E0308000000BE922449A9
:10007000123EABAAAA2ABECDCCCC4C3E00000080DA
:10008000BEABAAAAAA3E00000000BF000000803F4D
:100090000000000000084178D3BB4387D1133D190D
:1000A0000E3CC3BD4282AD2B3E68EC8276BED98F3A
:1000B000E1A93E4C80EFFFBE01C4FF7F3F0000007E
:1000C000000000000000000000000000004F4F0092
:1000D00000000007070000070700147F7F14147F4B
:1000E0007F1400242E6B6B3A1200006333180C66E9
:1000F000630000327F4D4D7772500000000406030C
:10010000010000001C3E63410000000041633E1CF2
:100110000000082A3E1C1C3E2A080008083E3E0833
:100120000800000080E060000000000808080808DF
:100130000800000000606000000000406030180C03
:100140000602003E7F49457F3E000040447F7F40DD
:10015000400000627351494F460000226349497FC5
:10016000360000181814167F7F1000276745457D5C
:100170003900003E7F49497B3200000303797D0747
:10018000030000367F49497F360000266F49497FCA
:100190003E000000002424000000000080E4640011
:1001A000000000081C3663414100001414141414AC
:1001B000140000414163361C080000020351590F2E
:1001C0000600003E7F414D4F2E00007C7E0B0B7ED3
:1001D0007C00007F7F49497F3600003E7F414163BC
:1001E0002200007F7F41633E1C00007F7F49494120
:1001F0004100007F7F0909010100003E7F41497BEA
:100200003A00007F7F08087F7F000000417F7F4128
:100210000000002060417F3F0100007F7F1C3663AB
:100220004100007F7F4040404000007F7F060C0679
:100230007F7F007F7F0E1C7F7F00003E7F41417FDC
:100240003E00007F7F09090F0600001E3F21617FED
:100250005E00007F7F19396F460000266F49497B99
:1002600032000001017F7F010100003F7F40407F9D
:100270003F00001F3F60603F1F00007F7F3018304D
:100280007F7F0063771C1C77630000070F78780F6F
:100290000700006171594D47430000007F7F4141D5
:1002A00000000002060C18306040000041417F7FD2
:1002B000000000080CFEFE0C08008080808080801A
:1002C0008080000103060400000000207454547C68
:1002D0007800007E7E484878300000387C444444F2
:1002E000000000307848487E7E0000387C54545C22
:1002F00018000000087C7E0A0A000098BCA4A4FC38
:100300007C00007E7E08087870000000487A7A4001
:1003100000000000808080FA7A00007E7E1038683D
:1003200040000000427E7E400000007C7C18381CAB
:100330007C78007C7C04047C780000387C44447C1D
:10034000380000FCFC24243C180000183C2424FC49
:10035000FC00007C7C04040C080000485C545474CD
:1003600024000004043E7E444400003C7C40407C69
:100370007C00001C3C60603C1C00001C7C703870E1
:100380007C1C00446C38386C4400009CBCA0E07CB1
:100390003C00004464745C4C440000083E774141DA
:1003A0000000000000FFFF00000000004141773E18
:1003B0000800000402020404020000552A2A141452
:1003C000080800000000000000000000001F0000FE
:1003D00000000000001F001F00000000001F001FA1
:1003E000001F001C1E05051E1C00001F1F15150AFE
:1003F0000A00202020202020202000FFFEFCF9F50C
:10040000EFE9E2D9D0C6BBB0A4988B7F73665A4E91
:1004100043382E251C150F0905023A200052656647
:1004200020667265710050412042696173206D61E0
:10043000780050412042696173206D696E0043511C
:10044000204D65737361676500435120496E746583
:100450007276616C0054582044656C617900545880
:10046000204472697665004E6F6973652047617438
:100470006500564F58005072616374696365004BA4
:10048000657965722053776170004B6579657220DC
:100490004D6F6465004B65796572205370656564C6
:1004A0000053656D692051534B00435720446563E9
:1004B0006F64657200535752204D65746572005326
:1004C0002D6D6574657200415454320041545400DE
:1004D0004E5200414743005249540056464F204D6A
:1004E0006F64650054756E652052617465004261E9
:1004F0006E640046696C746572204257004D6F64EB
:100500006500566F6C756D650030303030303030BE
:100510003B0030303030302B303030303030303005
:10052000303000D580A83FD300408D142002A4A114
:10053000C8DA128180DB40D9F1B0A6AF43686563A9
:100540006B205054542F6B6579005265736574208D
:1005500073657474696E67732E2E00322E303062AC
:100560000020520064426D20005720563A00572068
:1005700020005720523A005720205357523A00503B
:100580006F7765722D6F6666203733203A2D29000C
:10059000524954200049443032303B0000000000F2
:1005A000240027002A0000000000250028002B005E
:1005B00000000000230026002900040404040404B1
:1005C0000404020202020202030303030303010202
:1005D00004081020408001020408102001020408D1
:1005E00010200000000800020100000304070000C2
:1005F0000000000000007E20455449414E4D5355F7
:100600005257444B474F4856462A4C2A504A425864
:1006100043595A512A2A353453332A2A2A322A2A4C
:100620002B2A2A2A4A31363D2F2A2A2A482A372AB3
:10063000472A382A39302A2A2A2A2A2A2A2A2A2ADA
:100640002A2A3F5F2A2A2A2A222A2A2E2A2A2A2AC4
:10065000402A2A2A272A2A2D2A2A2A2A2A2A2A2AE4
:100660003B212A292A2A2A2A2A2C2A2A2A2A3A2AD1
:100670002A2A2A004325E83711241FBECFEFD8E0ED
:10068000DEBFCDBFA4EEB6E0E0E0F1E081918D9356
:10069000EA3081E0F807D1F713E0A0E0B1E0E4ED43
:1006A000F9E702C005900D92A23AB107D9F726E00A
:1006B000A2EAB3E001C01D92A43EB207E1F713E045
:1006C000CBE3D3E004C02197FE010E94B63BCA33BE
:1006D000D107C9F70E9497250C94DD3C0C940000CB
:1006E00028E030E090E8482F4923A9F05298539829
:1006F00000000000539A0000000096952150310937
:1007000091F7529800000000539800000000539A9F
:10071000000000000895529AEACF87FF76C03C9807
:100720003D9800000000000000003D9A000000001D
:100730000000000086FF6BC03C983D980000000060
:10074000000000003D9A000000000000000085FF4E
:1007500060C03C983D9800000000000000003D9AF9
:10076000000000000000000084FF55C03C983D9848
:1007700000000000000000003D9A000000000000A2
:10078000000083FF4AC03C983D9800000000000034
:1007900000003D9A000000000000000082FF3FC002
:1007A0003C983D9800000000000000003D9A0000C9
:1007B00000000000000081FF34C03C983D9800001C
:1007C0000000000000003D9A000000000000000052
:1007D00080FF29C03C983D98000000000000000008
:1007E0003D9A00000000000000003C98000000005E
:1007F000000000003D9800000000000000003D9A4D
:10080000000000000000000008953C9A89CF3C9A47
:1008100094CF3C9A9FCF3C9AAACF3C9AB5CF3C9AB2
:10082000C0CF3C9ACBCF3C9AD6CF2F923F924F92DB
:100830005F926F927F928F929F92AF92BF92CF9270
:10084000DF92EF92FF920F931F93CF93DF9300D02D
:1008500000D0CDB7DEB72091C7063091C8064091D1
:10086000C9065091CA0629833A834B835C83209141
:10087000C406C090D306D090D406E090D506F09080
:10088000D60630E0DC010E94D33B4B015C01BB0C7F
:100890008808982C54019B01AC01682D782D882D77
:1008A000982D07E10E94C43C56016701E12CF12C10
:1008B00000E010E00E94EF3B49015A0149805A8054
:1008C0006B807C80480C591C6A1C7B1C8091C5067F
:1008D0009091C606860D971D8093CF0680E1809388
:1008E000D006852D99278093D1064092D2060F908D
:1008F0000F900F900F90DF91CF911F910F91FF906C
:10090000EF90DF90CF90BF90AF909F908F907F90AF
:100910006F905F904F903F902F900895E091220646
:10092000E7FD15C0F0E0EA50FA4FE491EA3279F0C1
:10093000A1EBB1E011968C9111978D9381E0A03CD1
:10094000B807C1F7E093C00181E08093210681E000
:10095000809322060895DC01ED91FC910190F081D5
:10096000E02D0994EF92FF920F931F93CF93DF93A3
:100970008C017B01D0E0C0E0F701EC0FFD1F64911A
:10098000662361F0D801ED91FC910190F081E02D9A
:10099000C8010995892B11F02196EECFCE01DF9188
:1009A000CF911F910F91FF90EF900895AF92BF925A
:1009B000CF92DF92EF92FF920F931F93CF93DF932B
:1009C0006C017B018B01040F151FEB015E01AE185A
:1009D000BF08C017D10759F06991D601ED91FC917C
:1009E0000190F081E02DC6010995892B79F7C501A9
:1009F000DF91CF911F910F91FF90EF90DF90CF90FB
:100A0000BF90AF900895FC01538D448D252F30E0A9
:100A1000842F90E0821B930B541710F0CF9608950B
:100A200001970895FC01918D828D981761F0A28D38
:100A3000AE0FBF2FB11D5D968C91928D9F5F9F73FE
:100A4000928F90E008958FEF9FEF0895FC01918DB4
:100A5000828D981731F0828DE80FF11D858D90E021
:100A600008958FEF9FEF0895FC01918D228D892FBE
:100A700090E0805C9F4F821B91098F7399270895A6
:100A8000FC01A48DA80FB92FB11DA35ABF4F2C9103
:100A9000848D90E001968F739927848FA689B789FA
:100AA0002C93A089B1898C91837080648C93938DF1
:100AB000848D981306C00288F389E02D80818F7D94
:100AC00080830895EF92FF920F931F93CF93DF934C
:100AD000EC0181E0888F9B8D8C8D98131AC0E8897A
:100AE000F989808185FF15C09FB7F894EE89FF8949
:100AF0006083E889F98980818370806480839FBFE7
:100B000081E090E0DF91CF911F910F91FF90EF90E6
:100B10000895F62E0B8D10E00F5F1F4F0F731127F6
:100B2000E02E8C8D8E110CC00FB607FCFACFE88931
:100B3000F989808185FFF5CFCE010E944005F1CF74
:100B4000EB8DEC0FFD2FF11DE35AFF4FF0829FB7A5
:100B5000F8940B8FEA89FB8980818062CFCFCF9395
:100B6000DF93EC01888D8823B9F0AA89BB89E889D5
:100B7000F9898C9185FD03C0808186FD0DC00FB67B
:100B800007FCF7CF8C9185FFF2CF808185FFEDCFF9
:100B9000CE010E944005E9CFDF91CF9108958330C7
:100BA00081F028F4813099F08230A9F008958730DF
:100BB000A9F08830C9F08430B1F4809180008F7D35
:100BC00003C0809180008F7780938000089584B562
:100BD0008F7784BD089584B58F7DFBCF8091B00061
:100BE0008F778093B00008958091B0008F7DF9CF0A
:100BF000CF93DF93282F30E0F901EE51FA4F849123
:100C0000F901E253FA4FD491F901E654FA4FC49135
:100C1000CC23A1F081110E94CF05EC2FF0E0EE0F64
:100C2000FF1FE055FA4FA591B491EC91ED2381E0BF
:100C300090E009F480E0DF91CF91089580E090E0AA
:100C4000FACF1F93CF93DF93282F30E0F901EE51B5
:100C5000FA4F8491F901E253FA4FD491F901E65425
:100C6000FA4FC491CC23A9F0162F81110E94CF0511
:100C7000EC2FF0E0EE0FFF1FEA55FA4FA591B4916B
:100C80008FB7F894EC91111108C0D095DE23DC9356
:100C90008FBFDF91CF911F910895DE2BF8CFCF93B7
:100CA000DF9390E0FC01E253FA4F249186549A4F6F
:100CB000FC0184918823C9F090E0880F991FFC0102
:100CC000E456FA4FA591B491FC01EA55FA4FC5914B
:100CD000D49161110DC09FB7F8948C912095822317
:100CE0008C938881282328839FBFDF91CF9108951B
:100CF000623051F49FB7F8943C91822F8095832302
:100D00008C93E8812E2BEFCF8FB7F894EC912E2B9C
:100D10002C938FBFEACF8E50806480937C008091AB
:100D20007A00806480937A0080917A0086FDFCCFFF
:100D3000809178009091790008953FB7F894809160
:100D40001C0690911D06A0911E06B0911F0626B5A7
:100D5000A89B05C02F3F19F00196A11DB11D3FBFF3
:100D6000BA2FA92F982F8827BC01CD01620F711DC2
:100D7000811D911D42E0660F771F881F991F4A95BC
:100D8000D1F708958F929F92AF92BF92CF92DF9248
:100D9000EF92FF926B017C010E949D064B015C016A
:100DA000C114D104E104F104B9F00E949D06681950
:100DB00079098A099B09683E73408105910580F392
:100DC00021E0C21AD108E108F10888EE880E83E01C
:100DD000981EA11CB11CE4CFFF90EF90DF90CF9044
:100DE000BF90AF909F908F9008952FB7F894609127
:100DF00018067091190680911A0690911B062FBF54
:100E000008953C9A3D9800000000000000003C98C6
:100E100087B18F7C87B93C9A08953D9A0000000005
:100E2000000000003C980895CF93DF930E940D07C7
:100E300080EC0E948D038EE10E948D03C0ECD6E011
:100E40008F850E948D0388890E948D0389890E9465
:100E50008D038A890E948D03DF91CF910C94010745
:100E6000CF93DF93D82FC62F0E940D0780E40E94F6
:100E70008D038D2F0E948D038C2F0E948D03DF9197
:100E8000CF910C940107CF93DF93D82FC92F6FEF29
:100E900087E00E9430076FEF86E00E9430076D2FD9
:100EA00082E00E94300760E086E00E9430076C2FED
:100EB00083E00E94300760E087E0DF91CF910C94DF
:100EC0003007CF93282F6623A1F081E090E002C085
:100ED000880F991F2A95E2F70E9443076EE170E0A0
:100EE00080E090E00E94C20690E080E00E9443070C
:100EF0000EC08F3F99F490E080E00E944307C0E06D
:100F000060E08C2F0E946107CF5FC031C9F761E0BC
:100F100070E080E090E0CF910C94C20681E090E018
:100F200002C0880F991F2A95E2F7809590958160FD
:100F3000D3CFFF920F931F93CF93DF93C82FF62E3B
:100F4000072F142F0E940D0780EC0E948D038C2F19
:100F50000E948D03CF2DD02F115020F089910E9437
:100F60008D03FACFDF91CF911F910F91FF900C94D9
:100F70000107CF93DF931F92CDB7DEB7698341E0BE
:100F8000BE016F5F7F4F0E9499070F90DF91CF9155
:100F900008952F923F924F925F926F927F928F921D
:100FA0009F92AF92BF92CF92DF92EF92FF920F93F8
:100FB0001F93CF93DF93CDB7DEB764970FB6F89446
:100FC000DEBF0FBECDBF898B48015901FB8AEA8A7B
:100FD000CC8ACB01BA01A90198010E94753B290175
:100FE00019012430310509F497C09B01AC0160E080
:100FF00070E080E090E000E10E94C43CF9017501DE
:10100000640100E010E098018986DA86AB86FC86F0
:101010000D871E872F87388B54016701E12CF12C37
:1010200000E010E09F010E94203CA32FF42FE52F49
:10103000422F5A2F6F2F7E2FC12CD12C7601E39493
:10104000CB01BA0127E0660F771F881F991F2A95E9
:10105000D1F7A70196010E94753B42019694982C06
:10106000882497948794B12CA12C02E0901AA108AF
:10107000B108280D391D4A1D5B1DBC89A0E1BA9F2E
:10108000F0011124842E8E2AE4E02E16310409F09A
:101090004CC0ECE01982CA828E2A8B823C832D835D
:1010A00094E0CC0CDD1CEE1CFF1C9A95D1F7E82ACD
:1010B000EE827F83688748E0BE016F5F7F4F89893A
:1010C000880F880F880F865D0E949907612F6295AF
:1010D000660F660F607CC988C7FE29C060688C2DCA
:1010E000885E0E94B90764960FB6F894DEBF0FBE03
:1010F000CDBFDF91CF911F910F91FF90EF90DF90C7
:10110000CF90BF90AF909F908F907F906F905F90A7
:101110004F903F902F90089540E050E0BA0111E0C9
:10112000C12CD12C7601C3948BCFE0E0B3CF6F609C
:101130008989805F0E94B907EA88FB88E49CA00146
:10114000E59C500DF49C500D112421E01227212F15
:1011500030E0429FC001439F900D529F900D11249B
:101160006AE570E00E944D3B89898B55BACF2F927A
:101170003F924F925F926F927F928F929F92AF9227
:10118000BF92CF92DF92EF92FF920F931F93CF9374
:10119000DF93CDB7DEB760970FB6F894DEBF0FBE12
:1011A000CDBF4B015C0149875A8329833B8321E0F2
:1011B000821623EA920621EEA20621E1B206DCF0B5
:1011C00023E030E0CA01B9010E944D3B69877A8370
:1011D00089819B81B9010E944D3B69837B83C50155
:1011E000B40123E030E040E050E00E94973B490129
:1011F0005A01188611C060E2861661EA960667E019
:10120000A606B104B4F747E0880C991CAA1CBB1CC5
:101210004A95D1F777E0788780E8881683EC9806BE
:1012200089ECA80681E0B8060CF033C16091D306C2
:101230007091D4068091D5069091D60634E0660F61
:10124000771F881F991F3A95D1F7A50194010E9435
:10125000753B190120FE03C0BFEF2B1A3B0AD101D9
:10126000A501940128583341410951090E94DA3BF4
:101270006B017C012091D3063091D4064091D506B4
:101280005091D6064090D3065090D4066090D50673
:101290007090D6064C825D826E827F820E94753B82
:1012A00029013A019101A0E1B7E20E94C43B6C0D13
:1012B0007D1D8E1D9F1D2C813D814E815F810E9471
:1012C000753B421653066406750619F022E0220E9D
:1012D000311CD101A50194010E94DA3B2B013C0194
:1012E0000091D3061091D4062091D5063091D606F0
:1012F000C12CF12CE12CBC01A2018EEF0E94C90788
:10130000C884E984FA8095018401B301A20180E0D8
:101310000E94C907C884E980FB809501B301A2013E
:1013200081E00E94C907C884F12CE12C9501B3012A
:10133000A20182E00E94C9076985062E000C770B86
:101340008981681B710987FD73957D836C83C30157
:10135000B201A50194010E94753BAC81BD81A29FA1
:10136000C001A39F900DB29F900D11246AE570E01B
:101370000E94613B8091D7069091D8068617970707
:1013800041F07093D8066093D70660EA81EB0E9423
:10139000B9076CEF83E00E94B9078092C006909273
:1013A000C106A092C206B092C3062092C406209144
:1013B000D3063091D4064091D5065091D606C3018C
:1013C000B2010E94753B2450310941095E4F3695A8
:1013D000322F2227379527953093C6062093C506CE
:1013E0002091D3063091D4064091D5065091D6066F
:1013F000C090D306D090D406E090D506F090D606E3
:10140000C301B2010E94753B2B013C01812C912C40
:10141000540169875A868B877C868D869E86AF8627
:10142000B88A9B01AC0160E070E080E090E007E1E9
:101430000E94C43C2A83398356016701E12CF12CB8
:1014400000E010E02A8139810E94203CC901DA01C4
:101450008093C7069093C806A093C906B093CA06A6
:1014600060960FB6F894DEBF0FBECDBFDF91CF916F
:101470001F910F91FF90EF90DF90CF90BF90AF90B2
:101480009F908F907F906F905F904F903F902F90A4
:1014900008956091D3067091D4068091D5069091FD
:1014A000D606A1E08A16ABE39A06A8E5AA06A8E04C
:1014B000BA0644F425E0660F771F881F991F2A9506
:1014C000D1F7C3CE94E0292E312CC4CECF936FEF49
:1014D00083E00E94B90760E088E10E94B90760E0FC
:1014E00089E10E94B907C0E160E88C2F0E94B9072A
:1014F000CF5FC831C9F760E08BEB0E94B90760E0AD
:1015000085E90E94B90762ED87EBCF910C94B9078A
:101510003D98000000000000000021E63AEE3599F9
:1015200003C021503109D9F796B190713D9A00005E
:10153000000000000000911101C080E00895CF93E9
:10154000DF93D82F80E80E94880AC82F80E40E9489
:10155000880AC82B80E20E94880AC82B80E10E947A
:10156000880AC82B88E00E94880AC82B84E00E9461
:10157000880AC82B82E00E94880AC82B81E00E945A
:10158000880A8C2BDD2399F03C98000000000000B5
:1015900000003D9800000000000000003D9A00009F
:1015A0000000000000003C98DF91CF9108953C9A24
:1015B000ECCFCF93DF93C82F0E940D0780E80E94E5
:1015C0008D038C2F0E948D030E9401070E940D073E
:1015D00081E80E948D0380E00E949F0AC82FD0E01E
:1015E000DC2FCC2781E00E949F0AC82B0E940107B4
:1015F000CE01DF91CF910895529A539800000000D8
:10160000529808955A985B98529853980000000099
:10161000529A00000000539A000000000895CF93F2
:10162000C82F0E94020B88E70E94700380E40E948A
:10163000700380E0C11180EF0E947003CF910C9481
:10164000FC0A8091B001823069F085E08093A301AB
:101650008091B001823041F484E08093CC051092F7
:10166000CD05089586E0F2CF1092CC0508950F9332
:101670001F93CF93DF9340916705C0916401C41B12
:10168000DD0BE7E6F4E030E020E00FEF10E0C90109
:10169000B8010E944D3B640F61932C0F3D1F85E004
:1016A000E736F807A1F7DF91CF911F910F910895C9
:1016B00080917A00806480937A008091D503809332
:1016C0008A00809178009091790020916601925073
:1016D0002450330B02C0880F991F2A95E2F7803EF1
:1016E0002FEF92074CF0803E910514F08FED90E0C3
:1016F00080968093D503089580E0FBCFEAE7F0E081
:101700008081806480838091660580938A000E9436
:101710001407809178009091790020916601925091
:1017200002C0880F991F2A95E2F70C9415040895BA
:1017300062EF73E089ED96E00C94B20490917E0024
:10174000E1E0F0E0082E01C0EE0F0A94EAF79E2BCC
:1017500090937E0010927A0010927B0010927C0091
:1017600090917C00892B80937C0080917C0090E498
:10177000611190EC892B80937C0068EB7BE787E11B
:1017800090E00E94753B80E0369527952115310544
:1017900011F08F5FF9CF90917A008770892B809339
:1017A0007A0080917A00806880937A000895809111
:1017B000C60580937C00EAE7F0E080818064808346
:1017C00020917800309179002F5F31408DE29EE0CA
:1017D00090936A058093690580915B0490915C0405
:1017E0004091590450915A04480F591FCA01880F5B
:1017F000991F840F951F820F931F4091570450919A
:101800005804840F951F9595879530935C04209319
:101810005B0420915504309156044091530450913B
:101820005404420F531F9A01220F331F240F351FF8
:10183000280F391F4091510450915204240F351F35
:101840003093500420934F04909356048093550492
:1018500008958091C60580937C00EAE7F0E08081DE
:101860008064808380917800909179002CEA3CE03C
:1018700030936A05209369052091590430915A04E8
:1018800030935804209357048F5F914090935A04EB
:101890008093590408958091C60580937C00EAE7FF
:1018A000F0E080818064808320917800309179001D
:1018B0002F5F314082E29DE090936A058093690535
:1018C0008091530490915404909352048093510456
:1018D00080915B0490915C044091590450915A04AA
:1018E000480F591FCA01880F991F840F951F820F37
:1018F000931F4091570450915804840F951F95955C
:101900008795909354048093530430935C04209300
:101910005B0408958091C60580937C00EAE7F0E0BF
:10192000808180648083809178009091790027EB9A
:101930003DE030936A052093690520915904309168
:101940005A0430935804209357048F5F914090932A
:101950005A048093590408958091C70580937C00B0
:1019600080917A00806480937A0020917800309191
:1019700079002F5F31408091490490914A04820F91
:10198000931F97FD01969595879530934A04209370
:1019900049042091CB05222331F110924804109282
:1019A000470410924404109243042091470430915C
:1019B0004804309346042093450420E8209388008F
:1019C00027ED3BE030936A052093690520914D0493
:1019D00030914E0430934C0420934B0490934E046A
:1019E00080934D0408954091450450914604209100
:1019F000430430914404240F351F30934404209352
:101A000043046091470470914804460F571F509358
:101A1000460440934504359527953595279535958A
:101A2000279535952795359527952F37310514F04E
:101A30002FEFC4CF20384FEF340714F420E83FEFE6
:101A40002058BCCF8091C70580937C0080917A009C
:101A5000806480937A0040917800509179004F5FC4
:101A600051408091490490914A04840F951F97FD3D
:101A700001969C013595279550934A04409349045B
:101A80008091CB05882309F443C01092480410923A
:101A900047041092440410924304809147049091AB
:101AA0004804909346048093450480E8809388001E
:101AB00089E29CE090936A058093690580914104D6
:101AC000909142049093400480933F0480913D04A0
:101AD00090913E0440914D0450914E04480F591F7F
:101AE000CA01880F991F840F951F820F931F409181
:101AF0004B0450914C04840F951F959587959093B6
:101B000042048093410430933E0420933D040895A1
:101B100040914504509146048091430490914404BF
:101B2000840F951F9093440480934304609147046D
:101B300070914804460F571F509346044093450444
:101B4000959587959595879595958795959587957D
:101B5000959587958F37910514F08FEFA7CF803833
:101B60004FEF940714F480E89FEF80589FCF809147
:101B7000C70580937C0080917A00806480937A000E
:101B800020917800309179002F5F31408091490495
:101B900090914A04820F931F97FD01969595879522
:101BA00030934A04209349042091CB05222331F13C
:101BB0001092480410924704109244041092430477
:101BC0002091470430914804309346042093450403
:101BD00020E8209388002BE43CE030936A052093B2
:101BE000690520914D0430914E0430934C042093AC
:101BF0004B0490934E0480934D0408954091450406
:101C0000509146042091430430914404240F351F21
:101C10003093440420934304609147047091480436
:101C2000460F571F5093460440934504359527951A
:101C3000359527953595279535952795359527958C
:101C40002F37310514F02FEFC4CF20384FEF340772
:101C500014F420E83FEF2058BCCF4F925F926F9270
:101C60007F928F929F92AF92BF92CF92DF92EF922C
:101C7000FF920F931F93CF93DF938091C7058093BB
:101C80007C0080917A00806480937A004091780093
:101C9000509179004F5F51408091490490914A04DE
:101CA000840F951F97FD01969C01359527955093BC
:101CB0004A04409349048091CB05882309F4C9C2A2
:101CC0001092480410924704109244041092430466
:101CD0008091470490914804909346048093450472
:101CE00080E8809388008AE89CE090936A0580935E
:101CF000690580913D0490913E0440914D045091BE
:101D00004E04480F591FCA01880F991F840F951F51
:101D1000820F931F40914B0450914C04840F951FE8
:101D20009595879530933E0420933D0460903B0445
:101D300070903C042091410430914204260D371DDF
:101D40003901660C771C620E731E680E791E209195
:101D50003F0430914004620E731E90933C048093C4
:101D60003B0460914F04709150048091CB05811128
:101D70005BC28091390490913A04209137043091EC
:101D80003804DC01A21BB30B9D0140913504509136
:101D90003604FD01E41BF50BAF015093480440935A
:101DA000470440913404542F4F5F40933404511141
:101DB00007C078948091390490913A04409134049A
:101DC000309336042093350490933804809337047D
:101DD0008091760102C0759567958A95E2F7C0906B
:101DE0001C04D0901D04A0903004B0903104E09009
:101DF0002004F0902104A0912C04B0912D04F7014F
:101E0000EA1BFB0B0091240410912504C0912804C7
:101E1000D091290498012C1B3D0B809018049090C0
:101E20001904861A970AC6018A199B09880F991FF7
:101E3000880F991F880E991E97FE03C05FE3850ED9
:101E4000911C082C892C000C881C9908000C881CFB
:101E5000991CCF01820F931F97FD07969595879543
:101E60009595879595958795880E991ECF01880F32
:101E7000991F880F991F8E0F9F1F821B930B97FF2F
:101E800002C081589F4F880F892F881F990B880D9A
:101E9000991D37FF02C02F5F3F4F35952795280FBB
:101EA000391F80911A0490911B0490931904809318
:101EB0001804D0921B04C0921A0480911E049091C1
:101EC0001F0490931D0480931C04F0921F04E09261
:101ED0001E04809122049091230490932104809306
:101EE00020041093230400932204809126049091EF
:101EF00027049093250480932404D0932704C0934F
:101F0000260480912A0490912B04909329048093B5
:101F10002804B0932B04A0932A0480912E0490915E
:101F20002F0490932D0480932C04B0922F04A09240
:101F30002E04809132049091330490933104809365
:101F4000300470933304609332048091760102C0B0
:101F5000759467948A95E2F77092610460926004C8
:101F60007093170460931604E0910804F09109043B
:101F700080910A0490910B049093090480930804C3
:101F800080910C0490910D0490930B0480930A04AB
:101F900080910E0490910F0490930D0480930C0493
:101FA000809110049091110490930F0480930E047B
:101FB0008091120490911304909311048093100463
:101FC000809114049091150490931304809312044B
:101FD0007092150460921404F195E195F109E21BE9
:101FE000F30B90910704CFEFC90FC0930704C09083
:101FF0000304D0900404E0900504F09006049111CD
:1020000072C0C0928005D0928105E0928205F09264
:102010008305109203041092040410920504109298
:1020200006048091B001843009F475C08091B0013C
:10203000833009F4D5C1809131018111C6C08091EE
:1020400097018E300CF42DC1809197018D5002C004
:10205000EE0FFF1F8A95E2F78091CD05811133C104
:102060008091CC0581114FC1C090FB03D090FC033F
:10207000E090FD03F090FE03CF7309F0CBC1C09256
:102080007405D0927505E0927605F092770510926E
:10209000FB031092FC031092FD031092FE03E11566
:1020A0005EEFF50714F4E0E0FEEFE11562E0F607FD
:1020B00014F0EFEFF1E0F0933A04E093390441506B
:1020C00040933404DF91CF911F910F91FF90EF90D7
:1020D000DF90CF90BF90AF909F908F907F906F9048
:1020E0005F904F900895CF01F7FDACC1092E000C11
:1020F000AA0BBB0B8C0D9D1DAE1DBF1D8093030451
:1021000090930404A0930504B09306048091B00159
:10211000843009F08BCF809160049091610420910C
:10212000600430916104181619061CF03195219550
:1021300031098091160490911704181619060CF0B5
:102140006EC28091160490911704821793070CF4C5
:102150007EC18091160490911704E0911604F091CD
:102160001704181619061CF0F195E195F1098091F4
:10217000600490916104181619060CF060C28091F9
:1021800060049091610497FD0396959587959595C8
:102190008795E80FF91F80910104909102049F0137
:1021A000281B390B37FF02C02F5F3F4F359527950E
:1021B000280F391F3093020420930104E21BF30B14
:1021C00080913101882309F43ACF809101019091E7
:1021D0000201811564E096070CF054C12F2F25955C
:1021E00025953F2F330F330B37FF03C031952195D2
:1021F000310961E070E0DB01A21BB30B6FEF7FE7F9
:10220000681B790BA617B70734F48A0F9B1F9093AE
:10221000020180930101181619060CF0F5C12091F6
:10222000970180E190E041C010923A041092390485
:10223000109238041092370410923604109235042C
:102240001092CB0550E040E030E020E090E080E0EC
:10225000A4CD40914504509146048091430490914F
:102260004404840F951F9093440480934304609129
:10227000470470914804460F571F509346044093FB
:102280004504959587959595879595958795959509
:102290008795959587958F3791050CF4E6C18FEF5B
:1022A00020CD209197018DE090E0821B910927FDC0
:1022B000939502C0F595E7958A95E2F78091CD0553
:1022C000882309F4CDCE0091E7031091E803209113
:1022D000CD05CF01801B910B2150330B61E070E0E5
:1022E00002C0660F771F2A95E2F70E94613BFB014F
:1022F000E00FF11FF093E803E093E7038091CC0532
:10230000882309F4B1CE8091CC05E090F303F090DE
:10231000F403C090ED03D090EE03A090F703B090CB
:10232000F803843008F0BDC08091F9039091FA035E
:10233000F093FA03E093F9039F01281B390B5EE148
:10234000529FC001539F900D112459E15E9F90014F
:102350005F9F300D1124820F931F97FD4F96959527
:102360008795959587959595879595958795959555
:1023700087952091CC05223009F496C2233009F4C8
:1023800075C2213009F43CC22091EF033091F00373
:102390005091CC05523009F413C2533009F4F0C106
:1023A000513009F4B6C1E091E903F091EA03D0920B
:1023B000EC03C092EB03F093EE03E093ED03F09295
:1023C000F203E092F1033093F4032093F303B0920D
:1023D000F603A092F5039093F8038093F70344CE9D
:1023E00080916004909161048E0F9F1F2091FF03E4
:1023F00030910004829FF001839FF00D929FF00DB9
:102400001124809160049091610490930004809362
:10241000FF0311CECF01F7FF04C0882799278E1B39
:102420009F0B092E000CAA0BBB0B8C0D9D1DAE1D26
:10243000BF1D8093FB039093FC03A093FD03B09317
:10244000FE032DCE882799278E1B9F0B4FCE8091A0
:10245000600490916104E0916004F09161041816A9
:1024600019061CF0F195E195F109809116049091FF
:102470001704181619060CF0DAC080911604909112
:10248000170481CE9C01232F330F330B25952595FF
:10249000DF01A29FF001A39FF00DB29FF00D112468
:1024A0009DCEE114B0ECFB062CF4C1142FEFD20644
:1024B0000CF4CAC08091CC05853009F489C208F4B7
:1024C000E3C0863009F4D9C02091F1033091F203C2
:1024D000A3ECBFEF873009F076C20E94BC3B2B0112
:1024E0003C012EE630E0D7010E94D33B93018201EC
:1024F000060F171F281F391F37FF04C0015C1F4F2D
:102500002F4F3F4F56E035952795179507955A95CC
:10251000D1F70A0D1B1D1093F0030093EF03809178
:10252000CC05853009F4E6C108F4BEC0863009F454
:1025300016C2873009F00EC2C701880F991FB80173
:10254000681B790B8090F1039090F203860E971E22
:1025500097FE03C02FE1820E911C95948794959469
:1025600087949594879495948794959487942091D3
:10257000EB033091EC03A2ECBFEF0E94BC3B2B01BC
:102580003C0120E730E0D6010E94D33B460E571EA7
:10259000681E791E77FE05C03FE3430E511C611C87
:1025A000711CC301B20126E09595879577956795D3
:1025B0002A95D1F7680D791D7093EA036093E903BA
:1025C000D092EC03C092EB037093EE036093ED03A3
:1025D000F092F203E092F1031093F4030093F303FB
:1025E000B092F603A092F503F093F803E093F7039B
:1025F00077FF02C0695F7F4FFB01F595E795F59581
:10260000E795F595E79530CD81E090E09093020154
:10261000809301012091970180E190E046CE809166
:102620001604909117049195819591098ECD809112
:10263000160490911704919581959109A4CD8091EC
:10264000600490916104F7CF1092F4031092F303A9
:102650001092F2031092F1031092EE031092ED0328
:10266000D12CC12CF12CE12C25CF80384FEF9407D1
:1026700014F480E89FEF805834CB2091F10330911F
:10268000F203A2ECBFEF29CF843009F09CC1209166
:10269000F1033091F203A7ECBFEF0E94BC3B2B018A
:1026A0003C0122E730E01FCF843009F053C1209174
:1026B000EB033091EC03ACECBFEF0E94BC3B2B0171
:1026C0003C012FE530E0D6010E94D33B460E571E59
:1026D000681E791E77FE05C03FE3430E511C611C46
:1026E000711CD6E07594679457944794DA95D1F7A6
:1026F000C701880F991FB801681B790BCB01209186
:10270000F1033091F203820F931FBC01640D751D1C
:1027100053CFF701EE0FFF1FE20FF31F6091F1039C
:102720007091F203E60FF71FF7FD3196F595E795E7
:102730006091EB037091EC035BE0569FD001579FD3
:10274000B00D1124B601660F771F660F771F660F55
:10275000771F6C0D7D1D660F771FA60FB71FB7FD86
:102760001F96B595A795B595A795B595A795B595D8
:10277000A795EA1BFB0BF093EA03E093E90317CE5E
:10278000F701EE0FFF1FE20FF31F6091F10370914D
:10279000F203E60FF71FF7FD3396F595E795F595EC
:1027A000E7956091EB037091EC0377FF02C06D5FDA
:1027B0007F4F7595679575956795E61BF70BDBCF92
:1027C000F701EE0FFF1FE20FF31F6091F10370910D
:1027D000F203E60FF71FF7FD3396F595E795F595AC
:1027E000E795A091EB03B091EC03AA0FBB1FAC0DD2
:1027F000BD1DB7FD1396B595A795B595A795B9CF0E
:102800009501220F331F280F391F6091F503709136
:10281000F603260F371F37FF02C02F5F3F4F359556
:102820002795E091F103F091F2035BE05E9FB00128
:102830005F9F700D11245DE05E9DF0015F9DF00DC6
:1028400011246E0F7F1F77FF02C0615F7F4F759568
:102850006795759567957595679575956795261B29
:10286000370B3093F0032093EF0392CD9501220FA5
:10287000331F280F391F6091F5037091F603260F5F
:10288000371F37FF02C02F5F3F4F35952795609167
:10289000F1037091F20377FF02C06D5F7F4F759572
:1028A000679575956795DBCF9501220F331F280F2C
:1028B000391F6091F5037091F603260F371F37FF1C
:1028C00002C02F5F3F4F359527956091F1037091BE
:1028D000F203660F771F660F771F6E0D7F1D77FF60
:1028E00002C0695F7F4F759567957595679575957A
:1028F0006795B5CFC701880F991FB801681B790B81
:102900008090F1039090F203860E971E97FE03C00D
:1029100073E0870E911C95948794959487942091E9
:10292000EB033091EC03A5ECBFEF0E94BC3B2B0105
:102930003C012AE630E0D6010E94D33B460E571EEA
:10294000681E791E77FE2DCE8FE3480E511C611C48
:10295000711C27CE6091E9037091EA0331CEC70163
:10296000880F991FB801681B790B8090F103909034
:10297000F203860E971E97FE03C0AFE08A0E911CED
:102980009594879495948794959487949594879437
:102990002091EB033091EC03A2ECBFEF0E94BC3B13
:1029A0002B013C0121E730E0D6010E94D33B460ECB
:1029B000571E681E791E77FEF4CDBFE34B0E511CE7
:1029C000611C711CEECD0091EF031091F003A7CDB7
:1029D0002091F1033091F203A4ECBFEF0E94BC3BC5
:1029E0002B013C0121E730E07ECDCF92DF92EF92C8
:1029F000FF926B017C010E94F506C60ED71EE81EF1
:102A0000F91E0E94F5066C157D058E059F05C0F424
:102A1000A89581E10E94F805892B29F48CE00E9499
:102A2000F805892B39F481E10E94F805892B71F0B2
:102A3000A895F9CF8DE00E94F805892B11F7F3CF07
:102A400080E0FF90EF90DF90CF90089581E0F9CF84
:102A500090918A00809166059817A8F4AAE1B4E0E5
:102A60002BEE30E0EC91F0E0E491F0E0E959FB4F1F
:102A7000908190938A00F9013197F1F7119763E003
:102A8000AB3FB60779F780938A00E091650174E067
:102A9000E79FF0011124E853FE4F208131814281EC
:102AA0005381AEE1B3E00E94DA3B20EC32E140E03A
:102AB00050E00E94753B809100013091D4032802C0
:102AC000C0011124EFE7F0E0BF010E94613B360F27
:102AD0003093D4038091D403309100012802C001C7
:102AE0001124BF010E94613B361B3093000180918D
:102AF000D403082E000C990B409197012DE030E093
:102B0000B901641B710947FD7395663071057CF44A
:102B100040919701241B310947FD339502C09595DB
:102B200087952A95E2F7805880938800089525E0DC
:102B300030E0F4CF0F931F93CF93DF93E2EBF3E0FA
:102B400020ED33E042815381419351932E173F078B
:102B5000C9F79C01220F331F4091B0035091B1037C
:102B6000240F351F440F551F841B950BE3E0F0E045
:102B7000BF010E94613B7093B1036093B0038091E9
:102B8000AE039091AF03880F991F820F931FBF016F
:102B90000E94613B7093AF036093AE03261B370B1B
:102BA0003093D1032093D0038091C0039091C1034F
:102BB000FC01EE0FFF1F4091BE035091BF036091D7
:102BC000C2037091C303461B570B2091B60330918B
:102BD000B7036091CA037091CB03261B370B220FFA
:102BE000331F220F331F6091B2037091B303A09182
:102BF000CE03B091CF036A1B7B0B260F371F220F2A
:102C0000331F6091BA037091BB03A091C603B091CA
:102C1000C7036A1B7B0BC5E1C69FD001C79FB00DE0
:102C200011242A0F3B1FBA0114E0660F771F1A9573
:102C3000E1F7260F371F37FF02C0215C3F4F66E0E8
:102C4000359527956A95E1F7240F351FE230F10598
:102C500044F4CF01F7FD019695958795919581955F
:102C60009109B9012230310594F07595679568177F
:102C700079073CF1E230F1050CF4CEC0CF01B3E0AE
:102C800095958795BA95E1F7860F971F22C037FF74
:102C900002C06F5F7F4F759567957195619571095A
:102CA000681779073CF7A90137FF02C0495F5F4FFA
:102CB000C3E055954795CA95E1F75195419551095E
:102CC00006C0A901D3E055954795DA95E1F7840F41
:102CD000951F409170014817190608F0AEC0409149
:102CE000E4054111A8C04FEF4093E405409166010F
:102CF00002C0880F991F4A95E2F78F3F910509F0AE
:102D000020F440916601483011F48FEF90E040913B
:102D1000E405442309F49AC089599B4FDC018C9146
:102D20008093D503E90137FF04C0CC27DD27C21B00
:102D3000D30B8F01F7FF04C0002711270E1B1F0BB9
:102D40000C171D070CF084C045EE4003C001419FE5
:102D5000900D1124BE010E94613B6A597F4F609F14
:102D6000C001619F900D709F900D1124BE010E94C3
:102D7000613B86E990E0AC01461B570BBA01F7FFB7
:102D800006C08CE291E0DC01A61BB70BBD0137FF4A
:102D900003C07195619571098091AC039091AD0369
:102DA0009B01281B390B7093AD036093AC0337FF75
:102DB00002C0285A3D4F8091CC05882309F464C095
:102DC0008CE291E082179307BCF48091CC058823B4
:102DD00009F45DC08CE291E0281B390B621B730B78
:102DE0007093AD036093AC038091CC052CE231E08D
:102DF000811102C028E532E08091B001813009F0F4
:102E000049C0C90123E0880F991F2A95E1F7DF9196
:102E1000CF911F910F910895AF01F7FF02C0495F55
:102E20005F4FA3E055954795AA95E1F78827992725
:102E3000841B950B29CF4EEF57CF4091E4054423D7
:102E400009F454CF4091E40541504ECF80E068CF63
:102E500070E060E0309709F49ACF45EEBE0146037A
:102E6000C001479F900D1124B8010E94613B6A592F
:102E70007F4F6C9FC0016D9F900D7C9F900D112422
:102E8000B8010E94613B7BCF88E592E09BCF88E54B
:102E900092E0A2CF48EF4203C001439F900D11245E
:102EA000B6CFCF93DF93C0917800D0917900809115
:102EB0007A00806480937A000E9414078091D50381
:102EC00080938A008091780090917900C80FD91F73
:102ED00080917A00806480937A008091D2039091EF
:102EE000D3030E949A152091780030917900C20F87
:102EF000D31F20917A00206420937A000E94150449
:102F0000209178003091790090917A0090649093AC
:102F10007A00CE01820F931F97FD039695958795B2
:102F200095958795805E91409093D3038093D203CB
:102F30008091E405813031F410928A006FEF83E0D4
:102F40000E94B9078091E4058F3F31F46BEF83E075
:102F5000DF91CF910C94B907DF91CF910895CF9372
:102F6000DF93EC016C834D830E94020B88E70E9483
:102F7000700380E00E9470038D8187709E81892B91
:102F80000E947003CC818C2F82958F7080610E948B
:102F900070038C2F8F700E947003DF91CF910C947F
:102FA000FC0ACF93DF93C82FD62F8091E2068823A7
:102FB00019F080E00E940F0B4091E306D49F402D52
:102FC00011246C2F660F660F660F89ED96E00E9444
:102FD000AF178091E206882369F081E00E940F0B11
:102FE0004091DE066091DD0689ED96E0DF91CF919C
:102FF0000C94AF17DF91CF9108950F931F93CF9348
:10300000DF93C82FD62F8A0162E080E00E94D1179B
:103010000E94980B0E94980BC13009F040C060E0FC
:1030200080E00E94D117CD2FCF706D2F62956F7009
:10303000605D89ED96E00E94AB046EE289ED96E05A
:103040000E94AB04CA3030F0CA5061E389ED96E0CB
:103050000E94AB0460E36C0F89ED96E00E94AB0424
:1030600060E289ED96E00E94AB04B80189ED96E03C
:103070000E94B2040E94980B0E94980B61E080E0CD
:103080000E94D1178091E3058230E0F06EE389ED74
:1030900096E0DF91CF911F910F910C94AB0461E00A
:1030A00080E00E94D117B80189ED96E00E94B20439
:1030B0006AE174E089ED96E0DF91CF911F910F9165
:1030C0000C94B204DF91CF911F910F9108958091DC
:1030D000A30161E08F5F0E94D11781E08093E20637
:1030E00008959091A301980F9093A3019091A3014B
:1030F000911103C098E09093A3019091A30199309E
:1031000018F091E09093A3019091A301943021F0E5
:103110009091A301923029F49091A301890F80939B
:10312000A3010C9467188F929F92AF92BF92CF9297
:10313000DF92EF92FF92F0906D058091E603F81612
:1031400009F47FC08091E305811110C01092E2065E
:1031500061E08FE00E94D11762E5F11001C060E2EA
:1031600089ED96E00E94AB040E9467188090D60318
:103170009090D703A090D803B090D90380916D05AB
:10318000882309F494C00E94F5066093E2037093CB
:10319000E3038093E4039093E5030E94F506C09057
:1031A000DE03D090DF03E090E003F090E1039B01A9
:1031B000AC012C193D094E095F0969017A01C092E1
:1031C000DA03D092DB03E092DC03F092DD0380911E
:1031D0002206823030F1D501C401880F991FAA1F41
:1031E000BB1F8C159D05AE05BF05D8F40E948E044B
:1031F00060EB74E080E090E0A50194010E94753BD3
:10320000CA01B901A2E0660F771F881F991FAA950E
:10321000D1F723E030E040E050E00E94753B20937E
:103220007501A5E0B0E0A50194010E94DA3BC61645
:10323000D706E806F90628F081E0809322060E946E
:103240008E040E94F506C090DE03D090DF03E0906C
:10325000E003F090E1039B01AC012C193D094E09FC
:103260005F0969017A012091D6033091D70340911B
:10327000D8035091D903A6E0B0E00E94DA3B6C1568
:103280007D058E059F0530F480912206823010F076
:103290000E948E0480916D058093E603FF90EF906D
:1032A000DF90CF90BF90AF909F908F9008950E9435
:1032B000F5066093DE037093DF038093E003909341
:1032C000E1030E94F506C090E203D090E303E09092
:1032D000E403F090E5039B01AC012C193D094E0974
:1032E0005F0969017A01D501C401880F991FAA1FDE
:1032F000BB1FC816D906EA06FB0620F089288A28D3
:103300008B28A1F4BC01CD016C0D7D1D8E1D9F1D70
:1033100023E030E040E050E00E94753B2093D6036C
:103320003093D7034093D8035093D9032091D60309
:103330003091D7034091D8035091D903A5E0B0E074
:103340000E94DA3B6C157D058E059F0580F4C70150
:10335000B60123E030E040E050E00E94753B20934E
:10336000D6033093D7034093D8035093D9034091A9
:10337000D6035091D7036091D8037091D903DB0134
:10338000CA01B695A795979587958C159D05AE05AD
:10339000BF0508F056CF8091220690E0880F991F54
:1033A000440F551F661F771F21E04C155D056E0504
:1033B0007F0508F020E0822B8093220642CF5F92A7
:1033C0006F927F928F929F92AF92BF92CF92DF9235
:1033D000EF92FF920F931F93CF93DF936A3009F41C
:1033E0005BC0FC012481293708F056C00EE5693026
:1033F00008F000EE060FEC017D802A85622F70E058
:1034000081E090E001C0880F2A95EAF7FF24FA9442
:10341000F80E88E090E00E94613B6B01F8E00F9F9E
:1034200080011124E12C662463940E531F4F0E94E7
:10343000020B88E70E94700380E40E947003AE2CA8
:10344000B12CAC9CC001AD9C900DBC9C900D112486
:10345000562C01C0550C8A95EAF7912C812CF80165
:10346000E80DF91DE4913A858E2F313061F1952DEB
:103470002F2D80E0992339F1492F4E2309F0822B1B
:10348000032E01C0220F0A94EAF7990FF3CF6C8143
:10349000685F813099F46C8381E090E0DF91CF9197
:1034A0001F910F91FF90EF90DF90CF90BF90AF9062
:1034B0009F908F907F906F905F900895472DCE01E1
:1034C0000E94AF17E9CF9885911180950E947003F3
:1034D0004FEF841A940A58E08516910409F0BFCF83
:1034E0000E94FC0A8A85E82FE150FF0BAE16BF064A
:1034F00071F24D814F5F6C81CE010E94AF17E39452
:1035000096CF8DE00E94F805892B51F480916404D8
:1035100091E0811192E08091E105892B8093E10592
:103520008CE00E94F805892B51F48091640492E0AC
:10353000811191E08091E105892B8093E105089547
:10354000089590E080E00895FB0101900020E9F7E4
:103550003197AF01461B570BDC01ED91FC910280C6
:10356000F381E02D09948F929F92AF92BF92EF92D8
:10357000FF920F931F93CF93DF93CDB7DEB7A19741
:103580000FB6F894DEBF0FBECDBF7C01FA01CB01B0
:1035900019A2223008F42AE08E010F5D1F4F822EFF
:1035A000912CB12CA12CBF01A50194010E94753B67
:1035B000F901CA016A300CF5605DD8016E938D0186
:1035C000232B242B252B79F790E080E0109721F016
:1035D000BD01C7010E94A41AA1960FB6F894DEBFE0
:1035E0000FBECDBFDF91CF911F910F91FF90EF9054
:1035F000BF90AF909F908F900895695CDECFCF927F
:10360000DF92EF92FF920F931F93CF93DF9377FF99
:103610001DC06A017B01EC016DE20E94AB048C01CC
:1036200044275527BA014C195D096E097F092AE024
:10363000CE010E94B31A800F911FDF91CF911F918D
:103640000F91FF90EF90DF90CF9008952AE0DF91E7
:10365000CF911F910F91FF90EF90DF90CF900C943E
:10366000B31AAB01770F660B770B0C94FF1A2F92EE
:103670003F924F925F926F927F928F929F92AF9202
:10368000BF92CF92DF92EF92FF920F931F93CF934F
:10369000DF938B01D82FC92F8AE0282E312C812C63
:1036A0009AEC992E9AE9A92E9BE3B92E2AE0422E94
:1036B000512C612C712CB8018D2F9C2FA5019401E8
:1036C0000E94753B69018B01D82FC92F2AE0BA01EE
:1036D000A60183E296E00E94B31AC501B401A301DA
:1036E00092010E94753B49015A0181E0281A310874
:1036F00011F7DF91CF911F910F91FF90EF90DF9025
:10370000CF90BF90AF909F908F907F906F905F9081
:103710004F903F902F9008954F925F926F927F92BB
:103720008F929F92AF92BF92CF92DF92EF92FF92D1
:103730006B017C01AC019B010E94053B66E472E0D9
:10374000811126C046015701E894B7F82FEF3FEFEB
:103750004FE75FE7C501B4010E94053B81110CC032
:103760002FEF3FEF4FE75FE7C501B4010E948438B8
:103770006AE472E0181664F02FEF3FEF4FE75FE462
:10378000C701B6010E943B3A181694F46EE472E049
:1037900089ED96E0FF90EF90DF90CF90BF90AF90D3
:1037A0009F908F907F906F905F904F900C94A41A91
:1037B0002FEF3FEF4FE75FECC701B6010E9484385F
:1037C00087FDE4CF20E030E0A901C701B6010E94E7
:1037D0008438B12CA12C87FF0AC06DE289ED96E0F8
:1037E0000E94AB045C01F7FAF094F7F8F0942AE039
:1037F00037ED43EA5BE3C701B6010E9418382B019D
:103800003C010E9402396B017C010E9431399B010D
:10381000AC01C301B2010E9417382B013C012AE020
:10382000B701A60189ED96E00E94B31A7C01EA0C6B
:10383000FB1C6EE289ED96E00E94AB04E80EF91ED7
:1038400020E030E040E251E4C301B2010E94983A26
:103850002B013C010E9402394B01B12CA12C2AE022
:10386000B501A40189ED96E00E94B31AE80EF91E95
:10387000C501B4010E9431399B01AC01C301B20101
:103880000E94173820E030E040E251E40E94983A6C
:103890000E940239AB0170E060E02AE089ED96E019
:1038A0000E94B31A8E0D9F1DFF90EF90DF90CF9076
:1038B000BF90AF909F908F907F906F905F904F9050
:1038C00008956115710511F00C94A41A90E080E040
:1038D000089562E572E083E296E00E94611C6091C7
:1038E000A9017091AA018091AB019091AC010E9455
:1038F000371B62E175E083E296E00E94B2046091BA
:10390000B00170E06F5F7F4F83E296E00E94311B51
:1039100069E075E083E296E00C94B20460E080E038
:103920000E94D1171092610410926004809160048B
:1039300090916104099789F18091600490916104EC
:10394000089721F461E080E00E94D117E0916004C3
:10395000F0916104EC51F94F8081803128F460E3EB
:1039600089ED96E00E94AB04E0916004F09161045F
:10397000EC51F94F408150E070E060E020E189EDCA
:1039800096E00E94B31A80916004909161040196C0
:103990009093610480936004C9CF90916F018091EE
:1039A000ED069813FECF60E080E00E94D11768E634
:1039B00071E089ED96E00E94611C61E089ED96E07E
:1039C0000E94AB040E94980B0C94980BCF93C82FC5
:1039D000809170008D7F809370008BE490E0019760
:1039E000F1F7F8948091EB059091EC05A091ED052D
:1039F000B091EE05892B8A2B8B2B41F58091C50563
:103A0000882321F1CC2311F18091E40581111EC09E
:103A10008091630481111AC060E088E00E94210651
:103A200060E08BE00E94210661E08FE00E94D117E8
:103A300064E489ED96E00E94AB0478946091C5053A
:103A400070E090E080E00E94C206F894C093E40524
:103A5000CC2309F46AC080910301909104019093F2
:103A60005F0480935E041092EB051092EC051092B7
:103A7000ED051092EE058091B001823009F44CC042
:103A800008F443C0833009F44DC0843009F447C0C2
:103A90007894CC2309F492C08091C80580937C006F
:103AA00010926B058091A801882361F08091B0018C
:103AB000823041F481E0C11101C080E080936D0546
:103AC0000E949318CC2309F4C3C08091630460E082
:103AD000882309F477C088E00E94210661E08FE026
:103AE0000E94D11760E589ED96E00E94AB046FEF6C
:103AF00083E00E94B90780E48093B3008091700056
:103B0000826080937000CF91089581E597E1909352
:103B10006A0580936905BCCF88E295E1F8CF88E516
:103B20009BE0F5CF8EE79BE0F2CF8091B001823031
:103B300061F48091EB059091EC05A091ED05B091B9
:103B4000EE05892B8A2B8B2B99F080915E04909146
:103B50005F0490930401809303011092EB0510928F
:103B6000EC051092ED051092EE058DE29EE0CFCFB0
:103B70000E94F506AB01BC018091D9059091DA0550
:103B8000A091DB05B091DC0523E0880F991FAA1FE7
:103B9000BB1F2A95D1F7840F951FA61FB71F8093CF
:103BA000EB059093EC05A093ED05B093EE058091A5
:103BB000C4058823D1F287E99BE0A9CF81E08093F7
:103BC000CB056ECF88E00E94210660E08BE00E946A
:103BD000210661E08FE00E94D11764E589ED96E04F
:103BE0000E94AB048091B001823049F58091BC0500
:103BF0009091BD05A091BE05B091BF0591958195AD
:103C000091090E9415040E9414076BEF83E00E9443
:103C1000B90780E88093880080915D04811109C014
:103C20008091B001823029F0809180008F7780935D
:103C30008000809180008062809380005CCF8091C2
:103C4000EF059091F005892B01F390E080E0D9CF4A
:103C500080918A008823A9F0ABEFB3E02AE134E039
:103C60004BEE50E0ED91F0E0E491F0E0E959FB4FCC
:103C7000808180938A00CA010197F1F72A173B07D8
:103C800089F7809180008068809380008091800017
:103C90008F7D8093800060E08AE00E942106109270
:103CA0008A006CEF83E00E94B9078091EB05909148
:103CB000EC05A091ED05B091EE05892B8A2B8B2B9D
:103CC00021F08091C40581110DC08091C90561E08A
:103CD000823009F460E088E00E94210661E08BE018
:103CE0000E9421068091EF059091F0050E94150435
:103CF0000E9414078091A601882371F08091B00181
:103D0000823051F48091A701823031F40E948E1CE0
:103D10000E94980B0E94980B61E08FE00E94D117DF
:103D20008091E90562E5811166E589ED96E00E94E2
:103D3000AB0484E0E1CECF93DF93282FCB016091D9
:103D4000650470916604C42FD0E0233079F02430EC
:103D500089F04091650450916604C40FD51FD0933B
:103D60006604C0936504DF91CF910895AE010E946F
:103D7000EF37EFCFAE010E94FF37EBCF4F925F924C
:103D80006F927F928F929F92AF92BF92CF92DF926B
:103D9000EF92FF920F931F93CF93DF93CDB7DEB7D0
:103DA000FB01642F823008F062C0908140902006B1
:103DB000042C000C550866087708490E511C611C3C
:103DC000711C4C145D046E047F0454F5C082A9017B
:103DD0007F01109220061092E2060E94FD17F70163
:103DE00001151105B1F5408150E070E060E02AE076
:103DF00089ED96E00E94B31A0E94980BDF91CF9153
:103E00001F910F91FF90EF90DF90CF90BF90AF90F8
:103E10009F908F907F906F905F904F900C94980B35
:103E20009081C09020060C2C000CDD08EE08FF08E5
:103E3000C90ED11CE11CF11C8C149D04AE04BF04FE
:103E400014F48082C4CF408190912006940F908317
:103E5000BECF808190E0880F991F080F191FF801CD
:103E60006081718189ED96E00E94611CC5CF41E0BF
:103E7000BF01DF91CF911F910F91FF90EF90DF90E5
:103E8000CF90BF90AF909F908F907F906F905F90FA
:103E90004F900C949B1E0F931F93CF93DF93EB01D6
:103EA000823008F056C0088119812A813B819091A7
:103EB0002006492F990F550B660B770B400F511FAA
:103EC000621F731F77FF1DC0188219821A821B821E
:103ED000109220061092E20650E040E060E00E945E
:103EE000FD17488159816A817B8189ED96E00E94A6
:103EF000FF1A0E94980BDF91CF911F910F910C94A4
:103F0000980B088119812A813B8190912006492FC5
:103F1000990F550B660B770B400F511F621F731FD4
:103F200014161506160617067CF2088119812A81D7
:103F30003B8190912006492F990F550B660B770B0B
:103F4000400F511F621F731F488359836A837B830D
:103F5000BFCF44E0DF91CF911F910F910C949B1E36
:103F60008F929F92AF92BF92CF92DF92EF92FF9289
:103F70000F931F93CF93DF93C82FD62F00E511E047
:103F80008DEF8C0F823088F41093660400936504E3
:103F9000BB24B394BD1648F46B2D85E00E94B01F7E
:103FA000B394F8CFDCE2C2E0EBCFDF3F61F4D1E0C5
:103FB0006D2F8C2F0E94B01FDF5FD233C9F7C23044
:103FC00009F425C4ACC0D23308F01BC4ED2FF0E0D7
:103FD000E451F04E0C94B63BF9231E207D209D2029
:103FE000AD20BE20CE20DD2043215221622172214E
:103FF00082219221A22101240124B121C021192270
:104000002922382247225622652275220124842241
:104010009422012401240124012401242C2341237E
:104020005223012401240124012401240124012418
:104030000124C623CC23CF23DD23EB23C23008F099
:1040400055C08091970140912006082E000C990BD5
:10405000AA0BBB0B042E000C550B660B770B840FC1
:10406000951FA61FB71F8F3F9F4FAF4FBF4F04F540
:104070008FEF80939701109220061092E20642E0A3
:1040800055E061E18C2F0E94FD178091970187FD1B
:1040900005C06BE289ED96E00E94AB046091970148
:1040A000062E000C770B89ED96E00E94311BB9C0FB
:1040B0008091970140912006082E000C990BAA0BC5
:1040C000BB0B042E000C550B660B770B840F951F52
:1040D000A61FB71F4197A105B10514F080E1C9CF14
:1040E0008091970190912006890FC3CF41E067E945
:1040F00071E08C2F0E949B1E12C0F4E08F2E912C39
:10410000A12CB12CC12CD12C760108E811E02DEFA7
:1041100034E042E160EB71E08C2F0E94BE1E8D2FD7
:10412000DF91CF911F910F91FF90EF90DF90CF9093
:10413000BF90AF909F908F900895E7E08E2E912CC6
:10414000A12CB12CC12CD12C760108E711E023EF72
:1041500034E043E16CEC75E0DFCF65E0862E912C16
:10416000A12CB12CC12CD12C7601C3940EE411E00A
:104170002EEE34E044E168E971E0CECF59E0852EBF
:10418000912CA12CB12CC12CD12C76010AE311E089
:1041900024EE34E045E163EA71E0BECF812C912C3E
:1041A00054018394C12CD12C760106E311E02BED50
:1041B00034E046E16AEE75E0AFCFC23008F05FC090
:1041C0008091EF059091F00540912006092E000C9A
:1041D000AA0BBB0B042E000C550B660B770B840F40
:1041E000951FA61FB71FB7FF21C01092F0051092B0
:1041F000EF05109220061092E20647ED54E067E1C9
:104200008C2F0E94FD17E091EF05F091F005EE0F65
:10421000FF1FEE5CFE4F6081718189ED96E00E9488
:10422000611C0E94980B0E94980B79CF8091EF053A
:104230009091F00540912006092E000CAA0BBB0BB3
:10424000042E000C550B660B770B840F951FA61FD1
:10425000B71F0297A105B1053CF081E090E0909373
:10426000F0058093EF05C5CF8091EF059091F005A3
:1042700020912006820F911D27FD9A95F0CF42E0F4
:104280006FEE75E036CF812C912C54018394C12CB4
:10429000D12C760102E311E023ED34E048E161E343
:1042A00071E03ACF98E0892E912CA12CB12CC12C31
:1042B000D12C760110E000E020ED34E049E16DEC16
:1042C00075E02ACF87E0882E912CA12CB12CC12C2F
:1042D000D12C760101E211E02CEC34E04AE169ECEA
:1042E00075E01ACF00E1802E912CA12CB12CC12CAD
:1042F000D12C760110E000E027EC34E04BE166E7DA
:1043000071E00ACF15E0812E912CA12CB12CC12C8B
:10431000D12C760105E111E02FEB34E04CE167E7A9
:1043200071E0FACEB4E08B2E912CA12CB12CC12CD3
:10433000D12C76010BE011E025EB34E04DE166EA8B
:1043400071E0EACE812C912C54018394C12CD12CA4
:10435000760102E311E02AEA34E041E268EA71E022
:10436000DBCE812C912C54018394C12CD12C76016D
:1043700002E311E021EA34E044E264EC75E0CCCEE3
:10438000C23008F052C08091950190919601409101
:104390002006092E000CAA0BBB0B042E000C550B9B
:1043A000660B770B840F951FA61FB71F18161906EB
:1043B0001A061B06ACF081E090E090939601809382
:1043C0009501109220061092E20645E954E065E25C
:1043D0008C2F0E94FD17609195017091960163CE1C
:1043E000809195019091960140912006092E000C34
:1043F000AA0BBB0B042E000C550B660B770B840F1E
:10440000951FA61FB71FCD97A105B1051CF08CE322
:1044100090E0D3CF80919501909196012091200654
:10442000820F911D27FD9A95C8CF42E065E971E0A2
:1044300060CEE2E08E2E912CA12CB12CC12CD12C7F
:10444000760105E011E02AE834E046E267EA71E02F
:1044500063CE812C912C54018394C12CD12C7601F4
:1044600002E311E02FE734E047E264E674E054CE63
:10447000812C912C54018394C12CD12C760102E320
:1044800011E026E734E048E263E674E045CE812C93
:10449000912C54018394C12CD12C760102E311E0BC
:1044A00022E734E041E369EE75E036CE812C912CB1
:1044B00054018A94C12CD12C760110E000E027E64B
:1044C00034E042E360E771E027CE38E0832E912CA0
:1044D000A12CB12CC12CD12C760110E000E02EE5EE
:1044E00034E043E366E671E017CE812C912C540151
:1044F0008A94C12CD12C760110E000E025E534E04F
:1045000044E365EC75E008CE9CE3892E912CA12C48
:10451000B12CC12CD12C760110E000E029E434E06C
:1045200041E463E971E0F8CDC43009F489C030F4A6
:10453000C23070F040E36CE875E0DBCDC630D1F7F7
:1045400080916204803318F48F5F80936204C1E02D
:104550008091E305833011F0109262048091E305AD
:10456000823019F483E08093E305E0916204F0E087
:10457000E457FA4F2081822F022E000C990B3091C4
:104580002006AC01430F511D37FD5A9540325105AD
:10459000C4F030912006AC01430F511D37FD5A95F0
:1045A000452B79F030912006830F911D37FD9A95A8
:1045B0008B3591050CF042C080912006280F208396
:1045C00002C080E28083109220064EE354E062E451
:1045D0008C2F0E94FD1710E000E0E0916204E69548
:1045E000E695E69588E0E89FF0011124E00FF11FC1
:1045F000E457FA4F6081662349F089ED96E00E9406
:10460000AB040F5F1F4F0D30110539F761E089EDE5
:1046100096E00E94AB040E94980B2091E3058091E4
:104620006204877091E0223008F490E061E0890F25
:104630000E94D11781E08093E20671CD8AE5C2CF56
:10464000ECEBF5E082918F7D09F074CF108295E05C
:10465000EC38F907B9F76ECF80906401882D81504E
:10466000990B4C01092C000CAA08BB08C12CD12CB9
:10467000760110E000E022E334E041E867E675E00F
:104680004BCDC0906705D12CF12CE12C812C912CC5
:1046900054018A9410E000E026E234E042E864E647
:1046A00071E03ACDC23008F06DC08091D306909190
:1046B000D406A091D506B091D60640912006042ECE
:1046C000000C550B660B770B840F951FA61FB71FA9
:1046D00080389F49A54DB10524F580E89FE9A5EDF7
:1046E000B0E08093D3069093D406A093D506B09300
:1046F000D606109220061092E2064DE154E063E8DF
:104700008C2F0E94FD174091D3065091D4066091E2
:10471000D5067091D6062AE089ED96E00E94B31A7C
:1047200080CD8091D3069091D406A091D506B0910A
:10473000D60640912006042E000C550B660B770B15
:10474000840F951FA61FB71F81309F43AB4AB1400E
:104750002CF080E09FE3ABEAB1E0C3CF8091D306B9
:104760009091D406A091D506B091D606409120062E
:10477000042E000C550B660B770B840F951FA61F9C
:10478000B71FAFCF44E063ED76E0B3CC69E971E0E9
:104790008C2F0E944B1FC3CC6DE971E0F9CF812CA7
:1047A000912C5401C12CD12C760110E000E030E0B6
:1047B00020E040E06EEA71E0AFCC812C912C5401F6
:1047C000C12CD12C760110E000E030E020E040E088
:1047D0006FEA71E0A1CC812C912C5401C12CD12C19
:1047E000760110E000E030E020E040E06CE675E0AB
:1047F00093CC1092E3050E948E1C81E08093AD0162
:104800008ECCC23009F08BCCDC3209F488CC80919C
:1048100020062FEF3FEF181614F421E030E08D2F23
:1048200090E0280F391F2D32310514F42091200615
:1048300020912006121674F02FEF3FEF820F931F86
:104840008D970CF0AFCB80912006181634F08FEFC7
:10485000D80FA9CB21E030E0F1CF81E0F9CF1F9252
:104860000F920FB60F9211242F933F934F935F93A4
:104870006F937F938F939F93AF93BF93EF93FF9328
:1048800083E296E00E944005FF91EF91BF91AF91C6
:104890009F918F917F916F915F914F913F912F9158
:1048A0000F900FBE0F901F9018951F920F920FB68A
:1048B0000F9211242F938F939F93EF93FF93E09187
:1048C0003306F09134068081E0913906F0913A0682
:1048D00082FD1BC0908180913C068F5F8F73209179
:1048E0003D06821741F0E0913C06F0E0ED5DF94FA6
:1048F000958F80933C06FF91EF919F918F912F911F
:104900000F900FBE0F901F9018958081F4CF1F92CB
:104910000F920FB60F9211242F933F938F939F9373
:10492000AF93BF938091180690911906A0911A0633
:10493000B0911B063091170623E0230F2D3758F551
:104940000196A11DB11D2093170680931806909320
:104950001906A0931A06B0931B0680911C0690912D
:104960001D06A0911E06B0911F060196A11DB11D46
:1049700080931C0690931D06A0931E06B0931F06FD
:10498000BF91AF919F918F913F912F910F900FBE4B
:104990000F901F90189526E8230F0296A11DB11DB8
:1049A000D2CF1F920F920FB60F9211242F933F93E5
:1049B0004F935F936F937F938F939F93AF93BF9327
:1049C000EF93FF93E0916905F0916A050995FF91D6
:1049D000EF91BF91AF919F918F917F916F915F9177
:1049E0004F913F912F910F900FBE0F901F901895F0
:1049F0001F920F920FB60F9211240F931F932F93B4
:104A00003F934F935F936F937F938F939F93AF9356
:104A1000BF93CF93DF93EF93FF93C091680580E13D
:104A2000C89FE001112487E00E94F8058C0186E010
:104A30000E94F805000F111F8C2B802B80936805B6
:104A40008332B9F08233D9F0FF91EF91DF91CF91AA
:104A5000BF91AF919F918F917F916F915F914F9196
:104A60003F912F911F910F910F900FBE0F901F90AC
:104A70001895809120068F5F80932006E5CF809166
:104A800020068150F9CFE3E2F6E01382128288EE2D
:104A900093E0A0E0B0E084839583A683B7838CE2A3
:104AA00092E09183808385EC90E09587848784EC05
:104AB00090E09787868780EC90E0918B808B81ECEB
:104AC00090E0938B828B82EC90E0958B848B86ECCC
:104AD00090E0978B868B118E128E138E148EE9EDDB
:104AE000F6E0138212821482158280EB868317828D
:104AF0001086118682E082878EE392E09183808324
:104B000088B18F7C88B93D9800000000000000004B
:104B10003C983C9A80EC9CEFABE9B1E08093D306E3
:104B20009093D406A093D506B093D6060895CF935C
:104B3000DF93CDB7DEB76B970FB6F894DEBF0FBE2D
:104B4000CDBF789484B5826084BD84B5816084BD16
:104B500085B5826085BD85B5816085BD80916E001B
:104B6000816080936E0060E08AE00E9421060E94CE
:104B7000660A14BE88E198E20FB6F894A89580936F
:104B800060000FBE9093600080E480937C001092E0
:104B9000680010926B0010926C0010926D0062E041
:104BA00086E00E944F0662E087E00E944F068091F7
:104BB0006D00806C80936D008091680084608093AC
:104BC000680087E00E94F8057C0186E00E94F805F5
:104BD000EE0CFF1CE82AE0926805789460E08BE018
:104BE0000E94210661E088E00E94210660E08AE0E0
:104BF0000E94210660E089E00E94210661E089E0D0
:104C00000E944F0661E08BE00E944F0661E088E061
:104C10000E944F0661E08AE00E944F0660E081E159
:104C20000E944F0662E08DE00E944F0662E08CE039
:104C30000E944F0660E08EE00E94210660E08FE057
:104C40000E94210660E08EE00E944F0660E08FE047
:104C50000E944F0661E08BE00E94210661E08BE03C
:104C60000E944F0662E084E00E944F0661E085E00A
:104C70000E944F0664E670E080E090E00E94C20669
:104C80000E94020B88E70E94700380E00E9470037C
:104C9000F3E2EF2EF5E0FF2EF70184910E947003FE
:104CA000FFEFEF1AFF0A2CE3E21625E0F206A1F768
:104CB0000E94FC0A8BE891E00197F1F7F12CE12CBE
:104CC0006F2D8E2D0E94D11760E289ED96E00E9433
:104CD000DF19E39430E1E312F3CFF39484E0F812A8
:104CE000EECF0E948E1C60E087E00E94D11761E643
:104CF00075E089ED96E00E94B2046BE575E089ED00
:104D000096E00E94B2040E94980B83E480938C0585
:104D100081E580938D0580E280938E0598E0E8E63A
:104D2000F1E0AFE8B5E001900D929A95E1F780933C
:104D300097058BE2809398051092990564EF71E0D6
:104D400080E090E00E94C206A895F0926601E09192
:104D5000650194E0E99FF0011124E853FE4F808142
:104D60009181A281B3818093BC059093BD05A093EE
:104D7000BE05B093BF0561E383E00E94B01F809140
:104D80006C05823009F44DC182E080936C056FEFB1
:104D900084E00E94B01F61E080E00E94D1176AE4C5
:104DA00075E089ED96E00E94B20464EF71E080E066
:104DB00090E00E94C206A8951092D8061092D706DD
:104DC000FF24F394F092AD018091980180939401B7
:104DD0001092E9051092CD051092F0051092EF05A2
:104DE0008091EA05082F017010E0000F111F000FDD
:104DF000111FF801E756FE4F80819181A281B38196
:104E00008093A9019093AA01A093AB01B093AC0148
:104E10008091EA0580FBCC24C0F8D12CF601E25544
:104E2000FE4F80818093B0010E94370B0E948E1C40
:104E3000F092CB0510926B058DE29EE090936A058F
:104E40008093690524E63EED45E050E061E082E0B4
:104E50000E949E0B80917C008093C8058091C905BB
:104E600061E0813009F460E029E937E741E050E092
:104E700080E00E949E0B80917C008093C60580910B
:104E8000C90561E0813009F460E029E937E741E0D4
:104E900050E081E00E949E0B80917C008093C705CA
:104EA000109280001092810080918000826A80932D
:104EB0008000809181008961809381001092870039
:104EC0008FEF8093860010928900109288001092D4
:104ED0008B0010928A008091B6008F7D8093B6007F
:104EE0001092B0001092B1001092B2008091B00008
:104EF00082608093B0008091B10084608093B100A3
:104F00008091700082608093700084E08093B30091
:104F1000809180008F7D8093800060E08AE00E9415
:104F20002106E0913306F091340682E08083E0911F
:104F30002F06F09130061082E0913106F091320692
:104F400080E4808310923B06E0913706F0913806AA
:104F500086E08083E0913506F0913606808180619D
:104F60008083E0913506F0913606808188608083E9
:104F7000E0913506F0913606808180688083E0916B
:104F80003506F091360680818F7D80830E94691CF2
:104F900083E296E00E94AF058091C100877F8093F5
:104FA000C10060E081E00E9421061092E20580E1EC
:104FB0008093E10560919501709196018CED95E0EB
:104FC0000E94613BCB01770FAA0BBB0B8093D905E5
:104FD0009093DA05A093DB05B093DC058DE00E9489
:104FE000F805892B49F561E080E00E94D11761E264
:104FF00089ED96E00E94AB0461E289ED96E00E94A3
:10500000AB046CE375E089ED96E00E94B2040E9467
:10501000980B6CED75E080E090E00E94C206A895C8
:10502000DDCF81E10E94F805892B09F0ADCE6FEF4D
:1050300083E00E94B01FC0CE8091B001823049F45D
:105040008091A701823029F08CE00E94F805892B1D
:1050500051F28091E905882391F18091B001882374
:1050600021F08091B001813051F58091E8058111E6
:1050700056C28091E70591E0980F9093E705803143
:1050800009F014C28091E5059091E60564E09695DB
:1050900087956A95E1F7805E91400E949A1510927B
:1050A000E7051092E6051092E5058091E405882356
:1050B00031F081E08093E8058FEF0E94E61C80913B
:1050C000B001823009F07CC08091A801882309F4E6
:1050D00077C08091E405811173C08091EB059091B8
:1050E000EC05A091ED05B091EE05892B8A2B8B2B59
:1050F00009F066C08090740590907505A0907605C3
:10510000B0907705C0907101D0907201E09073016A
:10511000F0907401C501B4016C197D098E099F09D5
:1051200020E031E040E050E00E94973BC20ED31EE9
:10513000E41EF51EC0927101D0927201E0927301DB
:10514000F0927401C701B60122E030E040E050E087
:105150000E94973B11E0281539054A055B050CF0C4
:1051600010E01093730580917205181751F00E949A
:10517000F50660936E0570936F05809370059093AC
:1051800071050E94F50680906E0590906F05A090C5
:105190007005B0907105681979098A099B09613118
:1051A00071058105910508F4C9C180916D05181339
:1051B00010936D050E94931880917305809372057A
:1051C0008091E30581111BC080912106882309F499
:1051D000CAC11092E2061092210663E080E00E94AC
:1051E000D11781E08093E30661EB71E089ED96E0F1
:1051F0000E94611C82E08093E3060E946718809100
:10520000B0018230D9F48091F1058823B9F084E0AF
:105210000E94F805892B91F481E00E94E61CA89574
:105220006AE070E080E090E00E94C20684E00E94A4
:10523000F805892BA1F380E00E94E61C1091B001D3
:10524000123029F48091A701823009F0CCC28091FC
:10525000E8058111D5C28DE00E94F805892B09F07F
:10526000CFC21092DD051092DE051092DF0510927C
:10527000E00581E00E94E61C4AE0242EA89580917A
:10528000B001823009F00DC46AE070E080E090E087
:105290000E94C2068091A601882309F4F8C080917B
:1052A000B001823009F0F3C00E94F5060091D105EB
:1052B0001091D2052091D3053091D4056017710764
:1052C0008207930708F4E3C037E0C32ED12C10E027
:1052D00000E0F12CE12C85E10E948B06E80EF91E1E
:1052E00084E10E948B06080F191F65E070E080E0E2
:1052F00090E00E94C206E1E0CE1AD10861F7B70142
:1053000090E080E00E94313927E636E64EEA5BE322
:105310000E94983A6B017C01B80190E080E00E9405
:10532000313927E636E64EEA5BE30E94983A2B01D4
:105330003C0120E030E040E251E4C701B6010E94A8
:1053400089389B01AC010E94983A6E837F838887DD
:105350009987A3019201C701B6010E9418384B0139
:105360005C01A3019201C701B6010E9417389B019D
:10537000AC01C501B4010E9489386B017C012AE0AF
:1053800037ED4FE151E40E943B3A181654F020E00B
:1053900030E040E85FE3C701B6010E94843887FF30
:1053A00008C02AE0C22E27EDD22E2FE1E22E21E402
:1053B000F22E82E00E94D90A8C012091880530915A
:1053C000890540918A0550918B056E817F81888582
:1053D00099850E94843881110EC0A70196016091C1
:1053E00084057091850580918605909187050E94BE
:1053F00084388823F1F1C80168EC70E00E94613BB9
:10540000362E1092E20660E080E00E94D11720E084
:1054100030E048EC52E46E817F81888599850E9456
:10542000983A0E946E3920E030E048EC52E40E9445
:1054300089384B015C018091A601823009F488C350
:1054400008F034C3813009F460C38E819F81A88540
:10545000B9858093880590938905A0938A05B093B8
:105460008B05C0928405D0928505E0928605F09266
:1054700087050E94F5066C507E4F8F4F9F4F6093BB
:10548000D1057093D2058093D3059093D40581E123
:105490000E94F805892B31F48DE00E94F805892BD4
:1054A00009F4ECCE80E00E94E61CAAC1F89483E8DF
:1054B00080937A0080917001803220F060E088E073
:1054C0000E94210690917C0080917A0084FFFCCF9D
:1054D0008091C80580937C0080917A0080648093DD
:1054E0007A0080917A0084FFFCCF90937C008091B9
:1054F0007001803220F061E088E00E942106209156
:1055000078003091790078948091E5059091E605D6
:10551000820F931F9093E6058093E505C6CD809199
:10552000E4058111CCCD0E94E61C1092E80560E2F2
:1055300070E080E090E00E94C206C1CDC701B601D4
:1055400024E630E040E050E00E94973BC20ED31EBC
:10555000E41EF51EC0927101D0927201E0927301B7
:10556000F092740127CE8091EB059091EC05A0910B
:10557000ED05B091EE05892B8A2B8B2B09F03FCEE0
:105580008091E80581113BCE4091800550918105C5
:10559000609182057091830580917C0590917D05D5
:1055A000A0917E05B0917F0584179507A607B707E0
:1055B00008F4FEC0C0907C05D0907D05E0907E058B
:1055C000F0907F05C0927C05D0927D05E0927E052B
:1055D000F0927F0510917701112309F410CE80918C
:1055E0007A0590917B05019690937B0580937A05CF
:1055F0009770892B09F003CE8091760161E070E00D
:1056000002C0660F771F8A95E2F7072E000C880B01
:10561000990B0E9433394B015C01C701B6010E940E
:1056200031399B01AC01C501B4010E94983A21EDCA
:1056300035E443EE5FE40E9489389B01AC010E948F
:10564000983A20E030E048E452E40E9489380E9411
:10565000403A20E030E040E251E40E94983A20E0F5
:1056600030E040EF51E40E9418380E94FB386B0193
:1056700070937905609378051092E206113079F401
:1056800060E089E00E94D117B60189ED96E00E94A2
:10569000311B64E675E089ED96E00E94B2048091CA
:1056A0007701823021F58091780590917905813CD0
:1056B000AFEF9A070CF085C081589F4F66E070E00D
:1056C0000E94613B162F60E08EE00E94D1171A30D5
:1056D00028F463E589ED96E00E94AB04412F50E089
:1056E00070E060E02AE089ED96E00E94B31A8091B4
:1056F0007701833051F58091780590917905813C4F
:10570000BFEF9B070CF066C081589F4F66E070E0CA
:105710000E94613BFE01319694EF960F8F0182E06B
:1057200016162CF481E0860F65300CF085E081932D
:1057300063509613F4CF1D8260E08CE00E94D11775
:10574000B80189ED96E00E94611C80917701843058
:10575000C1F460E08EE00E94D1178091B0018230E8
:1057600051F44091750150E070E060E02AE089ED6D
:1057700096E00E94B31A68E672E089ED96E00E9416
:10578000611C0E94671880917C0590917D05A09115
:105790007E05B0917F05B695A795979587958093DF
:1057A0007C0590937D05A0937E05B0937F0527CD62
:1057B000C0908005D0908105E0908205F09083052F
:1057C00001CF875B1AE0612F0E94413B819F102D22
:1057D000112479CF875B2AE0622F0E94413B829F90
:1057E000602D112497CF8091E205823009F4E5C045
:1057F00008F089C0882309F4AAC0813009F4C4C024
:10580000C090EB05D090EC05E090ED05F090EE0532
:10581000C114D104E104F10451F00E94F506C6164A
:10582000D706E806F90618F480E00E94E61C81E13C
:105830000E94F805892B09F411C58091D00582FDDD
:1058400005C08091D005857009F40BC28091D00508
:10585000807F90912006992309F482C29CE0892BD5
:105860008093D0058091D005823209F41CC408F0E1
:105870009FC2863108F076C2843108F04FC381316F
:1058800009F452C38091E305811107C09091CA05C4
:105890008091E305981709F4EDC5109120068091D9
:1058A000E305813009F0E1C4112309F4E0C49091CB
:1058B00020068091CF05890F8093CF058091CF0579
:1058C0008C322CF48091CF0518160CF0CAC480914C
:1058D000CF058C320CF0C7C48091CF058093CF05E3
:1058E0006091CF0582E00E94B01F8093CF05109297
:1058F00020068091E30560E081116091CF0581E091
:105900000E94B01FBAC4843009F492C008F46EC07B
:10591000853009F075CF0E94811A0E94F506C0906B
:10592000D505D090D605E090D705F090D805C616DD
:10593000D706E806F90608F063CF8091E10582FFFB
:10594000AAC08A7F8093E1051093E20559CF8CE0CD
:105950000E94F805892B71F41092DD051092DE0586
:105960001092DF051092E0050E94811A81E0809379
:10597000E20546CF8DE00E94F805892B69F38091FE
:10598000E105837049F73CCF8091E10580FFDCCFD2
:1059900084608093E1058091D9059091DA05A0910A
:1059A000DB05B091DC058093D5059093D605A093D7
:1059B000D705B093D80583E0DACF8091E10581FF68
:1059C0006DC02091D9053091DA054091DB055091E9
:1059D000DC05A3E0B0E00E94DA3B6093D50570934C
:1059E000D6058093D7059093D805E5CF81E00E9436
:1059F000E61C0E94F5060091D5051091D605209170
:105A0000D7053091D805DC01CB01800F911FA21F73
:105A1000B31F8093D5059093D605A093D705B09377
:105A2000D8058091E1058C7F8093E10584E09FCFCC
:105A30000E94F5060091D5051091D6052091D70555
:105A40003091D8050617170728073907E8F480E0D2
:105A50000E94E61C0E94F5060091D9051091DA0516
:105A60002091DB053091DC05DC01CB01800F911F1B
:105A7000A21FB31F8093D5059093D605A093D70599
:105A8000B093D80585E073CF8091E10584FFB8CE4F
:105A90000E94811AB5CE8D7F8093E1051092E205B8
:105AA000AFCE64E670E080E090E0F2CB833009F4A2
:105AB00082C0843009F0C9CC6CE572E089ED96E0D3
:105AC0000E94611CC501B4010E948C1B69E675E04F
:105AD00089ED96E00E94B204832D622D0E94413B25
